:020000040000FA
:0600000049EF33F012008D
:020006001200E6
:0600080071EF29F0120067
:02000E001200DE
:020010001200DC
:06001800F7EF28F01200D2
:02001E000500DB
:100020009D420000830100000100000043670000C2
:10003000DD000000110000003C67000075010000B9
:1000400007000000346700006D0100000800000098
:0C00500029670000500100000B000000B8
:04005C00D9CFE6FF13
:10006000E1CFD9FFFD0EDBCFE9FFFE0EDBCFEAFFCC
:10007000EFCF14F0750E01017825E96E010E79219C
:10008000EA6EEF50145C11E1782B000E7923020E1A
:10009000781901E1795105E1020EF36EF46A0AD094
:1000A00009D0010EF36EF46A05D0786B796BF36AB0
:1000B000F46A00D0E552E7CFD9FF1200D9CFE6FFAE
:1000C000E1CFD9FFFD0EDBCFE9FFFE0EDBCFEAFF6C
:1000D000EE50ED100EE1960ED56EF28AF294F19488
:1000E000FD0EDBCFE9FFFE0EDBCFEAFF010EEE6E69
:1000F000ED6A0101565157110FE0566B576BFD0E1B
:10010000DBCFE9FFFE0EDBCFEAFFEE6AED6A010E00
:10011000F36EF46A04D003D0F36AF46A00D0E552B7
:10012000E7CFD9FF1200D9CFE6FFE1CFD9FFFB0E11
:10013000DBCFE9FFFC0EDBCFEAFFEE50ED1001E074
:10014000C5D1FD0EDBCFE9FFFE0EDBCFEAFFEF509E
:10015000030A01E121D1010A01E1C5D0030A61E0EE
:10016000010A01E072D1F90EDBCFE9FFFA0EDBCF15
:10017000EAFFEECF08F0EDCF09F0010E081801E11B
:10018000095026E0085001E1095001E049D07A0EFB
:10019000E66E010EE66E92DFE552E552F3CF14F003
:1001A000F4CF15F01450151012E0F90EDBCFE9FF73
:1001B000FA0EDBCFEAFF010EEE6EED6AF30EDBCF37
:1001C000E9FFF40EDBCFEAFF010EEE6EED6A28D0F8
:1001D0007A0EE66E010EE66E71DFE552E552F3CF60
:1001E00014F0F4CF15F01450151019E0FD0EDBCF0C
:1001F000E9FFFE0EDBCFEAFF010EEF6EF90EDBCF5B
:10020000E9FFFA0EDBCFEAFFEE6AED6AF30EDBCF11
:10021000E9FFF40EDBCFEAFF010EEE6EED6A00D0CF
:1002200014D1F90EDBCFE9FFFA0EDBCFEAFFEECFF8
:1002300008F0EDCF09F0010E081801E1095026E0A1
:10024000085001E1095001E04DD07A0EE66E010E32
:10025000E66E34DFE552E552F3CF14F0F4CF15F03B
:100260001450151012E0F90EDBCFE9FFFA0EDBCFC8
:10027000EAFF010EEE6EED6AF30EDBCFE9FFF40E3E
:10028000DBCFEAFF010EEE6EED6A2CD0F30EDBCF72
:10029000E9FFF40EDBCFEAFF010EEE6EED6AF50E1C
:1002A000DBCFE9FFF60EDBCFEAFFEF50410819E1A3
:1002B000FB0EDBCFE9FFFC0EDBCFEAFF010EEE6E9B
:1002C000ED6AF90EDBCFE9FFFA0EDBCFEAFFEE6A4B
:1002D000ED6AF70EDBCFE9FFF80EDBCFEAFFEE6A3F
:1002E000ED6A00D0B2D0F90EDBCFE9FFFA0EDBCF1A
:1002F000EAFFEECF08F0EDCF09F0010E081801E19A
:10030000095026E0085001E1095001E044D07A0E7E
:10031000E66E010EE66ED2DEE552E552F3CF14F042
:10032000F4CF15F01450151012E0F90EDBCFE9FFF1
:10033000FA0EDBCFEAFF010EEE6EED6AF30EDBCFB5
:10034000E9FFF40EDBCFEAFF010EEE6EED6A23D07B
:10035000F50EDBCFE9FFF60EDBCFEAFFEF504108E9
:1003600019E1FB0EDBCFE9FFFC0EDBCFEAFF010E4C
:10037000EE6EED6AF90EDBCFE9FFFA0EDBCFEAFF96
:10038000EE6AED6AF70EDBCFE9FFF80EDBCFEAFF8E
:10039000EE6AED6A00D059D0F90EDBCFE9FFFA0E14
:1003A000DBCFEAFFEECF08F0EDCF09F0010E081821
:1003B00001E1095026E0085001E1095001E044D074
:1003C0007A0EE66E010EE66E79DEE552E552F3CF67
:1003D00014F0F4CF15F01450151012E0F90EDBCF25
:1003E000E9FFFA0EDBCFEAFF010EEE6EED6AF30EC7
:1003F000DBCFE9FFF40EDBCFEAFF010EEE6EED6A14
:1004000023D0F50EDBCFE9FFF60EDBCFEAFFEF508E
:10041000410819E1FB0EDBCFE9FFFC0EDBCFEAFF61
:10042000010EEE6EED6AF90EDBCFE9FFFA0EDBCFBF
:10043000EAFFEE6AED6AF70EDBCFE9FFF80EDBCFDD
:10044000EAFFEE6AED6A00D000D0F50EDBCFE9FFDF
:10045000F60EDBCFEAFFEF50410809E0F50EDBCFE7
:10046000E9FFF60EDBCFEAFFEF5042081BE1FD0E7D
:10047000DBCFE9FFFE0EDBCFEAFFEE52EF6AF50EAF
:10048000DBCFE9FFF60EDBCFEAFFEF50410809E1D1
:10049000F30EDBCFE9FFF40EDBCFEAFF010EEE6EC9
:1004A000ED6A12D0F50EDBCFE9FFF60EDBCFEAFFE7
:1004B000EF50E66EFD0EDBCFE9FFFE0EDBCFEAFF6D
:1004C000EE52E552E750EF6E97EF0AF0FB0EDBCFEE
:1004D000E9FFFC0EDBCFEAFF010EEE1801E1ED5063
:1004E00002E097EF0AF0FD0EDBCFE9FFFE0EDBCF57
:1004F000EAFFEF50030A01E13BD3010A01E112D206
:10050000030A02E059EF0AF0F90EDBCFE9FFFA0E19
:10051000DBCFEAFFEECF08F0EDCF09F0020E0818AE
:1005200001E1095001E100D1010E081801E1095073
:1005300026E0085001E1095001E0F2D17A0EE66EA2
:10054000010EE66EBBDDE552E552F3CF14F0F4CFB9
:1005500015F01450151012E0F90EDBCFE9FFFA0E7A
:10056000DBCFEAFF010EEE6EED6AF30EDBCFE9FFA3
:10057000F40EDBCFEAFF010EEE6EED6AD1D1F50E7F
:10058000DBCFE9FFF60EDBCFEAFFEF50410844E195
:10059000F70EDBCFE9FFF80EDBCFEAFF030EEE1814
:1005A00001E1ED500AE0F90EDBCFE9FFFA0EDBCFF7
:1005B000EAFF020EEE6EED6A2ED0F70EDBCFE9FFFA
:1005C000F80EDBCFEAFF030EEE1801E1ED5023E158
:1005D000FD0EDBCFE9FFFE0EDBCFEAFF020EEF6E72
:1005E000F90EDBCFE9FFFA0EDBCFEAFFEE6AED6A28
:1005F000F70EDBCFE9FFF80EDBCFEAFFEE6AED6A1C
:10060000FD0EDBCFE9FFFE0EDBCFEAFF0C0EE92685
:10061000000EEA22EF6A87D0F50EDBCFE9FFF60E77
:10062000DBCFEAFFEF50420819E1FB0EDBCFE9FF19
:10063000FC0EDBCFEAFFEE6AED6AF90EDBCFE9FFD5
:10064000FA0EDBCFEAFFEE6AED6AF70EDBCFE9FFC9
:10065000F80EDBCFEAFFEE6AED6A65D0F50EDBCF70
:10066000E9FFF60EDBCFEAFFEF50550829E1F70E60
:10067000DBCFE9FFF80EDBCFEAFFEECF14F0EFCFD0
:1006800015F0153404E214500008000E155417E25A
:10069000F70EDBCFE9FFF80EDBCFEAFFEECF14F069
:1006A000EFCF15F01406000E155AF70EDBCFE9FF59
:1006B000F80EDBCFEAFF14C0EEFF15C0EDFF33D01C
:1006C000F50EDBCFE9FFF60EDBCFEAFFEF50440873
:1006D0002AE1F70EDBCFE9FFF80EDBCFEAFFEECF22
:1006E00014F0EFCF15F0D890155004E6040E145C0A
:1006F000000E155818E2F70EDBCFE9FFF80EDBCF3E
:10070000EAFFEECF14F0EFCF15F0010E1426000E25
:100710001522F70EDBCFE9FFF80EDBCFEAFF14C09E
:10072000EEFF15C0EDFFFCD0F70EDBCFE9FFF80EB2
:10073000DBCFEAFFEECF08F0EDCF09F0040E08188A
:1007400001E1095001E1A3D0020E081801E10950AE
:1007500047E0010E081801E1095024E0085001E1CA
:10076000095001E0DCD0FD0EDBCFE9FFFE0EDBCF50
:10077000EAFF0B0EE926000EEA22010EEF6EF90EDB
:10078000DBCFE9FFFA0EDBCFEAFF010EEE6EED6A7A
:10079000F30EDBCFE9FFF40EDBCFEAFF010EEE6EC6
:1007A000ED6ABDD0FD0EDBCFE9FFFE0EDBCFEAFF29
:1007B0000B0EE926000EEA22EF6AF90EDBCFE9FF05
:1007C000FA0EDBCFEAFF010EEE6EED6AF30EDBCF21
:1007D000E9FFF40EDBCFEAFF010EEE6EED6A9FD06B
:1007E000F50EDBCFE9FFF60EDBCFEAFFEF504C084A
:1007F00019E1FD0EDBCFE9FFFE0EDBCFEAFF020EB3
:10080000E926000EEA22EF04E66EFD0EDBCFE9FFDB
:10081000FE0EDBCFEAFF020EE926000EEA22E552C9
:10082000E750EF6EF50EDBCFE9FFF60EDBCFEAFF08
:10083000EF50520819E1FD0EDBCFE9FFFE0EDBCFD2
:10084000EAFF020EE926000EEA22EF28E66EFD0E10
:10085000DBCFE9FFFE0EDBCFEAFF020EE926000E3A
:10086000EA22E552E750EF6EF50EDBCFE9FFF60E18
:10087000DBCFEAFFEF50420809E1F90EDBCFE9FFD9
:10088000FA0EDBCFEAFF010EEE6EED6A48D0F50EF0
:10089000DBCFE9FFF60EDBCFEAFFEF503FE0F50ECE
:1008A000DBCFE6FFF60EDBCFE6FF2EEC00F0E552E5
:1008B000E552F3CF7FF1F4CF80F101017F51801138
:1008C0000AE1F90EDBCFE9FFFA0EDBCFEAFF010EFA
:1008D000EE6EED6A23D0010E7F1901E1805101E136
:1008E0001DD0020E7F1901E1805118E1FD0EDBCF12
:1008F000E9FFFE0EDBCFEAFF030EEF6EF90EDBCF52
:10090000E9FFFA0EDBCFEAFFEE6AED6AF70EDBCF06
:10091000E9FFF80EDBCFEAFFEE6AED6A00D000D007
:1009200059EF0AF0F90EDBCFE9FFFA0EDBCFEAFF51
:10093000EECF08F0EDCF09F0020E081801E10950E2
:1009400001E1F5D0010E081801E1095027E0085037
:1009500001E1095001E00AD17A0EE66E010EE66E61
:100960005EEC00F0E552E552F3CF14F0F4CF15F051
:100970001450151012E0F90EDBCFE9FFFA0EDBCFB1
:10098000EAFF010EEE6EED6AF30EDBCFE9FFF40E27
:10099000DBCFEAFF010EEE6EED6AE8D0F50EDBCF9D
:1009A000E9FFF60EDBCFEAFFEF50410838E1F70E22
:1009B000DBCFE9FFF80EDBCFEAFFEECF08F0EDCF9B
:1009C00009F0010E081801E109500FE0085001E19B
:1009D000095001E023D0F90EDBCFE9FFFA0EDBCF9F
:1009E000EAFF020EEE6EED6A19D0FD0EDBCFE9FFD5
:1009F000FE0EDBCFEAFF010EEF6EF70EDBCFE9FF55
:100A0000F80EDBCFEAFFEE6AED6AF90EDBCFE9FF05
:100A1000FA0EDBCFEAFFEE6AED6A00D087D0F50E62
:100A2000DBCFE9FFF60EDBCFEAFFEF50420819E11A
:100A3000FB0EDBCFE9FFFC0EDBCFEAFFEE6AED6ACF
:100A4000F90EDBCFE9FFFA0EDBCFEAFFEE6AED6AC3
:100A5000F70EDBCFE9FFF80EDBCFEAFFEE6AED6AB7
:100A600065D0F50EDBCFE9FFF60EDBCFEAFFEF50E6
:100A7000550829E1F70EDBCFE9FFF80EDBCFEAFFDF
:100A8000EECF14F0EFCF15F0153404E21450000847
:100A9000000E155417E2F70EDBCFE9FFF80EDBCF9F
:100AA000EAFFEECF14F0EFCF15F01406000E155A42
:100AB000F70EDBCFE9FFF80EDBCFEAFF14C0EEFF45
:100AC00015C0EDFF33D0F50EDBCFE9FFF60EDBCF1F
:100AD000EAFFEF5044082AE1F70EDBCFE9FFF80EFA
:100AE000DBCFEAFFEECF14F0EFCF15F0D890155022
:100AF00004E6010E145C000E155818E2F70EDBCF69
:100B0000E9FFF80EDBCFEAFFEECF14F0EFCF15F0E0
:100B1000010E1426000E1522F70EDBCFE9FFF80EAA
:100B2000DBCFEAFF14C0EEFF15C0EDFF1FD0FD0EB6
:100B3000DBCFE9FFFE0EDBCFEAFF0C0EE926000E4D
:100B4000EA22010EEF6EF90EDBCFE9FFFA0EDBCFE2
:100B5000EAFF010EEE6EED6AF30EDBCFE9FFF40E55
:100B6000DBCFEAFF010EEE6EED6A00D059EF0AF01E
:100B7000F90EDBCFE9FFFA0EDBCFEAFFEECF08F08C
:100B8000EDCF09F0030E081801E1095001E1F1D29F
:100B9000020E081801E1095001E1F8D0010E081811
:100BA00001E1095029E0085001E1095002E058EF45
:100BB0000AF07A0EE66E010EE66E5EEC00F0E5528B
:100BC000E552F3CF14F0F4CF15F01450151012E0E5
:100BD000F90EDBCFE9FFFA0EDBCFEAFF010EEE6E76
:100BE000ED6AF30EDBCFE9FFF40EDBCFEAFF010E77
:100BF000EE6EED6A58EF0AF0F50EDBCFE9FFF60E68
:100C0000DBCFEAFFEF50410839E1F70EDBCFE9FF18
:100C1000F80EDBCFEAFF060EEE1801E1ED500AE018
:100C2000F90EDBCFE9FFFA0EDBCFEAFF020EEE6E24
:100C3000ED6A23D0F70EDBCFE9FFF80EDBCFEAFF3A
:100C4000060EEE1801E1ED5018E1FD0EDBCFE9FFD5
:100C5000FE0EDBCFEAFF010EEF6EF90EDBCFE9FFF0
:100C6000FA0EDBCFEAFFEE6AED6AF70EDBCFE9FFA3
:100C7000F80EDBCFEAFFEE6AED6A87D0F50EDBCF28
:100C8000E9FFF60EDBCFEAFFEF50420819E1FB0E59
:100C9000DBCFE9FFFC0EDBCFEAFFEE6AED6AF90E6F
:100CA000DBCFE9FFFA0EDBCFEAFFEE6AED6AF70E63
:100CB000DBCFE9FFF80EDBCFEAFFEE6AED6A65D025
:100CC000F50EDBCFE9FFF60EDBCFEAFFEF5055085C
:100CD00029E1F70EDBCFE9FFF80EDBCFEAFFEECF1D
:100CE00014F0EFCF15F0153404E214500008000E94
:100CF000155417E2F70EDBCFE9FFF80EDBCFEAFF62
:100D0000EECF14F0EFCF15F01406000E155AF70EC3
:100D1000DBCFE9FFF80EDBCFEAFF14C0EEFF15C012
:100D2000EDFF33D0F50EDBCFE9FFF60EDBCFEAFFA8
:100D3000EF5044082AE1F70EDBCFE9FFF80EDBCFD6
:100D4000EAFFEECF14F0EFCF15F0D890155004E67F
:100D5000060E145C000E155818E2F70EDBCFE9FF03
:100D6000F80EDBCFEAFFEECF14F0EFCF15F0010E57
:100D70001426000E1522F70EDBCFE9FFF80EDBCFAD
:100D8000EAFF14C0EEFF15C0EDFF92D3F70EDBCFE4
:100D9000E9FFF80EDBCFEAFFEECF08F0EDCF09F068
:100DA000050E081801E1095001E189D1040E081867
:100DB00001E1095001E12AD1030E081801E10950AF
:100DC00001E1CBD0020E081801E109506DE0010EDF
:100DD000081801E109500FE0085001E1095001E055
:100DE000C7D1F90EDBCFE9FFFA0EDBCFEAFF030E26
:100DF000EE6EED6ABDD1F50EDBCFE9FFF60EDBCF6F
:100E0000EAFFEF504C081AE1FD0EDBCFE9FFFE0EC2
:100E1000DBCFEAFF020EE926000EEA22EF04E66EBF
:100E2000FD0EDBCFE9FFFE0EDBCFEAFF020EE92667
:100E3000000EEA22E552E750EF6E35D0F50EDBCF1B
:100E4000E9FFF60EDBCFEAFFEF5052081AE1FD0E84
:100E5000DBCFE9FFFE0EDBCFEAFF020EE926000E34
:100E6000EA22EF28E66EFD0EDBCFE9FFFE0EDBCFB8
:100E7000EAFF020EE926000EEA22E552E750EF6E85
:100E800012D0F50EDBCFE9FFF60EDBCFEAFFEF5015
:100E9000420809E1F90EDBCFE9FFFA0EDBCFEAFFEA
:100EA000010EEE6EED6A64D1F50EDBCFE9FFF60EB2
:100EB000DBCFEAFFEF504C081AE1FD0EDBCFE9FF74
:100EC000FE0EDBCFEAFF030EE926000EEA22EF0456
:100ED000E66EFD0EDBCFE9FFFE0EDBCFEAFF030E71
:100EE000E926000EEA22E552E750EF6E35D0F50E06
:100EF000DBCFE9FFF60EDBCFEAFFEF5052081AE135
:100F0000FD0EDBCFE9FFFE0EDBCFEAFF030EE92685
:100F1000000EEA22EF28E66EFD0EDBCFE9FFFE0EA3
:100F2000DBCFEAFF030EE926000EEA22E552E75086
:100F3000EF6E12D0F50EDBCFE9FFF60EDBCFEAFF46
:100F4000EF50420809E1F90EDBCFE9FFFA0EDBCFE3
:100F5000EAFF010EEE6EED6A0BD1F50EDBCFE9FF75
:100F6000F60EDBCFEAFFEF504C081AE1FD0EDBCFA7
:100F7000E9FFFE0EDBCFEAFF040EE926000EEA22AF
:100F8000EF04E66EFD0EDBCFE9FFFE0EDBCFEAFFDE
:100F9000040EE926000EEA22E552E750EF6E35D046
:100FA000F50EDBCFE9FFF60EDBCFEAFFEF5052087C
:100FB0001AE1FD0EDBCFE9FFFE0EDBCFEAFF040EE8
:100FC000E926000EEA22EF28E66EFD0EDBCFE9FFF0
:100FD000FE0EDBCFEAFF040EE926000EEA22E55200
:100FE000E750EF6E12D0F50EDBCFE9FFF60EDBCF48
:100FF000EAFFEF50420809E1F90EDBCFE9FFFA0EF4
:10100000DBCFEAFF010EEE6EED6AB2D0F50EDBCF5C
:10101000E9FFF60EDBCFEAFFEF504C081AE1FD0EB8
:10102000DBCFE9FFFE0EDBCFEAFF050EE926000E5F
:10103000EA22EF04E66EFD0EDBCFE9FFFE0EDBCF0A
:10104000EAFF050EE926000EEA22E552E750EF6EB0
:1010500035D0F50EDBCFE9FFF60EDBCFEAFFEF5020
:1010600052081AE1FD0EDBCFE9FFFE0EDBCFEAFFEF
:10107000050EE926000EEA22EF28E66EFD0EDBCF14
:10108000E9FFFE0EDBCFEAFF050EE926000EEA229D
:10109000E552E750EF6E12D0F50EDBCFE9FFF60E0A
:1010A000DBCFEAFFEF50420809E1F90EDBCFE9FFA1
:1010B000FA0EDBCFEAFF010EEE6EED6A59D0F50EA7
:1010C000DBCFE9FFF60EDBCFEAFFEF504C081AE169
:1010D000FD0EDBCFE9FFFE0EDBCFEAFF060EE926B1
:1010E000000EEA22EF04E66EFD0EDBCFE9FFFE0EF6
:1010F000DBCFEAFF060EE926000EEA22E552E750B2
:10110000EF6E35D0F50EDBCFE9FFF60EDBCFEAFF51
:10111000EF5052081AE1FD0EDBCFE9FFFE0EDBCFE8
:10112000EAFF060EE926000EEA22EF28E66EFD0E23
:10113000DBCFE9FFFE0EDBCFEAFF060EE926000E4D
:10114000EA22E552E750EF6E12D0F50EDBCFE9FF51
:10115000F60EDBCFEAFFEF50420809E1F90EDBCFD4
:10116000E9FFFA0EDBCFEAFF010EEE6EED6A00D06A
:101170009FD1F70EDBCFE9FFF80EDBCFEAFFEECF12
:1011800008F0EDCF09F0020E081801E1095001E165
:101190000DD1010E081801E1095001E186D0085077
:1011A00001E1095001E083D1F50EDBCFE9FFF60E36
:1011B000DBCFEAFFEF50420812E1F90EDBCFE9FF87
:1011C000FA0EDBCFEAFF010EEE6EED6AF70EDBCF13
:1011D000E9FFF80EDBCFEAFFEE6AED6A65D0F50EA7
:1011E000DBCFE9FFF60EDBCFEAFFEF50550829E130
:1011F000F70EDBCFE9FFF80EDBCFEAFFEECF14F0FE
:10120000EFCF15F0153404E214500008000E155409
:1012100017E2F70EDBCFE9FFF80EDBCFEAFFEECFE8
:1012200014F0EFCF15F01406000E155AF70EDBCFB1
:10123000E9FFF80EDBCFEAFF14C0EEFF15C0EDFFAB
:1012400033D0F50EDBCFE9FFF60EDBCFEAFFEF5030
:1012500044082AE1F70EDBCFE9FFF80EDBCFEAFF07
:10126000EECF14F0EFCF15F0D890155004E6020E33
:10127000145C000E155818E2F70EDBCFE9FFF80EEC
:10128000DBCFEAFFEECF14F0EFCF15F0010E1426FE
:10129000000E1522F70EDBCFE9FFF80EDBCFEAFFD9
:1012A00014C0EEFF15C0EDFF02D1F50EDBCFE9FF54
:1012B000F60EDBCFEAFFEF50420812E1F90EDBCF6A
:1012C000E9FFFA0EDBCFEAFF010EEE6EED6AF70ED4
:1012D000DBCFE9FFF80EDBCFEAFFEE6AED6A65D0FF
:1012E000F50EDBCFE9FFF60EDBCFEAFFEF50550836
:1012F00029E1F70EDBCFE9FFF80EDBCFEAFFEECFF7
:1013000014F0EFCF15F0153404E214500008000E6D
:10131000155417E2F70EDBCFE9FFF80EDBCFEAFF3B
:10132000EECF14F0EFCF15F01406000E155AF70E9D
:10133000DBCFE9FFF80EDBCFEAFF14C0EEFF15C0EC
:10134000EDFF33D0F50EDBCFE9FFF60EDBCFEAFF82
:10135000EF5044082AE1F70EDBCFE9FFF80EDBCFB0
:10136000EAFFEECF14F0EFCF15F0D890155004E659
:10137000020E145C000E155818E2F70EDBCFE9FFE1
:10138000F80EDBCFEAFFEECF14F0EFCF15F0010E31
:101390001426000E1522F70EDBCFE9FFF80EDBCF87
:1013A000EAFF14C0EEFF15C0EDFF81D0F50EDBCFD4
:1013B000E9FFF60EDBCFEAFFEF50420812E1F90E2B
:1013C000DBCFE9FFFA0EDBCFEAFF010EEE6EED6A2E
:1013D000F70EDBCFE9FFF80EDBCFEAFFEE6AED6A2E
:1013E00065D0F50EDBCFE9FFF60EDBCFEAFFEF505D
:1013F000550829E1F70EDBCFE9FFF80EDBCFEAFF56
:10140000EECF14F0EFCF15F0153404E214500008BD
:10141000000E155417E2F70EDBCFE9FFF80EDBCF15
:10142000EAFFEECF14F0EFCF15F01406000E155AB8
:10143000F70EDBCFE9FFF80EDBCFEAFF14C0EEFFBB
:1014400015C0EDFF33D0F50EDBCFE9FFF60EDBCF95
:10145000EAFFEF5044082AE1F70EDBCFE9FFF80E70
:10146000DBCFEAFFEECF14F0EFCF15F0D890155098
:1014700004E6020E145C000E155818E2F70EDBCFDE
:10148000E9FFF80EDBCFEAFFEECF14F0EFCF15F057
:10149000010E1426000E1522F70EDBCFE9FFF80E21
:1014A000DBCFEAFF14C0EEFF15C0EDFF00D000D087
:1014B00000D0F50EDBCFE9FFF60EDBCFEAFFEF50F1
:1014C000460809E0F50EDBCFE9FFF60EDBCFEAFFB9
:1014D000EF50480813E1F50EDBCFE9FFF60EDBCF46
:1014E000EAFFEF50E66EFD0EDBCFE9FFFE0EDBCF2D
:1014F000EAFFEE52E552E750EF6E19D0FD0EDBCF5A
:10150000E9FFFE0EDBCFEAFFEE52EF6AF50EDBCF0E
:10151000E9FFF60EDBCFEAFFEF5009E0F30EDBCF79
:10152000E9FFF40EDBCFEAFF010EEE6EED6AE55245
:06153000E7CFD9FF120015
:0A1536008290949082929492829A1F
:10154000949A1200D9CFE6FFE1CFD9FFD950FD0F11
:10155000E96EFF0EDA20EA6EEE50ED1002E08282B4
:1015600001D08292D950FB0FE96EFF0EDA20EA6EAD
:10157000EE50ED1002E0828001D08290FA0EDB5036
:1015800002E0828A01D0829AE552E7CFD9FF1200A9
:10159000D9CFE6FFE1CFD9FFFD0EDBCFE9FFFE0E8D
:1015A000DBCFEAFF0B0EE926000EEA22EF50E66ED3
:1015B000FD0EDBCFE9FFFE0EDBCFEAFF070EE926CB
:1015C000000EEA22EFCF14F0156A14BE156814C09D
:1015D000E6FF15C0E6FFFD0EDBCFE9FFFE0EDBCF19
:1015E000EAFF080EE926000EEA22EFCF16F0176A8E
:1015F00016BE176816C0E6FF17C0E6FFA3DF186E19
:10160000050EE15E1850FD0EDBCFE9FFFE0EDBCFCD
:10161000EAFFEF5032E1F90EDBCF08F0FA0EDBCF34
:1016200009F0010E081801E1095016E0085001E127
:10163000095001E022D03D0EE66E3D0EE66E4EEC06
:101640002DF0E552E5522C0EE66E3D0EE66E98EC5E
:101650002DF0E552E55211D02C0EE66E3D0EE66EF1
:101660004EEC2DF0E552E5521B0EE66E3D0EE66E99
:1016700098EC2DF0E552E55200D0D950FB0FE96E01
:10168000FF0EDA20EA6E010EEE1801E1ED5002E0E5
:10169000CFEF0FF0FD0EDBCFE9FFFE0EDBCFEAFF51
:1016A000EF0401E02AD1D950F90FE96EFF0EDA20DC
:1016B000EA6EEE50ED1010E10A0EE66E3D0EE66E9B
:1016C0004EEC2DF0E552E552F90EE66E3C0EE66E5C
:1016D00098EC2DF0E552E552D950F90FE96EFF0E66
:1016E000DA20EA6E010EEE1801E1ED5074E1F70E1A
:1016F000DBCF08F0F80EDBCF09F0040E081801E18B
:10170000095058E0030E081801E1095042E0020EAA
:10171000081801E109502CE0010E081801E10950F8
:1017200016E0085001E1095001E055D0E80EE66EE0
:101730003C0EE66E4EEC2DF0E552E5521B0EE66EC9
:101740003D0EE66E98EC2DF0E552E55244D0D70EF2
:10175000E66E3C0EE66E4EEC2DF0E552E5521B0EA9
:10176000E66E3D0EE66E98EC2DF0E552E55233D074
:10177000C60EE66E3C0EE66E4EEC2DF0E552E552DE
:101780001B0EE66E3D0EE66E98EC2DF0E552E5522E
:1017900022D0B50EE66E3C0EE66E4EEC2DF0E55214
:1017A000E5521B0EE66E3D0EE66E98EC2DF0E5520E
:1017B000E55211D0A40EE66E3C0EE66E4EEC2DF016
:1017C000E552E5521B0EE66E3D0EE66E98EC2DF0EE
:1017D000E552E55200D0D950F90FE96EFF0EDA203C
:1017E000EA6E020EEE1801E1ED5001E086D0F70E30
:1017F000DBCF08F0F80EDBCF09F0040E081801E18A
:1018000009506AE0020E081801E109502CE0010EAF
:10181000081801E1095016E0085001E1095001E003
:101820006CD09A0EE66E3C0EE66E4EEC2DF0E55254
:10183000E5521B0EE66E3D0EE66E98EC2DF0E5527D
:10184000E5525BD08F0EE66E3C0EE66E4EEC2DF050
:10185000E552E5521B0EE66E3D0EE66E98EC2DF05D
:10186000E552E5524AD0FD0EDBCFE9FFFE0EDBCF9D
:10187000EAFF0E0EE926000EEA22EFCF14F0156AF9
:1018800014BE156814C0E6FF15C0E6FF7D0E166E87
:101890003C0E176E186A16C0E6FF17C0E6FF18C0A8
:1018A000E6FFEE0EE66E000EE66E37EC2FF0196ED8
:1018B000070EE15E19506C0EE66E3C0EE66E4EECC5
:1018C0002DF0E552E552EE0EE66E000EE66EC1EC2E
:1018D0002DF0E552E55211D05B0EE66E3C0EE66E41
:1018E0004EEC2DF0E552E5521B0EE66E3D0EE66E17
:1018F00098EC2DF0E552E55200D0FD0EDBCFE9FF6C
:10190000FE0EDBCFEAFFEF50020856E1D950F90F87
:10191000E96EFF0EDA20EA6EEE50ED1010E14A0E8D
:10192000E66E3C0EE66E4EEC2DF0E552E552F90EF9
:10193000E66E3C0EE66E98EC2DF0E552E552D9507D
:10194000F90FE96EFF0EDA20EA6E010EEE1801E1E2
:10195000ED5032E1F70EDBCF08F0F80EDBCF09F0E7
:10196000010E081801E1095016E0085001E1095084
:1019700001E022D0390EE66E3C0EE66E4EEC2DF004
:10198000E552E5521B0EE66E3D0EE66E98EC2DF02C
:10199000E552E55211D0280EE66E3C0EE66E4EEC96
:1019A0002DF0E552E5521B0EE66E3D0EE66E98EC0C
:1019B0002DF0E552E55200D0FD0EDBCFE9FFFE0E23
:1019C000DBCFEAFFEF50030801E0E8D2D950F90F6E
:1019D000E96EFF0EDA20EA6EEE50ED1010E1170E00
:1019E000E66E3C0EE66E4EEC2DF0E552E552F90E39
:1019F000E66E3C0EE66E98EC2DF0E552E552D950BD
:101A0000F90FE96EFF0EDA20EA6E010EEE1801E121
:101A1000ED5001E0A1D0F70EDBCF08F0F80EDBCFE0
:101A200009F0060E081801E1095001E184D0050E05
:101A3000081801E109506EE0040E081801E1095090
:101A400058E0030E081801E1095042E0020E0818A0
:101A500001E109502CE0010E081801E1095016E0DF
:101A6000085001E1095001E077D0060EE66E3C0E09
:101A7000E66E4EEC2DF0E552E552F50EE66E3B0EAD
:101A8000E66E98EC2DF0E552E55266D0E40EE66E77
:101A90003B0EE66E4EEC2DF0E552E5521B0EE66E67
:101AA0003D0EE66E98EC2DF0E552E55255D0D30E82
:101AB000E66E3B0EE66E4EEC2DF0E552E5521B0E47
:101AC000E66E3D0EE66E98EC2DF0E552E55244D000
:101AD000C20EE66E3B0EE66E4EEC2DF0E552E55280
:101AE0001B0EE66E3D0EE66E98EC2DF0E552E552CB
:101AF00033D0B10EE66E3B0EE66E4EEC2DF0E552A5
:101B0000E5521B0EE66E3D0EE66E98EC2DF0E552AA
:101B1000E55222D0A00EE66E3B0EE66E4EEC2DF0A6
:101B2000E552E5521B0EE66E3D0EE66E98EC2DF08A
:101B3000E552E55211D08F0EE66E3B0EE66E4EEC8E
:101B40002DF0E552E5521B0EE66E3D0EE66E98EC6A
:101B50002DF0E552E55200D0D950F90FE96EFF0E95
:101B6000DA20EA6E020EEE1801E1ED5001E045D1F7
:101B7000F70EDBCF08F0F80EDBCF09F0050E0818E2
:101B800001E1095001E100D1040E081801E10950FA
:101B900001E1C1D0030E081801E1095001E182D032
:101BA000020E081801E1095044E0010E081801E195
:101BB000095006E0085001E1095001E01ED11DD195
:101BC000FD0EDBCFE9FFFE0EDBCFEAFF0E0EE926AE
:101BD000000EEA22EFCF14F0156A14BE156814C087
:101BE000E6FF15C0E6FF7D0E166E3C0E176E186AF6
:101BF00016C0E6FF17C0E6FF18C0E6FFEE0EE66E61
:101C0000000EE66E37EC2FF0196E070EE15E1950EC
:101C10006C0EE66E3C0EE66E4EEC2DF0E552E55293
:101C2000EE0EE66E000EE66EC1EC2DF0E552E552CA
:101C3000E4D0FD0EDBCFE9FFFE0EDBCFEAFF0F0E97
:101C4000E926000EEA22EFCF14F0156A14BE1568DB
:101C500014C0E6FF15C0E6FF7D0E166E3C0E176E33
:101C6000186A16C0E6FF17C0E6FF18C0E6FFEE0EC2
:101C7000E66E000EE66E37EC2FF0196E070EE15E91
:101C800019507E0EE66E3B0EE66E4EEC2DF0E552E0
:101C9000E552EE0EE66E000EE66EC1EC2DF0E5525A
:101CA000E552ABD0FD0EDBCFE9FFFE0EDBCFEAFF46
:101CB000100EE926000EEA22EFCF14F0156A14BECA
:101CC000156814C0E6FF15C0E6FF7D0E166E3C0ECB
:101CD000176E186A16C0E6FF17C0E6FF18C0E6FFC9
:101CE000EE0EE66E000EE66E37EC2FF0196E070E64
:101CF000E15E19506D0EE66E3B0EE66E4EEC2DF079
:101D0000E552E552EE0EE66E000EE66EC1EC2DF0E9
:101D1000E552E55272D0FD0EDBCFE9FFFE0EDBCFC0
:101D2000EAFF110EE926000EEA22EFCF14F0156A41
:101D300014BE156814C0E6FF15C0E6FF7D0E166ED2
:101D40003C0E176E186A16C0E6FF17C0E6FF18C0F3
:101D5000E6FFEE0EE66E000EE66E37EC2FF0196E23
:101D6000070EE15E19505C0EE66E3B0EE66E4EEC21
:101D70002DF0E552E552EE0EE66E000EE66EC1EC79
:101D80002DF0E552E55239D0FD0EDBCFE9FFFE0E16
:101D9000DBCFEAFF120EE926000EEA22EFCF14F0A5
:101DA000156A14BE156814C0E6FF15C0E6FF7D0E67
:101DB000166E3C0E176E186A16C0E6FF17C0E6FFD7
:101DC00018C0E6FFEE0EE66E000EE66E37EC2FF062
:101DD000196E070EE15E19504B0EE66E3B0EE66E75
:101DE0004EEC2DF0E552E552EE0EE66E000EE66E7C
:101DF000C1EC2DF0E552E55200D0D950F90FE96E53
:101E0000FF0EDA20EA6E030EEE1801E1ED5001E05C
:101E1000C5D0F70EDBCF08F0F80EDBCF09F0020ECD
:101E2000081801E1095001E17ED0010E081801E116
:101E300009503EE0085001E1095001E0AFD0FD0E2D
:101E4000DBCFE9FFFE0EDBCFEAFF130EE926000E23
:101E5000EA22EFCF14F0156A14BE156814C0E6FF2D
:101E600015C0E6FF390E166E3B0E176E186A16C0C7
:101E7000E6FF17C0E6FF18C0E6FFEE0EE66E000EA6
:101E8000E66E37EC2FF0196E070EE15E1950EE0E7C
:101E9000E66E000EE66E77EC2DF0E552E552F50E9B
:101EA000E66E3B0EE66E98EC2DF0E552E55276D0EC
:101EB000E2EC2DF0FD0EDBCFE9FFFE0EDBCFEAFFFB
:101EC000140EE926000EEA22EFCF14F0156A14BEB4
:101ED000156814C0E6FF15C0E6FF270E166E3B0E10
:101EE000176E186A16C0E6FF17C0E6FF18C0E6FFB7
:101EF000EE0EE66E000EE66E37EC2FF0196E070E52
:101F0000E15E1950EE0EE66E000EE66E77EC2DF0F7
:101F1000E552E552F50EE66E3B0EE66E98EC2DF0BE
:101F2000E552E5523BD0E2EC2DF0FD0EDBCFE9FFB0
:101F3000FE0EDBCFEAFF150EE926000EEA22EFCFF8
:101F400014F0156A14BE156814C0E6FF15C0E6FF4C
:101F5000150E166E3B0E176E186A16C0E6FF17C0F8
:101F6000E6FF18C0E6FFEE0EE66E000EE66E37ECFA
:101F70002FF0196E070EE15E1950EE0EE66E000EA0
:101F8000E66E77EC2DF0E552E552F50EE66E3B0E6F
:101F9000E66E98EC2DF0E552E55200D046D2D950CD
:101FA000FB0FE96EFF0EDA20EA6EEE50ED1001E055
:101FB0003CD2FD0EDBCFE9FFFE0EDBCFEAFFEF04E4
:101FC00001E0E2D0F90EDBCF08F0FA0EDBCF09F02A
:101FD000010E081801E1095016E0085001E109500E
:101FE00001E0D2D00A0EE66E3D0EE66E4EEC2DF00C
:101FF000E552E552F90EE66E3C0EE66E98EC2DF0D9
:10200000E552E552C1D0FD0EDBCFE9FFFE0EDBCF7E
:10201000EAFF0D0EE926000EEA22EF5011E0040E51
:10202000E66E3B0EE66E4EEC2DF0E552E552F30EF9
:10203000E66E3A0EE66E98EC2DF0E552E552A3D02E
:10204000FD0EDBCFE9FFFE0EDBCFEAFF0C0EE9262B
:10205000000EEA22EF5011E0E20EE66E3A0EE66E56
:102060004EEC2DF0E552E552F30EE66E3A0EE66EBA
:1020700098EC2DF0E552E55286D0FD0EDBCFE9FF5E
:10208000FE0EDBCFEAFF050EE926000EEA22EFCFB7
:1020900014F0156A14BE156814C0E6FF15C0E6FFFB
:1020A000FD0EDBCFE9FFFE0EDBCFEAFF030EE926D4
:1020B000000EEA22EFCF16F0176A16BE176816C098
:1020C000E6FF17C0E6FFD10E186E3A0E196E1A6AB7
:1020D00018C0E6FF19C0E6FF1AC0E6FFEE0EE66E76
:1020E000000EE66E37EC2FF01B6E090EE15E1B5002
:1020F000EE0EE66E000EE66E77EC2DF0E552E55240
:10210000FD0EDBCFE9FFFE0EDBCFEAFF020EE92674
:10211000000EEA22EFCF14F0156A14BE156814C041
:10212000E6FF15C0E6FFFD0EDBCFE9FFFE0EDBCFBD
:10213000EAFF040EE926000EEA22EFCF16F0176A36
:1021400016BE176816C0E6FF17C0E6FFBE0E186E73
:102150003A0E196E1A6A18C0E6FF19C0E6FF1AC0D7
:10216000E6FFEE0EE66E000EE66E37EC2FF01B6E0D
:10217000090EE15E1B50EE0EE66E000EE66EC1EC3F
:102180002DF0E552E55200D0FD0EDBCFE9FFFE0E4B
:10219000DBCFEAFFEF5002086CE1F90EDBCF08F06D
:1021A000FA0EDBCF09F0010E081801E1095016E024
:1021B000085001E1095001E05CD04A0EE66E3C0E89
:1021C000E66E4EEC2DF0E552E552F90EE66E3C0E51
:1021D000E66E98EC2DF0E552E5524BD0FD0EDBCFCC
:1021E000E9FFFE0EDBCFEAFF0D0EE926000EEA2224
:1021F000EF5011E0040EE66E3B0EE66E4EEC2DF055
:10220000E552E552F30EE66E3A0EE66E98EC2DF0CE
:10221000E552E5522DD0FD0EDBCFE9FFFE0EDBCF00
:10222000EAFF0C0EE926000EEA22EF5011E0E20E62
:10223000E66E3A0EE66E4EEC2DF0E552E552F30EE8
:10224000E66E3A0EE66E98EC2DF0E552E55210D0AF
:102250004A0EE66E3C0EE66E4EEC2DF0E552E5526F
:102260001B0EE66E3D0EE66E98EC2DF0E552E55243
:1022700000D0FD0EDBCFE9FFFE0EDBCFEAFFEF5013
:10228000030801E0D2D0F90EDBCF08F0FA0EDBCF65
:1022900009F0010E081801E1095016E0085001E1AB
:1022A000095001E0C2D0170EE66E3C0EE66E4EEC11
:1022B0002DF0E552E552F90EE66E3C0EE66E98EC16
:1022C0002DF0E552E552B1D0FD0EDBCFE9FFFE0E59
:1022D000DBCFEAFF0D0EE926000EEA22EF5011E0F7
:1022E000040EE66E3B0EE66E4EEC2DF0E552E55226
:1022F000F30EE66E3A0EE66E98EC2DF0E552E552DE
:1023000093D0FD0EDBCFE9FFFE0EDBCFEAFF0C0E14
:10231000E926000EEA22EF5011E0E20EE66E3A0ED8
:10232000E66E4EEC2DF0E552E552F30EE66E3A0EF7
:10233000E66E98EC2DF0E552E55276D0FD0EDBCF3F
:10234000E9FFFE0EDBCFEAFF050EE926000EEA22CA
:10235000EFCF14F0156A14BE156814C0E6FF15C05F
:10236000E6FFFD0EDBCFE9FFFE0EDBCFEAFF030E3B
:10237000E926000EEA22EFCF16F0176A16BE17689C
:1023800016C0E6FF17C0E6FFD10E186E3A0E196EA2
:102390001A6A18C0E6FF19C0E6FF1AC0E6FFEE0E83
:1023A000E66E000EE66E37EC2FF01B6E090EE15E56
:1023B0001B50EE0EE66E000EE66E77EC2DF0E55249
:1023C000E552050EE66EE66AFD0EDBCFE9FFFE0E76
:1023D000DBCFEAFF040EE926000EEA22EFCF14F06D
:1023E000156A14BE156814C0E6FF15C0E6FFBE0EE0
:1023F000166E3A0E176E186A16C0E6FF17C0E6FF93
:1024000018C0E6FFEE0EE66E000EE66E37EC2FF01B
:10241000196E090EE15E1950EE0EE66E000EE66EC4
:10242000C1EC2DF0E552E55200D0E552E7CFD9FFDF
:02243000120098
:0E24320055EC17F0FB0EDBCFF3FFDB06F3508B
:1024400000090AE0A3EC17F0FA0E0EEC18F0F3E125
:10245000151CF1E1010E01D0000E84EF17F055ECD0
:1024600017F03B0EE12402E3E168E652E16E010E53
:10247000DB6A020EDB6AF90EDBCFF6FFFA0EDBCF6A
:10248000F7FFFB0EDBCFF8FF0800F550DF6EDF50E3
:1024900002E1A8EF16F0250EDF5C02E09BEF16F0DC
:1024A000030EDB6A040EDB6A050EDB6A060EDB6ACE
:1024B000070EDB6ABDEC16F02D0EDF5C0CE02B0E78
:1024C000DF5C09E0200EDF5C06E0230EDF5C03E04A
:1024D000300EDF5C1AE1DF50300A14E0130A0FE01F
:1024E000030A0AE00B0A05E0060AE4E1030EDB80BA
:1024F000E1D7030EDB82DED7030EDB84DBD7030ECE
:10250000DB86D8D7030EDB88D5D72A0EDF5C1BE12C
:10251000B9EC16F007EC17F010E0030EDB8008684A
:102520000968130EDBCF0DF0140EDBCF0EF0F6ECC6
:102530002FF0040E06C0DBFF03D0130EF0EC16F0F4
:10254000BDEC16F00BD0090EDB6A5EEC17F003E071
:10255000D2EC17F0FAD7090EF0EC16F0030EDBB050
:10256000DB982E0EDF5C1BE1BDEC16F02A0EDF5C63
:102570000BE1B9EC16F007EC17F003E1130E42EC97
:1025800017F0BDEC16F00BD0090EDB6A5EEC17F00D
:1025900003E0D2EC17F0FAD7090E42EC17F0680E00
:1025A000DF5C07E1BDEC16F0680EDF5C1DE1030E99
:1025B00018D0740EDF5C17E07A0EDF5C14E0480E72
:1025C000DF5C06E0540EDF5C03E05A0EDF5C02E1E4
:1025D000020E07D06C0EDF5C03E06A0EDF5C04E1E4
:1025E000010E95EC17F0C9DBDF506E0A01E17FD3D5
:1025F0001E0A01E192D1200A01E18FD13F0A01E1D7
:1026000049D11A0A01E146D10D0A01E143D1200A5C
:1026100001E140D13A0A01E13DD1200A01E13AD17C
:10262000260A01E135D10D0A01E132D11A0A01E190
:10263000D9D0200A4AE0300A1FE0460A0EE0250AF7
:1026400001E083D3D950F90FE96EFF0EDA20EA6E6C
:10265000010EEE5E000EEE5AEE5AA3EC17F0250EB8
:10266000E66E95DB03E1151C01E169D39FEC17F0E1
:1026700001E26BD3DB2A69D3080EDB6A040EDB5060
:10268000010806E2040EDB0467EC17F0DB508BDB7D
:10269000080EDB5009E0030EDB50010B05E172DB95
:1026A00001E04DD3080EDB6A64DBEFCFDFFF17ECF0
:1026B00018F003E1151C01E142D39FEC17F001E390
:1026C000DB2A60DB01E141D33AD3070EDB5002087D
:1026D0000FE1E3EC17F0030EAAEC17F00E0EEECFAD
:1026E000DBFF0F0EEECFDBFF100EEECFDBFF20D0B7
:1026F000F70EDBCF17F0F80EDBCF18F0020E175EE7
:10270000000E185AF70E17C0DBFFF80E18C0DBFFDB
:1027100017C0E9FF18C0EAFF9AEC17F0166A0E0E10
:1027200014C0DBFF0F0E15C0DBFF100E16C0DBFF61
:102730000E0EDBCFE6FF0F0EDBCFE6FF100EDBCF7A
:10274000E6FF68EC31F0E552E552E552130E07C0A2
:10275000DBFF140E08C0DBFF060EDB5005E0130E96
:10276000DEEC17F001E26ADB02EC18F002E2130E75
:1027700037DBC5EC17F006E0040EDEEC17F002E2E2
:10278000050E2EDB030EDBB005D0FCDA01E0D7D25C
:10279000080EDB6A090EDB6A0E0EDBCFF6FF0F0EAA
:1027A000DBCFF7FF100EDBCFF8FF0800F550DF6E30
:1027B000DF5014E008EC18F011E217EC18F003E118
:1027C000151C01E1BCD2BBDB01E3DB2A090EDB2ACD
:1027D000D9500E0FE96E000ECBDBE7D7D3DA01E15B
:1027E000B4D2ADD2C6DA110EEECFDBFF120EEDCFB2
:1027F000DBFF110EDBCFE6FF120EDBCFE6FF5AEC5C
:1028000031F0E552E552130EF3CFDBFF140EF4CF97
:10281000DBFF060EDB5004E0130ED0DB01E20EDB23
:1028200002EC18F002E2130EDBDAAFDB05E0040E77
:10283000C5DB02E2050ED4DA030EDBB005D0A2DA66
:1028400001E07DD2080EDB6A090EDB6A110EDBCFD8
:10285000E9FF120EDBCFEAFFEFCFDFFFDF5014E01E
:10286000D7DB12E2E4DB03E1151C01E168D267DB90
:1028700001E3DB2A090EDB2A110EDB2ADBCFE9FF9D
:10288000120EE8E3DB2AE6D77DDA01E15ED257D209
:10289000030EDB8E070EDB0410E195DB040E5ADB22
:1028A0000A0EEECFDBFF0B0EEECFDBFF0C0EEECFF2
:1028B000DBFF0D0EEECFDBFF6CD0070EDB50030805
:1028C0002CE1030EDBAE0DD0B2DA020E76DAEFCFDA
:1028D00014F0156A166A176A14AE39D015681668AE
:1028E00035D0F70EDBCF15F0F80EDBCF16F0020E69
:1028F000155E000E165AF70E15C0DBFFF80E16C057
:10290000DBFF15C0E9FF16C0EAFFEFCF14F00A0E97
:1029100014C0DBFF0B0EDB6A38D0070EDB50020859
:1029200009E1030EDBAE04D059DB16AE10D00ED099
:1029300055DB0DD0030EDBAE12D079DA020E3DDA94
:10294000F9DA166A176A15AE02D016681768E2DA65
:102950000C0E16C0DBFF0D0E17C0DBFF1AD0F70EF2
:10296000DBCF16F0F80EDBCF17F0020E165E000E6E
:10297000175AF70E16C0DBFFF80E17C0DBFF16C0A4
:10298000E9FF17C0EAFFD6DAC5DA0C0EDB6A0D0ED6
:10299000DB6A060EDB5005E1010EF36E050EF3CF88
:1029A000DBFF150EDB6A160EDB6AD950370F146E8B
:1029B000000EDA20156E390E14C0DBFF3A0E15C07A
:1029C000DBFF380EDB6A080EDB6A0A0EAEDADF5078
:1029D000780A12E0200A10E0280A0CE0200A0AE037
:1029E0003F0A06E00D0A02E0200A08E1020E05D0C7
:1029F000080E03D0080EDF26100E97DA030EDBBE9A
:102A000002D0DB92DB94DB50800B24E08ADAD89092
:102A1000030EEB50000A08E6000EEE5C000EEE58C6
:102A2000000EEE58000EEE5815E213DA0B680C6833
:102A30000D680E68EEEC30F00A0E02C0DBFF0B0EE4
:102A400003C0DBFF0C0E04C0DBFF0D0E05C0DBFF77
:102A50002D0E08D0030EDBA202D02B0E03D0DBA478
:102A600008D0200EF36E170EF3CFDBFF150EDB2A16
:102A700002D0170EDB6A050EDB5003E1B7D901E186
:102A800089D0180E146E670E156E000E166E070EA6
:102A9000DBCF17F0186A196A1A6A17C00BF018C052
:102AA0000CF019C00DF01AC00EF0D3D952EC32F070
:102AB00014500224F36E15500320F46E16500420B7
:102AC000F86EF4CFF7FFF3CFF6FF0800090EF5CF4D
:102AD000DBFF580EDF5C0FE1610EF36E090E7BD950
:102AE0000AE3200E146E090EDBCFE7FF1450E75EF9
:102AF000090EE7CFDBFF070EDBCF14F0156A166A6D
:102B0000176A0FDA14C00BF015C00CF016C00DF0E8
:102B100017C00EF0EECF06F0EECF07F0EECF08F0C4
:102B2000EFCF09F052EC32F009C0EDFF08C0EDFF25
:102B300007C0EDFF06C0EFFF390EDBCFE9FFDB0674
:102B40003A0EDBCFEAFF01E2DB06090EDBCFEFFF37
:102B5000150EDB2A4BD995E1030EDBA61DD06F0EB7
:102B6000DF5C06E1C1D918E3150EDB285BDA14D06F
:102B7000780EDF5C09E0580EDF5C06E0620EDF5C79
:102B800003E0420EDF5C08E1020EF36E160EF3CF97
:102B9000DBFF02D0150EDB6A030EDB50100B0EE0DC
:102BA000040EDBCF14F0050EDB50D880145406E27F
:102BB000060EDB5003E1040EDB5034DA95D90AE24D
:102BC000050EDBCFE7FF150EDB50E75E050EE7CF06
:102BD000DBFF02D0050EDB6A040EDBCF14F0160E0D
:102BE00045D9D880145414E2160EDBCFE6FF150E3B
:102BF000DBCFE6FF040EDBCFE6FF050EDB50E55230
:102C0000E75CE552D880E754E552D880E7545FD9B5
:102C1000030EDB50010B0BE1080EDB5008E0B2D8CD
:102C200001E08DD0080EDB50BED8080EDB6A170E0F
:102C3000DB5007E088D9170EF1D903E1151C01E13B
:102C40007ED0160EDB5016E07ED9300EE66E9FD891
:102C500002E1151C74E077D9DFCFE6FFACEC30F071
:102C6000E552E552E552F4CF15F00001F31C02E104
:102C7000151C65E0050EDBCF14F0160EDB50D88076
:102C8000145409E2050EDBCFE7FF160EDB50E75EBA
:102C9000050EE7CFDBFF300EE66E050ECBD94FE118
:102CA000390EDB2ADBCFE9FF3A0E01E3DB2ADBCF6B
:102CB000EAFF090EEFCFDBFFDB500EE044D9090E2F
:102CC000ADD902E1151C3BE0390EDB2ADBCFE9FF71
:102CD0003A0EEDE3DB2AEBD755D831E1160EDBCF08
:102CE000E6FF080EC3D8E552E7245DD82ED0070EC4
:102CF000DB50030A1CE0010A14E0030A07E07BD959
:102D0000DBCFEEFF020EDBCFEDFF1FD0F5D8196A47
:102D100017AE02D0186819682CD8BCD819C0EEFFBD
:102D200014D0EAD817BE186824D8B4D80ED063D906
:102D3000DBCFEFFF0AD07BD905E1151C03E1F36877
:102D4000F46810D0FCD801E3DB2A79D944EF12F003
:102D5000010EDBCF14F0020EDBCF15F014C0F3FF31
:102D600015C0F4FF3B0EE15C02E2E16AE552E16E60
:102D7000CBD029D9020EAAEF17F061D90800F5507F
:102D8000DF6E1200200EE66E080E1AEF18F0ACECA3
:102D900030F0E552E552E552F3CF14F0F4CF15F0E0
:102DA0000001F31C1200146E156AD950010F4DD9A1
:102DB0001450EE261550ED221200185E000E195A1E
:102DC000F70E18C0DBFFF80E19C0DBFF18C0E9FFD3
:102DD00019C0EAFF1200DBCFF4FFF350F45C1200DD
:102DE000DB50E76E040EE7CFDBFF12000A0EDBCFED
:102DF00014F00B0EDBCF15F00C0EDBCF16F00D0E22
:102E0000DBCF17F014501510161017101200130E08
:102E1000EECFDBFF140EEDCFDBFF130EDBCF14F094
:102E2000140EDBCF15F00001800E15141200F70E02
:102E3000DBCF18F0F80EDBCF19F01200050EDB50D7
:102E4000E66ED950130F01D9E552E750EE6EED6AE8
:102E500012000A0EDBCF06F00B0EDBCF07F00C0ED4
:102E6000DBCF08F00D0EDBCF09F01200DBCFE6FF61
:102E7000150EDBCFE6FF050EDB50E552E724E552E9
:102E8000E7241200DB50CED8010EF36E060EF3CF0E
:102E9000DBFF1200EE50EFCFEAFFE96E16C0EEFF47
:102EA00017C0EEFF18C0EEFF1200D9CFE6FFDACF51
:102EB000E6FFE1CFD9FFE2CFDAFF1200DFCFE6FF76
:102EC000E66A27EC33F0E552E552F3501200E76E64
:102ED000080EE7CFDBFF1200EECF14F0EECF15F0B7
:102EE000EFCF16F0176A1200050EDBCF14F0150EA7
:102EF000DB50D88014541200010EDBCF16F0020E06
:102F0000DBCF17F0186A1200E552E5CFDAFFE7CF02
:102F1000D9FF12000A0E14C0DBFF0B0E15C0DBFF39
:102F20001200D9500A0F25EF18F0F36E070EF3CFF9
:102F3000DBFF1200EECF14F0EFCF15F01200010E00
:102F4000DB2A020E1200FC0EDBCFE6FFFD0EDBCF0C
:102F5000E6FF1200145E000E155AF70E14C0DBFFD8
:102F6000F80E15C0DBFF14C0E9FF15C0EAFF120020
:102F7000DA20EA6EEF2AEECFF6FF000EEF22EECF58
:102F8000F7FFEF22EECFF8FF1200040EDBCFE6FFD3
:102F9000130EDB50E552E75C9ADFDB5004DF060ED0
:102FA000DB501200090EDB500A0DF350DF24D00F66
:102FB000E76E090EE7CFDBFFBDEF16F0DB50F36ED7
:102FC000050EEBEF16F0F70EDBCF14F0F80EDBCFAB
:102FD00015F01200DFCFE6FFC7EF16F028DF030E73
:102FE000ECDE6CEF17F019EC12F0E552E552E55209
:102FF000E55200091200BDDEEE50EFCFEAFFE96EA8
:10300000010E1200130EDB50F36E040EEBEF16F000
:10301000040EDB50F36E090EEBEF16F0DBCFE6FF8C
:10302000C7EF16F0E76E050EE7CFDBFF12008BDF70
:10303000EAEF17F0DBCFE6FF86DFF3EF17F0D950AA
:10304000F90FE96EFF0EB8EF17F0E96E000EDA2007
:04305000EA6E120012
:0C305400949C948EFA0EE66EF9EC32F0BB
:10306000E552400EE66EE66A7C0EE66E23EC30F02A
:10307000E552E552E5529F9A1200D9CFE6FFE1CF23
:10308000D9FFFD0EDBCFF6FFFE0EDBCFF7FF08000A
:10309000F55014E0ACA2FED7FD0EDBCFF6FFFE0E1E
:1030A000DBCFF7FF0800F550E66E10EC33F0E55289
:1030B000FD0EDB2AFE0E01E3DB2AE3D7E552E7CF64
:1030C000D9FF1200D9CFE6FFE1CFD9FFFD0EDBCF4C
:1030D000E9FFFE0EDBCFEAFFEF5013E0ACA2FED714
:1030E000FD0EDBCFE9FFFE0EDBCFEAFFEF50E66E11
:1030F00010EC33F0E552FD0EDB2AFE0E01E3DB2A75
:10310000E5D7E552E7CFD9FF1200600EE66E420E1A
:10311000E66EB3DFE552E5521200D9CFE6FFE1CF0C
:10312000D9FFFD0EDBCFE9FFFE0EDBCFEAFFEF504C
:1031300020E1F90EDBCF08F0FA0EDBCF09F0010E2B
:10314000081801E109500DE0085001E1095001E0C3
:1031500010D0EB0EE66E410EE66E8FDFE552E552C3
:1031600008D0D90EE66E410EE66E87DFE552E552D5
:1031700000D0D950FB0FE96EFF0EDA20EA6E010E87
:10318000EE1801E1ED5001E0B7D3FD0EDBCFE9FF12
:10319000FE0EDBCFEAFFEF0401E0DDD0D950F90FDE
:1031A000E96EFF0EDA20EA6EEE50ED100EE1660ECB
:1031B000E66E410EE66E61DFE552E552050EE66E03
:1031C000410EE66E5ADFE552E552D950F90FE96E2D
:1031D000FF0EDA20EA6E010EEE1801E1ED504CE12F
:1031E000F70EDBCF08F0F80EDBCF09F0040E08185D
:1031F00001E1095038E0030E081801E109502AE006
:10320000020E081801E109501CE0010E081801E146
:1032100009500EE0085001E1095001E02DD075DFA2
:10322000F50EE66E400EE66E28DFE552E55224D03C
:103230006CDFE40EE66E400EE66E1FDFE552E552EF
:103240001BD063DFD40EE66E400EE66E16DFE5524D
:10325000E55212D05ADFBF0EE66E400EE66E0DDF6D
:10326000E552E55209D051DFAC0EE66E400EE66E37
:1032700004DFE552E55200D0D950F90FE96EFF0E98
:10328000DA20EA6E020EEE1801E1ED5064E1F70E6D
:10329000DBCF08F0F80EDBCF09F0040E081801E1CF
:1032A000095050E0020E081801E109501AE0010E21
:1032B000081801E109500DE0085001E1095001E052
:1032C0004AD09E0EE66E400EE66ED7DEE552E5521F
:1032D00042D08F0EE66E400EE66ECFDEE552E5522E
:1032E0003AD013DFFD0EDBCFE9FFFE0EDBCFEAFFA6
:1032F0000E0EE926000EEA22EFCF14F0156A14BE76
:10330000156814C0E6FF15C0E6FF800E166E400E6D
:10331000176E186A16C0E6FF17C0E6FF18C0E6FF72
:10332000000EE66E010EE66E37EC2FF0196E070EFA
:10333000E15E1950000EE66E010EE66EC3DEE55248
:10334000E55209D0E2DE6F0EE66E400EE66E95DEC7
:10335000E552E55200D0FD0EDBCFE9FFFE0EDBCFDC
:10336000EAFFEF50020856E1D950F90FE96EFF0E5F
:10337000DA20EA6EEE50ED100EE1310EE66E400EF0
:10338000E66E7BDEE552E552050EE66E410EE66E18
:1033900074DEE552E552D950F90FE96EFF0EDA20DE
:1033A000EA6E010EEE1801E1ED5022E1F70EDBCFDF
:1033B00008F0F80EDBCF09F0010E081801E1095002
:1033C0000EE0085001E1095001E012D09EDE1E0E11
:1033D000E66E400EE66E51DEE552E55209D095DE0E
:1033E000060EE66E400EE66E48DEE552E55200D06F
:1033F000D950F90FE96EFF0EDA20EA6E020EEE18D0
:1034000001E1ED5007E1F40EE66E3F0EE66E35DEAB
:10341000E552E552FD0EDBCFE9FFFE0EDBCFEAFF02
:10342000EF50030801E067D2D950F90FE96EFF0EA3
:10343000DA20EA6EEE50ED100EE1410EE66E3F0E20
:10344000E66E1BDEE552E552050EE66E410EE66EB7
:1034500014DEE552E552D950F90FE96EFF0EDA207D
:10346000EA6E010EEE1801E1ED5068E1F70EDBCFD8
:1034700008F0F80EDBCF09F0060E081801E109503C
:1034800054E0050E081801E1095046E0040E081842
:1034900001E1095038E0030E081801E109502AE063
:1034A000020E081801E109501CE0010E081801E1A4
:1034B00009500EE0085001E1095001E03FD025DE3F
:1034C000300EE66E3F0EE66ED8DDE552E55236D0A0
:1034D0001CDE1F0EE66E3F0EE66ECFDDE552E552B6
:1034E0002DD013DE0B0EE66E3F0EE66EC6DDE55206
:1034F000E55224D00ADEEC0EE66E3E0EE66EBDDD31
:10350000E552E5521BD001DED60EE66E3E0EE66EAB
:10351000B4DDE552E55212D0F8DDB70EE66E3E0E90
:10352000E66EABDDE552E55209D0EFDD9F0EE66EAB
:103530003E0EE66EA2DDE552E55200D0D950F90FFD
:10354000E96EFF0EDA20EA6E020EEE1801E1ED5090
:1035500001E01CD1F70EDBCF08F0F80EDBCF09F04D
:10356000050E081801E1095001E1DFD0040E08182A
:1035700001E1095001E1A8D0030E081801E109504A
:1035800072E0020E081801E109503CE0010E081833
:1035900001E1095006E0085001E1095001E0F6D0D0
:1035A000F5D0B3DDFD0EDBCFE9FFFE0EDBCFEAFF8A
:1035B0000E0EE926000EEA22EFCF14F0156A14BEB3
:1035C000156814C0E6FF15C0E6FF800E166E400EAB
:1035D000176E186A16C0E6FF17C0E6FF18C0E6FFB0
:1035E000000EE66E010EE66E37EC2FF0196E070E38
:1035F000E15E1950000EE66E010EE66E63DDE552E7
:10360000E552C4D082DDFD0EDBCFE9FFFE0EDBCF3D
:10361000EAFF0F0EE926000EEA22EFCF14F0156A3A
:1036200014BE156814C0E6FF15C0E6FF8D0E166EB9
:103630003E0E176E186A16C0E6FF17C0E6FF18C0E8
:10364000E6FF000EE66E010EE66E37EC2FF0196E07
:10365000070EE15E1950000EE66E010EE66E32DDD9
:10366000E552E55293D051DDFD0EDBCFE9FFFE0EB2
:10367000DBCFEAFF100EE926000EEA22EFCF14F0AE
:10368000156A14BE156814C0E6FF15C0E6FF700E7B
:10369000166E3E0E176E186A16C0E6FF17C0E6FFDC
:1036A00018C0E6FF000EE66E010EE66E37EC2FF056
:1036B000196E070EE15E1950000EE66E010EE66E01
:1036C00001DDE552E55262D020DDFD0EDBCFE9FFE2
:1036D000FE0EDBCFEAFF110EE926000EEA22EFCF45
:1036E00014F0156A14BE156814C0E6FF15C0E6FF95
:1036F0005C0E166E3E0E176E186A16C0E6FF17C0F7
:10370000E6FF18C0E6FF000EE66E010EE66E37EC2F
:103710002FF0196E070EE15E1950000EE66E010ED5
:10372000E66ED0DCE552E55231D0EFDCFD0EDBCFAA
:10373000E9FFFE0EDBCFEAFF120EE926000EEA22B9
:10374000EFCF14F0156A14BE156814C0E6FF15C05B
:10375000E6FF3F0E166E3E0E176E186A16C0E6FFA5
:1037600017C0E6FF18C0E6FF000EE66E010EE66E1B
:1037700037EC2FF0196E070EE15E1950000EE66E61
:10378000010EE66E9FDCE552E55200D0D950F90FEC
:10379000E96EFF0EDA20EA6E030EEE1801E1ED503D
:1037A00001E0A9D0F70EDBCF08F0F80EDBCF09F06F
:1037B000020E081801E109506CE0010E081801E141
:1037C000095036E0085001E1095001E094D09DDC39
:1037D000FD0EDBCFE9FFFE0EDBCFEAFF130EE9267D
:1037E000000EEA22EFCF14F0156A14BE156814C05B
:1037F000E6FF15C0E6FF280E166E3E0E176E186A1D
:1038000016C0E6FF17C0E6FF18C0E6FF000EE66E22
:10381000010EE66E37EC2FF0196E070EE15E1950BF
:10382000000EE66E010EE66E4DDCE552E55263D009
:103830006CDCFD0EDBCFE9FFFE0EDBCFEAFF140EE2
:10384000E926000EEA22EFCF14F0156A14BE1568BF
:1038500014C0E6FF15C0E6FF150E166E3E0E176E7D
:10386000186A16C0E6FF17C0E6FF18C0E6FF000E94
:10387000E66E010EE66E37EC2FF0196E070EE15E74
:103880001950000EE66E010EE66E1CDCE552E552A4
:1038900032D03BDCFD0EDBCFE9FFFE0EDBCFEAFFD3
:1038A000150EE926000EEA22EFCF14F0156A14BEB9
:1038B000156814C0E6FF15C0E6FF000E166E3E0E3A
:1038C000176E186A16C0E6FF17C0E6FF18C0E6FFBD
:1038D000000EE66E010EE66E37EC2FF0196E070E45
:1038E000E15E1950000EE66E010EE66E62EC18F015
:1038F000E552E55200D0DFD0D950FB0FE96EFF0E44
:10390000DA20EA6EEE50ED1001E0D5D0FD0EDBCFEF
:10391000E9FFFE0EDBCFEAFF080EE926000EEA22E1
:10392000EF5000E0FD0EDBCFE9FFFE0EDBCFEAFF3C
:10393000EF50030A01E189D0010A51E0030A01E0D6
:10394000BAD0D950F90FE96EFF0EDA20EA6EEE50C8
:10395000ED1009E1EC0EE66E3D0EE66E3DEC18F062
:10396000E552E5523BD0D950F90FE96EFF0EDA204F
:10397000EA6E010EEE1801E1ED5030E1FD0EDBCFF5
:10398000E9FFFE0EDBCFEAFF020EE926000EEA2277
:10399000EFCF14F0156A14BE156814C0E6FF15C009
:1039A000E6FFE20E166E3D0E176E186A16C0E6FFB1
:1039B00017C0E6FF18C0E6FF000EE66E010EE66EC9
:1039C00037EC2FF0196E070EE15E1950000EE66E0F
:1039D000010EE66E62EC18F0E552E5526CD0D9505B
:1039E000F90FE96EFF0EDA20EA6EEE50ED1011E1EC
:1039F000D20EE66E3D0EE66E3DEC18F0E552E55255
:103A0000C20EE66E3D0EE66E3DEC18F0E552E55254
:103A10001BD0D950F90FE96EFF0EDA20EA6E010EC5
:103A2000EE1801E1ED5010E1D20EE66E3D0EE66EAD
:103A30003DEC18F0E552E5529F0EE66E3D0EE66E47
:103A40003DEC18F0E552E55236D0D950F90FE96E49
:103A5000FF0EDA20EA6EEE50ED1011E1910EE66EE7
:103A60003D0EE66E3DEC18F0E552E552C20EE66EF4
:103A70003D0EE66E3DEC18F0E552E5521BD0D950F4
:103A8000F90FE96EFF0EDA20EA6E010EEE1801E181
:103A9000ED5010E1910EE66E3D0EE66E3DEC18F035
:103AA000E552E5524E0EE66E3D0EE66E3DEC18F028
:0E3AB000E552E55200D0E552E7CFD9FF1200F3
:023ABE00463D83
:103AC000256420636D2053533D2564202020202051
:103AD000004C3D256420636D20523D256420636DBC
:103AE000200048616C66205363616E2020202020F6
:103AF0002020005363616E6E696E672E2E2E20208B
:103B00002020200046756C6C205363616E202020BD
:103B1000202020200044204741494E3D202564209C
:103B20002020202020200049204741494E3D2025CB
:103B300064202020202020200050204741494E3D75
:103B400020256420202020202020005246205341A0
:103B50004D504C45533D20202020200049522053F9
:103B6000414D504C4520524154453D200049522082
:103B700053414D504C45533D2020202020004D41C5
:103B8000582059415720524154453D2020200036AD
:103B90002D5345545F4D4F44454D414E55414C00CA
:103BA000352D5345545F52465F53414D504C45535C
:103BB00000342D5345545F49525F524154452020F3
:103BC0002000332D5345545F49525F53414D504CB3
:103BD000455300322D5345545F5941575F5241546C
:103BE00045202000312D5345545F53504545445FD7
:103BF0004D415820004E6F7420696D706C656D6585
:103C00006E7465642000302D5345545F5049445F05
:103C10004741494E532000464143544F52595F4D4E
:103C20004F44452020202000312D5345545F5553EB
:103C300045524D414E55414C00302D5345545F4641
:103C4000494E44504152524F5400555345525F41E2
:103C500055544F5F4D4F4445202000456E746572AA
:103C60002050617373636F64653A20004D415820A2
:103C700053504545443D202020202020002564202D
:103C80002020202020202020202020202020004D27
:103C90004F544F52535F4F4646004D4F544F52536F
:103CA0005F4F4E00342D5345545F464143544F52AD
:103CB0005920202000332D5345545F555345525F02
:103CC0004155544F2000322D5345545F53504545C4
:103CD000445F4D41582000312D5345545F4D4F54A2
:103CE0004F52535F4F464600302D5345545F4D4F62
:103CF000544F52535F4F4E2000506C6561736520E6
:103D000077616974202020202000555345525F4D73
:103D1000414E55414C5F4D4F44450020202020200E
:103D2000202020202020202020202000496E69749F
:103D300069616C6973696E672E2E2E200057656C61
:103D4000636F6D6520746F204853532020000A0D67
:103D5000507265737320412F454E54455220746F45
:103D600020656E74657220636F6D6D616E640A0DFF
:103D7000557365204470616420746F20636F6E74A6
:103D8000726F6C206D6F62696C6520726F626F7408
:103D9000000C464143544F52595F4D4F4445000A71
:103DA0000D507265737320412F454E544552207457
:103DB0006F20656E74657220636F6D6D616E640A4D
:103DC0000D000A0D506C6561736520776169740A96
:103DD0000D000C555345525F4155544F5F4D4F44B4
:103DE0004500525353493D2025640D000C55534561
:103DF000525F4D414E55414C5F4D4F44450A0D00B9
:103E000044657269766174697665204761696E3DC3
:103E10002025640D00496E74656772616C204761EE
:103E2000696E3D2025640D0050726F706F72746969
:103E30006F6E616C204761696E3D2025640D0052F4
:103E4000462053414D504C45532050455220455338
:103E500054494D4154453D2025640D00495220539D
:103E6000414D504C4520524154453D2025640D00A4
:103E700049522053414D504C455320504552204506
:103E80005354494D4154453D2025640D004D415842
:103E90002059415720524154453D2025640D00369C
:103EA0002D5345545F4D4F44455F555345525F4D2B
:103EB000414E55414C0D00352D5345545F52465FE0
:103EC00053414D504C45535F5045525F4553544903
:103ED0004D4154450D00342D5345545F49525F53B5
:103EE000414D504C455F524154450D00332D5345D3
:103EF000545F49525F53414D504C45535F504552BA
:103F00005F455354494D4154450D00322D5345549E
:103F10005F5941575F524154455F4D41580D003143
:103F20002D5345545F53504545445F4D41580D0056
:103F3000302D5345545F5049445F4741494E530D1E
:103F4000000C464143544F52595F4D4F44450A0AB5
:103F50000D302D5345545F5049445F4741494E53FE
:103F60000A0D312D5345545F53504545445F4D4133
:103F7000580A0D322D5345545F5941575F524154F1
:103F8000455F4D41580A0D332D5345545F49525FEB
:103F900053414D504C45535F5045525F4553544932
:103FA0004D4154450A0D342D5345545F49525F53DA
:103FB000414D504C455F524154450A0D352D5345F6
:103FC000545F52465F53414D504C45535F504552EC
:103FD0005F455354494D4154450A0D362D534554C0
:103FE0005F4D4F44455F555345525F4D414E5541DE
:103FF0004C0A0D000A46696E64696E672050617252
:10400000726F740A0D00312D5345545F4D4F444576
:104010005F555345525F4D414E55414C0D00302D7B
:104020005345545F46494E445F504152524F540DE0
:10403000000C555345525F4155544F5F4D4F444519
:104040000A0A0D302D5345545F46494E445F504196
:1040500052524F540A0D312D5345545F4D4F444534
:104060005F555345525F4D414E55414C0A0D004539
:104070006E7465722050617373636F64653A0D00EE
:104080004D41582053504545443D2025640D000ABC
:104090000D4D4F544F52535F4F46460A0D000A0DC7
:1040A0004D4F544F52535F4F4E0A0D00342D534520
:1040B000545F4D4F44455F464143544F525900337E
:1040C0002D5345545F4D4F44455F555345525F4115
:1040D00055544F00322D5345545F53504545445F6E
:1040E0004D415800312D5345545F4D4F544F52535D
:1040F0005F4F464600302D5345545F4D4F544F524D
:10410000535F4F4E005573652055502F444F574E07
:10411000206172726F777320746F207363726F6C9B
:104120006C0A0D507265737320412F454E544552F1
:1041300020746F2073656C6563740A0D507265732B
:104140007320422F4241434B535041434520746FEB
:1041500020657869740A0A0D506C65617365205793
:104160006169740A0D000C555345525F4D414E551F
:10417000414C5F4D4F44450A0A0D302D5345545F65
:104180004D4F544F52535F4F4E0A0D312D534554EE
:104190005F4D4F544F52535F4F46460A0D322D53D9
:1041A00045545F53504545445F4D41580A0D332DEA
:1041B0005345545F4D4F44455F555345525F4155FC
:1041C000544F0A0D342D5345545F4D4F44455F46BF
:1041D0004143544F52590A0D00496E697469616C2C
:1041E0006973696E672E2E2E0A0D000C57656C637D
:1041F0006F6D6520746F2074686520486172616D11
:10420000626520536F756C205365656B65720A0D8E
:10421000507265737320412F454E54455220746F80
:1042200020656E74657220636F6D6D616E647320BE
:10423000616E642055502F444F574E206172726F4B
:10424000777320746F207363726F6C6C0A0D496E04
:10425000697469616C6973696E672E2E2E0A0D0090
:104260000D20202020202020202020202020202061
:10427000202020202020202020202020202020203E
:1042800020202020202020202020200D0055004428
:0D429000004C005200480046004100420072
:01429D000020
:02429E0012000C
:1042A000D9CFE6FFE1CFD9FFE652F70EDBCFE9FF2A
:1042B000F80EDBCFEAFF040EE926000EEA22EF50EB
:1042C00001E0FFD0030E0001E95D01E0BFD0F70E71
:1042D000DBCFE9FFF80EDBCFEAFF030EE926000E85
:1042E000EA22EF50E66EEAC0E9FFEA6AE9BEEA6850
:1042F000DD0EE926000EEA22E552E750EF6E060ECB
:10430000E76EEA19E8AE02D0E73402D0E750EA5D82
:1043100027E2EA2B030EE96FFB0EDBCFE9FFFC0E71
:10432000DBCFEAFF020EE926000EEA22520EEF6E04
:10433000FB0EDBCFE9FFFC0EDBCFEAFF580EEE6E83
:10434000020EED6EF70EDBCFE9FFF80EDBCFEAFFD2
:10435000040EE926000EEA22010EEF6EB4D0B0D0B2
:10436000FD0EDBCFE6FFFE0EDBCFE6FFDD0EE66ED9
:10437000000EE66EADD8E552E552E552E552DF6E2D
:104380000001EA6BDFCF14F0270EE76E1418E8AED9
:1043900002D0E73402D0E750145C0DE2FD0EDBCF13
:1043A000E9FFFE0EDBCFEAFF080EE926000EEA2247
:1043B000010EEF6E0BD0FD0EDBCFE9FFFE0EDBCF63
:1043C000EAFF080EE926000EEA22EF6AFD0EDBCFB7
:1043D000E9FFFE0EDBCFEAFFEE52EFCF16F0176AD1
:1043E00016BE1768580E086E020E096E16C00DF044
:1043F00017C00EF0F6EC2FF006C014F007C015F051
:10440000FB0EDBCFE9FFFC0EDBCFEAFF14C0EEFFB3
:1044100015C0EDFFFB0EDBCFE9FFFC0EDBCFEAFFA3
:10442000020EE926000EEA22520EEF6E0001020E85
:10443000E96FF70EDBCFE9FFF80EDBCFEAFF040EE2
:10444000E926000EEA22010EEF6E3DD0E90531E1CA
:10445000F60EDB041EE1F70EDBCFE6FFF80EDBCF36
:10446000E6FFFB0EDBCFE6FFFC0EDBCFE6FFF90E2F
:10447000DBCFE6FFFA0EDBCFE6FF90D8146E060E18
:10448000E15E1450000902E0010E1DD0000E1BD0A9
:104490000FD0F60EDB5002080BE1FB0EDBCFE6FF80
:1044A000FC0EDBCFE6FFA6D9E552E552010E0BD09C
:1044B00007D0020EE95D04E1010EE96F000E03D0A2
:1044C00002D0000E00D0E552E552E7CFD9FF12002E
:1044D000D9CFE6FFE1CFD9FF030EE126010EDB6A5B
:1044E000020EDB6ADF6ADFCF14F0060EE76E1418E7
:1044F000E8AE02D0E73402D0E750145C30E2DFCF00
:1045000015F0166A15BE1668FD0EDB501524E96E0F
:10451000FE0EDB501620EA6EEFCF14F0020EDB50D9
:10452000E76E1418E8AE02D0143403D0E750D880F8
:10453000145413E2010EDFCFDBFFDFCF14F0156A56
:1045400014BE1568FD0EDB501424E96EFE0EDB5020
:104550001520EA6E020EEFCFDBFFDF2AC4D7FB0E79
:10456000DBCFE9FFFC0EDBCFEAFFEE52010EDBCF23
:10457000EFFF020EDBCFEDF0010EDBCFECF0020E11
:10458000DB50146E030EE15C03E200D0E16AE552F9
:10459000E16E1450E552E7CFD9FF1200D9CFE6FF04
:1045A000E1CFD9FFFD0EDBCFE9FFFE0EDBCFEAFF47
:1045B000EE52EF50550831E1FB0EDBCFE9FFFC0E68
:1045C000DBCFEAFFE80EEE6E020EED6EFD0EDBCFE6
:1045D000E9FFFE0EDBCFEAFFEE52EF50E66EFB0E78
:1045E000DBCFE9FFFC0EDBCFEAFF020EE926000E6F
:1045F000EA22E552E750EF6E0001020EE96FF90E74
:10460000DBCFE9FFFA0EDBCFEAFF040EE926000E4E
:10461000EA22010EEF6EEAD0E7D0FD0EDBCFE9FF14
:10462000FE0EDBCFEAFFEE52EF50440831E1FB0E05
:10463000DBCFE9FFFC0EDBCFEAFFE80EEE6E020EE9
:10464000ED6EFD0EDBCFE9FFFE0EDBCFEAFFEE5293
:10465000EF50E66EFB0EDBCFE9FFFC0EDBCFEAFF8F
:10466000020EE926000EEA22E552E750EF6E000145
:10467000020EE96FF90EDBCFE9FFFA0EDBCFEAFF9E
:10468000040EE926000EEA22010EEF6EAFD0ACD088
:10469000FD0EDBCFE9FFFE0EDBCFEAFFEE52EF505F
:1046A000520831E1FB0EDBCFE9FFFC0EDBCFEAFF66
:1046B000580EEE6E020EED6EFD0EDBCFE9FFFE0E24
:1046C000DBCFEAFFEE52EF50E66EFB0EDBCFE9FFE9
:1046D000FC0EDBCFEAFF020EE926000EEA22E552CD
:1046E000E750EF6E0001020EE96FF90EDBCFE9FF34
:1046F000FA0EDBCFEAFF040EE926000EEA22010ED5
:10470000EF6E74D071D0FD0EDBCFE9FFFE0EDBCF74
:10471000EAFFEE52EF504C0831E1FB0EDBCFE9FF30
:10472000FC0EDBCFEAFF580EEE6E020EED6EFD0EB4
:10473000DBCFE9FFFE0EDBCFEAFFEE52EF50E66E75
:10474000FB0EDBCFE9FFFC0EDBCFEAFF020EE92612
:10475000000EEA22E552E750EF6E0001020EE96F0B
:10476000F90EDBCFE9FFFA0EDBCFEAFF040EE926F4
:10477000000EEA22010EEF6E39D036D0FD0EDBCFEF
:10478000E9FFFE0EDBCFEAFFEE52EF50460812E1E2
:104790000001030EE96FF90EDBCFE9FFFA0EDBCF64
:1047A000EAFF040EE926000EEA22010EEF6E000E6B
:1047B0001DD01AD0FD0EDBCFE9FFFE0EDBCFEAFFE6
:1047C000EE52EF50480810E10001030EE96FF90EB8
:1047D000DBCFE9FFFA0EDBCFEAFF040EE926000E7D
:1047E000EA22010EEF6E02D0000E00D0E552E7CFB4
:1047F000D9FF1200D9CFE6FFE1CFD9FF0C0EE12699
:104800000001EB0504E1030EE96FEB6FA5D0030E89
:10481000EB5D2EE1FD0EDBCFE9FFFE0EDBCFEAFF05
:10482000020EE926000EEA22520EEF6EECC014F0E2
:10483000156A14BE1568580E1502F3CF15F0020E56
:104840001402F3501526580E1402F3CF14F0F4504E
:104850001526FD0EDBCFE9FFFE0EDBCFEAFF14C00D
:10486000EEFF15C0EDFF020EE96F040EEB6F74D082
:10487000040EEB5D6BE1640EDE6EDD6AC80EF36E56
:10488000020EF3CFDBFF030EDB6A2C0EF36E040E79
:10489000F3CFDBFF010EF36E050EF3CFDBFF900EBF
:1048A000F36E060EF3CFDBFF010EF36E070EF3CFB0
:1048B000DBFFF40EF36E080EF3CFDBFF010EF36E99
:1048C000090EF3CFDBFF580EF36E0A0EF3CFDBFFBA
:1048D000020EF36E0B0EF3CFDBFFFD0EDBCFE9FF15
:1048E000FE0EDBCFEAFF020EE926000EEA22460E9C
:1048F000EF6ED9CF16F0DACF17F00A0E1A6E1AC083
:104900000EF0EDC009F0DCEC2FF009C018F0196AC8
:1049100018BE1968D8901836193616501824E96E42
:1049200017501920EA6EEECF14F0EFCF15F0FD0E00
:10493000DBCFE9FFFE0EDBCFEAFF14C0EEFF15C0B0
:10494000EDFF0001020EE96FEB6F06D0020EEB5D8A
:1049500003E1010EE96FEB6F0C0EE15C02E2E16A2C
:0C496000E552E16EE552E7CFD9FF1200EE
:04496C0068EC30F0D3
:10497000F18E818493840F0EC16E82989498F08892
:10498000F08EF092F1981200D9CFE6FFE1CFD9FF77
:104990006FEC30F001017C6F4B0E7C5D0AE1FD0E87
:1049A000DBCF7DF1FE0EDBCF7EF10101010E836FC7
:1049B0001ED04F0E7C5D0BE1FB0EDBCFE9FFFC0E42
:1049C000DBCFEAFF010EEF6E0101836B10D07A0E90
:1049D0007C5D0DE0010183050AE17DC1E9FF7EC137
:1049E000EAFF7CC1EFFF01017D2B000E7E2300D08A
:1049F000E552E7CFD9FF1200D9CFE6FFE1CFD9FFCB
:104A0000100EE126FE0EDB50DF6EFC0EDBCF08F051
:104A1000FD0EDBCF09F0DE5208C0DEFF09C0DDFF6E
:104A2000DD52100EF36E030EF3CFDBFF100EF36EAC
:104A3000040EF3CFDBFF100EF36E050EF3CFDBFF9A
:104A4000100EF36E060EF3CFDBFF070EDB6A200EAF
:104A5000F36E080EF3CFDBFF090EDB6A0C0EF36E6C
:104A60000A0EF3CFDBFF0B0EDB6A010EDBCF08F083
:104A7000020EDBCF09F00E0E08C0DBFF0F0E09C0DF
:104A8000DBFF090EDBCF14F0040EE76E1418E8AE5E
:104A900002D0E73402D0E750145C01E377D00E0E69
:104AA000DBCF16F00F0EDBCF17F00A0EDB5016C06F
:104AB00014F017C015F005E0D89015321432E80450
:104AC000FBE10C0E14C0DBFF0D0E15C0DBFFD9504F
:104AD000030F1C6EDACF1DF0090EDBCF1EF01F6A2C
:104AE0001EBE1F681C501E24E96E1D501F20EA6E5A
:104AF000EFCF1AF01B6A1ABE1B680C0EDB501A109F
:104B0000186E0D0EDB501B10196ED950030F146E6A
:104B1000DACF15F0090EDBCF16F0176A16BE17684C
:104B200014501624E96E15501720EA6E18C0EFFFD6
:104B30000C0EDBCF18F00D0EDBCF19F00A0EDB5098
:104B400018C016F019C017F005E0D89016361736C1
:104B5000E804FBE10E0EDBCF08F00F0EDBCF09F00F
:104B60001650085C146E17500958156E0E0E14C0BE
:104B7000DBFF0F0E15C0DBFF0A0EDB50FC0FE76EEC
:104B80000A0EE7CFDBFF090EDB2A7BD7D950030FD4
:104B90001C6EDACF1DF0090EDBCF1EF01F6A1EBEA1
:104BA0001F681C501E24E96E1D501F20EA6EEFCFB7
:104BB0001AF01B6A1ABE1B680C0EDB501A10186E16
:104BC0000D0EDB501B10196ED950030F146EDACF87
:104BD00015F0090EDBCF16F0176A16BE17681450D1
:104BE0001624E96E15501720EA6E18C0EFFF4B0E21
:104BF000E66E90EC30F0E552640EE66E81EC33F038
:104C0000E5525E0EE66E90EC30F0E552640EE66E14
:104C100081EC33F0E5520B0EDBCF14F0040EE76E9F
:104C20001418E8AE02D0E73402D0E750145C1EE25C
:104C3000D950030F146EDACF15F00B0EDBCF16F040
:104C4000176A16BE176814501624E96E15501720FF
:104C5000EA6EEF50E66E90EC30F0E5520B0EDB2A78
:104C6000640EE66E81EC33F0E552D5D7640EE66E45
:104C700081EC33F0E552DFCFE6FF90EC30F0E55207
:104C8000640EE66E81EC33F0E5524F0EE66E90EC6A
:104C900030F0E552640EE66E81EC33F0E552100E12
:104CA000E15C03E200D0E16AE552E16EE552E7CF54
:104CB000D9FF12004B0EE66E90EC30F0E552640E18
:104CC000E66E81EC33F0E5525E0EE66E90EC30F06D
:104CD000E552640EE66E81EC33F0E5527E0EE66E30
:104CE00090EC30F0E552640EE66E81EC33F0E55264
:104CF0004F0EE66E90EC30F0E55200D01200D9CFA6
:104D0000E6FFE1CFD9FF030EE126010EDB6AFD0EBF
:104D1000DBCFE9FFFE0EDBCFEAFFEF505E0801E0DC
:104D2000F0D0FD0EDB2AFE0E01E3DB2ADF6AFD0E6A
:104D3000DBCFE9FFFE0EDBCFEAFFEF507E0809E193
:104D4000F50EDBCFE9FFF60EDBCFEAFF010EEF6ECB
:104D5000D8D0FD0EDBCFE9FFFE0EDBCFEAFFEF5030
:104D6000F00BE76E020EE7CFDBFFDB5020082AE1F5
:104D7000DFCF14F0030EE76E1418E8AE02D0E7346C
:104D800002D0E750145C1EE2FD0EDBCFE9FFFE0E01
:104D9000DBCFEAFFEF500F0BE66EFB0EDBCFE9FF38
:104DA000FC0EDBCFEAFFE552E750EF6EFB0EDB2A8D
:104DB000FC0E01E3DB2AFD0EDB2AFE0E01E3DB2AFB
:104DC000DF2AD6D7F70EDBCFE9FFF80EDBCFEAFFFD
:104DD000EF6ADF6AFD0EDBCFE9FFFE0EDBCFEAFFF5
:104DE000EF50F00BE76E020EE7CFDBFFDB50300831
:104DF00005E0020EDB50400801E082D0DFCF14F066
:104E0000020EE76E1418E8AE02D0E73402D0E75085
:104E1000145C63E2F70EDBCFE9FFF80EDBCFEAFFAD
:104E2000EF38F00BE66EF70EDBCFE9FFF80EDBCFC5
:104E3000EAFFE552E750EF6E020EDB5030081BE14F
:104E4000FD0EDBCFE9FFFE0EDBCFEAFFEF50D00F08
:104E5000146EF70EDBCFE9FFF80EDBCFEAFFEF5061
:104E60001410E66EF70EDBCFE9FFF80EDBCFEAFF9A
:104E7000E552E750EF6E020EDB5040081BE1FD0EDD
:104E8000DBCFE9FFFE0EDBCFEAFFEF50C90F146E58
:104E9000F70EDBCFE9FFF80EDBCFEAFFEF5014107F
:104EA000E66EF70EDBCFE9FFF80EDBCFEAFFE55247
:104EB000E750EF6EFD0EDB2AFE0E01E3DB2AFD0E4E
:104EC000DBCFE9FFFE0EDBCFEAFFEF50F00BE76E22
:104ED000020EE7CFDBFFDF2A91D7FD0EDBCFE9FF24
:104EE000FE0EDBCFEAFFEF500F0BE66EF90EDBCFC5
:104EF000E9FFFA0EDBCFEAFFE552E750EF6E01D093
:104F000000D0030EE15C02E2E16AE552E16EE55297
:104F1000E7CFD9FF1200020EE66E65EC33F0E552E2
:104F2000040EE66E81EC33F0E55200000000000054
:104F30000000000000000000000000001200010E50
:104F4000E66E65EC33F0E552020EE66E81EC33F06E
:104F5000E55200001200020EE66E65EC33F0E552F9
:104F6000040EE66E81EC33F0E55200000000000014
:0A4F70000000000000000000120025
:064F7A00D9CFE6FFE1CFF4
:104F8000D9FF020EE126F29EF29CEDEC2DF000011D
:104F9000806B0A0E826F836F846F856F866F876F59
:104FA000886F896F8B6B8C6B5A0E8E6F0A0E8F6FAA
:104FB0001E0E906F140E916F0A0E926F946B956B8C
:104FC000966B976B986B996B9A6BF28CD08EF28E76
:104FD0000001805119E1800EE66E000EE66ED20EE1
:104FE000E66E000EE66EFFEC2DF0E552E552E5525E
:104FF000E55280C08DF08D0EE66E000EE66E33EC4D
:105000002EF0E552E552E4D7F29CD09EB6EC24F0A7
:105010000101010E546F0001550E816FA76BB2C0E4
:10502000DBF0DC6BDBBFDC69B0C0DBF0B1C0DCF017
:10503000E80EB06F030EB16F620EB26FF28CD08EBD
:10504000F28E800EE66E000EE66ED20EE66E000E5A
:10505000E66EFFEC2DF0E552E552E552E55280C0D8
:105060008DF082C09BF083C09CF084C09DF085C011
:105070009EF087C0A0F088C0A1F089C0A2F086C0D1
:105080009FF00001B30544E1D70EE66E000EE66E18
:10509000D60EE66E000EE66E550EE66E010EE66E5C
:1050A000D30EE66E000EE66EB40EE66E000EE66EF1
:1050B0007FEC26F0146E0A0EE15E1450D3C0A3F00C
:1050C000D4C0A4F0D5C0A5F055C1A7F0D6C0A6F0B5
:1050D000D6C08FF0250E0001E76ED619E8AE02D0DB
:1050E000D63503D0E750D880D65503E3010E956F2F
:1050F00001D0956B000EE76ED619E8AE02D0D6351A
:1051000003D0E750D880D65502E2DB6BDC6BB36B83
:1051100080C0E6FF54C1E6FF4BD9E552E5520101DC
:10512000546F540505E10001DB2B000EDC2307D092
:10513000020E545D04E10001DB2B000EDC23440E63
:105140000001815D04E1DB2B000EDC2306D0550E4F
:10515000815D03E1DB2B000EDC23A70502E1DB6BA5
:10516000DC6B54C1E6FFA30EE66E000EE66E800E09
:10517000E66E000EE66EB00EE66E000EE66E8D0E6A
:10518000E66E000EE66E50EC21F0146E090EE15E44
:10519000145001015A6F8D0EE66E000EE66E33EC70
:1051A0002EF0E552E5520101545102E1000E01D00A
:1051B000010E5A1511E00001DB2B000EDC23B0C0FC
:1051C000E6FFB1C0E6FFB2C0E6FFFCEC24F0E5521A
:1051D000E552E55201015A6B34D7020EE15C02E25E
:1051E000E16AE552E16EE552E7CFD9FF1200DACF6E
:1051F000E4FFE2CFDAFFE9CFE4FFEACFE4FFF6CF46
:10520000E4FFF7CFE4FFF5CFE4FFF3CFE4FFF4CF03
:10521000E4FFFACFE4FF00EE00F0140EE80403E32D
:10522000EECFE4FFFBD700EE14F00C0EE80403E32E
:10523000EECFE4FFFBD7E65281A20BD0F090010144
:10524000586BD20EE66E000EE66E11EC2AF0E552B7
:10525000E552F2A407D0F294F29AD59E010E010114
:10526000566F576B9EAA08D0D20EE66E000EE66E01
:10527000A8EC2AF0E552E552A1A00FD0A19099EC3C
:105280002BF001015951E76E5819E8AE02D0E7340E
:1052900002D0E750585D01E2582BE55200EE1FF0B6
:1052A0000C0EE80403E3E5CFEDFFFBD700EE13F0AF
:1052B000140EE80403E3E5CFEDFFFBD7E5CFFAFFDB
:1052C000E5CFF4FFE5CFF3FFE5CFF5FFE5CFF7FF3F
:1052D000E5CFF6FFE5CFEAFFE5CFE9FFE5CFDAFF5F
:1052E0001100DACFE4FFE2CFDAFFE9CFE4FFEACF43
:1052F000E4FFF6CFE4FFF7CFE4FFF5CFE4FFF3CF11
:10530000E4FFF4CFE4FFFACFE4FF00EE00F0140E68
:10531000E80403E3EECFE4FFFBD700EE14F00C0E3D
:10532000E80403E3EECFE4FFFBD7E652F0A20FD090
:10533000B30EE66E000EE66EB40EE66E000EE66E7E
:10534000C4EC24F0E552E552E552E552F092F29EAB
:1053500081A009D0F292D20EE66E000EE66E88ECC5
:105360002BF0E552E552F28EE55200EE1FF00C0EE6
:10537000E80403E3E5CFEDFFFBD700EE13F0140ED6
:10538000E80403E3E5CFEDFFFBD7E5CFFAFFE5CF78
:10539000F4FFE5CFF3FFE5CFF5FFE5CFF7FFE5CF6E
:1053A000F6FFE5CFEAFFE5CFE9FFE5CFDAFF110031
:1053B000D9CFE6FFE1CFD9FFFD0EDB5000D0E5529B
:0653C000E7CFD9FF120047
:0A53C600F18E816A1F0E936E94862B
:1053D0000F0EC16EF288F292F18CF086F09CF09084
:1053E000F18AF098F092F290F296F1801200D9CF03
:1053F000E6FFE1CFD9FFFD0EDBCFF6FFFE0EDBCFE0
:10540000F7FF0800F550E66EFB0EDBCFE9FFFC0E60
:10541000DBCFEAFFE552E750EF6EE552E7CFD9FF69
:105420001200D9CFE6FFE1CFD9FF80A810D0FD0E42
:10543000DBCFE6FFFE0EDBCFE6FF9B0EE66E420EF5
:10544000E66ED5DFE552E552E552E5527DD080AA01
:1054500010D0FD0EDBCFE6FFFE0EDBCFE6FF990E90
:10546000E66E420EE66EC3DFE552E552E552E552C6
:105470006BD081A610D0FD0EDBCFE6FFFE0EDBCF9A
:10548000E6FF970EE66E420EE66EB1DFE552E5529C
:10549000E552E55259D082A610D0FD0EDBCFE6FFD3
:1054A000FE0EDBCFE6FF950EE66E420EE66E9FDF48
:1054B000E552E552E552E55247D080A010D0FD0EEE
:1054C000DBCFE6FFFE0EDBCFE6FF930EE66E420E6D
:1054D000E66E8DDFE552E552E552E55235D080A605
:1054E00010D0FD0EDBCFE6FFFE0EDBCFE6FF910E08
:1054F000E66E420EE66E7BDFE552E552E552E5527E
:1055000023D080A210D0FD0EDBCFE6FFFE0EDBCF56
:10551000E6FF8F0EE66E420EE66E69DFE552E5525B
:10552000E552E55211D080A40FD0FD0EDBCFE6FF8F
:10553000FE0EDBCFE6FF8D0EE66E420EE66E57DF07
:10554000E552E552E552E552E552E7CFD9FF1200A8
:10555000D9CFE6FFE1CFD9FF7F0EAE5C10E1FD0EA3
:10556000DBCFE6FFFE0EDBCFE6FF9B0EE66E420EC4
:10557000E66E3DDFE552E552E552E55296D00D0E5E
:10558000AE5C10E1FD0EDBCFE6FFFE0EDBCFE6FFEB
:10559000990EE66E420EE66E2ADFE552E552E552BE
:1055A000E55283D0660EAE5C03E0460EAE5C10E1C1
:1055B000FD0EDBCFE6FFFE0EDBCFE6FF970EE66EBD
:1055C000420EE66E14DFE552E552E552E5526DD02B
:1055D000680EAE5C03E0480EAE5C10E1FD0EDBCF62
:1055E000E6FFFE0EDBCFE6FF950EE66E420EE66EA0
:1055F000FEDEE552E552E552E55257D0610EAE5C53
:1056000003E0410EAE5C10E1FD0EDBCFE6FFFE0EC7
:10561000DBCFE6FF910EE66E420EE66EE8DEE55267
:10562000E552E552E55241D0640EAE5C03E0440E13
:10563000AE5C10E1FD0EDBCFE6FFFE0EDBCFE6FF3A
:10564000930EE66E420EE66ED2DEE552E552E5526C
:10565000E5522BD0730EAE5C03E0530EAE5C10E14E
:10566000FD0EDBCFE6FFFE0EDBCFE6FF8F0EE66E14
:10567000420EE66EBCDEE552E552E552E55215D02B
:10568000770EAE5C03E0570EAE5C0FE1FD0EDBCF94
:10569000E6FFFE0EDBCFE6FF8D0EE66E420EE66EF7
:1056A000A6DEE552E552E552E552E552E7CFD9FFD5
:1056B0001200D9CFE6FFE1CFD9FFE652FD0EDBCFD6
:1056C000E9FFFE0EDBCFEAFFEFCFDFFFFD0EDBCF02
:1056D000E9FFFE0EDBCFEAFFEF6ADF5000D0E552B4
:1056E000E552E7CFD9FF1200D9CFE6FFE1CFD9FFCE
:1056F000FD0EDBCFE9FFFE0EDBCFEAFFEF6AE552DE
:10570000E7CFD9FF120081A800D081B800D01200E5
:10571000D9CFE6FFE1CFD9FFFD0EDBCFE6FFFE0ECE
:10572000DBCFE6FFE1DFE552E552E552E7CFD9FFF7
:02573000120065
:0E57320082A406D0829469C1BCFF6BC1BBFF8C
:1057400007D082B405D0828465C1BCFF67C1BBFFAE
:105750001200BB6A890EB16E829494940B0EBA6EDD
:10576000A190A080A29012008284110EBC6E170E30
:10577000BB6E1200D9CFE6FFE1CFD9FFFD0EDBCF24
:10578000E6FFFE0EDBCFE6FF0FD8E552E552FD0E39
:10579000DBCFE6FFFE0EDBCFE6FF98D8E552E55201
:1057A000E552E7CFD9FF1200D9CFE6FFE1CFD9FF0D
:1057B000FD0EDBCF14F0FE0EDBCF15F00001800EE6
:1057C000151410E1FD0EDBCF16F0FE0EDBCF17F047
:1057D000D890175004E6170E165C000E175802E218
:1057E0002FD970D0FD0EDBCF14F0FE0EDBCF15F0FD
:1057F000D890155004E6170E145C000E15580FE3F0
:10580000FD0EDBCF16F0FE0EDBCF17F0173404E2EF
:1058100016504408000E175402E31AD953D0FD0E57
:10582000DBCF14F0FE0EDBCF15F0153404E214507C
:105830004408000E15540FE2FD0EDBCF16F0FE0EED
:10584000DBCF17F0173404E216507108000E17541E
:1058500002E306D937D0FD0EDBCF14F0FE0EDBCF0E
:1058600015F0153404E214507108000E15540FE2BF
:10587000FD0EDBCF16F0FE0EDBCF17F0173404E27F
:1058800016509E08000E175402E3F2D81BD0FD0EEE
:10589000DBCF14F0FE0EDBCF15F0153404E214500C
:1058A0009E08000E15540EE2FD0EDBCF16F0FE0E24
:1058B000DBCF17F0173404E21650B408000E17546B
:1058C00001E3DED8E552E7CFD9FF1200D9CFE6FFDA
:1058D000E1CFD9FFFD0EDBCF14F0FE0EDBCF15F0CC
:1058E0000001800E151410E1FD0EDBCF16F0FE0E48
:1058F000DBCF17F0D890175004E6170E165C000E99
:10590000175802E275D870D0FD0EDBCF14F0FE0EF2
:10591000DBCF15F0D890155004E6170E145C000E7E
:1059200015580FE3FD0EDBCF16F0FE0EDBCF17F0A0
:10593000173404E216504408000E175402E360D8EE
:1059400053D0FD0EDBCF14F0FE0EDBCF15F0153477
:1059500004E214504408000E15540FE2FD0EDBCF94
:1059600016F0FE0EDBCF17F0173404E21650710864
:10597000000E175402E34CD837D0FD0EDBCF14F0E5
:10598000FE0EDBCF15F0153404E214507108000E42
:1059900015540FE2FD0EDBCF16F0FE0EDBCF17F035
:1059A000173404E216509E08000E175402E338D84C
:1059B0001BD0FD0EDBCF14F0FE0EDBCF15F015343F
:1059C00004E214509E08000E15540EE2FD0EDBCFCB
:1059D00016F0FE0EDBCF17F0173404E21650B408B1
:1059E000000E175401E324D8E552E7CFD9FF120087
:1059F000090E0101656F666BC40E676F686B12005C
:105A00000E0E0101656F666BA60E676F686B120064
:105A1000110E0101656F666B170E676F686B1200E0
:105A2000130E0101656F666B880E676F686B12005D
:105A30001A0E0101656F666BDB0E676F686B1200F3
:105A4000B90E0101696F6A6B8C0E6B6F6C6B120083
:105A5000B40E0101696F6A6BAA0E6B6F6C6B12005A
:105A6000B20E0101696F6A6B390E6B6F6C6B1200BD
:105A7000AF0E0101696F6A6BC80E6B6F6C6B120021
:105A8000A80E0101696F6A6B750E6B6F6C6B12006B
:105A90002B0EE66E72EC2EF0E5521200D9CFE6FF27
