:020000040000FA
:06000000E4EF32F01200F3
:020006001200E6
:0600080007EF29F01200D1
:02000E001200DE
:020010001200DC
:0100120000ED
:060018007EEF28F012004B
:02001E000500DB
:10002000120000008001000001000000786600005E
:10003000DB00000011000000716600007401000088
:1000400007000000696600006C0100000800000065
:0C0050005F6600005A0100000A0000007A
:04005C00D9CFE6FF13
:10006000E1CFD9FFFD0EDBCFE9FFFE0EDBCFEAFFCC
:10007000EFCF14F0740E01017725E96E010E78219F
:10008000EA6EEF50145C11E1772B000E7823020E1C
:10009000771901E1785105E1020EF36EF46A0AD096
:1000A00009D0010EF36EF46A05D0776B786BF36AB2
:1000B000F46A00D0E552E7CFD9FF1200D9CFE6FFAE
:1000C000E1CFD9FFFD0EDBCFE9FFFE0EDBCFEAFF6C
:1000D000EE50ED100EE1960ED56EF28AF294F19488
:1000E000FD0EDBCFE9FFFE0EDBCFEAFF010EEE6E69
:1000F000ED6A0101605161110FE0606B616BFD0EF3
:10010000DBCFE9FFFE0EDBCFEAFFEE6AED6A010E00
:10011000F36EF46A04D003D0F36AF46A00D0E552B7
:10012000E7CFD9FF1200D9CFE6FFE1CFD9FFFB0E11
:10013000DBCFE9FFFC0EDBCFEAFFEE50ED1001E074
:10014000BCD1FD0EDBCFE9FFFE0EDBCFEAFFEF50A7
:10015000030A01E118D1010A01E1BCD0030A61E000
:10016000010A01E069D1F90EDBCFE9FFFA0EDBCF1E
:10017000EAFFEECF08F0EDCF09F0010E081801E11B
:10018000095026E0085001E1095001E049D0790EFC
:10019000E66E010EE66E92DFE552E552F3CF14F003
:1001A000F4CF15F01450151012E0F90EDBCFE9FF73
:1001B000FA0EDBCFEAFF010EEE6EED6AF30EDBCF37
:1001C000E9FFF40EDBCFEAFF010EEE6EED6A28D0F8
:1001D000790EE66E010EE66E71DFE552E552F3CF61
:1001E00014F0F4CF15F01450151019E0FD0EDBCF0C
:1001F000E9FFFE0EDBCFEAFF010EEF6EF90EDBCF5B
:10020000E9FFFA0EDBCFEAFFEE6AED6AF30EDBCF11
:10021000E9FFF40EDBCFEAFF010EEE6EED6A00D0CF
:100220000BD1F90EDBCFE9FFFA0EDBCFEAFFEECF01
:1002300008F0EDCF09F0010E081801E1095026E0A1
:10024000085001E1095001E044D0790EE66E010E3C
:10025000E66E34DFE552E552F3CF14F0F4CF15F03B
:100260001450151012E0F90EDBCFE9FFFA0EDBCFC8
:10027000EAFF010EEE6EED6AF30EDBCFE9FFF40E3E
:10028000DBCFEAFF010EEE6EED6A23D0F50EDBCF79
:10029000E9FFF60EDBCFEAFFEF50410819E1FB0E54
:1002A000DBCFE9FFFC0EDBCFEAFF010EEE6EED6A5D
:1002B000F90EDBCFE9FFFA0EDBCFEAFFEE6AED6A5B
:1002C000F70EDBCFE9FFF80EDBCFEAFFEE6AED6A4F
:1002D00000D0B2D0F90EDBCFE9FFFA0EDBCFEAFF98
:1002E000EECF08F0EDCF09F0010E081801E109503A
:1002F00026E0085001E1095001E044D0790EE66E95
:10030000010EE66EDBDEE552E552F3CF14F0F4CFDA
:1003100015F01450151012E0F90EDBCFE9FFFA0EBC
:10032000DBCFEAFF010EEE6EED6AF30EDBCFE9FFE5
:10033000F40EDBCFEAFF010EEE6EED6A23D0F50E70
:10034000DBCFE9FFF60EDBCFEAFFEF50410819E102
:10035000FB0EDBCFE9FFFC0EDBCFEAFF010EEE6EFA
:10036000ED6AF90EDBCFE9FFFA0EDBCFEAFFEE6AAA
:10037000ED6AF70EDBCFE9FFF80EDBCFEAFFEE6A9E
:10038000ED6A00D059D0F90EDBCFE9FFFA0EDBCFD2
:10039000EAFFEECF08F0EDCF09F0010E081801E1F9
:1003A000095026E0085001E1095001E044D0790EDF
:1003B000E66E010EE66E82DEE552E552F3CF14F0F2
:1003C000F4CF15F01450151012E0F90EDBCFE9FF51
:1003D000FA0EDBCFEAFF010EEE6EED6AF30EDBCF15
:1003E000E9FFF40EDBCFEAFF010EEE6EED6A23D0DB
:1003F000F50EDBCFE9FFF60EDBCFEAFFEF50410849
:1004000019E1FB0EDBCFE9FFFC0EDBCFEAFF010EAB
:10041000EE6EED6AF90EDBCFE9FFFA0EDBCFEAFFF5
:10042000EE6AED6AF70EDBCFE9FFF80EDBCFEAFFED
:10043000EE6AED6A00D000D0F50EDBCFE9FFF60ED4
:10044000DBCFEAFFEF50410809E0F50EDBCFE9FF13
:10045000F60EDBCFEAFFEF5042081BE1FD0EDBCFCB
:10046000E9FFFE0EDBCFEAFFEE52EF6AF50EDBCFBF
:10047000E9FFF60EDBCFEAFFEF50410809E1F30E8A
:10048000DBCFE9FFF40EDBCFEAFF010EEE6EED6A83
:1004900012D0F50EDBCFE9FFF60EDBCFEAFFEF500F
:1004A000E66EFD0EDBCFE9FFFE0EDBCFEAFFEE527C
:1004B000E552E750EF6E69EF0BF0FB0EDBCFE9FF83
:1004C000FC0EDBCFEAFF010EEE1801E1ED5002E079
:1004D00069EF0BF0FD0EDBCFE9FFFE0EDBCFEAFF8D
:1004E000EF50030A01E143D3010A01E11AD2030AE2
:1004F00002E02BEF0BF0F90EDBCFE9FFFA0EDBCFBA
:10050000EAFFEECF08F0EDCF09F0020E081801E186
:10051000095001E100D1010E081801E1095026E05F
:10052000085001E1095001E0FAD1790EE66E010EA2
:10053000E66EC4DDE552E552F3CF14F0F4CF15F0CA
:100540001450151012E0F90EDBCFE9FFFA0EDBCFE5
:10055000EAFF010EEE6EED6AF30EDBCFE9FFF40E5B
:10056000DBCFEAFF010EEE6EED6AD9D1F50EDBCFDF
:10057000E9FFF60EDBCFEAFFEF50410844E1F70E4A
:10058000DBCFE9FFF80EDBCFEAFF030EEE1801E147
:10059000ED500AE0F90EDBCFE9FFFA0EDBCFEAFF00
:1005A000020EEE6EED6A2ED0F70EDBCFE9FFF80EED
:1005B000DBCFEAFF030EEE1801E1ED5023E1FD0E63
:1005C000DBCFE9FFFE0EDBCFEAFF020EEF6EF90E86
:1005D000DBCFE9FFFA0EDBCFEAFFEE6AED6AF70E3A
:1005E000DBCFE9FFF80EDBCFEAFFEE6AED6AFD0E26
:1005F000DBCFE9FFFE0EDBCFEAFF0B0EE926000E94
:10060000EA22EF6A87D0F50EDBCFE9FFF60EDBCFEB
:10061000EAFFEF50420819E1FB0EDBCFE9FFFC0EC9
:10062000DBCFEAFFEE6AED6AF90EDBCFE9FFFA0EE7
:10063000DBCFEAFFEE6AED6AF70EDBCFE9FFF80EDB
:10064000DBCFEAFFEE6AED6A65D0F50EDBCFE9FF9E
:10065000F60EDBCFEAFFEF50550829E1F70EDBCFAE
:10066000E9FFF80EDBCFEAFFEECF14F0EFCF15F085
:10067000153404E214500008000E155417E2F70E6A
:10068000DBCFE9FFF80EDBCFEAFFEECF14F0EFCFC0
:1006900015F01406000E155AF70EDBCFE9FFF80E21
:1006A000DBCFEAFF14C0EEFF15C0EDFF33D0F50E2F
:1006B000DBCFE9FFF60EDBCFEAFFEF5044082AE17B
:1006C000F70EDBCFE9FFF80EDBCFEAFFEECF14F039
:1006D000EFCF15F0D890155004E6040E145C000E10
:1006E000155818E2F70EDBCFE9FFF80EDBCFEAFF73
:1006F000EECF14F0EFCF15F0010E1426000E1522E8
:10070000F70EDBCFE9FFF80EDBCFEAFF14C0EEFFF8
:1007100015C0EDFF04D1F70EDBCFE9FFF80EDBCFFC
:10072000EAFFEECF08F0EDCF09F0040E081801E162
:10073000095001E1A3D0020E081801E1095047E079
:10074000010E081801E1095024E0085001E10950A8
:1007500001E0E4D0FD0EDBCFE9FFFE0EDBCFEAFFC8
:100760000A0EE926000EEA22010EEF6EF90EDBCF2B
:10077000E9FFFA0EDBCFEAFF010EEE6EED6AF30E33
:10078000DBCFE9FFF40EDBCFEAFF010EEE6EED6A80
:10079000C5D0FD0EDBCFE9FFFE0EDBCFEAFF0A0E70
:1007A000E926000EEA22EF6AF90EDBCFE9FFFA0E26
:1007B000DBCFEAFF010EEE6EED6AF30EDBCFE9FF51
:1007C000F40EDBCFEAFF010EEE6EED6AA7D0F50E58
:1007D000DBCFE9FFF60EDBCFEAFFEF504C0819E163
:1007E000FD0EDBCFE9FFFE0EDBCFEAFF020EE926AE
:1007F000000EEA22EF04E66EFD0EDBCFE9FFFE0EEF
:10080000DBCFEAFF020EE926000EEA22E552E750AE
:10081000EF6EF50EDBCFE9FFF60EDBCFEAFFEF5010
:10082000520819E1FD0EDBCFE9FFFE0EDBCFEAFF38
:10083000020EE926000EEA22EF28E66EFD0EDBCF5F
:10084000E9FFFE0EDBCFEAFF020EE926000EEA22E8
:10085000E552E750EF6EF50EDBCFE9FFF60EDBCF8A
:10086000EAFFEF50420809E1F90EDBCFE9FFFA0E8B
:10087000DBCFEAFF010EEE6EED6A50D0F50EDBCF56
:10088000E9FFF60EDBCFEAFFEF5047E0F50EDBCFD6
:10089000E6FFF60EDBCFE6FF2EEC00F0E552E55268
:1008A000F3CF7DF1F4CF7EF101017D517E1112E194
:1008B000F90EDBCFE9FFFA0EDBCFEAFF010EEE6E99
:1008C000ED6A7B0EE66E420EE66E0DEC19F0E55217
:1008D000E55223D0010E7D1901E17E5101E11DD0C9
:1008E000020E7D1901E17E5118E1FD0EDBCFE9FF1B
:1008F000FE0EDBCFEAFF030EEF6EF90EDBCFE9FF52
:10090000FA0EDBCFEAFFEE6AED6AF70EDBCFE9FF06
:10091000F80EDBCFEAFFEE6AED6A00D000D02BEFD5
:100920000BF0F90EDBCFE9FFFA0EDBCFEAFFEECFDB
:1009300008F0EDCF09F0020E081801E1095001E1BD
:10094000F5D0010E081801E1095027E0085001E137
:10095000095001E00AD1790EE66E010EE66E5EECFA
:1009600000F0E552E552F3CF14F0F4CF15F0145037
:10097000151012E0F90EDBCFE9FFFA0EDBCFEAFF2C
:10098000010EEE6EED6AF30EDBCFE9FFF40EDBCF66
:10099000EAFF010EEE6EED6AE8D0F50EDBCFE9FF5F
:1009A000F60EDBCFEAFFEF50410838E1F70EDBCF60
:1009B000E9FFF80EDBCFEAFFEECF08F0EDCF09F04C
:1009C000010E081801E109500FE0085001E109503B
:1009D00001E023D0F90EDBCFE9FFFA0EDBCFEAFF0F
:1009E000020EEE6EED6A19D0FD0EDBCFE9FFFE0EB2
:1009F000DBCFEAFF010EEF6EF70EDBCFE9FFF80E5B
:100A0000DBCFEAFFEE6AED6AF90EDBCFE9FFFA0E03
:100A1000DBCFEAFFEE6AED6A00D087D0F50EDBCFC0
:100A2000E9FFF60EDBCFEAFFEF50420819E1FB0EBB
:100A3000DBCFE9FFFC0EDBCFEAFFEE6AED6AF90ED1
:100A4000DBCFE9FFFA0EDBCFEAFFEE6AED6AF70EC5
:100A5000DBCFE9FFF80EDBCFEAFFEE6AED6A65D087
:100A6000F50EDBCFE9FFF60EDBCFEAFFEF505508BE
:100A700029E1F70EDBCFE9FFF80EDBCFEAFFEECF7F
:100A800014F0EFCF15F0153404E214500008000EF6
:100A9000155417E2F70EDBCFE9FFF80EDBCFEAFFC4
:100AA000EECF14F0EFCF15F01406000E155AF70E26
:100AB000DBCFE9FFF80EDBCFEAFF14C0EEFF15C075
:100AC000EDFF33D0F50EDBCFE9FFF60EDBCFEAFF0B
:100AD000EF5044082AE1F70EDBCFE9FFF80EDBCF39
:100AE000EAFFEECF14F0EFCF15F0D890155004E6E2
:100AF000010E145C000E155818E2F70EDBCFE9FF6B
:100B0000F80EDBCFEAFFEECF14F0EFCF15F0010EB9
:100B10001426000E1522F70EDBCFE9FFF80EDBCF0F
:100B2000EAFF14C0EEFF15C0EDFF1FD0FD0EDBCFB6
:100B3000E9FFFE0EDBCFEAFF0B0EE926000EEA22EC
:100B4000010EEF6EF90EDBCFE9FFFA0EDBCFEAFF05
:100B5000010EEE6EED6AF30EDBCFE9FFF40EDBCF94
:100B6000EAFF010EEE6EED6A00D02BEF0BF0F90EEE
:100B7000DBCFE9FFFA0EDBCFEAFFEECF08F0EDCFD7
:100B800009F0030E081801E1095001E1F2D2020E4A
:100B9000081801E1095001E1F9D0010E081801E13E
:100BA000095029E0085001E1095002E02AEF0BF05A
:100BB000790EE66E010EE66E5EEC00F0E552E5524F
:100BC000F3CF14F0F4CF15F01450151012E0F90E15
:100BD000DBCFE9FFFA0EDBCFEAFF010EEE6EED6A26
:100BE000F30EDBCFE9FFF40EDBCFEAFF010EEE6E72
:100BF000ED6A2AEF0BF0F50EDBCFE9FFF60EDBCF47
:100C0000EAFFEF50410839E1F70EDBCFE9FFF80EBC
:100C1000DBCFEAFF060EEE1801E1ED500AE0F90E17
:100C2000DBCFE9FFFA0EDBCFEAFF020EEE6EED6AD4
:100C300023D0F70EDBCFE9FFF80EDBCFEAFF060E7D
:100C4000EE1801E1ED5018E1FD0EDBCFE9FFFE0EDD
:100C5000DBCFEAFF010EEF6EF90EDBCFE9FFFA0EF4
:100C6000DBCFEAFFEE6AED6AF70EDBCFE9FFF80EA5
:100C7000DBCFEAFFEE6AED6A87D0F50EDBCFE9FF46
:100C8000F60EDBCFEAFFEF50420819E1FB0EDBCF97
:100C9000E9FFFC0EDBCFEAFFEE6AED6AF90EDBCF6F
:100CA000E9FFFA0EDBCFEAFFEE6AED6AF70EDBCF63
:100CB000E9FFF80EDBCFEAFFEE6AED6A65D0F50ECC
:100CC000DBCFE9FFF60EDBCFEAFFEF50550829E155
:100CD000F70EDBCFE9FFF80EDBCFEAFFEECF14F023
:100CE000EFCF15F0153404E214500008000E15542F
:100CF00017E2F70EDBCFE9FFF80EDBCFEAFFEECF0E
:100D000014F0EFCF15F01406000E155AF70EDBCFD6
:100D1000E9FFF80EDBCFEAFF14C0EEFF15C0EDFFD0
:100D200033D0F50EDBCFE9FFF60EDBCFEAFFEF5055
:100D300044082AE1F70EDBCFE9FFF80EDBCFEAFF2C
:100D4000EECF14F0EFCF15F0D890155004E6060E54
:100D5000145C000E155818E2F70EDBCFE9FFF80E11
:100D6000DBCFEAFFEECF14F0EFCF15F0010E142623
:100D7000000E1522F70EDBCFE9FFF80EDBCFEAFFFE
:100D800014C0EEFF15C0EDFF2AEF0BF0F70EDBCF1E
:100D9000E9FFF80EDBCFEAFFEECF08F0EDCF09F068
:100DA000050E081801E1095001E189D1040E081867
:100DB00001E1095001E12AD1030E081801E10950AF
:100DC00001E1CBD0020E081801E109506DE0010EDF
:100DD000081801E109500FE0085001E1095001E055
:100DE000C7D1F90EDBCFE9FFFA0EDBCFEAFF030E26
:100DF000EE6EED6ABDD1F50EDBCFE9FFF60EDBCF6F
:100E0000EAFFEF504C081AE1FD0EDBCFE9FFFE0EC2
:100E1000DBCFEAFF020EE926000EEA22EF04E66EBF
:100E2000FD0EDBCFE9FFFE0EDBCFEAFF020EE92667
:100E3000000EEA22E552E750EF6E35D0F50EDBCF1B
:100E4000E9FFF60EDBCFEAFFEF5052081AE1FD0E84
:100E5000DBCFE9FFFE0EDBCFEAFF020EE926000E34
:100E6000EA22EF28E66EFD0EDBCFE9FFFE0EDBCFB8
:100E7000EAFF020EE926000EEA22E552E750EF6E85
:100E800012D0F50EDBCFE9FFF60EDBCFEAFFEF5015
:100E9000420809E1F90EDBCFE9FFFA0EDBCFEAFFEA
:100EA000010EEE6EED6A64D1F50EDBCFE9FFF60EB2
:100EB000DBCFEAFFEF504C081AE1FD0EDBCFE9FF74
:100EC000FE0EDBCFEAFF030EE926000EEA22EF0456
:100ED000E66EFD0EDBCFE9FFFE0EDBCFEAFF030E71
:100EE000E926000EEA22E552E750EF6E35D0F50E06
:100EF000DBCFE9FFF60EDBCFEAFFEF5052081AE135
:100F0000FD0EDBCFE9FFFE0EDBCFEAFF030EE92685
:100F1000000EEA22EF28E66EFD0EDBCFE9FFFE0EA3
:100F2000DBCFEAFF030EE926000EEA22E552E75086
:100F3000EF6E12D0F50EDBCFE9FFF60EDBCFEAFF46
:100F4000EF50420809E1F90EDBCFE9FFFA0EDBCFE3
:100F5000EAFF010EEE6EED6A0BD1F50EDBCFE9FF75
:100F6000F60EDBCFEAFFEF504C081AE1FD0EDBCFA7
:100F7000E9FFFE0EDBCFEAFF040EE926000EEA22AF
:100F8000EF04E66EFD0EDBCFE9FFFE0EDBCFEAFFDE
:100F9000040EE926000EEA22E552E750EF6E35D046
:100FA000F50EDBCFE9FFF60EDBCFEAFFEF5052087C
:100FB0001AE1FD0EDBCFE9FFFE0EDBCFEAFF040EE8
:100FC000E926000EEA22EF28E66EFD0EDBCFE9FFF0
:100FD000FE0EDBCFEAFF040EE926000EEA22E55200
:100FE000E750EF6E12D0F50EDBCFE9FFF60EDBCF48
:100FF000EAFFEF50420809E1F90EDBCFE9FFFA0EF4
:10100000DBCFEAFF010EEE6EED6AB2D0F50EDBCF5C
:10101000E9FFF60EDBCFEAFFEF504C081AE1FD0EB8
:10102000DBCFE9FFFE0EDBCFEAFF050EE926000E5F
:10103000EA22EF04E66EFD0EDBCFE9FFFE0EDBCF0A
:10104000EAFF050EE926000EEA22E552E750EF6EB0
:1010500035D0F50EDBCFE9FFF60EDBCFEAFFEF5020
:1010600052081AE1FD0EDBCFE9FFFE0EDBCFEAFFEF
:10107000050EE926000EEA22EF28E66EFD0EDBCF14
:10108000E9FFFE0EDBCFEAFF050EE926000EEA229D
:10109000E552E750EF6E12D0F50EDBCFE9FFF60E0A
:1010A000DBCFEAFFEF50420809E1F90EDBCFE9FFA1
:1010B000FA0EDBCFEAFF010EEE6EED6A59D0F50EA7
:1010C000DBCFE9FFF60EDBCFEAFFEF504C081AE169
:1010D000FD0EDBCFE9FFFE0EDBCFEAFF060EE926B1
:1010E000000EEA22EF04E66EFD0EDBCFE9FFFE0EF6
:1010F000DBCFEAFF060EE926000EEA22E552E750B2
:10110000EF6E35D0F50EDBCFE9FFF60EDBCFEAFF51
:10111000EF5052081AE1FD0EDBCFE9FFFE0EDBCFE8
:10112000EAFF060EE926000EEA22EF28E66EFD0E23
:10113000DBCFE9FFFE0EDBCFEAFF060EE926000E4D
:10114000EA22E552E750EF6E12D0F50EDBCFE9FF51
:10115000F60EDBCFEAFFEF50420809E1F90EDBCFD4
:10116000E9FFFA0EDBCFEAFF010EEE6EED6A00D06A
:1011700071D2F70EDBCFE9FFF80EDBCFEAFFEECF3F
:1011800008F0EDCF09F0020E081801E1095001E165
:1011900099D1010E081801E1095001E1CCD00850A5
:1011A00001E1095001E055D2F50EDBCFE9FFF60E63
:1011B000DBCFEAFFEF504C081AE1FD0EDBCFE9FF71
:1011C000FE0EDBCFEAFF070EE926000EEA22EF044F
:1011D000E66EFD0EDBCFE9FFFE0EDBCFEAFF070E6A
:1011E000E926000EEA22E552E750EF6EA3D0F50E95
:1011F000DBCFE9FFF60EDBCFEAFFEF5052081AE132
:10120000FD0EDBCFE9FFFE0EDBCFEAFF070EE9267E
:10121000000EEA22EF28E66EFD0EDBCFE9FFFE0EA0
:10122000DBCFEAFF070EE926000EEA22E552E7507F
:10123000EF6E80D0F50EDBCFE9FFF60EDBCFEAFFD5
:10124000EF50420812E1F90EDBCFE9FFFA0EDBCFD7
:10125000EAFF010EEE6EED6AF70EDBCFE9FFF80E46
:10126000DBCFEAFFEE6AED6A65D0F50EDBCFE9FF72
:10127000F60EDBCFEAFFEF50550829E1F70EDBCF82
:10128000E9FFF80EDBCFEAFFEECF14F0EFCF15F059
:10129000153404E214500008000E155417E2F70E3E
:1012A000DBCFE9FFF80EDBCFEAFFEECF14F0EFCF94
:1012B00015F01406000E155AF70EDBCFE9FFF80EF5
:1012C000DBCFEAFF14C0EEFF15C0EDFF33D0F50E03
:1012D000DBCFE9FFF60EDBCFEAFFEF5044082AE14F
:1012E000F70EDBCFE9FFF80EDBCFEAFFEECF14F00D
:1012F000EFCF15F0D890155004E6020E145C000EE6
:10130000155818E2F70EDBCFE9FFF80EDBCFEAFF46
:10131000EECF14F0EFCF15F0010E1426000E1522BB
:10132000F70EDBCFE9FFF80EDBCFEAFF14C0EEFFCC
:1013300015C0EDFF8ED1F50EDBCFE9FFF60EDBCF4A
:10134000EAFFEF504C081AE1FD0EDBCFE9FFFE0E7D
:10135000DBCFEAFF080EE926000EEA22EF04E66E74
:10136000FD0EDBCFE9FFFE0EDBCFEAFF080EE9261C
:10137000000EEA22E552E750EF6EA3D0F50EDBCF68
:10138000E9FFF60EDBCFEAFFEF5052081AE1FD0E3F
:10139000DBCFE9FFFE0EDBCFEAFF080EE926000EE9
:1013A000EA22EF28E66EFD0EDBCFE9FFFE0EDBCF73
:1013B000EAFF080EE926000EEA22E552E750EF6E3A
:1013C00080D0F50EDBCFE9FFF60EDBCFEAFFEF5062
:1013D000420812E1F90EDBCFE9FFFA0EDBCFEAFF9C
:1013E000010EEE6EED6AF70EDBCFE9FFF80EDBCFF4
:1013F000EAFFEE6AED6A65D0F50EDBCFE9FFF60E87
:10140000DBCFEAFFEF50550829E1F70EDBCFE9FF0C
:10141000F80EDBCFEAFFEECF14F0EFCF15F0153466
:1014200004E214500008000E155417E2F70EDBCF4B
:10143000E9FFF80EDBCFEAFFEECF14F0EFCF15F0A7
:101440001406000E155AF70EDBCFE9FFF80EDBCFBE
:10145000EAFF14C0EEFF15C0EDFF33D0F50EDBCF71
:10146000E9FFF60EDBCFEAFFEF5044082AE1F70E62
:10147000DBCFE9FFF80EDBCFEAFFEECF14F0EFCFC2
:1014800015F0D890155004E6020E145C000E1558A5
:1014900018E2F70EDBCFE9FFF80EDBCFEAFFEECF65
:1014A00014F0EFCF15F0010E1426000E1522F70EE2
:1014B000DBCFE9FFF80EDBCFEAFF14C0EEFF15C06B
:1014C000EDFFC7D0F50EDBCFE9FFF60EDBCFEAFF6D
:1014D000EF504C081AE1FD0EDBCFE9FFFE0EDBCF2B
:1014E000EAFF090EE926000EEA22EF04E66EFD0E81
:1014F000DBCFE9FFFE0EDBCFEAFF090EE926000E87
:10150000EA22E552E750EF6EA3D0F50EDBCFE9FFFC
:10151000F60EDBCFEAFFEF5052081AE1FD0EDBCFEB
:10152000E9FFFE0EDBCFEAFF090EE926000EEA22F4
:10153000EF28E66EFD0EDBCFE9FFFE0EDBCFEAFF04
:10154000090EE926000EEA22E552E750EF6E80D040
:10155000F50EDBCFE9FFF60EDBCFEAFFEF504208D6
:1015600012E1F90EDBCFE9FFFA0EDBCFEAFF010E45
:10157000EE6EED6AF70EDBCFE9FFF80EDBCFEAFF88
:10158000EE6AED6A65D0F50EDBCFE9FFF60EDBCF34
:10159000EAFFEF50550829E1F70EDBCFE9FFF80E1F
:1015A000DBCFEAFFEECF14F0EFCF15F0153404E2F5
:1015B00014500008000E155417E2F70EDBCFE9FFB8
:1015C000F80EDBCFEAFFEECF14F0EFCF15F01406E4
:1015D000000E155AF70EDBCFE9FFF80EDBCFEAFF5E
:1015E00014C0EEFF15C0EDFF33D0F50EDBCFE9FFE1
:1015F000F60EDBCFEAFFEF5044082AE1F70EDBCF0F
:10160000E9FFF80EDBCFEAFFEECF14F0EFCF15F0D5
:10161000D890155004E6020E145C000E155818E21E
:10162000F70EDBCFE9FFF80EDBCFEAFFEECF14F0C9
:10163000EFCF15F0010E1426000E1522F70EDBCFAA
:10164000E9FFF80EDBCFEAFF14C0EEFF15C0EDFF97
:1016500000D000D000D0F50EDBCFE9FFF60EDBCFD7
:10166000EAFFEF50460809E0F50EDBCFE9FFF60E82
:10167000DBCFEAFFEF50480813E1F50EDBCFE9FFBF
:10168000F60EDBCFEAFFEF50E66EFD0EDBCFE9FF93
:10169000FE0EDBCFEAFFEE52E552E750EF6E19D0B7
:1016A000FD0EDBCFE9FFFE0EDBCFEAFFEE52EF6A65
:1016B000F50EDBCFE9FFF60EDBCFEAFFEF5009E0D6
:1016C000F30EDBCFE9FFF40EDBCFEAFF010EEE6E87
:0A16D000ED6AE552E7CFD9FF1200E2
:0616DA00829094908292C0
:1016E0009492829A949A1200D9CFE6FFE1CFD9FF63
:1016F000D950FD0FE96EFF0EDA20EA6EEE50ED10C4
:1017000002E0828201D08292D950FB0FE96EFF0E77
:10171000DA20EA6EEE50ED1002E0828001D0829075
:10172000FA0EDB5002E0828A01D0829AE552E7CFBE
:10173000D9FF1200D9CFE6FFE1CFD9FFFD0EDBCFF5
:10174000E9FFFE0EDBCFEAFF0A0EE926000EEA22D1
:10175000EF50E66EFD0EDBCFE9FFFE0EDBCFEAFFBA
:10176000060EE926000EEA22EFCF14F0156A14BE29
:10177000156814C0E6FF15C0E6FFFD0EDBCFE9FFDC
:10178000FE0EDBCFEAFF070EE926000EEA22EFCFBE
:1017900016F0176A16BE176816C0E6FF17C0E6FFF8
:1017A000A3DF186E050EE15E1850FD0EDBCFE9FFDA
:1017B000FE0EDBCFEAFFEE52EFCF14F0156A14BE37
:1017C000156814C0E6FF15C0E6FF51EC2BF0E5529A
:1017D000E552FD0EDBCFE9FFFE0EDBCFEAFFEF5057
:1017E00032E1F90EDBCF08F0FA0EDBCF09F0010E83
:1017F000081801E1095016E0085001E1095001E024
:1018000022D0B50EE66E3D0EE66EE5EC2CF0E5520C
:10181000E552A40EE66E3D0EE66E2FEC2DF0E5527D
:10182000E55211D0A40EE66E3D0EE66EE5EC2CF00E
:10183000E552E552930EE66E3D0EE66E2FEC2DF06E
:10184000E552E55200D0D950FB0FE96EFF0EDA20C9
:10185000EA6E010EEE1801E1ED5002E0B5EF10F076
:10186000FD0EDBCFE9FFFE0EDBCFEAFFEF0401E068
:101870002AD1D950F90FE96EFF0EDA20EA6EEE5048
:10188000ED1010E1820EE66E3D0EE66EE5EC2CF0FA
:10189000E552E552710EE66E3D0EE66E2FEC2DF030
:1018A000E552E552D950F90FE96EFF0EDA20EA6EE3
:1018B000010EEE1801E1ED5074E1F70EDBCF08F0F8
:1018C000F80EDBCF09F0040E081801E1095058E0CA
:1018D000030E081801E1095042E0020E081801E168
:1018E00009502CE0010E081801E1095016E00850DB
:1018F00001E1095001E055D0600EE66E3D0EE66E46
:10190000E5EC2CF0E552E552930EE66E3D0EE66EE8
:101910002FEC2DF0E552E55244D04F0EE66E3D0E11
:10192000E66EE5EC2CF0E552E552930EE66E3D0EC8
:10193000E66E2FEC2DF0E552E55233D03E0EE66E0A
:101940003D0EE66EE5EC2CF0E552E552930EE66EA8
:101950003D0EE66E2FEC2DF0E552E55222D02D0E15
:10196000E66E3D0EE66EE5EC2CF0E552E552930E88
:10197000E66E3D0EE66E2FEC2DF0E552E55211D0ED
:101980001C0EE66E3D0EE66EE5EC2CF0E552E552DF
:10199000930EE66E3D0EE66E2FEC2DF0E552E5520D
:1019A00000D0D950F90FE96EFF0EDA20EA6E020E70
:1019B000EE1801E1ED5001E086D0F70EDBCF08F024
:1019C000F80EDBCF09F0040E081801E109506AE0B7
:1019D000020E081801E109502CE0010E081801E17F
:1019E000095016E0085001E1095001E06CD0120ED8
:1019F000E66E3D0EE66EE5EC2CF0E552E552930EF8
:101A0000E66E3D0EE66E2FEC2DF0E552E5525BD012
:101A1000070EE66E3D0EE66EE5EC2CF0E552E55263
:101A2000930EE66E3D0EE66E2FEC2DF0E552E5527C
:101A30004AD0FD0EDBCFE9FFFE0EDBCFEAFF0D0E35
:101A4000E926000EEA22EFCF14F0156A14BE1568DD
:101A500014C0E6FF15C0E6FFF50E166E3C0E176EBD
:101A6000186A16C0E6FF17C0E6FF18C0E6FFEC0EC6
:101A7000E66E000EE66ED2EC2EF0196E070EE15EF9
:101A80001950E40EE66E3C0EE66EE5EC2CF0E552E5
:101A9000E552EC0EE66E000EE66E58EC2DF0E552C7
:101AA000E55211D0D30EE66E3C0EE66EE5EC2CF05E
:101AB000E552E552930EE66E3D0EE66E2FEC2DF0EC
:101AC000E552E55200D0FD0EDBCFE9FFFE0EDBCF85
:101AD000EAFFEF50020856E1D950F90FE96EFF0E08
:101AE000DA20EA6EEE50ED1010E1C20EE66E3C0E0A
:101AF000E66EE5EC2CF0E552E552710EE66E3D0E19
:101B0000E66E2FEC2DF0E552E552D950F90FE96E53
:101B1000FF0EDA20EA6E010EEE1801E1ED5032E11F
:101B2000F70EDBCF08F0F80EDBCF09F0010E081836
:101B300001E1095016E0085001E1095001E022D00E
:101B4000B10EE66E3C0EE66EE5EC2CF0E552E55289
:101B5000930EE66E3D0EE66E2FEC2DF0E552E5524B
:101B600011D0A00EE66E3C0EE66EE5EC2CF0E552D0
:101B7000E552930EE66E3D0EE66E2FEC2DF0E5522B
:101B8000E55200D0FD0EDBCFE9FFFE0EDBCFEAFF12
:101B9000EF50030801E0E8D2D950F90FE96EFF0ECB
:101BA000DA20EA6EEE50ED1010E18F0EE66E3C0E7C
:101BB000E66EE5EC2CF0E552E552710EE66E3D0E58
:101BC000E66E2FEC2DF0E552E552D950F90FE96E93
:101BD000FF0EDA20EA6E010EEE1801E1ED5001E091
:101BE000A1D0F70EDBCF08F0F80EDBCF09F0060E20
:101BF000081801E1095001E184D0050E081801E13F
:101C000009506EE0040E081801E1095058E0030E77
:101C1000081801E1095042E0020E081801E10950DC
:101C20002CE0010E081801E1095016E0085001E10E
:101C3000095001E077D07E0EE66E3C0EE66EE5ECD4
:101C40002CF0E552E552930EE66E3D0EE66E2FEC5B
:101C50002DF0E552E55266D06D0EE66E3C0EE66E56
:101C6000E5EC2CF0E552E552930EE66E3D0EE66E85
:101C70002FEC2DF0E552E55255D05C0EE66E3C0E91
:101C8000E66EE5EC2CF0E552E552930EE66E3D0E65
:101C9000E66E2FEC2DF0E552E55244D04B0EE66E89
:101CA0003C0EE66EE5EC2CF0E552E552930EE66E46
:101CB0003D0EE66E2FEC2DF0E552E55233D03A0E94
:101CC000E66E3C0EE66EE5EC2CF0E552E552930E26
:101CD000E66E3D0EE66E2FEC2DF0E552E55222D079
:101CE000290EE66E3C0EE66EE5EC2CF0E552E55270
:101CF000930EE66E3D0EE66E2FEC2DF0E552E552AA
:101D000011D0180EE66E3C0EE66EE5EC2CF0E552B6
:101D1000E552930EE66E3D0EE66E2FEC2DF0E55289
:101D2000E55200D0D950F90FE96EFF0EDA20EA6EC5
:101D3000020EEE1801E1ED5001E045D1F70EDBCFC8
:101D400008F0F80EDBCF09F0050E081801E1095084
:101D500001E100D1040E081801E1095001E1C1D0F0
:101D6000030E081801E1095001E182D0020E0818A3
:101D700001E1095044E0010E081801E1095006E0B4
:101D8000085001E1095001E01ED11DD1FD0EDBCF4D
:101D9000E9FFFE0EDBCFEAFF0D0EE926000EEA2278
:101DA000EFCF14F0156A14BE156814C0E6FF15C015
:101DB000E6FFF50E166E3C0E176E186A16C0E6FFAB
:101DC00017C0E6FF18C0E6FFEC0EE66E000EE66EEA
:101DD000D2EC2EF0196E070EE15E1950E40EE66E9D
:101DE0003C0EE66EE5EC2CF0E552E552EC0EE66EAC
:101DF000000EE66E58EC2DF0E552E552E4D0FD0EF3
:101E0000DBCFE9FFFE0EDBCFEAFF0E0EE926000E68
:101E1000EA22EFCF14F0156A14BE156814C0E6FF6D
:101E200015C0E6FFF50E166E3C0E176E186A16C04A
:101E3000E6FF17C0E6FF18C0E6FFEC0EE66E000EE8
:101E4000E66ED2EC2EF0196E070EE15E1950070E09
:101E5000E66E3C0EE66EE5EC2CF0E552E552EC0E3B
:101E6000E66E000EE66E58EC2DF0E552E552ABD072
:101E7000FD0EDBCFE9FFFE0EDBCFEAFF0F0EE926FA
:101E8000000EEA22EFCF14F0156A14BE156814C0D4
:101E9000E6FF15C0E6FFF50E166E3C0E176E186ACB
:101EA00016C0E6FF17C0E6FF18C0E6FFEC0EE66EB0
:101EB000000EE66ED2EC2EF0196E070EE15E1950A0
:101EC000F60EE66E3B0EE66EE5EC2CF0E552E552C2
:101ED000EC0EE66E000EE66E58EC2DF0E552E55283
:101EE00072D0FD0EDBCFE9FFFE0EDBCFEAFF100E56
:101EF000E926000EEA22EFCF14F0156A14BE156829
:101F000014C0E6FF15C0E6FFF50E166E3C0E176E08
:101F1000186A16C0E6FF17C0E6FF18C0E6FFEC0E11
:101F2000E66E000EE66ED2EC2EF0196E070EE15E44
:101F30001950E50EE66E3B0EE66EE5EC2CF0E55230
:101F4000E552EC0EE66E000EE66E58EC2DF0E55212
:101F5000E55239D0FD0EDBCFE9FFFE0EDBCFEAFF05
:101F6000110EE926000EEA22EFCF14F0156A14BE16
:101F7000156814C0E6FF15C0E6FFF50E166E3C0EA0
:101F8000176E186A16C0E6FF17C0E6FF18C0E6FF16
:101F9000EC0EE66E000EE66ED2EC2EF0196E070E19
:101FA000E15E1950D40EE66E3B0EE66EE5EC2CF0C9
:101FB000E552E552EC0EE66E000EE66E58EC2DF0A2
:101FC000E552E55200D0D950F90FE96EFF0EDA2044
:101FD000EA6E030EEE1801E1ED5001E0C5D0F70EF8
:101FE000DBCF08F0F80EDBCF09F0020E081801E194
:101FF000095001E17ED0010E081801E109503EE0D0
:10200000085001E1095001E0AFD0FD0EDBCFE9FF40
:10201000FE0EDBCFEAFF120EE926000EEA22EFCF1A
:1020200014F0156A14BE156814C0E6FF15C0E6FF6B
:10203000F50E166E3C0E176E186A16C0E6FF17C036
:10204000E6FF18C0E6FFEC0EE66E000EE66ED2EC80
:102050002EF0196E070EE15E1950C30EE66E3B0EB0
:10206000E66EE5EC2CF0E552E552EC0EE66E000E65
:10207000E66E58EC2DF0E552E55276D079EC2DF075
:10208000FD0EDBCFE9FFFE0EDBCFEAFF130EE926E4
:10209000000EEA22EFCF14F0156A14BE156814C0C2
:1020A000E6FF15C0E6FFF50E166E3C0E176E186AB9
:1020B00016C0E6FF17C0E6FF18C0E6FFEC0EE66E9E
:1020C000000EE66ED2EC2EF0196E070EE15E19508E
:1020D000B20EE66E3B0EE66EE5EC2CF0E552E552F4
:1020E000EC0EE66E000EE66E58EC2DF0E552E55271
:1020F0003BD079EC2DF0FD0EDBCFE9FFFE0EDBCF00
:10210000EAFF140EE926000EEA22EFCF14F0156A5A
:1021100014BE156814C0E6FF15C0E6FFF50E166E76
:102120003C0E176E186A16C0E6FF17C0E6FF18C00F
:10213000E6FFEC0EE66E000EE66ED2EC2EF0196EA7
:10214000070EE15E1950A10EE66E3B0EE66EE5EC61
:102150002CF0E552E552EC0EE66E000EE66E58EC01
:102160002DF0E552E55200D030D2D950FB0FE96E88
:10217000FF0EDA20EA6EEE50ED1001E026D2FD0EE1
:10218000DBCFE9FFFE0EDBCFEAFFEF0401E0CFD0AB
:10219000F90EDBCF08F0FA0EDBCF09F0010E0818BC
:1021A00001E1095016E0085001E1095001E0BFD0FB
:1021B000820EE66E3D0EE66EE5EC2CF0E552E55241
:1021C000710EE66E3D0EE66E2FEC2DF0E552E552F7
:1021D000AED0FD0EDBCFE9FFFE0EDBCFEAFF0C0E2B
:1021E000E926000EEA22EF5011E0900EE66E3B0E5B
:1021F000E66EE5EC2CF0E552E5527F0EE66E3B0E06
:10220000E66E2FEC2DF0E552E55290D0FD0EDBCFBF
:10221000E9FFFE0EDBCFEAFF0B0EE926000EEA22F5
:10222000EF5011E06E0EE66E3B0EE66EE5EC2CF024
:10223000E552E5527F0EE66E3B0EE66E2FEC2DF07A
:10224000E552E55273D0FD0EDBCFE9FFFE0EDBCF8A
:10225000EAFF050EE926000EEA22EFCF14F0156A18
:1022600014BE156814C0E6FF15C0E6FFFD0EDBCFF7
:10227000E9FFFE0EDBCFEAFF030EE926000EEA229D
:10228000EFCF16F0176A16BE176816C0E6FF17C024
:10229000E6FF5D0E186E3B0E196E1A6A18C0E6FF57
:1022A00019C0E6FF1AC0E6FFEC0EE66E000EE66E01
:1022B000D2EC2EF01B6E090EE15E1B50EC0EE66EAA
:1022C000000EE66E0EEC2DF0E552E552FD0EDBCF72
:1022D000E9FFFE0EDBCFEAFF040EE926000EEA223C
:1022E000EFCF14F0156A14BE156814C0E6FF15C0D0
:1022F000E6FF4C0E166E3B0E176E186A16C0E6FF10
:1023000017C0E6FF18C0E6FFEC0EE66E000EE66EA4
:10231000D2EC2EF0196E070EE15E1950EC0EE66E4F
:10232000000EE66E58EC2DF0E552E55200D0FD0EA1
:10233000DBCFE9FFFE0EDBCFEAFFEF5002086CE1D6
:10234000F90EDBCF08F0FA0EDBCF09F0010E08180A
:1023500001E1095016E0085001E1095001E05CD0AC
:10236000C20EE66E3C0EE66EE5EC2CF0E552E55250
:10237000710EE66E3D0EE66E2FEC2DF0E552E55245
:102380004BD0FD0EDBCFE9FFFE0EDBCFEAFF0C0EDC
:10239000E926000EEA22EF5011E0900EE66E3B0EA9
:1023A000E66EE5EC2CF0E552E5527F0EE66E3B0E54
:1023B000E66E2FEC2DF0E552E5522DD0FD0EDBCF71
:1023C000E9FFFE0EDBCFEAFF0B0EE926000EEA2244
:1023D000EF5011E06E0EE66E3B0EE66EE5EC2CF073
:1023E000E552E5527F0EE66E3B0EE66E2FEC2DF0C9
:1023F000E552E55210D0C20EE66E3C0EE66EE5ECFC
:102400002CF0E552E552930EE66E3D0EE66E2FEC93
:102410002DF0E552E55200D0FD0EDBCFE9FFFE0EB8
:10242000DBCFEAFFEF50030801E0CFD0F90EDBCF9E
:1024300008F0FA0EDBCF09F0010E081801E109508F
:1024400016E0085001E1095001E0BFD08F0EE66EA2
:102450003C0EE66EE5EC2CF0E552E552710EE66EB0
:102460003D0EE66E2FEC2DF0E552E552AED0FD0E9E
:10247000DBCFE9FFFE0EDBCFEAFF0C0EE926000EF4
:10248000EA22EF5011E0900EE66E3B0EE66EE5ECB0
:102490002CF0E552E5527F0EE66E3B0EE66E2FEC19
:1024A0002DF0E552E55290D0FD0EDBCFE9FFFE0E98
:1024B000DBCFEAFF0B0EE926000EEA22EF5011E017
:1024C0006E0EE66E3B0EE66EE5EC2CF0E552E55244
:1024D0007F0EE66E3B0EE66E2FEC2DF0E552E552D8
:1024E00073D0FD0EDBCFE9FFFE0EDBCFEAFF050E5A
:1024F000E926000EEA22EFCF14F0156A14BE156823
:1025000014C0E6FF15C0E6FFFD0EDBCFE9FFFE0EAF
:10251000DBCFEAFF030EE926000EEA22EFCF16F02A
:10252000176A16BE176816C0E6FF17C0E6FF5D0EF5
:10253000186E3B0E196E1A6A18C0E6FF19C0E6FF46
:102540001AC0E6FFEC0EE66E000EE66ED2EC2EF040
:102550001B6E090EE15E1B50EC0EE66E000EE66E81
:102560000EEC2DF0E552E552FD0EDBCFE9FFFE0E3D
:10257000DBCFEAFF040EE926000EEA22EFCF14F0CB
:10258000156A14BE156814C0E6FF15C0E6FF4C0EB0
:10259000166E3B0E176E186A16C0E6FF17C0E6FFF0
:1025A00018C0E6FFEC0EE66E000EE66ED2EC2EF0E2
:1025B000196E070EE15E1950EC0EE66E000EE66E27
:1025C00058EC2DF0E552E55200D0E552E7CFD9FFA7
:0225D0001200F7
:0E25D20025EC18F0FB0EDBCFF3FFDB06F35019
:1025E00000090AE073EC18F0FA0EDEEC18F0F3E1E3
:1025F000151CF1E1010E01D0000E54EF18F025EC8E
:1026000018F03B0EE12402E3E168E652E16E010EB0
:10261000DB6A020EDB6AF90EDBCFF6FFFA0EDBCFC8
:10262000F7FFFB0EDBCFF8FF0800F550DF6EDF5041
:1026300002E178EF17F0250EDF5C02E06BEF17F098
:10264000030EDB6A040EDB6A050EDB6A060EDB6A2C
:10265000070EDB6A8DEC17F02D0EDF5C0CE02B0E05
:10266000DF5C09E0200EDF5C06E0230EDF5C03E0A8
:10267000300EDF5C1AE1DF50300A14E0130A0FE07D
:10268000030A0AE00B0A05E0060AE4E1030EDB8018
:10269000E1D7030EDB82DED7030EDB84DBD7030E2C
:1026A000DB86D8D7030EDB88D5D72A0EDF5C1BE18B
:1026B00089EC17F0D7EC17F010E0030EDB80086808
:1026C0000968130EDBCF0DF0140EDBCF0EF091EC8A
:1026D0002FF0040E06C0DBFF03D0130EC0EC17F082
:1026E0008DEC17F00BD0090EDB6A2EEC18F003E02E
:1026F000A2EC18F0FAD7090EC0EC17F0030EDBB00D
:10270000DB982E0EDF5C1BE18DEC17F02A0EDF5CF0
:102710000BE189EC17F0D7EC17F003E1130E12EC84
:1027200018F08DEC17F00BD0090EDB6A2EEC18F0C8
:1027300003E0A2EC18F0FAD7090E12EC18F0680EBC
:10274000DF5C07E18DEC17F0680EDF5C1DE1030E26
:1027500018D0740EDF5C17E07A0EDF5C14E0480ED0
:10276000DF5C06E0540EDF5C03E05A0EDF5C02E142
:10277000020E07D06C0EDF5C03E06A0EDF5C04E142
:10278000010E65EC18F0C9DBDF506E0A01E17FD362
:102790001E0A01E192D1200A01E18FD13F0A01E135
:1027A00049D11A0A01E146D10D0A01E143D1200ABB
:1027B00001E140D13A0A01E13DD1200A01E13AD1DB
:1027C000260A01E135D10D0A01E132D11A0A01E1EF
:1027D000D9D0200A4AE0300A1FE0460A0EE0250A56
:1027E00001E083D3D950F90FE96EFF0EDA20EA6ECB
:1027F000010EEE5E000EEE5AEE5A73EC18F0250E46
:10280000E66E95DB03E1151C01E169D36FEC18F06E
:1028100001E26BD3DB2A69D3080EDB6A040EDB50BE
:10282000010806E2040EDB0437EC18F0DB508BDB0A
:10283000080EDB5009E0030EDB50010B05E172DBF3
:1028400001E04DD3080EDB6A64DBEFCFDFFFE7EC7E
:1028500018F003E1151C01E142D36FEC18F001E31D
:10286000DB2A60DB01E141D33AD3070EDB500208DB
:102870000FE1B3EC18F0030E7AEC18F00E0EEECF69
:10288000DBFF0F0EEECFDBFF100EEECFDBFF20D015
:10289000F70EDBCF17F0F80EDBCF18F0020E175E45
:1028A000000E185AF70E17C0DBFFF80E18C0DBFF3A
:1028B00017C0E9FF18C0EAFF6AEC18F0166A0E0E9E
:1028C00014C0DBFF0F0E15C0DBFF100E16C0DBFFC0
:1028D0000E0EDBCFE6FF0F0EDBCFE6FF100EDBCFD9
:1028E000E6FF03EC31F0E552E552E552130E07C066
:1028F000DBFF140E08C0DBFF060EDB5005E0130EF5
:10290000AEEC18F001E26ADBD2EC18F002E2130E32
:1029100037DB95EC18F006E0040EAEEC18F002E29E
:10292000050E2EDB030EDBB005D0FCDA01E0D7D2BA
:10293000080EDB6A090EDB6A0E0EDBCFF6FF0F0E08
:10294000DBCFF7FF100EDBCFF8FF0800F550DF6E8E
:10295000DF5014E0D8EC18F011E2E7EC18F003E1D6
:10296000151C01E1BCD2BBDB01E3DB2A090EDB2A2B
:10297000D9500E0FE96E000ECBDBE7D7D3DA01E1B9
:10298000B4D2ADD2C6DA110EEECFDBFF120EEDCF10
:10299000DBFF110EDBCFE6FF120EDBCFE6FFF5EC1F
:1029A00030F0E552E552130EF3CFDBFF140EF4CFF7
:1029B000DBFF060EDB5004E0130ED0DB01E20EDB82
:1029C000D2EC18F002E2130EDBDAAFDB05E0040E06
:1029D000C5DB02E2050ED4DA030EDBB005D0A2DAC5
:1029E00001E07DD2080EDB6A090EDB6A110EDBCF37
:1029F000E9FF120EDBCFEAFFEFCFDFFFDF5014E07D
:102A0000D7DB12E2E4DB03E1151C01E168D267DBEE
:102A100001E3DB2A090EDB2A110EDB2ADBCFE9FFFB
:102A2000120EE8E3DB2AE6D77DDA01E15ED257D267
:102A3000030EDB8E070EDB0410E195DB040E5ADB80
:102A40000A0EEECFDBFF0B0EEECFDBFF0C0EEECF50
:102A5000DBFF0D0EEECFDBFF6CD0070EDB50030863
:102A60002CE1030EDBAE0DD0B2DA020E76DAEFCF38
:102A700014F0156A166A176A14AE39D0156816680C
:102A800035D0F70EDBCF15F0F80EDBCF16F0020EC7
:102A9000155E000E165AF70E15C0DBFFF80E16C0B5
:102AA000DBFF15C0E9FF16C0EAFFEFCF14F00A0EF6
:102AB00014C0DBFF0B0EDB6A38D0070EDB500208B8
:102AC00009E1030EDBAE04D059DB16AE10D00ED0F8
:102AD00055DB0DD0030EDBAE12D079DA020E3DDAF3
:102AE000F9DA166A176A15AE02D016681768E2DAC4
:102AF0000C0E16C0DBFF0D0E17C0DBFF1AD0F70E51
:102B0000DBCF16F0F80EDBCF17F0020E165E000ECC
:102B1000175AF70E16C0DBFFF80E17C0DBFF16C002
:102B2000E9FF17C0EAFFD6DAC5DA0C0EDB6A0D0E34
:102B3000DB6A060EDB5005E1010EF36E050EF3CFE6
:102B4000DBFF150EDB6A160EDB6AD950370F146EE9
:102B5000000EDA20156E390E14C0DBFF3A0E15C0D8
:102B6000DBFF380EDB6A080EDB6A0A0EAEDADF50D6
:102B7000780A12E0200A10E0280A0CE0200A0AE095
:102B80003F0A06E00D0A02E0200A08E1020E05D025
:102B9000080E03D0080EDF26100E97DA030EDBBEF8
:102BA00002D0DB92DB94DB50800B24E08ADAD890F1
:102BB000030EEB50000A08E6000EEE5C000EEE5825
:102BC000000EEE58000EEE5815E213DA0B680C6892
:102BD0000D680E6889EC30F00A0E02C0DBFF0B0EA8
:102BE00003C0DBFF0C0E04C0DBFF0D0E05C0DBFFD6
:102BF0002D0E08D0030EDBA202D02B0E03D0DBA4D7
:102C000008D0200EF36E170EF3CFDBFF150EDB2A74
:102C100002D0170EDB6A050EDB5003E1B7D901E1E4
:102C200089D04E0E146E660E156E000E166E070ECF
:102C3000DBCF17F0186A196A1A6A17C00BF018C0B0
:102C40000CF019C00DF01AC00EF0D3D9EDEC31F034
:102C500014500224F36E15500320F46E1650042015
:102C6000F86EF4CFF7FFF3CFF6FF0800090EF5CFAB
:102C7000DBFF580EDF5C0FE1610EF36E090E7BD9AE
:102C80000AE3200E146E090EDBCFE7FF1450E75E57
:102C9000090EE7CFDBFF070EDBCF14F0156A166ACB
:102CA000176A0FDA14C00BF015C00CF016C00DF047
:102CB00017C00EF0EECF06F0EECF07F0EECF08F023
:102CC000EFCF09F0EDEC31F009C0EDFF08C0EDFFEA
:102CD00007C0EDFF06C0EFFF390EDBCFE9FFDB06D3
:102CE0003A0EDBCFEAFF01E2DB06090EDBCFEFFF96
:102CF000150EDB2A4BD995E1030EDBA61DD06F0E16
:102D0000DF5C06E1C1D918E3150EDB285BDA14D0CD
:102D1000780EDF5C09E0580EDF5C06E0620EDF5CD7
:102D200003E0420EDF5C08E1020EF36E160EF3CFF5
:102D3000DBFF02D0150EDB6A030EDB50100B0EE03A
:102D4000040EDBCF14F0050EDB50D880145406E2DD
:102D5000060EDB5003E1040EDB5034DA95D90AE2AB
:102D6000050EDBCFE7FF150EDB50E75E050EE7CF64
:102D7000DBFF02D0050EDB6A040EDBCF14F0160E6B
:102D800045D9D880145414E2160EDBCFE6FF150E99
:102D9000DBCFE6FF040EDBCFE6FF050EDB50E5528E
:102DA000E75CE552D880E754E552D880E7545FD914
:102DB000030EDB50010B0BE1080EDB5008E0B2D82C
:102DC00001E08DD0080EDB50BED8080EDB6A170E6E
:102DD000DB5007E088D9170EF1D903E1151C01E19A
:102DE0007ED0160EDB5016E07ED9300EE66E9FD8F0
:102DF00002E1151C74E077D9DFCFE6FF47EC30F035
:102E0000E552E552E552F4CF15F00001F31C02E162
:102E1000151C65E0050EDBCF14F0160EDB50D880D4
:102E2000145409E2050EDBCFE7FF160EDB50E75E18
:102E3000050EE7CFDBFF300EE66E050ECBD94FE176
:102E4000390EDB2ADBCFE9FF3A0E01E3DB2ADBCFC9
:102E5000EAFF090EEFCFDBFFDB500EE044D9090E8D
:102E6000ADD902E1151C3BE0390EDB2ADBCFE9FFCF
:102E70003A0EEDE3DB2AEBD755D831E1160EDBCF66
:102E8000E6FF080EC3D8E552E7245DD82ED0070E22
:102E9000DB50030A1CE0010A14E0030A07E07BD9B7
:102EA000DBCFEEFF020EDBCFEDFF1FD0F5D8196AA6
:102EB00017AE02D0186819682CD8BCD819C0EEFF1C
:102EC00014D0EAD817BE186824D8B4D80ED063D965
:102ED000DBCFEFFF0AD07BD905E1151C03E1F368D6
:102EE000F46810D0FCD801E3DB2A79D914EF13F091
:102EF000010EDBCF14F0020EDBCF15F014C0F3FF90
:102F000015C0F4FF3B0EE15C02E2E16AE552E16EBE
:102F1000CBD029D9020E7AEF18F061D90800F5500C
:102F2000DF6E1200200EE66E080EEAEF18F047EC96
:102F300030F0E552E552E552F3CF14F0F4CF15F03E
:102F40000001F31C1200146E156AD950010F4DD9FF
:102F50001450EE261550ED221200185E000E195A7C
:102F6000F70E18C0DBFFF80E19C0DBFF18C0E9FF31
:102F700019C0EAFF1200DBCFF4FFF350F45C12003B
:102F8000DB50E76E040EE7CFDBFF12000A0EDBCF4B
:102F900014F00B0EDBCF15F00C0EDBCF16F00D0E80
:102FA000DBCF17F014501510161017101200130E67
:102FB000EECFDBFF140EEDCFDBFF130EDBCF14F0F3
:102FC000140EDBCF15F00001800E15141200F70E61
:102FD000DBCF18F0F80EDBCF19F01200050EDB5036
:102FE000E66ED950130F01D9E552E750EE6EED6A47
:102FF00012000A0EDBCF06F00B0EDBCF07F00C0E33
:10300000DBCF08F00D0EDBCF09F01200DBCFE6FFBF
:10301000150EDBCFE6FF050EDB50E552E724E55247
:10302000E7241200DB50CED8010EF36E060EF3CF6C
:10303000DBFF1200EE50EFCFEAFFE96E16C0EEFFA5
:1030400017C0EEFF18C0EEFF1200D9CFE6FFDACFAF
:10305000E6FFE1CFD9FFE2CFDAFF1200DFCFE6FFD4
:10306000E66AC2EC32F0E552E552F3501200E76E28
:10307000080EE7CFDBFF1200EECF14F0EECF15F015
:10308000EFCF16F0176A1200050EDBCF14F0150E05
:10309000DB50D88014541200010EDBCF16F0020E64
:1030A000DBCF17F0186A1200E552E5CFDAFFE7CF61
:1030B000D9FF12000A0E14C0DBFF0B0E15C0DBFF98
:1030C0001200D9500A0FF5EF18F0F36E070EF3CF88
:1030D000DBFF1200EECF14F0EFCF15F01200010E5F
:1030E000DB2A020E1200FC0EDBCFE6FFFD0EDBCF6B
:1030F000E6FF1200145E000E155AF70E14C0DBFF37
:10310000F80E15C0DBFF14C0E9FF15C0EAFF12007E
:10311000DA20EA6EEF2AEECFF6FF000EEF22EECFB6
:10312000F7FFEF22EECFF8FF1200040EDBCFE6FF31
:10313000130EDB50E552E75C9ADFDB5004DF060E2E
:10314000DB501200090EDB500A0DF350DF24D00FC4
:10315000E76E090EE7CFDBFF8DEF17F0DB50F36E64
:10316000050EBBEF17F0F70EDBCF14F0F80EDBCF38
:1031700015F01200DFCFE6FF97EF17F028DF030E00
:10318000ECDE3CEF18F0E9EC12F0E552E552E552C6
:10319000E55200091200BDDEEE50EFCFEAFFE96E06
:1031A000010E1200130EDB50F36E040EBBEF17F08E
:1031B000040EDB50F36E090EBBEF17F0DBCFE6FF1A
:1031C00097EF17F0E76E050EE7CFDBFF12008BDFFE
:1031D000BAEF18F0DBCFE6FF86DFC3EF18F0D95067
:1031E000F90FE96EFF0E88EF18F0E96E000EDA2095
:0431F000EA6E120071
:0C31F400949C948EFA0EE66E94EC32F07F
:10320000E552400EE66EE66A7C0EE66EBEEC2FF0EE
:10321000E552E552E5529F9A1200D9CFE6FFE1CF81
:10322000D9FFFD0EDBCFF6FFFE0EDBCFF7FF080068
:10323000F55014E0ACA2FED7FD0EDBCFF6FFFE0E7C
:10324000DBCFF7FF0800F550E66EABEC32F0E5524D
:10325000FD0EDB2AFE0E01E3DB2AE3D7E552E7CFC2
:10326000D9FF1200D9CFE6FFE1CFD9FFFD0EDBCFAA
:10327000E9FFFE0EDBCFEAFFEF5013E0ACA2FED772
:10328000FD0EDBCFE9FFFE0EDBCFEAFFEF50E66E6F
:10329000ABEC32F0E552FD0EDB2AFE0E01E3DB2A39
:1032A000E5D7E552E7CFD9FF12004E0EE66E420E8B
:1032B000E66EB3DFE552E5521200D9CFE6FFE1CF6B
:1032C000D9FFFD0EDBCFE9FFFE0EDBCFEAFFEF50AB
:1032D00020E1F90EDBCF08F0FA0EDBCF09F0010E8A
:1032E000081801E109500DE0085001E1095001E022
:1032F00010D0DF0EE66E410EE66E8FDFE552E5522E
:1033000008D0CD0EE66E410EE66E87DFE552E5523F
:1033100000D0D950FB0FE96EFF0EDA20EA6E010EE5
:10332000EE1801E1ED5001E0B7D3FD0EDBCFE9FF70
:10333000FE0EDBCFEAFFEF0401E0DDD0D950F90F3C
:10334000E96EFF0EDA20EA6EEE50ED100EE15A0E35
:10335000E66E410EE66E61DFE552E552160EE66E50
:10336000410EE66E5ADFE552E552D950F90FE96E8B
:10337000FF0EDA20EA6E010EEE1801E1ED504CE18D
:10338000F70EDBCF08F0F80EDBCF09F0040E0818BB
:1033900001E1095038E0030E081801E109502AE064
:1033A000020E081801E109501CE0010E081801E1A5
:1033B00009500EE0085001E1095001E02DD075DF01
:1033C000060EE66E410EE66E28DFE552E55224D089
:1033D0006CDFF50EE66E400EE66E1FDFE552E5523D
:1033E0001BD063DFE50EE66E400EE66E16DFE5529B
:1033F000E55212D05ADFD00EE66E400EE66E0DDFBB
:10340000E552E55209D051DFBD0EE66E400EE66E84
:1034100004DFE552E55200D0D950F90FE96EFF0EF6
:10342000DA20EA6E020EEE1801E1ED5064E1F70ECB
:10343000DBCF08F0F80EDBCF09F0040E081801E12D
:10344000095050E0020E081801E109501AE0010E7F
:10345000081801E109500DE0085001E1095001E0B0
:103460004AD0AF0EE66E400EE66ED7DEE552E5526C
:1034700042D0A00EE66E400EE66ECFDEE552E5527B
:103480003AD013DFFD0EDBCFE9FFFE0EDBCFEAFF04
:103490000D0EE926000EEA22EFCF14F0156A14BED5
:1034A000156814C0E6FF15C0E6FF910E166E400EBB
:1034B000176E186A16C0E6FF17C0E6FF18C0E6FFD1
:1034C000000EE66E010EE66ED2EC2EF0196E070EBF
:1034D000E15E1950000EE66E010EE66EC3DEE552A7
:1034E000E55209D0E2DE800EE66E400EE66E95DE15
:1034F000E552E55200D0FD0EDBCFE9FFFE0EDBCF3B
:10350000EAFFEF50020856E1D950F90FE96EFF0EBD
:10351000DA20EA6EEE50ED100EE1430EE66E400E3C
:10352000E66E7BDEE552E552160EE66E410EE66E65
:1035300074DEE552E552D950F90FE96EFF0EDA203C
:10354000EA6E010EEE1801E1ED5022E1F70EDBCF3D
:1035500008F0F80EDBCF09F0010E081801E1095060
:103560000EE0085001E1095001E012D09EDE300E5D
:10357000E66E400EE66E51DEE552E55209D095DE6C
:10358000180EE66E400EE66E48DEE552E55200D0BB
:10359000D950F90FE96EFF0EDA20EA6E020EEE182E
:1035A00001E1ED5007E1060EE66E400EE66E35DEF7
:1035B000E552E552FD0EDBCFE9FFFE0EDBCFEAFF61
:1035C000EF50030801E067D2D950F90FE96EFF0E02
:1035D000DA20EA6EEE50ED100EE1540EE66E3F0E6C
:1035E000E66E1BDEE552E552160EE66E410EE66E05
:1035F00014DEE552E552D950F90FE96EFF0EDA20DC
:10360000EA6E010EEE1801E1ED5068E1F70EDBCF36
:1036100008F0F80EDBCF09F0060E081801E109509A
:1036200054E0050E081801E1095046E0040E0818A0
:1036300001E1095038E0030E081801E109502AE0C1
:10364000020E081801E109501CE0010E081801E102
:1036500009500EE0085001E1095001E03FD025DE9D
:10366000430EE66E3F0EE66ED8DDE552E55236D0EB
:103670001CDE320EE66E3F0EE66ECFDDE552E55201
:103680002DD013DE1E0EE66E3F0EE66EC6DDE55251
:10369000E55224D00ADEFF0EE66E3E0EE66EBDDD7C
:1036A000E552E5521BD001DEE90EE66E3E0EE66EF7
:1036B000B4DDE552E55212D0F8DDCA0EE66E3E0EDC
:1036C000E66EABDDE552E55209D0EFDDB20EE66EF7
:1036D0003E0EE66EA2DDE552E55200D0D950F90F5C
:1036E000E96EFF0EDA20EA6E020EEE1801E1ED50EF
:1036F00001E01CD1F70EDBCF08F0F80EDBCF09F0AC
:10370000050E081801E1095001E1DFD0040E081888
:1037100001E1095001E1A8D0030E081801E10950A8
:1037200072E0020E081801E109503CE0010E081891
:1037300001E1095006E0085001E1095001E0F6D02E
:10374000F5D0B3DDFD0EDBCFE9FFFE0EDBCFEAFFE8
:103750000D0EE926000EEA22EFCF14F0156A14BE12
:10376000156814C0E6FF15C0E6FF910E166E400EF8
:10377000176E186A16C0E6FF17C0E6FF18C0E6FF0E
:10378000000EE66E010EE66ED2EC2EF0196E070EFC
:10379000E15E1950000EE66E010EE66E63DDE55245
:1037A000E552C4D082DDFD0EDBCFE9FFFE0EDBCF9C
:1037B000EAFF0E0EE926000EEA22EFCF14F0156A9A
:1037C00014BE156814C0E6FF15C0E6FFA00E166E05
:1037D0003E0E176E186A16C0E6FF17C0E6FF18C047
:1037E000E6FF000EE66E010EE66ED2EC2EF0196ECC
:1037F000070EE15E1950000EE66E010EE66E32DD38
:10380000E552E55293D051DDFD0EDBCFE9FFFE0E10
:10381000DBCFEAFF0F0EE926000EEA22EFCF14F00D
:10382000156A14BE156814C0E6FF15C0E6FF830EC6
:10383000166E3E0E176E186A16C0E6FF17C0E6FF3A
:1038400018C0E6FF000EE66E010EE66ED2EC2EF01A
:10385000196E070EE15E1950000EE66E010EE66E5F
:1038600001DDE552E55262D020DDFD0EDBCFE9FF40
:10387000FE0EDBCFEAFF100EE926000EEA22EFCFA4
:1038800014F0156A14BE156814C0E6FF15C0E6FFF3
:103890006F0E166E3E0E176E186A16C0E6FF17C042
:1038A000E6FF18C0E6FF000EE66E010EE66ED2ECF3
:1038B0002EF0196E070EE15E1950000EE66E010E35
:1038C000E66ED0DCE552E55231D0EFDCFD0EDBCF09
:1038D000E9FFFE0EDBCFEAFF110EE926000EEA2219
:1038E000EFCF14F0156A14BE156814C0E6FF15C0BA
:1038F000E6FF520E166E3E0E176E186A16C0E6FFF1
:1039000017C0E6FF18C0E6FF000EE66E010EE66E79
:10391000D2EC2EF0196E070EE15E1950000EE66E25
:10392000010EE66E9FDCE552E55200D0D950F90F4A
:10393000E96EFF0EDA20EA6E030EEE1801E1ED509B
:1039400001E0A9D0F70EDBCF08F0F80EDBCF09F0CD
:10395000020E081801E109506CE0010E081801E19F
:10396000095036E0085001E1095001E094D09DDC97
:10397000FD0EDBCFE9FFFE0EDBCFEAFF120EE926DC
:10398000000EEA22EFCF14F0156A14BE156814C0B9
:10399000E6FF15C0E6FF3B0E166E3E0E176E186A68
:1039A00016C0E6FF17C0E6FF18C0E6FF000EE66E81
:1039B000010EE66ED2EC2EF0196E070EE15E195084
:1039C000000EE66E010EE66E4DDCE552E55263D068
:1039D0006CDCFD0EDBCFE9FFFE0EDBCFEAFF130E42
:1039E000E926000EEA22EFCF14F0156A14BE15681E
:1039F00014C0E6FF15C0E6FF280E166E3E0E176EC9
:103A0000186A16C0E6FF17C0E6FF18C0E6FF000EF2
:103A1000E66E010EE66ED2EC2EF0196E070EE15E38
:103A20001950000EE66E010EE66E1CDCE552E55202
:103A300032D03BDCFD0EDBCFE9FFFE0EDBCFEAFF31
:103A4000140EE926000EEA22EFCF14F0156A14BE18
:103A5000156814C0E6FF15C0E6FF130E166E3E0E85
:103A6000176E186A16C0E6FF17C0E6FF18C0E6FF1B
:103A7000000EE66E010EE66ED2EC2EF0196E070E09
:103A8000E15E1950000EE66E010EE66E32EC19F0A2
:103A9000E552E55200D056D0D950FB0FE96EFF0E2B
:103AA000DA20EA6EEE50ED104DE1FD0EDBCFE9FFBE
:103AB000FE0EDBCFEAFF070EE926000EEA22EF50EA
:103AC00000E0FD0EDBCFE9FFFE0EDBCFEAFFEF509B
:103AD000030A27E0010A14E0030A01E033D0010ED3
:103AE000E66E3E0EE66E0DEC19F0E552E552E40E80
:103AF000E66E3D0EE66E0DEC19F0E552E55222D071
:103B0000D40EE66E3D0EE66E0DEC19F0E552E55270
:103B1000E40EE66E3D0EE66E0DEC19F0E552E55250
:103B200011D0C60EE66E3D0EE66E0DEC19F0E552B4
:103B3000E552E40EE66E3D0EE66E0DEC19F0E55230
:0C3B4000E55200D0E552E7CFD9FF12009B
:043B4C0046524F4E40
:103B5000543A256420636D2020202020004C3D2510
:103B60006420636D20523D256420636D2000486110
:103B70006C66205363616E2020202020202000539B
:103B800063616E6E696E672E2E2E2020202020002D
:103B900046756C6C205363616E202020202020200D
:103BA0000044204741494E3D202020202020202055
:103BB000200049204741494E3D2020202020202040
:103BC00020200050204741494E3D20202020202029
:103BD0002020200052462053414D504C45533D205B
:103BE000202020200049522053414D504C45205266
:103BF0004154453D200049522053414D504C4553BE
:103C00003D2020202020004D41582059415720526E
:103C10004154453D20202000362D5345545F4D4FE3
:103C200044454D414E55414C00352D5345545F524E
:103C3000465F53414D504C455300342D5345545F1E
:103C400049525F5241544520202000332D534554A2
:103C50005F49525F53414D504C455300322D5345FF
:103C6000545F5941575F52415445202000312D5334
:103C700045545F53504545445F4D41582000302D19
:103C80005345545F5049445F4741494E53200046D5
:103C90004143544F52595F4D4F444520202020004E
:103CA000312D5345545F555345524D414E55414C6E
:103CB00000302D5345545F46494E44504152524FB7
:103CC0005400555345525F4155544F5F4D4F444545
:103CD000202000456E7465722050617373636F64B9
:103CE000653A20004D41582053504545443D202021
:103CF000202020200025642020202020202020209B
:103D0000202020202020004D4F544F52535F4F461B
:103D100046004D4F544F52535F4F4E00342D534584
:103D2000545F464143544F525920202000332D53B5
:103D300045545F555345525F4155544F2000322D35
:103D40005345545F53504545445F4D415820003121
:103D50002D5345545F4D4F544F52535F4F464600CD
:103D6000302D5345545F4D4F544F52535F4F4E20AB
:103D700000506C6561736520776169742020202094
:103D80002000555345525F4D414E55414C5F4D4FBC
:103D900044450020202020202020202020202020FA
:103DA00020202000496E697469616C6973696E67CF
:103DB0002E2E2E200057656C636F6D6520746F206A
:103DC0004853532020000C464143544F52595F4DF5
:103DD0004F4445000C555345525F4155544F5F4D7C
:103DE0004F4445000A0D5072657373204120746F73
:103DF00020656E74657220636F6D6D616E640A0D6F
:103E0000000C555345525F4D414E55414C5F4D4F4F
:103E1000444500446572697661746976652047613E
:103E2000696E3D2025640D00496E74656772616C92
:103E3000204761696E3D2025640D0050726F706FE0
:103E40007274696F6E616C204761696E3D202564F4
:103E50000D0052462053414D504C45532050455281
:103E600020455354494D4154453D2025640D00499A
:103E7000522053414D504C4520524154453D202540
:103E8000640D0049522053414D504C45532050453C
:103E90005220455354494D4154453D2025640D0061
:103EA0004D41582059415720524154453D202564E9
:103EB0000D00362D5345545F4D4F44455F555345D6
:103EC000525F4D414E55414C0D00352D5345545FC9
:103ED00052465F53414D504C45535F5045525F45EC
:103EE0005354494D4154450D00342D5345545F49B9
:103EF000525F53414D504C455F524154450D003384
:103F00002D5345545F49525F53414D504C45535FCB
:103F10005045525F455354494D4154450D00322D93
:103F20005345545F5941575F524154455F4D415885
:103F30000D00312D5345545F53504545445F4D416D
:103F4000580D00302D5345545F5049445F47414957
:103F50004E530D000C464143544F52595F4D4F4450
:103F6000450A0D302D5345545F5049445F47414940
:103F70004E530A0D312D5345545F53504545445F10
:103F80004D41580A0D322D5345545F5941575F52E8
:103F90004154455F4D41580A0D332D5345545F49F7
:103FA000525F53414D504C45535F5045525F45530E
:103FB00054494D4154450A0D342D5345545F4952DF
:103FC0005F53414D504C455F524154450A0D352DCC
:103FD0005345545F52465F53414D504C45535F50DB
:103FE00045525F455354494D4154450A0D362D53B2
:103FF00045545F4D4F44455F555345525F4D414ECB
:1040000055414C0A0D000A46696E64696E6720507E
:104010006172726F740A0D00312D5345545F4D4F1C
:1040200044455F555345525F4D414E55414C0D003F
:10403000302D5345545F46494E445F504152524FD4
:10404000540D000C555345525F4155544F5F4D4F31
:1040500044450A0D302D5345545F46494E445F5048
:104060004152524F540A0D312D5345545F4D4F4428
:10407000455F555345525F4D414E55414C0A0D0029
:10408000456E7465722050617373636F64653A0D99
:10409000004D41582053504545443D2025640D00B6
:1040A0000A0D4D4F544F52535F4F46460A0D000ABA
:1040B0000D4D4F544F52535F4F4E0A0D00342D5348
:1040C00045545F4D4F44455F464143544F5259005C
:1040D000332D5345545F4D4F44455F555345525F13
:1040E0004155544F00322D5345545F53504545447C
:1040F0005F4D415800312D5345545F4D4F544F5241
:10410000535F4F464600302D5345545F4D4F544F3B
:1041100052535F4F4E005573652055502F444F57F3
:104120004E206172726F777320746F207363726FA9
:104130006C6C0A0D5072657373204120746F20738C
:10414000656C6563740A0D50726573732042207448
:104150006F20657869740A0A0D000C555345525F4B
:104160004D414E55414C5F4D4F44450A0A0D302D8F
:104170005345545F4D4F544F52535F4F4E0A0D31CC
:104180002D5345545F4D4F544F52535F4F46460A8F
:104190000D322D5345545F53504545445F4D4158B2
:1041A0000A0D332D5345545F4D4F44455F555345DC
:1041B000525F4155544F0A0D342D5345545F4D4FB6
:1041C00044455F464143544F52590A0D00496E69B8
:1041D0007469616C6973696E672E2E2E0A0D000C6E
:1041E00057656C636F6D6520746F20746865204837
:1041F0006172616D626520536F756C205365656BEC
:1042000065720A0D5072657373204120746F2065CA
:104210006E74657220636F6D6D616E647320616E84
:10422000642055502F444F574E206172726F777340
:1042300020746F207363726F6C6C0A0D496E697421
:1042400069616C6973696E672E2E2E0A0D000D2050
:10425000202020202020202020202020202020205E
:10426000202020202020202020202020202020204E
:104270002020202020202020200D0057726F6E6704
:104280002050617373636F646500550044004C00F7
:0A42900052004800460041004200C1
:06429A001200D9CFE6FF7F
:1042A000E1CFD9FFE652F70EDBCFE9FFF80EDBCF07
:1042B000EAFF040EE926000EEA22EF5001E0D2D018
:1042C000030E0001E75D01E092D0F70EDBCFE9FFBE
:1042D000F80EDBCFEAFF030EE926000EEA22010EFC
:1042E000EF6EF70EDBCFE9FFF80EDBCFEAFF030E30
:1042F000E926000EEA22EF5001E1F3D7F70EDBCFFB
:10430000E9FFF80EDBCFEAFF030EE926000EEA22F2
:10431000EF50E66EE8C0E9FFEA6AE9BEEA68DB0E44
:10432000E926000EEA22E552E750EF6E0C0E00017E
:10433000E76EE819E8AE02D0E73402D0E750E85D56
:1043400027E2E82B030EE76FFB0EDBCFE9FFFC0E45
:10435000DBCFEAFF020EE926000EEA22520EEF6ED4
:10436000FB0EDBCFE9FFFC0EDBCFEAFFE80EEE6EC3
:10437000020EED6EF70EDBCFE9FFF80EDBCFEAFFA2
:10438000040EE926000EEA22010EEF6E6DD069D010
:10439000FD0EDBCFE6FFFE0EDBCFE6FFDB0EE66EAB
:1043A000000EE66E66D8E552E552E552E552DF6E44
:1043B0000001E86BDFCF14F0320EE76E1418E8AEA0
:1043C00002D0143403D0E750D88014540CE2FD0E10
:1043D000DBCFE9FFFE0EDBCFEAFF070EE926000E7A
:1043E000EA22010EEF6E010EE76F000E3DD0E705E9
:1043F00031E1F60EDB041EE1F70EDBCFE6FFF80E2F
:10440000DBCFE6FFFB0EDBCFE6FFFC0EDBCFE6FFEC
:10441000F90EDBCFE6FFFA0EDBCFE6FF90D8146E85
:10442000060EE15E1450000902E0010E1DD0000EE0
:104430001BD00FD0F60EDB5002080BE1FB0EDBCFDA
:10444000E6FFFC0EDBCFE6FFA5D9E552E552010EF3
:104450000BD007D0020EE75D04E1010EE76F000EFE
:1044600003D002D0000E00D0E552E552E7CFD9FFCD
:104470001200D9CFE6FFE1CFD9FF030EE126010EEE
:10448000DB6A020EDB6ADF6ADFCF14F00C0EE76E28
:104490001418E8AE02D0E73402D0E750145C30E2E2
:1044A000DFCF15F0166A15BE1668FD0EDB50152419
:1044B000E96EFE0EDB501620EA6EEFCF14F0020E0E
:1044C000DB50E76E1418E8AE02D0143403D0E75086
:1044D000D880145413E2010EDFCFDBFFDFCF14F0DE
:1044E000156A14BE1568FD0EDB501424E96EFE0E2D
:1044F000DB501520EA6E020EEFCFDBFFDF2AC4D7B8
:10450000FB0EDBCFE9FFFC0EDBCFEAFFEE52010E24
:10451000DBCFEFFF020EDBCFEBF0010EDBCFEAF0DB
:10452000020EDB50146E030EE15C03E200D0E16A80
:10453000E552E16E1450E552E7CFD9FF1200D9CF12
:10454000E6FFE1CFD9FFFD0EDBCFE9FFFE0EDBCFAB
:10455000EAFFEE52EF50550831E1FB0EDBCFE9FFE9
:10456000FC0EDBCFEAFFE80EEE6E020EED6EFD0EE6
:10457000DBCFE9FFFE0EDBCFEAFFEE52EF50E66E37
:10458000FB0EDBCFE9FFFC0EDBCFEAFF020EE926D4
:10459000000EEA22E552E750EF6E0001020EE76FCF
:1045A000F90EDBCFE9FFFA0EDBCFEAFF040EE926B6
:1045B000000EEA22010EEF6EE9D0E6D0FD0EDBCF51
:1045C000E9FFFE0EDBCFEAFFEE52EF50440831E187
:1045D000FB0EDBCFE9FFFC0EDBCFEAFFE80EEE6E51
:1045E000020EED6EFD0EDBCFE9FFFE0EDBCFEAFF24
:1045F000EE52EF50E66EFB0EDBCFE9FFFC0EDBCF99
:10460000EAFF020EE926000EEA22E552E750EF6EBD
:104610000001020EE76FF90EDBCFE9FFFA0EDBCFE8
:10462000EAFF040EE926000EEA22010EEF6EAED07C
:10463000ABD0FD0EDBCFE9FFFE0EDBCFEAFFEE5283
:10464000EF50520831E1FB0EDBCFE9FFFC0EDBCF70
:10465000EAFFE80EEE6E020EED6EFD0EDBCFE9FF17
:10466000FE0EDBCFEAFFEE52EF50E66EFB0EDBCF25
:10467000E9FFFC0EDBCFEAFF020EE926000EEA227C
:10468000E552E750EF6E0001020EE76FF90EDBCF47
:10469000E9FFFA0EDBCFEAFF040EE926000EEA225C
:1046A000010EEF6E73D070D0FD0EDBCFE9FFFE0E72
:1046B000DBCFEAFFEE52EF504C0831E1FB0EDBCFCF
:1046C000E9FFFC0EDBCFEAFFE80EEE6E020EED6EA8
:1046D000FD0EDBCFE9FFFE0EDBCFEAFFEE52EF501F
:1046E000E66EFB0EDBCFE9FFFC0EDBCFEAFF020E2E
:1046F000E926000EEA22E552E750EF6E0001020EB5
:10470000E76FF90EDBCFE9FFFA0EDBCFEAFF040E0D
:10471000E926000EEA22010EEF6E38D035D0FD0EEC
:10472000DBCFE9FFFE0EDBCFEAFFEE52EF5046088B
:1047300011E10001030EE76FF90EDBCFE9FFFA0E7E
:10474000DBCFEAFF040EE926000EEA22010EEF6E2F
:104750001DD01AD0FD0EDBCFE9FFFE0EDBCFEAFF46
:10476000EE52EF50480810E10001030EE76FF90E1A
:10477000DBCFE9FFFA0EDBCFEAFF040EE926000EDD
:10478000EA22010EEF6E02D0000E00D0E552E7CF14
:10479000D9FF1200D9CFE6FFE1CFD9FF0C0EE126F9
:1047A0000001E90504E1030EE76FE96FA5D0030EF0
:1047B000E95D2EE1FD0EDBCFE9FFFE0EDBCFEAFF68
:1047C000020EE926000EEA22520EEF6EEAC014F045
:1047D000156A14BE1568E80E1502F3CF15F0020E27
:1047E0001402F3501526E80E1402F3CF14F0F4501F
:1047F0001526FD0EDBCFE9FFFE0EDBCFEAFF14C06E
:10480000EEFF15C0EDFF020EE76F040EE96F74D0E6
:10481000040EE95D6BE1640EDE6EDD6AC80EF36EB8
:10482000020EF3CFDBFF030EDB6A2C0EF36E040ED9
:10483000F3CFDBFF010EF36E050EF3CFDBFF900E1F
:10484000F36E060EF3CFDBFF010EF36E070EF3CF10
:10485000DBFFF40EF36E080EF3CFDBFF010EF36EF9
:10486000090EF3CFDBFF580EF36E0A0EF3CFDBFF1A
:10487000020EF36E0B0EF3CFDBFFFD0EDBCFE9FF75
:10488000FE0EDBCFEAFF020EE926000EEA22460EFC
:10489000EF6ED9CF16F0DACF17F00A0E1A6E1AC0E3
:1048A0000EF0EBC009F077EC2FF009C018F0196A90
:1048B00018BE1968D8901836193616501824E96EA3
:1048C00017501920EA6EEECF14F0EFCF15F0FD0E61
:1048D000DBCFE9FFFE0EDBCFEAFF14C0EEFF15C011
:1048E000EDFF0001020EE76FE96F06D0020EE95DF1
:1048F00003E1010EE76FE96F0C0EE15C02E2E16A91
:0C490000E552E16EE552E7CFD9FF12004E
:04490C0003EC30F098
:10491000F18E819493840F0EC16E82989498F088E2
:10492000F08EF092F1981200D9CFE6FFE1CFD9FFD7
:104930000AEC30F00001FC6F4B0EFC5D0AE1FD0E4D
:10494000DBCFFDF0FE0EDBCFFEF00101010E806F2C
:104950001ED04F0EFC5D0BE1FB0EDBCFE9FFFC0E22
:10496000DBCFEAFF010EEF6E0101806B10D07A0EF3
:10497000FC5D0DE0010180050AE1FDC0E9FFFEC01C
:10498000EAFFFCC0EFFF0001FD2B000EFE2300D06C
:10499000E552E7CFD9FF1200D9CFE6FFE1CFD9FF2B
:1049A000100EE126FE0EDB50DF6EFC0EDBCF08F0B2
:1049B000FD0EDBCF09F0DE5208C0DEFF09C0DDFFCF
:1049C000DD52100EF36E030EF3CFDBFF100EF36E0D
:1049D000040EF3CFDBFF100EF36E050EF3CFDBFFFB
:1049E000100EF36E060EF3CFDBFF070EDB6A200E10
:1049F000F36E080EF3CFDBFF090EDB6A0C0EF36ECD
:104A00000A0EF3CFDBFF0B0EDB6A010EDBCF08F0E3
:104A1000020EDBCF09F00E0E08C0DBFF0F0E09C03F
:104A2000DBFF090EDBCF14F0040EE76E1418E8AEBE
:104A300002D0E73402D0E750145C01E377D00E0EC9
:104A4000DBCF16F00F0EDBCF17F00A0EDB5016C0CF
:104A500014F017C015F005E0D89015321432E804B0
:104A6000FBE10C0E14C0DBFF0D0E15C0DBFFD950AF
:104A7000030F1C6EDACF1DF0090EDBCF1EF01F6A8C
:104A80001EBE1F681C501E24E96E1D501F20EA6EBA
:104A9000EFCF1AF01B6A1ABE1B680C0EDB501A10FF
:104AA000186E0D0EDB501B10196ED950030F146ECB
:104AB000DACF15F0090EDBCF16F0176A16BE1768AD
:104AC00014501624E96E15501720EA6E18C0EFFF37
:104AD0000C0EDBCF18F00D0EDBCF19F00A0EDB50F9
:104AE00018C016F019C017F005E0D8901636173622
:104AF000E804FBE10E0EDBCF08F00F0EDBCF09F070
:104B00001650085C146E17500958156E0E0E14C01E
:104B1000DBFF0F0E15C0DBFF0A0EDB50FC0FE76E4C
:104B20000A0EE7CFDBFF090EDB2A7BD7D950030F34
:104B30001C6EDACF1DF0090EDBCF1EF01F6A1EBE01
:104B40001F681C501E24E96E1D501F20EA6EEFCF17
:104B50001AF01B6A1ABE1B680C0EDB501A10186E76
:104B60000D0EDB501B10196ED950030F146EDACFE7
:104B700015F0090EDBCF16F0176A16BE1768145031
:104B80001624E96E15501720EA6E18C0EFFF4B0E81
:104B9000E66E2BEC30F0E552640EE66E1CEC33F062
:104BA000E5525E0EE66E2BEC30F0E552640EE66EDA
:104BB0001CEC33F0E5520B0EDBCF14F0040EE76E65
:104BC0001418E8AE02D0E73402D0E750145C1EE2BD
:104BD000D950030F146EDACF15F00B0EDBCF16F0A1
:104BE000176A16BE176814501624E96E1550172060
:104BF000EA6EEF50E66E2BEC30F0E5520B0EDB2A3E
:104C0000640EE66E1CEC33F0E552D5D7640EE66E0A
:104C10001CEC33F0E552DFCFE6FF2BEC30F0E55231
:104C2000640EE66E1CEC33F0E5524F0EE66E2BEC94
:104C300030F0E552640EE66E1CEC33F0E552100ED7
:104C4000E15C03E200D0E16AE552E16EE552E7CFB4
:104C5000D9FF12004B0EE66E2BEC30F0E552040E3D
:104C6000E66E1CEC33F0E5525E0EE66E2BEC30F097
:104C7000E552040EE66E1CEC33F0E5527E0EE66E55
:104C80002BEC30F0E552040EE66E1CEC33F0E552EE
:104C90004F0EE66E2BEC30F0E55200D01200D9CF6B
:104CA000E6FFE1CFD9FF030EE126010EDB6AFD0E20
:104CB000DBCFE9FFFE0EDBCFEAFFEF505E0801E03D
:104CC000F9D0FD0EDB2AFE0E01E3DB2ADF6AFD0EC2
:104CD000DBCFE9FFFE0EDBCFEAFFEF507E0809E1F4
:104CE000F50EDBCFE9FFF60EDBCFEAFF010EEF6E2C
:104CF000E1D0FD0EDBCFE9FFFE0EDBCFEAFFEF5088
:104D0000F00BE76E020EE7CFDBFFDB5020082AE155
:104D1000DFCF14F0030EE76E1418E8AE02D0E734CC
:104D200002D0E750145C1EE2FD0EDBCFE9FFFE0E61
:104D3000DBCFEAFFEF500F0BE66EFB0EDBCFE9FF98
:104D4000FC0EDBCFEAFFE552E750EF6EFB0EDB2AED
:104D5000FC0E01E3DB2AFD0EDB2AFE0E01E3DB2A5B
:104D6000DF2AD6D7F70EDBCFE9FFF80EDBCFEAFF5D
:104D7000EF6ADF6AFD0EDBCFE9FFFE0EDBCFEAFF55
:104D8000EF50F00BE76E020EE7CFDBFFDB50300891
:104D900005E0020EDB50400801E08BD0DFCF14F0BD
:104DA000020EE76E1418E8AE02D0E73402D0E750E6
:104DB000145C6CE2F70EDBCFE9FFF80EDBCFEAFF05
:104DC000EF38F00BE66EF70EDBCFE9FFF80EDBCF26
:104DD000EAFFE552E750EF6E020EDB50300824E1A7
:104DE000FD0EDBCFE9FFFE0EDBCFEAFFEF50D00F69
:104DF000146EF70EDBCFE9FFF80EDBCFEAFFEF50C2
:104E00001410E66EF70EDBCFE9FFF80EDBCFEAFFFA
:104E1000E552E750EF6EF70EDBCFE9FFF80EDBCF80
:104E2000EAFFEF5001E1DF2A020EDB5040081BE1F0
:104E3000FD0EDBCFE9FFFE0EDBCFEAFFEF50C90F1F
:104E4000146EF70EDBCFE9FFF80EDBCFEAFFEF5071
:104E50001410E66EF70EDBCFE9FFF80EDBCFEAFFAA
:104E6000E552E750EF6EFD0EDB2AFE0E01E3DB2A72
:104E7000FD0EDBCFE9FFFE0EDBCFEAFFEF50F00BBC
:104E8000E76E020EE7CFDBFFDF2A88D7FD0EDBCF10
:104E9000E9FFFE0EDBCFEAFFEF500F0BE66EF90ED7
:104EA000DBCFE9FFFA0EDBCFEAFFE552E750EF6E0A
:104EB00001D000D0030EE15C02E2E16AE552E16E4E
:104EC000E552E7CFD9FF1200020EE66E00EC33F098
:104ED000E552040EE66E1CEC33F0E55200000000D3
:104EE00000000000000000000000000000001200B0
:104EF000010EE66E00EC33F0E552020EE66E1CEC9D
:104F000033F0E55200001200020EE66E00EC33F0C2
:104F1000E552040EE66E1CEC33F0E5520000000092
:0C4F200000000000000000000000120073
:044F2C00F29EF29C63
:104F300084EC2DF086EC24F00001806B0A0E826F69
:104F4000836F846F856F866F876F886F896F8A6BB9
:104F50008B6B8D6B8E6F1E0E8F6F140E906F0A0E03
:104F6000916F010E926F936F946B956B966F976B29
:104F7000986B01015E6F0001550E816FA56BB0C08B
:104F8000D9F0DA6BD9BFDA69AEC0D9F0AFC0DAF0C8
:104F9000E80EAE6F030EAF6F620EB06FF28CD08E64
:104FA000F28E800EE66E000EE66ED00EE66E000EFD
:104FB000E66E9AEC2DF0E552E552E552E55280C0DE
:104FC0008CF082C099F083C09AF084C09BF085C0B9
:104FD0009CF087C09EF088C09FF089C0A0F086C07A
:104FE0009DF00001B10524E1D50EE66E000EE66EDF
:104FF000D40EE66E000EE66E5F0EE66E010EE66EF5
:10500000D10EE66E000EE66EB20EE66E000EE66E95
:105010004FEC26F0146E0A0EE15E1450D1C0A1F0E0
:10502000D2C0A2F0D3C0A3F05FC1A5F00001B16B64
:1050300080C0E6FF5EC1E6FF52D9E552E5520101AC
:105040005E6F5E0505E10001D92B000EDA2307D063
:10505000020E5E5D04E10001D92B000EDA23440E3E
:105060000001815D04E1D92B000EDA2306D0550E34
:10507000815D03E1D92B000EDA23A50502E1D96B8E
:10508000DA6B5EC1E6FFA10EE66E000EE66E800EE4
:10509000E66E000EE66EAE0EE66E000EE66E8C0E4E
:1050A000E66E000EE66E4EEC21F0146E090EE15E27
:1050B00014500101636F8C0EE66E000EE66ECEECAE
:1050C0002DF0E552E55201015E5102E1000E01D0E2
:1050D000010E631511E00001D92B000EDA23AEC0DA
:1050E000E6FFAFC0E6FFB0C0E6FFCCEC24F0E5522F
:1050F000E552E5520101636B54D71200DACFE4FFA9
:10510000E2CFDAFFE9CFE4FFEACFE4FFF6CFE4FF36
:10511000F7CFE4FFF5CFE4FFF3CFE4FFF4CFE4FFF4
:10512000FACFE4FF00EE00F0140EE80403E3EECF44
:10513000E4FFFBD700EE14F00C0EE80403E3EECF1F
:10514000E4FFFBD7E6528150020B17E00C0E010181
:10515000E76E6219E8AE02D0623503D0E750D8801E
:1051600062550BE2F090626BD00EE66E000EE66EBA
:10517000A8EC29F0E552E55226D0F2A408D0F2942A
:10518000F29AD59E010E0101606F616B1CD09EAA40
:1051900009D0D00EE66E000EE66E3FEC2AF0E55226
:1051A000E55211D0A1A00FD0A19030EC2BF00D0E44
:1051B0000101E76E6219E8AE02D0E73402D0E75091
:1051C000625D01E2622BE55200EE1FF00C0EE80476
:1051D00003E3E5CFEDFFFBD700EE13F0140EE80478
:1051E00003E3E5CFEDFFFBD7E5CFFAFFE5CFF4FF13
:1051F000E5CFF3FFE5CFF5FFE5CFF7FFE5CFF6FF0E
:10520000E5CFEAFFE5CFE9FFE5CFDAFF1100DACF1E
:10521000E4FFE2CFDAFFE9CFE4FFEACFE4FFF6CF25
:10522000E4FFF7CFE4FFF5CFE4FFF3CFE4FFF4CFE3
:10523000E4FFFACFE4FF00EE00F0140EE80403E30D
:10524000EECFE4FFFBD700EE14F00C0EE80403E30E
:10525000EECFE4FFFBD7E652F29EF0A210D0F09220
:10526000B10EE66E000EE66EB20EE66E000EE66E53
:1052700094EC24F0E552E552E552E5520BD081A0C2
:1052800009D0F292D00EE66E000EE66E1FEC2BF007
:10529000E552E552F28EE55200EE1FF00C0EE804E6
:1052A00003E3E5CFEDFFFBD700EE13F0140EE804A7
:1052B00003E3E5CFEDFFFBD7E5CFFAFFE5CFF4FF42
:1052C000E5CFF3FFE5CFF5FFE5CFF7FFE5CFF6FF3D
:1052D000E5CFEAFFE5CFE9FFE5CFDAFF1100D9CF4F
:1052E000E6FFE1CFD9FFFD0EDB5000D0E552E7CF5E
:0452F000D9FF1200D0
:0C52F400F18E816A1F0E936E94860F0EDF
:10530000C16EF288F292F18CF086F09CF090F18AF6
:10531000F098F092F290F296F1801200D9CFE6FF69
:10532000E1CFD9FFFD0EDBCFF6FFFE0EDBCFF7FF9F
:105330000800F550E66EFB0EDBCFE9FFFC0EDBCF7D
:10534000EAFFE552E750EF6EE552E7CFD9FF1200D2
:10535000D9CFE6FFE1CFD9FF80A810D0FD0EDBCF7B
:10536000E6FFFE0EDBCFE6FF980EE66E420EE66E1F
:10537000D5DFE552E552E552E5527DD080AA10D046
:10538000FD0EDBCFE6FFFE0EDBCFE6FF960EE66EF0
:10539000420EE66EC3DFE552E552E552E5526BD0B0
:1053A00081A610D0FD0EDBCFE6FFFE0EDBCFE6FFC1
:1053B000940EE66E420EE66EB1DFE552E552E5521E
:1053C000E55259D082A610D0FD0EDBCFE6FFFE0ECF
:1053D000DBCFE6FF920EE66E420EE66E9FDFE552F1
:1053E000E552E552E55247D080A010D0FD0EDBCF4C
:1053F000E6FFFE0EDBCFE6FF900EE66E420EE66E97
:105400008DDFE552E552E552E55235D080A610D049
:10541000FD0EDBCFE6FFFE0EDBCFE6FF8E0EE66E67
:10542000420EE66E7BDFE552E552E552E55223D0AF
:1054300080A210D0FD0EDBCFE6FFFE0EDBCFE6FF35
:105440008C0EE66E420EE66E69DFE552E552E552DD
:10545000E55211D080A40FD0FD0EDBCFE6FFFE0E8B
:10546000DBCFE6FF8A0EE66E420EE66E57DFE552B0
:10547000E552E552E552E552E7CFD9FF1200D9CF08
:10548000E6FFE1CFD9FF7F0EAE5C10E1FD0EDBCF72
:10549000E6FFFE0EDBCFE6FF980EE66E420EE66EEE
:1054A0003DDFE552E552E552E55296D00D0EAE5C79
:1054B00010E1FD0EDBCFE6FFFE0EDBCFE6FF960E22
:1054C000E66E420EE66E2ADFE552E552E552E552FF
:1054D00083D0660EAE5C03E0460EAE5C10E1FD0EBE
:1054E000DBCFE6FFFE0EDBCFE6FF940EE66E420E4C
:1054F000E66E14DFE552E552E552E5526DD0680ED6
:10550000AE5C03E0480EAE5C10E1FD0EDBCFE6FFC3
:10551000FE0EDBCFE6FF920EE66E420EE66EFEDE7C
:10552000E552E552E552E55257D0610EAE5C03E01C
:10553000410EAE5C10E1FD0EDBCFE6FFFE0EDBCFD1
:10554000E6FF8E0EE66E420EE66EE8DEE552E552AE
:10555000E552E55241D0640EAE5C03E0440EAE5C11
:1055600010E1FD0EDBCFE6FFFE0EDBCFE6FF900E77
:10557000E66E420EE66ED2DEE552E552E552E552A7
:105580002BD0730EAE5C03E0530EAE5C10E1FD0E4B
:10559000DBCFE6FFFE0EDBCFE6FF8C0EE66E420EA3
:1055A000E66EBCDEE552E552E552E55215D0770EC7
:1055B000AE5C03E0570EAE5C0FE1FD0EDBCFE6FF05
:1055C000FE0EDBCFE6FF8A0EE66E420EE66EA6DE2C
:1055D000E552E552E552E552E552E7CFD9FF120018
:1055E000D9CFE6FFE1CFD9FFE652FD0EDBCFE9FFD1
:1055F000FE0EDBCFEAFFEFCFDFFFFD0EDBCFE9FFD3
:10560000FE0EDBCFEAFFEF6ADF5000D0E552E55235
:10561000E7CFD9FF1200D9CFE6FFE1CFD9FFFD0ECA
:10562000DBCFE9FFFE0EDBCFEAFFEF6AE552E7CF03
:10563000D9FF120081A800D081B800D01200D9CFC4
:10564000E6FFE1CFD9FFFD0EDBCFE6FFFE0EDBCF9D
:10565000E6FFE1DFE552E552E552E7CFD9FF120060
:1056600082A406D0829468C1BCFF6AC1BBFF07D088
:1056700082B405D0828464C1BCFF66C1BBFF120046
:10568000BB6A890EB16E829494940B0EBA6EA1908F
:10569000A080A29012008284110EBC6E170EBB6E09
:1056A0001200D9CFE6FFE1CFD9FFFD0EDBCFE6FF39
:1056B000FE0EDBCFE6FF0FD8E552E552FD0EDBCF45
:1056C000E6FFFE0EDBCFE6FF98D8E552E552E55245
:1056D000E7CFD9FF1200D9CFE6FFE1CFD9FFFD0E0A
:1056E000DBCF14F0FE0EDBCF15F00001800E151499
:1056F00010E1FD0EDBCF16F0FE0EDBCF17F0D890D9
:10570000175004E6170E165C000E175802E22FD948
:1057100070D0FD0EDBCF14F0FE0EDBCF15F0D8906D
:10572000155004E6170E145C000E15580FE3FD0E1D
:10573000DBCF16F0FE0EDBCF17F0173404E2165065
:105740004408000E175402E31AD953D0FD0EDBCFE4
:1057500014F0FE0EDBCF15F0153404E214504408AB
:10576000000E15540FE2FD0EDBCF16F0FE0EDBCF60
:1057700017F0173404E216507108000E175402E3B4
:1057800006D937D0FD0EDBCF14F0FE0EDBCF15F0BF
:10579000153404E214507108000E15540FE2FD0E8A
:1057A000DBCF16F0FE0EDBCF17F0173404E21650F5
:1057B0009E08000E175402E3F2D81BD0FD0EDBCF7B
:1057C00014F0FE0EDBCF15F0153404E214509E08E1
:1057D000000E15540EE2FD0EDBCF16F0FE0EDBCFF1
:1057E00017F0173404E21650B408000E175401E302
:1057F000DED8E552E7CFD9FF1200D9CFE6FFE1CFDF
:10580000D9FFFD0EDBCF14F0FE0EDBCF15F000014B
:10581000800E151410E1FD0EDBCF16F0FE0EDBCF6F
:1058200017F0D890175004E6170E165C000E1758A4
:1058300002E275D870D0FD0EDBCF14F0FE0EDBCF88
:1058400015F0D890155004E6170E145C000E15588C
:105850000FE3FD0EDBCF16F0FE0EDBCF17F0173493
:1058600004E216504408000E175402E360D853D0E7
:10587000FD0EDBCF14F0FE0EDBCF15F0153404E285
:1058800014504408000E15540FE2FD0EDBCF16F045
:10589000FE0EDBCF17F0173404E216507108000E2D
:1058A000175402E34CD837D0FD0EDBCF14F0FE0EB8
:1058B000DBCF15F0153404E214507108000E1554B6
:1058C0000FE2FD0EDBCF16F0FE0EDBCF17F0173424
:1058D00004E216509E08000E175402E338D81BD07D
:1058E000FD0EDBCF14F0FE0EDBCF15F0153404E215
:1058F00014509E08000E15540EE2FD0EDBCF16F07C
:10590000FE0EDBCF17F0173404E21650B408000E79
:10591000175401E324D8E552E7CFD9FF1200090E4E
:105920000101646F656BC40E666F676B12000E0E2B
:105930000101646F656BA60E666F676B1200110E36
:105940000101646F656B170E666F676B1200130EB3
:105950000101646F656B880E666F676B12001A0E2B
:105960000101646F656BDB0E666F676B1200B90E29
:105970000101686F696B8C0E6A6F6B6B1200B40E5D
:105980000101686F696BAA0E6A6F6B6B1200B20E31
:105990000101686F696B390E6A6F6B6B1200AF0E95
:1059A0000101686F696BC80E6A6F6B6B1200A80EFD
:0E59B0000101686F696B750E6A6F6B6B1200F8
:0259BE002B0EAE
:1059C000E66E0DEC2EF0E5521200D9CFE6FFE1CFE6
:1059D000D9FF57EC32F0000901E0FBD7800EE66EEC
:1059E0009FEC31F0E55257EC32F0000901E0FBD7B3
:1059F000FD0EDBCF14F0FE0EDBCF15F0166A14C0DF
:105A0000E6FF15C0E6FF16C0E6FFC1EC30F0E55238
:105A1000E552E552E552E7CFD9FF1200D9CFE6FFB4
:105A2000E1CFD9FF57EC32F0000901E0FBD7800E3F
:105A3000E66E9FEC31F0E55257EC32F0000901E0E0
:105A4000FBD7FD0EDBCFE6FFFE0EDBCFE6FFC6EC9D
:105A500031F0E552E552E552E7CFD9FF1200D9CF38
:105A6000E6FFE1CFD9FF57EC32F0000901E0FBD7A8
:105A7000C00EE66E9FEC31F0E55257EC32F00009B3
:105A800001E0FBD7FD0EDBCF14F0FE0EDBCF15F0EF
:105A9000166A14C0E6FF15C0E6FF16C0E6FFC1ECAB
