:020000040000FA
:06000000B0EF0CF012004D
:020006001200E6
:06000800DDEF0AF012001A
:02000E000100EF
:0C001000AE190000AD000000010000006F
:04001C001200D9CF26
:10002000E6FFE1CFD9FFE552E7CFD9FF1200D9CFE4
:10003000E6FFE1CFD9FF550EE126640EDE6EDD6AE4
:10004000F36E020EF3CFDBFF030EDB6AD950180FFD
:10005000E66E000EDA20E66ED950040FE66E000E52
:10006000DA20E66E0C0EE66EE66AD9CFE6FFDACF4E
:10007000E6FF67DA146E080EE15E14500001AD056C
:100080000DE1FE0EDB5001E108D0FE0EDB0401E1C4
:1000900004D0FE0EDB50020800E14ED0020EAD5D32
:1000A00043E1FA0EDBCFE9FFFB0EDBCFEAFFEECF39
:1000B00014F0EFCF15F0FC0EDBCFE9FFFD0EDBCF28
:1000C000EAFFEECF16F0EFCF17F01650141802E14A
:1000D0001750151828E1020EE76EFA0EDBCFE9FF84
:1000E000FB0EDBCFEAFFE750E926000EEA22EECF57
:1000F00018F0EFCF19F0020EE76EFC0EDBCFE9FF30
:10010000FD0EDBCFEAFFE750E926000EEA22EECF34
:100110001AF0EFCF1BF01A50181802E11B501918F3
:1001200002E1010EAD6F08D0030EAD5D05E1140EC6
:10013000F36E2C0EF3CFDBFF550EE15C02E2E16AB9
:10014000E552E16EE552E7CFD9FF1200D9CFE6FFC5
:10015000E1CFD9FF410EE126020EDB68030EDB681A
:10016000D9501C0FE66E000EDA20E66ED950040F4F
:10017000E66E000EDA20E66EF70EDBCFE6FFF80E35
:10018000DBCFE6FFFD0EDBCFE6FFFE0EDBCFE6FFAB
:10019000D8D9146E080EE15E1450D950020FE96EE2
:1001A000DACFEAFFFF0EEE1802E1FF0EED1822E1B2
:1001B000FB0EDBCFE9FFFC0EDBCFEAFF040EDBCF4B
:1001C000EEFF050EDBCFEDFF020EE76EFB0EDBCF81
:1001D000E9FFFC0EDBCFEAFFE750E926000EEA223A
:1001E0001C0EDBCFEEFF1D0EDBCFEDFF020EDB6A38
:1001F000030EDB6AFD0EDBCFE9FFFE0EDBCFEAFF6D
:10020000EECF14F0EFCF15F0D950040F186EDACFFF
:1002100019F0020E086E096ADBCF0DF0030EDBCF7A
:100220000EF091EC0BF018500624E96E19500720DF
:10023000EA6EEECF16F0EFCF17F01650141802E169
:100240001750151801E073D1020EE76EFD0EDBCFDB
:10025000E9FFFE0EDBCFEAFFE750E926000EEA22B7
:10026000EECF1AF0EFCF1BF0D9501C0F1E6EDACF75
:100270001FF0020E086E096ADBCF0DF0030EDBCF14
:100280000EF091EC0BF01E500624E96E1F50072073
:10029000EA6EEECF1CF0EFCF1DF01C501A1802E1F1
:1002A0001D501B1801E043D1F90EDBCFE9FFFA0E18
:1002B000DBCFEAFFEECF20F0EFCF21F0213404E2D4
:1002C00020500008000E215401E331D1F90EDBCF9C
:1002D000E9FFFA0EDBCFEAFFEF50E66ED950340F9C
:1002E000146EDACF15F0020EDB501424E96E030E03
:1002F000DB501520EA6EE552E750EF6EF90EDBCFCA
:10030000E9FFFA0EDBCFEAFFEE6AED6A020EDB2AA6
:10031000030E01E3DB2A020EDBCF14F0030EDBCF6A
:1003200015F0F70EDB50141803E1F80EDB5015182A
:1003300001E0B1D0400EDB6ADE6ADD6ADECF14F088
:10034000DDCF15F0F70EDBCF16F0F80EDBCF17F090
:1003500015501718E8AE02D0173404D01650145CAC
:100360001750155831E2D950340F156EDACF16F008
:10037000DE501524E96EDD501620EA6EEFCF14F042
:10038000D950340F176EDACF18F0400EDBCF19F0CA
:100390001A6A19BE1A6817501924E96E18501A20E3
:1003A000EA6EEF50E76E1418E8AE02D0143403D0B2
:1003B000E750D880145403E2400EDFCFDBFFDF2A82
:1003C000010E01E3DB2ABAD7D950040F166EDACF3B
:1003D00017F0400EDBCF18F0196A18BE1968D890D4
:1003E0001836193616501824E96E17501920EA6E7F
:1003F000EECF14F0EFCF15F0F50EDBCFE9FFF60EE0
:10040000DBCFEAFF14C0EEFF15C0EDFFD9501C0F83
:10041000166EDACF17F0400EDBCF18F0196A18BE4F
:100420001968D8901836193616501824E96E1750E6
:100430001920EA6EEECF14F0EFCF15F0020EE76E42
:10044000F50EDBCFE9FFF60EDBCFEAFFE750E9263A
:10045000000EEA2214C0EEFF15C0EDFFD950340F94
:10046000146EDACF15F0400EDBCF16F0176A16BE09
:10047000176814501624E96E15501720EA6EEF50D5
:10048000E66EF30EDBCFE9FFF40EDBCFEAFFE552B9
:10049000E750EF6E4CD0D950040F166EDACF17F03C
:1004A000020E086E096ADBCF0DF0030EDBCF0EF0F3
:1004B00091EC0BF016500624E96E17500720EA6EF7
:1004C000EECF14F0EFCF15F0FB0EDBCFE9FFFC0E03
:1004D000DBCFEAFF14C0EEFF15C0EDFFD9501C0FB3
:1004E000166EDACF17F0020E086E096ADBCF0DF038
:1004F000030EDBCF0EF091EC0BF016500624E96EE4
:1005000017500720EA6EEECF14F0EFCF15F0020E71
:10051000E76EFB0EDBCFE9FFFC0EDBCFEAFFE75017
:10052000E926000EEA2214C0EEFF15C0EDFF410ED1
:10053000E15C02E2E16AE552E16EE552E7CFD9FF04
:100540001200D9CFE6FFE1CFD9FF120EE126290E26
:10055000F36E060EF3CFDBFF070EDB6AFD0EDBCF7B
:10056000E9FFFE0EDBCFEAFF640EEE6EED6A020ECF
:10057000E76EFD0EDBCFE9FFFE0EDBCFEAFFE750B3
:10058000E926000EEA22640EEE6EED6AFB0EDBCF6A
:1005900014F0FC0EDBCF15F0020E0D6E0E6A14C0C7
:1005A00008F015C009F06BEC0BF004C014F005C0A6
:1005B00015F0010E141801E1155001E004D3010EED
:1005C000E76EFB0EDBCF14F0FC0EDBCF15F0E7502F
:1005D0001426000E1522020E0D6E0E6A14C008F0CD
:1005E00015C009F06BEC0BF008C014F009C015F051
:1005F0001406000E155A080E14C0DBFF090E15C0B4
:10060000DBFFFD0EDBCFE9FFFE0EDBCFEAFF020EC4
:10061000EECFDBFF030EEDCFDBFF080EDBCF08F0E4
:10062000090EDBCF09F0040E08C0DBFF050E09C080
:10063000DBFFFD0EDBCFE9FFFE0EDBCFEAFFEECFE7
:1006400016F0EFCF17F0080EDBCF14F0090EDBCF5A
:1006500015F0D89014361536F90EDB501424E96ED7
:10066000FA0EDB501520EA6E16C0EEFF17C0EDFF44
:10067000020EE76EFD0EDBCFE9FFFE0EDBCFEAFFD9
:10068000E750E926000EEA22020EEECFDBFF030E52
:10069000EDCFDBFF020EE76EFD0EDBCFE9FFFE0EB6
:1006A000DBCFEAFFE750E926000EEA22EECF16F094
:1006B000EFCF17F0080EDBCF14F0090EDBCF15F0EB
:1006C000D89014361536F70EDB501424E96EF80E68
:1006D000DB501520EA6E16C0EEFF17C0EDFFDE6A94
:1006E000DD6ADECF14F0DDCF15F0080EDBCF16F09B
:1006F000090EDBCF17F015501718E8AE02D01734EB
:1007000004D01650145C1750155801E30ED2FD0E9C
:10071000DBCFE9FFFE0EDBCFEAFFEECF16F0EFCF27
:1007200017F0DECF1AF0DDCF1BF0010E1A26000EF7
:100730001B22020E086E096A1AC00DF01BC00EF0D3
:1007400091EC0BF006C018F007C019F018C008F0C3
:1007500019C009F0060EDBCF0DF0070EDBCF0EF04F
:1007600091EC0BF016500624146E17500720156EEE
:10077000020E14C0DBFF030E15C0DBFF080EDBCF3B
:1007800016F0090EDBCF17F0DE501624146EDD5084
:100790001720156E010E1426000E1522040E14C02B
:1007A000DBFF050E15C0DBFFFD0EDBCFE9FFFE0E04
:1007B000DBCFEAFFEECF1AF0EFCF1BF0DECF1EF05B
:1007C000DDCF1FF0010E1E26000E1F22020E086E46
:1007D000096A1EC00DF01FC00EF091EC0BF006C0B0
:1007E0001CF007C01DF01CC008F01DC009F0060E6B
:1007F000DBCF0DF0070EDBCF0EF091EC0BF01A50B3
:100800000624186E1B500720196E080EDBCF16F059
:10081000090EDBCF17F0DE501624146EDD501720C2
:10082000156E010E1426000E1522D89014361536BA
:10083000F90EDB501424E96EFA0EDB501520EA6E37
:1008400018C0EEFF19C0EDFF020EE76EFD0EDBCF04
:10085000E9FFFE0EDBCFEAFFE750E926000EEA22B1
:10086000EECF16F0EFCF17F0060EDB50165C146ECD
:10087000070EDB501758156E020E14C0DBFF030E77
:1008800015C0DBFF020EE76EFD0EDBCFE9FFFE0EAB
:10089000DBCFEAFFE750E926000EEA22EECF1AF09E
:1008A000EFCF1BF0DECF1EF0DDCF1FF0010E1E26B6
:1008B000000E1F22020E086E096A1EC00DF01FC036
:1008C0000EF091EC0BF006C01CF007C01DF01CC030
:1008D00008F01DC009F0060EDBCF0DF0070EDBCFD0
:1008E0000EF091EC0BF006501A5C186E07501B5876
:1008F000196E080EDBCF16F0090EDBCF17F0DE50B5
:100900001624146EDD501720156E010E1426000EED
:100910001522D89014361536F70EDB501424E96EE4
:10092000F80EDB501520EA6E18C0EEFF19C0EDFF7F
:10093000FD0EDBCFE9FFFE0EDBCFEAFFEECF16F0B8
:10094000EFCF17F0060EDB50165C146E070EDB506F
:100950001758156E020E14C0DBFF030E15C0DBFF27
:10096000DECF16F0DDCF17F0010E1626000E17228F
:10097000080EDBCF08F0090EDBCF09F01650085C3B
:10098000146E17500958156E040E14C0DBFF050EC7
:1009900015C0DBFFFD0EDBCFE9FFFE0EDBCFEAFF6C
:1009A000EECF1AF0EFCF1BF0DECF1EF0DDCF1FF041
:1009B000010E1E26000E1F22020E086E096A1EC0BE
:1009C0000DF01FC00EF091EC0BF006C01CF007C03C
:1009D0001DF01CC008F01DC009F0060EDBCF0DF0A5
:1009E000070EDBCF0EF091EC0BF006501A5C186E80
:1009F00007501B58196EDECF16F0DDCF17F0010E31
:100A00001626000E1722080EDBCF08F0090EDBCFEA
:100A100009F01650085C146E17500958156ED890DE
:100A200014361536F90EDB501424E96EFA0EDB503D
:100A30001520EA6E18C0EEFF19C0EDFFFD0EDBCFEA
:100A4000E9FFFE0EDBCFEAFFEECF16F0EFCF17F097
:100A5000060EDB50165C146E070EDB501758156E31
:100A6000020E14C0DBFF030E15C0DBFF020EE76EA3
:100A7000FD0EDBCFE9FFFE0EDBCFEAFFE750E926F4
:100A8000000EEA22EECF1AF0EFCF1BF0DECF1EF001
:100A9000DDCF1FF0010E1E26000E1F22020E086E73
:100AA000096A1EC00DF01FC00EF091EC0BF006C0DD
:100AB0001CF007C01DF01CC008F01DC009F0060E98
:100AC000DBCF0DF0070EDBCF0EF091EC0BF01A50E0
:100AD0000624186E1B500720196EDECF16F0DDCFEE
:100AE00017F0010E1626000E1722080EDBCF08F0B5
:100AF000090EDBCF09F01650085C146E1750095828
:100B0000156ED89014361536F70EDB501424E96EA6
:100B1000F80EDB501520EA6E18C0EEFF19C0EDFF8D
:100B2000DF2A010E01E3DB2ADCD5DE6ADD6ADECFD7
:100B300014F0DDCF15F0D890155004E60C0E145CBF
:100B4000000E15583EE2040EDB2A050E01E3DB2AF7
:100B5000DECF14F0DDCF15F0D89014361536F90E2F
:100B6000DB501424E96EFA0EDB501520EA6E020EFB
:100B7000EECFDBFF030EEDCFDBFF040EDB2A050E0D
:100B800001E3DB2ADECF14F0DDCF15F0D890143668
:100B90001536F70EDB501424E96EF80EDB501520E5
:100BA000EA6E020EEECFDBFF030EEDCFDBFF040E8D
:100BB000DB2A050E01E3DB2ADF2A010E01E3DB2A33
:100BC000B6D724EF0AF0020E146E156AFB0EDBCFC7
:100BD00008F0FC0EDBCF09F014C00DF015C00EF0CC
:100BE0006BEC0BF0100E08C0DBFF110E09C0DBFF31
:100BF000060EDBCF16F0070EDBCF17F0FD0EDBCFB6
:100C0000E9FFFE0EDBCFEAFF1650EE24146E1750FC
:100C1000EE20156E0E0E14C0DBFF0F0E15C0DBFFAD
:100C2000060EDBCF18F0070EDBCF19F0FD0EDBCF81
:100C3000E9FFFE0EDBCFEAFF1850EE24166E1950C6
:100C4000EE20176E100EDBCF14F0110EDBCF15F077
:100C5000D89014361536F90EDB501424E96EFA0ECE
:100C6000DB501520EA6E16C0EEFF17C0EDFF020E36
:100C7000E76EFD0EDBCFE9FFFE0EDBCFEAFFE750AC
:100C8000E926000EEA22EECF16F0EFCF17F0060E9F
:100C9000DB50165C146E070EDB501758156E0E0EE7
:100CA00014C0DBFF0F0E15C0DBFF020EE76EFD0E5A
:100CB000DBCFE9FFFE0EDBCFEAFFE750E926000EAF
:100CC000EA22EECF18F0EFCF19F0060EDB50185CD9
:100CD000166E070EDB501958176E100EDBCF14F08E
:100CE000110EDBCF15F0D89014361536F70EDB5009
:100CF0001424E96EF80EDB501520EA6E16C0EEFFE4
:100D000017C0EDFF100EDBCF14F0110EDBCF15F086
:100D10001406000E155A0C0E14C0DBFF0D0E15C084
:100D2000DBFFFD0EDBCFE9FFFE0EDBCFEAFFEECFF0
:100D300016F0EFCF17F0060EDB50165C146E070EA0
:100D4000DB501758156E0E0E14C0DBFF0F0E15C0CA
:100D5000DBFFFD0EDBCFE9FFFE0EDBCFEAFFEECFC0
:100D600018F0EFCF19F0060EDB50185C166E070E68
:100D7000DB501958176E100EDBCF14F0110EDBCFBD
:100D800015F01406000E155AD89014361536F90EC3
:100D9000DB501424E96EFA0EDB501520EA6E16C003
:100DA000EEFF17C0EDFF060EDBCF16F0070EDBCF10
:100DB00017F0FD0EDBCFE9FFFE0EDBCFEAFF16508A
:100DC000EE24146E1750EE20156E0E0E14C0DBFFCD
:100DD0000F0E15C0DBFF060EDBCF18F0070EDBCFC2
:100DE00019F0020EE76EFD0EDBCFE9FFFE0EDBCF42
:100DF000EAFFE750E926000EEA221850EE24166EAC
:100E00001950EE20176E100EDBCF14F0110EDBCF51
:100E100015F01406000E155AD89014361536F70E34
:100E2000DB501424E96EF80EDB501520EA6E16C074
:100E3000EEFF17C0EDFF0A0EDB6A0B0EDB6A0A0E2F
:100E4000DBCF14F00B0EDBCF15F0100EDBCF16F05E
:100E5000110EDBCF17F01606000E175A1550171893
:100E6000E8AE02D0173404D01650145C1750155851
:100E700001E3EAD2010EE76E0A0EDBCF16F00B0E8D
:100E8000DBCF17F0E7501626000E1722100EDB50AE
:100E90001624146E110EDB501720156E0C0E14C0A4
:100EA000DBFF0D0E15C0DBFF060EDBCF18F0070EC3
:100EB000DBCF19F0FD0EDBCFE9FFFE0EDBCFEAFF43
:100EC0001850EE24166E1950EE20176E010EE76EC4
:100ED0000A0EDBCF1CF00B0EDBCF1DF0E7501C26FB
:100EE000000E1D22020E086E096A1CC00DF01DC006
:100EF0000EF091EC0BF006C01AF007C01BF01AC000
:100F000008F01BC009F0060EDBCF0DF0070EDBCF9B
:100F10000EF091EC0BF016500624146E17500720BB
:100F2000156E0E0E14C0DBFF0F0E15C0DBFF060E94
:100F3000DBCF1CF0070EDBCF1DF0FD0EDBCFE9FF92
:100F4000FE0EDBCFEAFF1C50EE241A6E1D50EE2081
:100F50001B6E010EE76E0A0EDBCF20F00B0EDBCF0F
:100F600021F0E7502026000E2122020E086E096AA9
:100F700020C00DF021C00EF091EC0BF006C01EF069
:100F800007C01FF01EC008F01FC009F0060EDBCF1F
:100F90000DF0070EDBCF0EF091EC0BF01A5006248B
:100FA000186E1B500720196E010EE76E0A0EDBCF7C
:100FB00016F00B0EDBCF17F0E7501626000E1722A7
:100FC000100EDB501624146E110EDB501720156E18
:100FD000D89014361536F90EDB501424E96EFA0E4B
:100FE000DB501520EA6E18C0EEFF19C0EDFF020EAF
:100FF000E76EFD0EDBCFE9FFFE0EDBCFEAFFE75029
:10100000E926000EEA22EECF18F0EFCF19F0060E17
:10101000DB50185C166E070EDB501958176E010E68
:10102000E76E0A0EDBCF1CF00B0EDBCF1DF0E75096
:101030001C26000E1D22020E086E096A1CC00DF04F
:101040001DC00EF091EC0BF006C01AF007C01BF0AB
:101050001AC008F01BC009F0060EDBCF0DF0070E1A
:10106000DBCF0EF091EC0BF00650165C146E0750BF
:101070001758156E0E0E14C0DBFF0F0E15C0DBFFE8
:10108000020EE76EFD0EDBCFE9FFFE0EDBCFEAFFBF
:10109000E750E926000EEA22EECF1CF0EFCF1DF05C
:1010A000060EDB501C5C1A6E070EDB501D581B6EC3
:1010B000010EE76E0A0EDBCF20F00B0EDBCF21F026
:1010C000E7502026000E2122020E086E096A20C079
:1010D0000DF021C00EF091EC0BF006C01EF007C021
:1010E0001FF01EC008F01FC009F0060EDBCF0DF088
:1010F000070EDBCF0EF091EC0BF006501A5C186E69
:1011000007501B58196E010EE76E0A0EDBCF16F062
:101110000B0EDBCF17F0E7501626000E1722100E2D
:10112000DB501624146E110EDB501720156ED8906C
:1011300014361536F70EDB501424E96EF80EDB502A
:101140001520EA6E18C0EEFF19C0EDFF010EE76E24
:101150000A0EDBCF16F00B0EDBCF17F0E75016268A
:10116000000E1722100EDBCF08F0110EDBCF09F0B6
:101170001650085C146E17500958156E0C0E14C0EA
:10118000DBFF0D0E15C0DBFFFD0EDBCFE9FFFE0E12
:10119000DBCFEAFFEECF18F0EFCF19F0060EDB50F1
:1011A000185C166E070EDB501958176E010EE76EAD
:1011B0000A0EDBCF1CF00B0EDBCF1DF0E7501C2618
:1011C000000E1D22020E086E096A1CC00DF01DC023
:1011D0000EF091EC0BF006C01AF007C01BF01AC01D
:1011E00008F01BC009F0060EDBCF0DF0070EDBCFB9
:1011F0000EF091EC0BF00650165C146E0750175869
:10120000156E0E0E14C0DBFF0F0E15C0DBFFFD0EBA
:10121000DBCFE9FFFE0EDBCFEAFFEECF1CF0EFCF16
:101220001DF0060EDB501C5C1A6E070EDB501D58BD
:101230001B6E010EE76E0A0EDBCF20F00B0EDBCF2C
:1012400021F0E7502026000E2122020E086E096AC6
:1012500020C00DF021C00EF091EC0BF006C01EF086
:1012600007C01FF01EC008F01FC009F0060EDBCF3C
:101270000DF0070EDBCF0EF091EC0BF006501A5C70
:10128000186E07501B58196E020EE76E0A0EDBCF60
:1012900016F00B0EDBCF17F0E7501626000E1722C4
:1012A000100EDBCF08F0110EDBCF09F01650085CF2
:1012B000146E17500958156ED89014361536F90E5D
:1012C000DB501424E96EFA0EDB501520EA6E18C0CC
:1012D000EEFF19C0EDFF060EDBCF18F0070EDBCFD7
:1012E00019F0020EE76EFD0EDBCFE9FFFE0EDBCF3D
:1012F000EAFFE750E926000EEA221850EE24166EA7
:101300001950EE20176E010EE76E0A0EDBCF1CF0AF
:101310000B0EDBCF1DF0E7501C26000E1D22020E27
:10132000086E096A1CC00DF01DC00EF091EC0BF0A8
:1013300006C01AF007C01BF01AC008F01BC009F065
:10134000060EDBCF0DF0070EDBCF0EF091EC0BF0AD
:1013500016500624146E17500720156E0E0E14C07A
:10136000DBFF0F0E15C0DBFF060EDBCF1CF0070EF8
:10137000DBCF1DF0020EE76EFD0EDBCFE9FFFE0EA8
:10138000DBCFEAFFE750E926000EEA221C50EE24EC
:101390001A6E1D50EE201B6E010EE76E0A0EDBCF9B
:1013A00020F00B0EDBCF21F0E7502026000E21228B
:1013B000020E086E096A20C00DF021C00EF091ECFB
:1013C0000BF006C01EF007C01FF01EC008F01FC0C3
:1013D00009F0060EDBCF0DF0070EDBCF0EF091EC1F
:1013E0000BF01A500624186E1B500720196E020EBF
:1013F000E76E0A0EDBCF16F00B0EDBCF17F0E750CF
:101400001626000E1722100EDBCF08F0110EDBCFD0
:1014100009F01650085C146E17500958156ED890D4
:1014200014361536F70EDB501424E96EF80EDB5037
:101430001520EA6E18C0EEFF19C0EDFF0A0EDB2A78
:101440000B0E01E3DB2AFBD4120EE15C02E2E16A3F
:0C145000E552E16EE552E7CFD9FF120033
:04145C00D9CFE6FFFF
:10146000E1CFD9FF360EE126280EDB6A1B0EDB6AC0
:10147000010EDB6A6FEC0CF0EBEC0AF00EEC00F006
:10148000F28CD09EF28E1B0EDB0414E1D950050FB6
:10149000E66E000EDA20E66E1C0EDBCFE6FF1D0EB8
:1014A000DBCFE6FF7AEC0CF0E552E552E552E5526F
:1014B0001B0EDB6A0001800531E1D950010FE66E99
:1014C000000EDA20E66ED9502A0FE66E000EDA2002
:1014D000E66E810EE66E000EE66E31EC0BF0146ED9
:1014E000060EE15E1450DF6E2A0EDB50E76E130E1F
:1014F000E7CFDBFF2B0EDB50E76E140EE7CFDBFFF1
:101500002C0EDB50E76E150EE7CFDBFF010EDB5034
:10151000E76E170EE7CFDBFF0001806B050EDBCF18
:10152000E6FF280EDBCFE6FF4BD8E552E552E76E2B
:10153000280EE7CFDBFFDBCFE6FFD950130FE96EB4
:10154000DACFEAFFEECFE6FFEECFE6FFEECFE6FF23
:10155000EECFE6FFEECFE6FF050EDBCFE6FF060E91
:10156000DBCFE6FFD950180FE66E000EDA20E66EEC
:10157000D950070FE66E000EDA20E66E0FEC00F091
:10158000146E0C0EE15E1450180EDBCFE6FF190E40
:10159000DBCFE6FF1A0EDBCFE6FF29EC0BF0E552BE
:1015A000E552E55270D7360EE15C02E2E16AE5529F
:1015B000E16EE552E7CFD9FF1200F29EF28E1200E3
:1015C000D9CFE6FFE1CFD9FFFD0EDB5000D0E552C9
:0615D000E7CFD9FF120075
:0A15D6000DEC0CF0F19E819493845B
:1015E0000F0EC16E82989498F088F08EF092F19868
:1015F0001200D9CFE6FFE1CFD9FFF0920001AB2B6B
:10160000000EAC23ABC0E9FFACC0EAFFEF50FF080F
:1016100006E1FD0EDBCFABF0FE0EDBCFACF014EC41
:101620000CF0ABC0E9FFACC0EAFFEF6EABC0E9FF66
:10163000ACC0EAFFEF504B0806E1FD0EDBCFABF08C
:10164000FE0EDBCFACF0000E00D0E552E7CFD9FFA5
:101650001200D9CFE6FFE1CFD9FFE552E7CFD9FF9E
:101660001200D9CFE6FFE1CFD9FFE552E7CFD9FF8E
:101670001200020EE66EBEEC0CF0E552040EE66EB1
:10168000CCEC0CF0E552000000000000000000006F
:1016900000000000000000001200010EE66EBEEC2B
:1016A0000CF0E552020EE66ECCEC0CF0E5520000B8
:1016B0001200020EE66EBEEC0CF0E552040EE66E71
:1016C000CCEC0CF0E552000000000000000000002F
:0616D00000000000120002
:0A16D600006A0EAE74EF0BF00D6C0D
:1016E0000E1EE86A0E22001E09AE7CEF0BF0086C9D
:1016F000091EE86A0922001E8AEC0CF009BE8CEF74
:101700000BF000AE000C086C091EE86A0922046C9C
:10171000051EE86A0522000C00BE83EF0BF001886D
:10172000FF0C09C013F008C012F008500D02F4CFEE
:1017300007F0F3CF06F009500E02F4CF09F0F3CF13
:1017400008F00D02F3500726F4500822E86A092237
:1017500012500E02F3500726F4500822E86A0922BC
:101760000EAEB7EF0BF01250085E1350095A13AECD
:0C177000000C0D50085E0E50095A000CD1
:04177C000E0EF66EE9
:10178000000EF76E000EF86E00010900F550A46F10
:101790000900F550A56F03E1A46701D03DD0090011
:1017A000F5509F6F0900F550A06F0900F550A16F2B
:1017B00009000900F550E96E0900F550EA6E0900CC
:1017C00009000900F550A26F0900F550A36F090048
:1017D0000900F6CFA6F0F7CFA7F0F8CFA8F09FC08A
:1017E000F6FFA0C0F7FFA1C0F8FF0001A25302E17D
:1017F000A35307E00900F550EE6EA207F8E2A30735
:10180000F9D7A6C0F6FFA7C0F7FFA8C0F8FF0001F0
:0A181000A407000EA55BBFD712006D
:06181A000F019398828883
:101820000F019384818412000001080EAA6F0F013A
:1018300081B418EF0CF04DEC0BF00F0181B418EFF0
:101840000CF059EC0BF00F0181A4D89081B4D88032
:101850000001A933AA2F21EF0CF059EC0BF04DEC4D
:101860000BF000000001A95112000001FF0EE3CFB0
:10187000A9F0090EAA6FD8900F0141EF0CF00001FA
:10188000A9330F01D8A08298D8B0828839EC0BF028
:101890000001AA2F3FEF0CF00F01828839EC0BF00A
:0218A000120034
:0E18A200D9CFE6FFE1CFD9FFFD0EDBCFE9FF86
:1018B000FE0EDBCFEAFFEF50E66E35EC0CF0E552A2
:1018C000FD0EDBCFE9FFDB2AFE0EDBCFEAFF01E3F3
:0E18D000DB2AEF50EAE1E552E7CFD9FF120024
:0218DE001200F6
:1018E000D9CFE6FFE1CFD9FF010E00D0E552E7CF17
:1018F000D9FF1200D9CFE6FFE1CFD9FFE552E7CFFC
:10190000D9FF1200D9CFE6FFE1CFD9FFE552E7CFEB
:04191000D9FF1200E9
:0C191400056A046A100EE76ED8900836D1
:101920000936043605360D50045C0E50055805E3A3
:101930000D50045E0E50055A082AE72EF0D712000B
:10194000000EF36E00EE00F0060E01D81200EA6001
:1019500002D0EE6AFCD7F350E9601200EE6AFCD7C1
:1019600015EE00F025EE00F0F86A019CBEEC0BF0DD
:0C19700003EC00F02EEC0AF0FBD7120094
:04197C00FF0EE35027
:10198000226E1B0E00D001D0200EE76EE72EFED790
:08199000222EFAD700D012004C
:08199800FF0EE350E84E1200BF
:0E19A000000000D000D000D0E82EFAD71200D0
:0119AE000434
:020000040030CA
:0100010002FC
:010002001AE3
:010003000EEE
:010005008377
:010006008178
:010008000FE8
:01000900C036
:01000A000FE6
:01000B00E014
:01000C000FE4
:01000D0040B2
:00000001FF
