:020000040000FA
:060000006DEF34F0120068
:020006001200E6
:0600080027EF21F01200B9
:02000E001200DE
:020010001200DC
:020012000000EC
:06001800C4EF20F012000D
:02001E000500DB
:10002000894A00003D0100000100000080690000D5
:100030000001000011000000796900002B010000A0
:1000400007000000716900002301000008000000A3
:0C00500012000000390100000200000056
:04005C00D9CFE6FF13
:10006000E1CFD9FFFD0EDBCFE9FFFE0EDBCFEAFFCC
:10007000EFCF14F02B0E01012E25E96E010E2F217A
:10008000EA6EEF50145C11E12E2B000E2F23020EAE
:100090002E1901E12F5105E1020EF36EF46A0AD028
:1000A00009D0010EF36EF46A05D02E6B2F6BF36A44
:1000B000F46A00D0E552E7CFD9FF1200D9CFE6FFAE
:1000C000E1CFD9FFFD0EDBCFE9FFFE0EDBCFEAFF6C
:1000D000EE50ED100EE1960ED56EF28AF294F19488
:1000E000FD0EDBCFE9FFFE0EDBCFEAFF010EEE6E69
:1000F000ED6A010139513A110FE0396B3A6BFD0E8F
:10010000DBCFE9FFFE0EDBCFEAFFEE6AED6A010E00
:10011000F36EF46A04D003D0F36AF46A00D0E552B7
:10012000E7CFD9FF1200D9CFE6FFE1CFD9FFFB0E11
:10013000DBCFE9FFFC0EDBCFEAFFEE50ED1001E074
:10014000BCD1FD0EDBCFE9FFFE0EDBCFEAFFEF50A7
:10015000030A01E118D1010A01E1BCD0030A61E000
:10016000010A01E069D1F90EDBCFE9FFFA0EDBCF1E
:10017000EAFFEECF08F0EDCF09F0010E081801E11B
:10018000095026E0085001E1095001E049D0300E45
:10019000E66E010EE66E92DFE552E552F3CF14F003
:1001A000F4CF15F01450151012E0F90EDBCFE9FF73
:1001B000FA0EDBCFEAFF010EEE6EED6AF30EDBCF37
:1001C000E9FFF40EDBCFEAFF010EEE6EED6A28D0F8
:1001D000300EE66E010EE66E71DFE552E552F3CFAA
:1001E00014F0F4CF15F01450151019E0FD0EDBCF0C
:1001F000E9FFFE0EDBCFEAFF010EEF6EF90EDBCF5B
:10020000E9FFFA0EDBCFEAFFEE6AED6AF30EDBCF11
:10021000E9FFF40EDBCFEAFF010EEE6EED6A00D0CF
:100220000BD1F90EDBCFE9FFFA0EDBCFEAFFEECF01
:1002300008F0EDCF09F0010E081801E1095026E0A1
:10024000085001E1095001E044D0300EE66E010E85
:10025000E66E34DFE552E552F3CF14F0F4CF15F03B
:100260001450151012E0F90EDBCFE9FFFA0EDBCFC8
:10027000EAFF010EEE6EED6AF30EDBCFE9FFF40E3E
:10028000DBCFEAFF010EEE6EED6A23D0F50EDBCF79
:10029000E9FFF60EDBCFEAFFEF50410819E1FB0E54
:1002A000DBCFE9FFFC0EDBCFEAFF010EEE6EED6A5D
:1002B000F90EDBCFE9FFFA0EDBCFEAFFEE6AED6A5B
:1002C000F70EDBCFE9FFF80EDBCFEAFFEE6AED6A4F
:1002D00000D0B2D0F90EDBCFE9FFFA0EDBCFEAFF98
:1002E000EECF08F0EDCF09F0010E081801E109503A
:1002F00026E0085001E1095001E044D0300EE66EDE
:10030000010EE66EDBDEE552E552F3CF14F0F4CFDA
:1003100015F01450151012E0F90EDBCFE9FFFA0EBC
:10032000DBCFEAFF010EEE6EED6AF30EDBCFE9FFE5
:10033000F40EDBCFEAFF010EEE6EED6A23D0F50E70
:10034000DBCFE9FFF60EDBCFEAFFEF50410819E102
:10035000FB0EDBCFE9FFFC0EDBCFEAFF010EEE6EFA
:10036000ED6AF90EDBCFE9FFFA0EDBCFEAFFEE6AAA
:10037000ED6AF70EDBCFE9FFF80EDBCFEAFFEE6A9E
:10038000ED6A00D059D0F90EDBCFE9FFFA0EDBCFD2
:10039000EAFFEECF08F0EDCF09F0010E081801E1F9
:1003A000095026E0085001E1095001E044D0300E28
:1003B000E66E010EE66E82DEE552E552F3CF14F0F2
:1003C000F4CF15F01450151012E0F90EDBCFE9FF51
:1003D000FA0EDBCFEAFF010EEE6EED6AF30EDBCF15
:1003E000E9FFF40EDBCFEAFF010EEE6EED6A23D0DB
:1003F000F50EDBCFE9FFF60EDBCFEAFFEF50410849
:1004000019E1FB0EDBCFE9FFFC0EDBCFEAFF010EAB
:10041000EE6EED6AF90EDBCFE9FFFA0EDBCFEAFFF5
:10042000EE6AED6AF70EDBCFE9FFF80EDBCFEAFFED
:10043000EE6AED6A00D000D0F50EDBCFE9FFF60ED4
:10044000DBCFEAFFEF50410809E0F50EDBCFE9FF13
:10045000F60EDBCFEAFFEF5042081BE1FD0EDBCFCB
:10046000E9FFFE0EDBCFEAFFEE52EF6AF50EDBCFBF
:10047000E9FFF60EDBCFEAFFEF50410809E1F30E8A
:10048000DBCFE9FFF40EDBCFEAFF010EEE6EED6A83
:1004900012D0F50EDBCFE9FFF60EDBCFEAFFEF500F
:1004A000E66EFD0EDBCFE9FFFE0EDBCFEAFFEE527C
:1004B000E552E750EF6EB7EF0BF0FB0EDBCFE9FF35
:1004C000FC0EDBCFEAFF010EEE1801E1ED5002E079
:1004D000B7EF0BF0FD0EDBCFE9FFFE0EDBCFEAFF3F
:1004E000EF50030A01E149D3010A01E122D2030AD4
:1004F00002E079EF0BF0F90EDBCFE9FFFA0EDBCF6C
:10050000EAFFEECF08F0EDCF09F0020E081801E186
:10051000095001E1FCD0010E081801E1095026E064
:10052000085001E1095001E002D2300EE66E010EE2
:10053000E66EC4DDE552E552F3CF14F0F4CF15F0CA
:100540001450151012E0F90EDBCFE9FFFA0EDBCFE5
:10055000EAFF010EEE6EED6AF30EDBCFE9FFF40E5B
:10056000DBCFEAFF010EEE6EED6AE1D1F50EDBCFD7
:10057000E9FFF60EDBCFEAFFEF50410842E1F70E4C
:10058000DBCFE9FFF80EDBCFEAFF030EEE1801E147
:10059000ED500AE0F90EDBCFE9FFFA0EDBCFEAFF00
:1005A000020EEE6EED6A2DD0F70EDBCFE9FFF80EEE
:1005B000DBCFEAFF030EEE1801E1ED5022E1FD0E64
:1005C000DBCFE9FFFE0EDBCFEAFF020EEF6EF90E86
:1005D000DBCFE9FFFA0EDBCFEAFFEE6AED6AF70E3A
:1005E000DBCFE9FFF80EDBCFEAFFEE6AED6AFD0E26
:1005F000DBCFE9FFFE0EDBCFEAFF140EEB6A150E30
:10060000EB6AF50EDBCFE9FFF60EDBCFEAFFEF502A
:10061000420818E1FB0EDBCFE9FFFC0EDBCFEAFF5F
:10062000EE6AED6AF90EDBCFE9FFFA0EDBCFEAFFE7
:10063000EE6AED6AF70EDBCFE9FFF80EDBCFEAFFDB
:10064000EE6AED6AF50EDBCFE9FFF60EDBCFEAFFCF
:10065000EF50550828E1F70EDBCFE9FFF80EDBCFAE
:10066000EAFFEECF14F0EFCF15F0153404E214508A
:100670000008000E155417E2F70EDBCFE9FFF80E65
:10068000DBCFEAFFEECF14F0EFCF15F01406000E2B
:10069000155AF70EDBCFE9FFF80EDBCFEAFF14C0E7
:1006A000EEFF15C0EDFFF50EDBCFE9FFF60EDBCF59
:1006B000EAFFEF5044082AE1F70EDBCFE9FFF80E1E
:1006C000DBCFEAFFEECF14F0EFCF15F0D890155046
:1006D00004E6040E145C000E155818E2F70EDBCF8A
:1006E000E9FFF80EDBCFEAFFEECF14F0EFCF15F005
:1006F000010E1426000E1522F70EDBCFE9FFF80ECF
:10070000DBCFEAFF14C0EEFF15C0EDFF10D1F70EEE
:10071000DBCFE9FFF80EDBCFEAFFEECF08F0EDCF3D
:1007200009F0040E081801E1095001E1AFD0020EF2
:10073000081801E1095047E0010E081801E10950CD
:1007400025E0085001E1095001E0F0D0FD0EDBCFBB
:10075000E9FFFE0EDBCFEAFF120EE926000EEA22C9
:10076000010EEE6EED6AF90EDBCFE9FFFA0EDBCF7C
:10077000EAFF010EEE6EED6AF30EDBCFE9FFF40E39
:10078000DBCFEAFF010EEE6EED6AD0D0FD0EDBCFBF
:10079000E9FFFE0EDBCFEAFF120EEB6A130EEB6AE7
:1007A000F90EDBCFE9FFFA0EDBCFEAFF010EEE6EAA
:1007B000ED6AF30EDBCFE9FFF40EDBCFEAFF010EAB
:1007C000EE6EED6AB3D0F50EDBCFE9FFF60EDBCFB0
:1007D000EAFFEF504C081EE1FD0EDBCFE9FFFE0EF5
:1007E000DBCFEAFF020EE926000EEA22EECF14F07C
:1007F000EFCF15F01406155AFD0EDBCFE9FFFE0E04
:10080000DBCFEAFF020EE926000EEA2214C0EEFF5B
:1008100015C0EDFFF50EDBCFE9FFF60EDBCFEAFFEB
:10082000EF50520820E1FD0EDBCFE9FFFE0EDBCFDB
:10083000EAFF020EE926000EEA22EECF14F0EFCF17
:1008400015F0010E1426000E1522FD0EDBCFE9FF78
:10085000FE0EDBCFEAFF020EE926000EEA2214C0EC
:10086000EEFF15C0EDFFF50EDBCFE9FFF60EDBCF97
:10087000EAFFEF50420809E1F90EDBCFE9FFFA0E7B
:10088000DBCFEAFF010EEE6EED6A50D0F50EDBCF46
:10089000E9FFF60EDBCFEAFFEF5047E0F50EDBCFC6
:1008A000E6FFF60EDBCFE6FF2EEC00F0E552E55258
:1008B000F3CF37F1F4CF38F101013751381112E19C
:1008C000F90EDBCFE9FFFA0EDBCFEAFF010EEE6E89
:1008D000ED6A6A0EE66E4A0EE66E33EC19F0E552EA
:1008E000E55223D0010E371901E1385101E11DD045
:1008F000020E371901E1385118E1FD0EDBCFE9FF97
:10090000FE0EDBCFEAFF030EEF6EF90EDBCFE9FF41
:10091000FA0EDBCFEAFFEE6AED6AF70EDBCFE9FFF6
:10092000F80EDBCFEAFFEE6AED6A00D000D079EF77
:100930000BF0F90EDBCFE9FFFA0EDBCFEAFFEECFCB
:1009400008F0EDCF09F0020E081801E1095001E1AD
:10095000F2D0010E081801E1095027E0085001E12A
:10096000095001E008D1300EE66E010EE66E5EEC35
:1009700000F0E552E552F3CF14F0F4CF15F0145027
:10098000151012E0F90EDBCFE9FFFA0EDBCFEAFF1C
:10099000010EEE6EED6AF30EDBCFE9FFF40EDBCF56
:1009A000EAFF010EEE6EED6AE6D0F50EDBCFE9FF51
:1009B000F60EDBCFEAFFEF50410837E1F70EDBCF51
:1009C000E9FFF80EDBCFEAFFEECF08F0EDCF09F03C
:1009D000010E081801E109500FE0085001E109502B
:1009E00001E023D0F90EDBCFE9FFFA0EDBCFEAFFFF
:1009F000020EEE6EED6A19D0FD0EDBCFE9FFFE0EA2
:100A0000DBCFEAFF010EEF6EF70EDBCFE9FFF80E4A
:100A1000DBCFEAFFEE6AED6AF90EDBCFE9FFFA0EF3
:100A2000DBCFEAFFEE6AED6A00D0F50EDBCFE9FF1F
:100A3000F60EDBCFEAFFEF50420818E1FB0EDBCFEA
:100A4000E9FFFC0EDBCFEAFFEE6AED6AF90EDBCFC1
:100A5000E9FFFA0EDBCFEAFFEE6AED6AF70EDBCFB5
:100A6000E9FFF80EDBCFEAFFEE6AED6AF50EDBCFA9
:100A7000E9FFF60EDBCFEAFFEF50550828E1F70E4D
:100A8000DBCFE9FFF80EDBCFEAFFEECF14F0EFCFBC
:100A900015F0153404E214500008000E155417E246
:100AA000F70EDBCFE9FFF80EDBCFEAFFEECF14F055
:100AB000EFCF15F01406000E155AF70EDBCFE9FF45
:100AC000F80EDBCFEAFF14C0EEFF15C0EDFFF50E08
:100AD000DBCFE9FFF60EDBCFEAFFEF5044082AE157
:100AE000F70EDBCFE9FFF80EDBCFEAFFEECF14F015
:100AF000EFCF15F0D890155004E6010E145C000EEF
:100B0000155818E2F70EDBCFE9FFF80EDBCFEAFF4E
:100B1000EECF14F0EFCF15F0010E1426000E1522C3
:100B2000F70EDBCFE9FFF80EDBCFEAFF14C0EEFFD4
:100B300015C0EDFF20D0FD0EDBCFE9FFFE0EDBCFB1
:100B4000EAFF140EE926000EEA22010EEE6EED6AAF
:100B5000F90EDBCFE9FFFA0EDBCFEAFF010EEE6EF6
:100B6000ED6AF30EDBCFE9FFF40EDBCFEAFF010EF7
:100B7000EE6EED6A00D079EF0BF0F90EDBCFE9FFF6
:100B8000FA0EDBCFEAFFEECF08F0EDCF09F0030E4F
:100B9000081801E1095001E122D3020E081801E111
:100BA000095001E1F6D0010E081801E1095029E0D1
:100BB000085001E1095002E078EF0BF0300EE66ECC
:100BC000010EE66E5EEC00F0E552E552F3CF14F054
:100BD000F4CF15F01450151012E0F90EDBCFE9FF39
:100BE000FA0EDBCFEAFF010EEE6EED6AF30EDBCFFD
:100BF000E9FFF40EDBCFEAFF010EEE6EED6A78EF4F
:100C00000BF0F50EDBCFE9FFF60EDBCFEAFFEF507E
:100C1000410838E1F70EDBCFE9FFF80EDBCFEAFF42
:100C2000060EEE1801E1ED500AE0F90EDBCFE9FF08
:100C3000FA0EDBCFEAFF020EEE6EED6A23D0F70E5E
:100C4000DBCFE9FFF80EDBCFEAFF060EEE1801E17D
:100C5000ED5018E1FD0EDBCFE9FFFE0EDBCFEAFF22
:100C6000010EEF6EF90EDBCFE9FFFA0EDBCFEAFFE4
:100C7000EE6AED6AF70EDBCFE9FFF80EDBCFEAFF95
:100C8000EE6AED6AF50EDBCFE9FFF60EDBCFEAFF89
:100C9000EF50420818E1FB0EDBCFE9FFFC0EDBCF83
:100CA000EAFFEE6AED6AF90EDBCFE9FFFA0EDBCF61
:100CB000EAFFEE6AED6AF70EDBCFE9FFF80EDBCF55
:100CC000EAFFEE6AED6AF50EDBCFE9FFF60EDBCF49
:100CD000EAFFEF50550828E1F70EDBCFE9FFF80EE9
:100CE000DBCFEAFFEECF14F0EFCF15F0153404E2BE
:100CF00014500008000E155417E2F70EDBCFE9FF81
:100D0000F80EDBCFEAFFEECF14F0EFCF15F01406AC
:100D1000000E155AF70EDBCFE9FFF80EDBCFEAFF26
:100D200014C0EEFF15C0EDFFF50EDBCFE9FFF60EA8
:100D3000DBCFEAFFEF5044082AE1F70EDBCFE9FFF3
:100D4000F80EDBCFEAFFEECF14F0EFCF15F0D8901E
:100D5000155004E6060E145C000E155818E2F70E46
:100D6000DBCFE9FFF80EDBCFEAFFEECF14F0EFCFD9
:100D700015F0010E1426000E1522F70EDBCFE9FF49
:100D8000F80EDBCFEAFF14C0EEFF15C0EDFF78EFE1
:100D90000BF0F70EDBCFE9FFF80EDBCFEAFFEECF6B
:100DA00008F0EDCF09F0050E081801E1095001E146
:100DB000B2D1040E081801E1095001E149D1030E36
:100DC000081801E1095001E1E0D0020E081801E124
:100DD000095001E177D0010E081801E109500FE038
:100DE000085001E1095001E0F9D1F90EDBCFE9FF2C
:100DF000FA0EDBCFEAFF030EEE6EED6AEFD1F50ED1
:100E0000DBCFE9FFF60EDBCFEAFFEF504C081EE127
:100E1000FD0EDBCFE9FFFE0EDBCFEAFF020EE92677
:100E2000000EEA22EECF14F0EFCF15F01406155A9B
:100E3000FD0EDBCFE9FFFE0EDBCFEAFF020EE92657
:100E4000000EEA2214C0EEFF15C0EDFFF50EDBCF59
:100E5000E9FFF60EDBCFEAFFEF50520820E1FD0E6E
:100E6000DBCFE9FFFE0EDBCFEAFF020EE926000E24
:100E7000EA22EECF14F0EFCF15F0010E1426000E8B
:100E80001522FD0EDBCFE9FFFE0EDBCFEAFF020EDF
:100E9000E926000EEA2214C0EEFF15C0EDFFF50EA4
:100EA000DBCFE9FFF60EDBCFEAFFEF50420809E1A6
:100EB000F90EDBCFE9FFFA0EDBCFEAFF010EEE6E93
:100EC000ED6A8CD1F50EDBCFE9FFF60EDBCFEAFF42
:100ED000EF504C081EE1FD0EDBCFE9FFFE0EDBCF2D
:100EE000EAFF040EE926000EEA22EECF14F0EFCF5F
:100EF00015F01406155AFD0EDBCFE9FFFE0EDBCF11
:100F0000EAFF040EE926000EEA2214C0EEFF15C027
:100F1000EDFFF50EDBCFE9FFF60EDBCFEAFFEF507A
:100F2000520820E1FD0EDBCFE9FFFE0EDBCFEAFF2A
:100F3000040EE926000EEA22EECF14F0EFCF15F0F2
:100F4000010E1426000E1522FD0EDBCFE9FFFE0E6A
:100F5000DBCFEAFF040EE926000EEA2214C0EEFF02
:100F600015C0EDFFF50EDBCFE9FFF60EDBCFEAFF94
:100F7000EF50420809E1F90EDBCFE9FFFA0EDBCFB3
:100F8000EAFF010EEE6EED6A29D1F50EDBCFE9FF27
:100F9000F60EDBCFEAFFEF504C081EE1FD0EDBCF73
:100FA000E9FFFE0EDBCFEAFF060EE926000EEA227D
:100FB000EECF14F0EFCF15F01406155AFD0EDBCF6F
:100FC000E9FFFE0EDBCFEAFF060EE926000EEA225D
:100FD00014C0EEFF15C0EDFFF50EDBCFE9FFF60EF6
:100FE000DBCFEAFFEF50520820E1FD0EDBCFE9FF37
:100FF000FE0EDBCFEAFF060EE926000EEA22EECF58
:1010000014F0EFCF15F0010E1426000E1522FD0E80
:10101000DBCFE9FFFE0EDBCFEAFF060EE926000E6E
:10102000EA2214C0EEFF15C0EDFFF50EDBCFE9FF9D
:10103000F60EDBCFEAFFEF50420809E1F90EDBCFF5
:10104000E9FFFA0EDBCFEAFF010EEE6EED6AC6D0C5
:10105000F50EDBCFE9FFF60EDBCFEAFFEF504C08D1
:101060001EE1FD0EDBCFE9FFFE0EDBCFEAFF080E2F
:10107000E926000EEA22EECF14F0EFCF15F01406A9
:10108000155AFD0EDBCFE9FFFE0EDBCFEAFF080E9F
:10109000E926000EEA2214C0EEFF15C0EDFFF50EA2
:1010A000DBCFE9FFF60EDBCFEAFFEF50520820E17D
:1010B000FD0EDBCFE9FFFE0EDBCFEAFF080EE926CF
:1010C000000EEA22EECF14F0EFCF15F0010E142639
:1010D000000E1522FD0EDBCFE9FFFE0EDBCFEAFF8F
:1010E000080EE926000EEA2214C0EEFF15C0EDFF3F
:1010F000F50EDBCFE9FFF60EDBCFEAFFEF5042083B
:1011000009E1F90EDBCFE9FFFA0EDBCFEAFF010EB2
:10111000EE6EED6A63D0F50EDBCFE9FFF60EDBCFA6
:10112000EAFFEF504C081EE1FD0EDBCFE9FFFE0E9B
:10113000DBCFEAFF0A0EE926000EEA22EECF14F01A
:10114000EFCF15F01406155AFD0EDBCFE9FFFE0EAA
:10115000DBCFEAFF0A0EE926000EEA2214C0EEFFFA
:1011600015C0EDFFF50EDBCFE9FFF60EDBCFEAFF92
:10117000EF50520820E1FD0EDBCFE9FFFE0EDBCF82
:10118000EAFF0A0EE926000EEA22EECF14F0EFCFB6
:1011900015F0010E1426000E1522FD0EDBCFE9FF1F
:1011A000FE0EDBCFEAFF0A0EE926000EEA2214C08B
:1011B000EEFF15C0EDFFF50EDBCFE9FFF60EDBCF3E
:1011C000EAFFEF50420809E1F90EDBCFE9FFFA0E22
:1011D000DBCFEAFF010EEE6EED6A00D089D2F70E8A
:1011E000DBCFE9FFF80EDBCFEAFFEECF08F0EDCF63
:1011F00009F0020E081801E1095001E1A9D1010E20
:10120000081801E1095001E1D4D0085001E109506A
:1012100001E06DD2F50EDBCFE9FFF60EDBCFEAFF82
:10122000EF504C081EE1FD0EDBCFE9FFFE0EDBCFD9
:10123000EAFF0C0EE926000EEA22EECF14F0EFCF03
:1012400015F01406155AFD0EDBCFE9FFFE0EDBCFBD
:10125000EAFF0C0EE926000EEA2214C0EEFF15C0CC
:10126000EDFFF50EDBCFE9FFF60EDBCFEAFFEF5027
:10127000520820E1FD0EDBCFE9FFFE0EDBCFEAFFD7
:101280000C0EE926000EEA22EECF14F0EFCF15F097
:10129000010E1426000E1522FD0EDBCFE9FFFE0E17
:1012A000DBCFEAFF0C0EE926000EEA2214C0EEFFA7
:1012B00015C0EDFFF50EDBCFE9FFF60EDBCFEAFF41
:1012C000EF50420811E1F90EDBCFE9FFFA0EDBCF58
:1012D000EAFF010EEE6EED6AF70EDBCFE9FFF80EC6
:1012E000DBCFEAFFEE6AED6AF50EDBCFE9FFF60E23
:1012F000DBCFEAFFEF50550828E1F70EDBCFE9FF1F
:10130000F80EDBCFEAFFEECF14F0EFCF15F0153477
:1013100004E214500008000E155417E2F70EDBCF5C
:10132000E9FFF80EDBCFEAFFEECF14F0EFCF15F0B8
:101330001406000E155AF70EDBCFE9FFF80EDBCFCF
:10134000EAFF14C0EEFF15C0EDFFF50EDBCFE9FF9D
:10135000F60EDBCFEAFFEF5044082AE1F70EDBCFB1
:10136000E9FFF80EDBCFEAFFEECF14F0EFCF15F078
:10137000D890155004E6020E145C000E155818E2C1
:10138000F70EDBCFE9FFF80EDBCFEAFFEECF14F06C
:10139000EFCF15F0010E1426000E1522F70EDBCF4D
:1013A000E9FFF80EDBCFEAFF14C0EEFF15C0EDFF3A
:1013B0009ED1F50EDBCFE9FFF60EDBCFEAFFEF5053
:1013C0004C081EE1FD0EDBCFE9FFFE0EDBCFEAFF8E
:1013D0000E0EE926000EEA22EECF14F0EFCF15F044
:1013E0001406155AFD0EDBCFE9FFFE0EDBCFEAFF38
:1013F0000E0EE926000EEA2214C0EEFF15C0EDFF26
:10140000F50EDBCFE9FFF60EDBCFEAFFEF50520817
:1014100020E1FD0EDBCFE9FFFE0EDBCFEAFF0E0E73
:10142000E926000EEA22EECF14F0EFCF15F0010E00
:101430001426000E1522FD0EDBCFE9FFFE0EDBCFDA
:10144000EAFF0E0EE926000EEA2214C0EEFF15C0D8
:10145000EDFFF50EDBCFE9FFF60EDBCFEAFFEF5035
:10146000420811E1F90EDBCFE9FFFA0EDBCFEAFF0C
:10147000010EEE6EED6AF70EDBCFE9FFF80EDBCF63
:10148000EAFFEE6AED6AF50EDBCFE9FFF60EDBCF81
:10149000EAFFEF50550828E1F70EDBCFE9FFF80E21
:1014A000DBCFEAFFEECF14F0EFCF15F0153404E2F6
:1014B00014500008000E155417E2F70EDBCFE9FFB9
:1014C000F80EDBCFEAFFEECF14F0EFCF15F01406E5
:1014D000000E155AF70EDBCFE9FFF80EDBCFEAFF5F
:1014E00014C0EEFF15C0EDFFF50EDBCFE9FFF60EE1
:1014F000DBCFEAFFEF5044082AE1F70EDBCFE9FF2C
:10150000F80EDBCFEAFFEECF14F0EFCF15F0D89056
:10151000155004E6020E145C000E155818E2F70E82
:10152000DBCFE9FFF80EDBCFEAFFEECF14F0EFCF11
:1015300015F0010E1426000E1522F70EDBCFE9FF81
:10154000F80EDBCFEAFF14C0EEFF15C0EDFFCFD0E1
:10155000F50EDBCFE9FFF60EDBCFEAFFEF504C08CC
:101560001EE1FD0EDBCFE9FFFE0EDBCFEAFF100E22
:10157000E926000EEA22EECF14F0EFCF15F01406A4
:10158000155AFD0EDBCFE9FFFE0EDBCFEAFF100E92
:10159000E926000EEA2214C0EEFF15C0EDFFF50E9D
:1015A000DBCFE9FFF60EDBCFEAFFEF50520820E178
:1015B000FD0EDBCFE9FFFE0EDBCFEAFF100EE926C2
:1015C000000EEA22EECF14F0EFCF15F0010E142634
:1015D000000E1522FD0EDBCFE9FFFE0EDBCFEAFF8A
:1015E000100EE926000EEA2214C0EEFF15C0EDFF32
:1015F000F50EDBCFE9FFF60EDBCFEAFFEF50420836
:1016000011E1F90EDBCFE9FFFA0EDBCFEAFF010EA5
:10161000EE6EED6AF70EDBCFE9FFF80EDBCFEAFFE7
:10162000EE6AED6AF50EDBCFE9FFF60EDBCFEAFFDF
:10163000EF50550828E1F70EDBCFE9FFF80EDBCFBE
:10164000EAFFEECF14F0EFCF15F0153404E214509A
:101650000008000E155417E2F70EDBCFE9FFF80E75
:10166000DBCFEAFFEECF14F0EFCF15F01406000E3B
:10167000155AF70EDBCFE9FFF80EDBCFEAFF14C0F7
:10168000EEFF15C0EDFFF50EDBCFE9FFF60EDBCF69
:10169000EAFFEF5044082AE1F70EDBCFE9FFF80E2E
:1016A000DBCFEAFFEECF14F0EFCF15F0D890155056
:1016B00004E6020E145C000E155818E2F70EDBCF9C
:1016C000E9FFF80EDBCFEAFFEECF14F0EFCF15F015
:1016D000010E1426000E1522F70EDBCFE9FFF80EDF
:1016E000DBCFEAFF14C0EEFF15C0EDFF00D000D045
:1016F00000D0F50EDBCFE9FFF60EDBCFEAFFEF50AF
:10170000460809E0F50EDBCFE9FFF60EDBCFEAFF76
:10171000EF50480813E1F50EDBCFE9FFF60EDBCF03
:10172000EAFFEF50E66EFD0EDBCFE9FFFE0EDBCFEA
:10173000EAFFEE52E552E750EF6E19D0FD0EDBCF17
:10174000E9FFFE0EDBCFEAFFEE52EF6AF50EDBCFCC
:10175000E9FFF60EDBCFEAFFEF5009E0F30EDBCF37
:10176000E9FFF40EDBCFEAFF010EEE6EED6AE55203
:06177000E7CFD9FF1200D3
:0A1776008290949082929492829ADD
:10178000949A1200D9CFE6FFE1CFD9FFD950FD0FCF
:10179000E96EFF0EDA20EA6EEE50ED1002E0828272
:1017A00001D08292D950FB0FE96EFF0EDA20EA6E6B
:1017B000EE50ED1002E0828001D08290FA0EDB50F4
:1017C00002E0828A01D0829AE552E7CFD9FF120067
:1017D000D9CFE6FFE1CFD9FFFD0EDBCFE9FFFE0E4B
:1017E000DBCFEAFF0B0EE926000EEA22EF50E66E91
:1017F000FD0EDBCFE9FFFE0EDBCFEAFF060EE9268A
:10180000000EEA22EFCF14F0156A14BE156814C05A
:10181000E6FF15C0E6FFFD0EDBCFE9FFFE0EDBCFD6
:10182000EAFF070EE926000EEA22EFCF16F0176A4C
:1018300016BE176816C0E6FF17C0E6FFA3DF186ED6
:10184000050EE15E1850FD0EDBCFE9FFFE0EDBCF8B
:10185000EAFFEE52EFCF14F0156A14BE156814C0FB
:10186000E6FF15C0E6FF50EC2BF0E552E552FD0E09
:10187000DBCFE9FFFE0EDBCFEAFFEF5032E1F90EDE
:10188000DBCF08F0FA0EDBCF09F0010E081801E1FA
:10189000095016E0085001E1095001E022D0A40EE1
:1018A000E66E450EE66E88EC2EF0E552E552930E9C
:1018B000E66E450EE66ED2EC2EF0E552E55211D002
:1018C000930EE66E450EE66E88EC2EF0E552E5527C
:1018D000820EE66E450EE66ED2EC2EF0E552E55233
:1018E00000D0D950FB0FE96EFF0EDA20EA6E010E30
:1018F000EE1801E1ED5002E0D5EF10F0FD0EDBCF68
:10190000E9FFFE0EDBCFEAFFEF0401E025D1D9505D
:10191000F90FE96EFF0EDA20EA6EEE50ED1010E1DD
:10192000710EE66E450EE66E88EC2EF0E552E5523D
:10193000820EE66E450EE66ED2EC2EF0E552E552D2
:10194000D950F90FE96EFF0EDA20EA6E010EEE189B
:1019500001E1ED5074E1F70EDBCF08F0F80EDBCFBC
:1019600009F0040E081801E1095058E0030E0818A8
:1019700001E1095042E0020E081801E109502CE093
:10198000010E081801E1095016E0085001E1095064
:1019900001E055D0600EE66E450EE66E88EC2EF046
:1019A000E552E552820EE66E450EE66ED2EC2EF062
:1019B000E552E55244D04F0EE66E450EE66E88ECD9
:1019C0002EF0E552E552820EE66E450EE66ED2EC42
:1019D0002EF0E552E55233D03E0EE66E450EE66E31
:1019E00088EC2EF0E552E552820EE66E450EE66E6C
:1019F000D2EC2EF0E552E55222D02D0EE66E450EC9
:101A0000E66E88EC2EF0E552E552820EE66E450E4B
:101A1000E66ED2EC2EF0E552E55211D01C0EE66EC9
:101A2000450EE66E88EC2EF0E552E552820EE66E2B
:101A3000450EE66ED2EC2EF0E552E55200D0D950BC
:101A4000F90FE96EFF0EDA20EA6E020EEE1801E1E0
:101A5000ED5001E081D0F70EDBCF08F0F80EDBCFC0
:101A600009F0040E081801E1095065E0020E08189B
:101A700001E109502CE0010E081801E1095016E0BF
:101A8000085001E1095001E067D0120EE66E450EE4
:101A9000E66E88EC2EF0E552E552820EE66E450EBB
:101AA000E66ED2EC2EF0E552E55256D0070EE66E09
:101AB000450EE66E88EC2EF0E552E552820EE66E9B
:101AC000450EE66ED2EC2EF0E552E55245D0FD0E05
:101AD000DBCFE9FFFE0EDBCFEAFF100EE926000E9A
:101AE000EA22EECFE6FFEFCFE6FFF50E146E440ECE
:101AF000156E166A14C0E6FF15C0E6FF16C0E6FFB5
:101B0000F00EE66E000EE66E5BEC30F0176E070E20
:101B1000E15E1750E40EE66E440EE66E88EC2EF0A1
:101B2000E552E552F00EE66E000EE66EFBEC2EF08E
:101B3000E552E55211D0D30EE66E440EE66E88EC07
:101B40002EF0E552E552820EE66E450EE66ED2ECC0
:101B50002EF0E552E55200D0FD0EDBCFE9FFFE0E80
:101B6000DBCFEAFFEF50020856E1D950F90FE96EDA
:101B7000FF0EDA20EA6EEE50ED1010E1C20EE66EB6
:101B8000440EE66E88EC2EF0E552E552820EE66ECB
:101B9000450EE66ED2EC2EF0E552E552D950F90F23
:101BA000E96EFF0EDA20EA6E010EEE1801E1ED504B
:101BB00032E1F70EDBCF08F0F80EDBCF09F0010EB3
:101BC000081801E1095016E0085001E1095001E050
:101BD00022D0B10EE66E440EE66E88EC2EF0E55291
:101BE000E552820EE66E450EE66ED2EC2EF0E55220
:101BF000E55211D0A00EE66E440EE66E88EC2EF093
:101C0000E552E552820EE66E450EE66ED2EC2EF0FF
:101C1000E552E55200D0FD0EDBCFE9FFFE0EDBCF33
:101C2000EAFFEF50030801E0BFD2D950F90FE96E87
:101C3000FF0EDA20EA6EEE50ED1010E18F0EE66E28
:101C4000440EE66E88EC2EF0E552E552820EE66E0A
:101C5000450EE66ED2EC2EF0E552E552D950F90F62
:101C6000E96EFF0EDA20EA6E010EEE1801E1ED508A
:101C700001E0A1D0F70EDBCF08F0F80EDBCF09F0C2
:101C8000060E081801E1095001E184D0050E08187C
:101C900001E109506EE0040E081801E1095058E016
:101CA000030E081801E1095042E0020E081801E194
:101CB00009502CE0010E081801E1095016E0085007
:101CC00001E1095001E077D07E0EE66E440EE66E2B
:101CD00088EC2EF0E552E552820EE66E450EE66E79
:101CE000D2EC2EF0E552E55266D06D0EE66E440E53
:101CF000E66E88EC2EF0E552E552820EE66E450E59
:101D0000E66ED2EC2EF0E552E55255D05C0EE66E52
:101D1000440EE66E88EC2EF0E552E552820EE66E39
:101D2000450EE66ED2EC2EF0E552E55244D04B0E55
:101D3000E66E440EE66E88EC2EF0E552E552820E19
:101D4000E66E450EE66ED2EC2EF0E552E55233D04B
:101D50003A0EE66E440EE66E88EC2EF0E552E55241
:101D6000820EE66E450EE66ED2EC2EF0E552E5529E
:101D700022D0290EE66E440EE66E88EC2EF0E55277
:101D8000E552820EE66E450EE66ED2EC2EF0E5527E
:101D9000E55211D0180EE66E440EE66E88EC2EF079
:101DA000E552E552820EE66E450EE66ED2EC2EF05E
:101DB000E552E55200D0D950F90FE96EFF0EDA2056
:101DC000EA6E020EEE1801E1ED5001E02CD1F70EA3
:101DD000DBCF08F0F80EDBCF09F0050E081801E1A3
:101DE000095001E1ECD0040E081801E1095001E1AD
:101DF000B2D0030E081801E1095001E178D0020EBB
:101E0000081801E109503FE0010E081801E10950EE
:101E100006E0085001E1095001E005D104D1FD0EB2
:101E2000DBCFE9FFFE0EDBCFEAFF100EE926000E46
:101E3000EA22EECFE6FFEFCFE6FFF50E146E440E7A
:101E4000156E166A14C0E6FF15C0E6FF16C0E6FF61
:101E5000F00EE66E000EE66E5BEC30F0176E070ECD
:101E6000E15E1750E40EE66E440EE66E88EC2EF04E
:101E7000E552E552F00EE66E000EE66EFBEC2EF03B
:101E8000E552E552D0D0FD0EDBCFE9FFFE0EDBCFF1
:101E9000EAFF120EE926000EEA22EECFE6FFEFCFB0
:101EA000E6FFF50E146E440E156E166A14C0E6FFBA
:101EB00015C0E6FF16C0E6FFF00EE66E000EE66EF9
:101EC0005BEC30F0176E070EE15E1750070EE66E02
:101ED000440EE66E88EC2EF0E552E552F00EE66E0A
:101EE000000EE66EFBEC2EF0E552E5529CD0FD0EA6
:101EF000DBCFE9FFFE0EDBCFEAFF140EE926000E72
:101F0000EA22EECFE6FFEFCFE6FFF50E146E440EA9
:101F1000156E166A14C0E6FF15C0E6FF16C0E6FF90
:101F2000F00EE66E000EE66E5BEC30F0176E070EFC
:101F3000E15E1750F60EE66E430EE66E88EC2EF06C
:101F4000E552E552F00EE66E000EE66EFBEC2EF06A
:101F5000E552E55268D0FD0EDBCFE9FFFE0EDBCF88
:101F6000EAFF160EE926000EEA22EECFE6FFEFCFDB
:101F7000E6FFF50E146E440E156E166A14C0E6FFE9
:101F800015C0E6FF16C0E6FFF00EE66E000EE66E28
:101F90005BEC30F0176E070EE15E1750E50EE66E53
:101FA000430EE66E88EC2EF0E552E552F00EE66E3A
:101FB000000EE66EFBEC2EF0E552E55234D0FD0E3D
:101FC000DBCFE9FFFE0EDBCFEAFF180EE926000E9D
:101FD000EA22EECFE6FFEFCFE6FFF50E146E440ED9
:101FE000156E166A14C0E6FF15C0E6FF16C0E6FFC0
:101FF000F00EE66E000EE66E5BEC30F0176E070E2C
:10200000E15E1750D40EE66E430EE66E88EC2EF0BD
:10201000E552E552F00EE66E000EE66EFBEC2EF099
:10202000E552E55200D0D950F90FE96EFF0EDA20E3
:10203000EA6E030EEE1801E1ED5001E0B5D0F70EA7
:10204000DBCF08F0F80EDBCF09F0020E081801E133
:10205000095074E0010E081801E1095039E00850F8
:1020600001E1095001E0A0D0FD0EDBCFE9FFFE0E3B
:10207000DBCFEAFF1A0EE926000EEA22EECFE6FFDA
:10208000EFCFE6FFF50E146E440E156E166A14C0FF
:10209000E6FF15C0E6FF16C0E6FFF00EE66E000E86
:1020A000E66E5BEC30F0176E070EE15E1750C30E64
:1020B000E66E430EE66E88EC2EF0E552E552F00E29
:1020C000E66E000EE66EFBEC2EF0E552E5526CD0AB
:1020D0001CEC2FF0FD0EDBCFE9FFFE0EDBCFEAFF9D
:1020E0001C0EE926000EEA22EECFE6FFEFCFE6FF58
:1020F000F50E146E440E156E166A14C0E6FF15C078
:10210000E6FF16C0E6FFF00EE66E000EE66E5BEC34
:1021100030F0176E070EE15E1750B20EE66E430EFA
:10212000E66E88EC2EF0E552E552F00EE66E000EFB
:10213000E66EFBEC2EF0E552E55236D01CEC2FF0AB
:10214000FD0EDBCFE9FFFE0EDBCFEAFF1E0EE92618
:10215000000EEA22EECFE6FFEFCFE6FFF50E146E9B
:10216000440E156E166A14C0E6FF15C0E6FF16C0D1
:10217000E6FFF00EE66E000EE66E5BEC30F0176EDA
:10218000070EE15E1750A10EE66E430EE66E88EC78
:102190002EF0E552E552F00EE66E000EE66EFBEC18
:1021A0002EF0E552E55200D036D2D950FB0FE96E41
:1021B000FF0EDA20EA6EEE50ED1001E02CD2FD0E9B
:1021C000DBCFE9FFFE0EDBCFEAFFEF0401E0D1D069
:1021D000F90EDBCF08F0FA0EDBCF09F0010E08187C
:1021E00001E1095016E0085001E1095001E0C1D0B9
:1021F000710EE66E450EE66E88EC2EF0E552E55265
:10220000820EE66E450EE66ED2EC2EF0E552E552F9
:10221000B0D0FD0EDBCFE9FFFE0EDBCFEAFF0E0EE6
:10222000E926000EEA22EE50ED1011E0900EE66E67
:10223000430EE66E88EC2EF0E552E5527F0EE66E18
:10224000430EE66ED2EC2EF0E552E55291D0FD0E33
:10225000DBCFE9FFFE0EDBCFEAFF0C0EE926000E16
:10226000EA22EE50ED1011E06E0EE66E430EE66EC1
:1022700088EC2EF0E552E5527F0EE66E430EE66ED8
:10228000D2EC2EF0E552E55273D0FD0EDBCFE9FF24
:10229000FE0EDBCFEAFF050EE926000EEA22EFCFA5
:1022A00014F0156A14BE156814C0E6FF15C0E6FFE9
:1022B000FD0EDBCFE9FFFE0EDBCFEAFF030EE926C2
:1022C000000EEA22EFCF16F0176A16BE176816C086
:1022D000E6FF17C0E6FF5D0E186E430E196E1A6A10
:1022E00018C0E6FF19C0E6FF1AC0E6FFF00EE66E62
:1022F000000EE66E5BEC30F01B6E090EE15E1B50CB
:10230000F00EE66E000EE66EB1EC2EF0E552E552F0
:10231000FD0EDBCFE9FFFE0EDBCFEAFF040EE92660
:10232000000EEA22EFCF14F0156A14BE156814C02F
:10233000E6FF15C0E6FF4C0E166E430E176E186AC8
:1023400016C0E6FF17C0E6FF18C0E6FFF00EE66E07
:10235000000EE66E5BEC30F0196E070EE15E195070
:10236000F00EE66E000EE66EFBEC2EF0E552E55246
:1023700000D0FD0EDBCFE9FFFE0EDBCFEAFFEF5012
:1023800002086EE1F90EDBCF08F0FA0EDBCF09F0A0
:10239000010E081801E1095016E0085001E109504A
:1023A00001E05ED0C20EE66E440EE66E88EC2EF0C2
:1023B000E552E552820EE66E450EE66ED2EC2EF048
:1023C000E552E5524DD0FD0EDBCFE9FFFE0EDBCF2F
:1023D000EAFF0E0EE926000EEA22EE50ED1011E0A3
:1023E000900EE66E430EE66E88EC2EF0E552E55256
:1023F0007F0EE66E430EE66ED2EC2EF0E552E5520D
:102400002ED0FD0EDBCFE9FFFE0EDBCFEAFF0C0E78
:10241000E926000EEA22EE50ED1011E06E0EE66E97
:10242000430EE66E88EC2EF0E552E5527F0EE66E26
:10243000430EE66ED2EC2EF0E552E55210D0C20EFD
:10244000E66E440EE66E88EC2EF0E552E552820E02
:10245000E66E450EE66ED2EC2EF0E552E55200D067
:10246000FD0EDBCFE9FFFE0EDBCFEAFFEF500308E6
:1024700001E0D1D0F90EDBCF08F0FA0EDBCF09F086
:10248000010E081801E1095016E0085001E1095059
:1024900001E0C1D08F0EE66E440EE66E88EC2EF0A1
:1024A000E552E552820EE66E450EE66ED2EC2EF057
:1024B000E552E552B0D0FD0EDBCFE9FFFE0EDBCFDB
:1024C000EAFF0E0EE926000EEA22EE50ED1011E0B2
:1024D000900EE66E430EE66E88EC2EF0E552E55265
:1024E0007F0EE66E430EE66ED2EC2EF0E552E5521C
:1024F00091D0FD0EDBCFE9FFFE0EDBCFEAFF0C0E25
:10250000E926000EEA22EE50ED1011E06E0EE66EA6
:10251000430EE66E88EC2EF0E552E5527F0EE66E35
:10252000430EE66ED2EC2EF0E552E55273D0FD0E6E
:10253000DBCFE9FFFE0EDBCFEAFF050EE926000E3A
:10254000EA22EFCF14F0156A14BE156814C0E6FF36
:1025500015C0E6FFFD0EDBCFE9FFFE0EDBCFEAFF85
:10256000030EE926000EEA22EFCF16F0176A16BE18
:10257000176816C0E6FF17C0E6FF5D0E186E430E23
:10258000196E1A6A18C0E6FF19C0E6FF1AC0E6FF06
:10259000F00EE66E000EE66E5BEC30F01B6E090E80
:1025A000E15E1B50F00EE66E000EE66EB1EC2EF012
:1025B000E552E552FD0EDBCFE9FFFE0EDBCFEAFF71
:1025C000040EE926000EEA22EFCF14F0156A14BEBD
:1025D000156814C0E6FF15C0E6FF4C0E166E430EDC
:1025E000176E186A16C0E6FF17C0E6FF18C0E6FFB0
:1025F000F00EE66E000EE66E5BEC30F0196E070E24
:10260000E15E1950F00EE66E000EE66EFBEC2EF069
:0E261000E552E55200D0E552E7CFD9FF1200A7
:02261E004BEC83
:1026200018F0FB0EDBCFF3FFDB06F35000090AE0E6
:1026300099EC18F0FA0E04EC19F0F3E1151CF1E135
:10264000010E01D0000E7AEF18F04BEC18F03B0EA3
:10265000E12402E3E168E652E16E010EDB6A020E5C
:10266000DB6AF90EDBCFF6FFFA0EDBCFF7FFFB0ECE
:10267000DBCFF8FF0800F550DF6EDF5002E19EEF80
:1026800017F0250EDF5C02E091EF17F0030EDB6A16
:10269000040EDB6A050EDB6A060EDB6A070EDB6AD8
:1026A000B3EC17F02D0EDF5C0CE02B0EDF5C09E0C5
:1026B000200EDF5C06E0230EDF5C03E0300EDF5C03
:1026C0001AE1DF50300A14E0130A0FE0030A0AE0AF
:1026D0000B0A05E0060AE4E1030EDB80E1D7030EF6
:1026E000DB82DED7030EDB84DBD7030EDB86D8D795
:1026F000030EDB88D5D72A0EDF5C1BE1AFEC17F0A9
:10270000FDEC17F010E0030EDB8008680968130E7B
:10271000DBCF0DF0140EDBCF0EF01AEC31F0040E0F
:1027200006C0DBFF03D0130EE6EC17F0B3EC17F096
:102730000BD0090EDB6A54EC18F003E0C8EC18F07B
:10274000FAD7090EE6EC17F0030EDBB0DB982E0E7D
:10275000DF5C1BE1B3EC17F02A0EDF5C0BE1AFECA2
:1027600017F0FDEC17F003E1130E38EC18F0B3ECA2
:1027700017F00BD0090EDB6A54EC18F003E0C8EC3C
:1027800018F0FAD7090E38EC18F0680EDF5C07E194
:10279000B3EC17F0680EDF5C1DE1030E18D0740E69
:1027A000DF5C17E07A0EDF5C14E0480EDF5C06E0C9
:1027B000540EDF5C03E05A0EDF5C02E1020E07D02C
:1027C0006C0EDF5C03E06A0EDF5C04E1010E8BEC53
:1027D00018F0C9DBDF506E0A01E17FD31E0A01E168
:1027E00092D1200A01E18FD13F0A01E149D11A0AB1
:1027F00001E146D10D0A01E143D1200A01E140D1B6
:102800003A0A01E13DD1200A01E13AD1260A01E16B
:1028100035D10D0A01E132D11A0A01E1D9D0200ADD
:102820004AE0300A1FE0460A0EE0250A01E083D3A1
:10283000D950F90FE96EFF0EDA20EA6E010EEE5E56
:10284000000EEE5AEE5A99EC18F0250EE66E95DB66
:1028500003E1151C01E169D395EC18F001E26BD39B
:10286000DB2A69D3080EDB6A040EDB50010806E29E
:10287000040EDB045DEC18F0DB508BDB080EDB5044
:1028800009E0030EDB50010B05E172DB01E04DD3E3
:10289000080EDB6A64DBEFCFDFFF0DEC19F003E11C
:1028A000151C01E142D395EC18F001E3DB2A60DB53
:1028B00001E141D33AD3070EDB5002080FE1D9EC16
:1028C00018F0030EA0EC18F00E0EEECFDBFF0F0E8B
:1028D000EECFDBFF100EEECFDBFF20D0F70EDBCF0D
:1028E00017F0F80EDBCF18F0020E175E000E185A24
:1028F000F70E17C0DBFFF80E18C0DBFF17C0E9FFAB
:1029000018C0EAFF90EC18F0166A0E0E14C0DBFF38
:102910000F0E15C0DBFF100E16C0DBFF0E0EDBCF57
:10292000E6FF0F0EDBCFE6FF100EDBCFE6FF8CECF1
:1029300032F0E552E552E552130E07C0DBFF140EEC
:1029400008C0DBFF060EDB5005E0130ED4EC18F0D8
:1029500001E26ADBF8EC18F002E2130E37DBBBECA5
:1029600018F006E0040ED4EC18F002E2050E2EDB9F
:10297000030EDBB005D0FCDA01E0D7D2080EDB6A2B
:10298000090EDB6A0E0EDBCFF6FF0F0EDBCFF7FF73
:10299000100EDBCFF8FF0800F550DF6EDF5014E0BB
:1029A000FEEC18F011E20DEC19F003E1151C01E149
:1029B000BCD2BBDB01E3DB2A090EDB2AD9500E0FA8
:1029C000E96E000ECBDBE7D7D3DA01E1B4D2ADD2AA
:1029D000C6DA110EEECFDBFF120EEDCFDBFF110ECC
:1029E000DBCFE6FF120EDBCFE6FF7EEC32F0E552E6
:1029F000E552130EF3CFDBFF140EF4CFDBFF060E10
:102A0000DB5004E0130ED0DB01E20EDBF8EC18F033
:102A100002E2130EDBDAAFDB05E0040EC5DB02E2F7
:102A2000050ED4DA030EDBB005D0A2DA01E07DD2C8
:102A3000080EDB6A090EDB6A110EDBCFE9FF120E0E
:102A4000DBCFEAFFEFCFDFFFDF5014E0D7DB12E28E
:102A5000E4DB03E1151C01E168D267DB01E3DB2A5B
:102A6000090EDB2A110EDB2ADBCFE9FF120EE8E3A9
:102A7000DB2AE6D77DDA01E15ED257D2030EDB8E88
:102A8000070EDB0410E195DB040E5ADB0A0EEECFD5
:102A9000DBFF0B0EEECFDBFF0C0EEECFDBFF0D0EE0
:102AA000EECFDBFF6CD0070EDB5003082CE1030EEA
:102AB000DBAE0DD0B2DA020E76DAEFCF14F0156A83
:102AC000166A176A14AE39D01568166835D0F70E35
:102AD000DBCF15F0F80EDBCF16F0020E155E000E00
:102AE000165AF70E15C0DBFFF80E16C0DBFF15C037
:102AF000E9FF16C0EAFFEFCF14F00A0E14C0DBFFA7
:102B00000B0EDB6A38D0070EDB50020809E1030E1A
:102B1000DBAE04D059DB16AE10D00ED055DB0DD095
:102B2000030EDBAE12D079DA020E3DDAF9DA166A5C
:102B3000176A15AE02D016681768E2DA0C0E16C0D6
:102B4000DBFF0D0E17C0DBFF1AD0F70EDBCF16F040
:102B5000F80EDBCF17F0020E165E000E175AF70EB6
:102B600016C0DBFFF80E17C0DBFF16C0E9FF17C069
:102B7000EAFFD6DAC5DA0C0EDB6A0D0EDB6A060E4A
:102B8000DB5005E1010EF36E050EF3CFDBFF150EF2
:102B9000DB6A160EDB6AD950370F146E000EDA208E
:102BA000156E390E14C0DBFF3A0E15C0DBFF380E70
:102BB000DB6A080EDB6A0A0EAEDADF50780A12E032
:102BC000200A10E0280A0CE0200A0AE03F0A06E08A
:102BD0000D0A02E0200A08E1020E05D0080E03D01B
:102BE000080EDF26100E97DA030EDBBE02D0DB9252
:102BF000DB94DB50800B24E08ADAD890030EEB5094
:102C0000000A08E6000EEE5C000EEE58000EEE58CC
:102C1000000EEE5815E213DA0B680C680D680E68AA
:102C200012EC32F00A0E02C0DBFF0B0E03C0DBFF1A
:102C30000C0E04C0DBFF0D0E05C0DBFF2D0E08D00F
:102C4000030EDBA202D02B0E03D0DBA408D0200E93
:102C5000F36E170EF3CFDBFF150EDB2A02D0170E33
:102C6000DB6A050EDB5003E1B7D901E189D0600EC4
:102C7000146E690E156E000E166E070EDBCF17F080
:102C8000186A196A1A6A17C00BF018C00CF019C03C
:102C90000DF01AC00EF0D3D976EC33F014500224A4
:102CA000F36E15500320F46E16500420F86EF4CF26
:102CB000F7FFF3CFF6FF0800090EF5CFDBFF580E44
:102CC000DF5C0FE1610EF36E090E7BD90AE3200E83
:102CD000146E090EDBCFE7FF1450E75E090EE7CF55
:102CE000DBFF070EDBCF14F0156A166A176A0FDADE
:102CF00014C00BF015C00CF016C00DF017C00EF08C
:102D0000EECF06F0EECF07F0EECF08F0EFCF09F0F0
:102D100076EC33F009C0EDFF08C0EDFF07C0EDFF12
:102D200006C0EFFF390EDBCFE9FFDB063A0EDBCF43
:102D3000EAFF01E2DB06090EDBCFEFFF150EDB2A0F
:102D40004BD995E1030EDBA61DD06F0EDF5C06E1CB
:102D5000C1D918E3150EDB285BDA14D0780EDF5CDE
:102D600009E0580EDF5C06E0620EDF5C03E0420E15
:102D7000DF5C08E1020EF36E160EF3CFDBFF02D02C
:102D8000150EDB6A030EDB50100B0EE0040EDBCFDA
:102D900014F0050EDB50D880145406E2060EDB500A
:102DA00003E1040EDB5034DA95D90AE2050EDBCFDD
:102DB000E7FF150EDB50E75E050EE7CFDBFF02D025
:102DC000050EDB6A040EDBCF14F0160E45D9D88051
:102DD000145414E2160EDBCFE6FF150EDBCFE6FF30
:102DE000040EDBCFE6FF050EDB50E552E75CE55253
:102DF000D880E754E552D880E7545FD9030EDB5002
:102E0000010B0BE1080EDB5008E0B2D801E08DD0D9
:102E1000080EDB50BED8080EDB6A170EDB5007E049
:102E200088D9170EF1D903E1151C01E17ED0160EE9
:102E3000DB5016E07ED9300EE66E9FD802E1151CFD
:102E400074E077D9DFCFE6FFD0EC31F0E552E55200
:102E5000E552F4CF15F00001F31C02E1151C65E00A
:102E6000050EDBCF14F0160EDB50D880145409E2A7
:102E7000050EDBCFE7FF160EDB50E75E050EE7CF52
:102E8000DBFF300EE66E050ECBD94FE1390EDB2AA3
:102E9000DBCFE9FF3A0E01E3DB2ADBCFEAFF090EC5
:102EA000EFCFDBFFDB500EE044D9090EADD902E1D4
:102EB000151C3BE0390EDB2ADBCFE9FF3A0EEDE3D0
:102EC000DB2AEBD755D831E1160EDBCFE6FF080E33
:102ED000C3D8E552E7245DD82ED0070EDB50030A95
:102EE0001CE0010A14E0030A07E07BD9DBCFEEFF08
:102EF000020EDBCFEDFF1FD0F5D8196A17AE02D056
:102F0000186819682CD8BCD819C0EEFF14D0EAD8BC
:102F100017BE186824D8B4D80ED063D9DBCFEFFF22
:102F20000AD07BD905E1151C03E1F368F46810D0E1
:102F3000FCD801E3DB2A79D93AEF13F0010EDBCF9D
:102F400014F0020EDBCF15F014C0F3FF15C0F4FF30
:102F50003B0EE15C02E2E16AE552E16ECBD029D999
:102F6000020EA0EF18F061D90800F550DF6E1200D4
:102F7000200EE66E080E10EF19F0D0EC31F0E5529D
:102F8000E552E552F3CF14F0F4CF15F00001F31C35
:102F90001200146E156AD950010F4DD91450EE2647
:102FA0001550ED221200185E000E195AF70E18C0C7
:102FB000DBFFF80E19C0DBFF18C0E9FF19C0EAFFFC
:102FC0001200DBCFF4FFF350F45C1200DB50E76E2D
:102FD000040EE7CFDBFF12000A0EDBCF14F00B0E5E
:102FE000DBCF15F00C0EDBCF16F00D0EDBCF17F09C
:102FF00014501510161017101200130EEECFDBFF31
:10300000140EEDCFDBFF130EDBCF14F0140EDBCF6D
:1030100015F00001800E15141200F70EDBCF18F02A
:10302000F80EDBCF19F01200050EDB50E66ED9501A
:10303000130F01D9E552E750EE6EED6A12000A0E49
:10304000DBCF06F00B0EDBCF07F00C0EDBCF08F06A
:103050000D0EDBCF09F01200DBCFE6FF150EDBCF44
:10306000E6FF050EDB50E552E724E552E7241200A7
:10307000DB50CED8010EF36E060EF3CFDBFF12004D
:10308000EE50EFCFEAFFE96E16C0EEFF17C0EEFF7D
:1030900018C0EEFF1200D9CFE6FFDACFE6FFE1CF8E
:1030A000D9FFE2CFDAFF1200DFCFE6FFE66A4BEC92
:1030B00034F0E552E552F3501200E76E080EE7CF08
:1030C000DBFF1200EECF14F0EECF15F0EFCF16F0CD
:1030D000176A1200050EDBCF14F0150EDB50D880F6
:1030E00014541200010EDBCF16F0020EDBCF17F0E6
:1030F000186A1200E552E5CFDAFFE7CFD9FF1200D8
:103100000A0E14C0DBFF0B0E15C0DBFF1200D950F6
:103110000A0F1BEF19F0F36E070EF3CFDBFF12005F
:10312000EECF14F0EFCF15F01200010EDB2A020EE5
:103130001200FC0EDBCFE6FFFD0EDBCFE6FF120038
:10314000145E000E155AF70E14C0DBFFF80E15C002
:10315000DBFF14C0E9FF15C0EAFF1200DA20EA6EB7
:10316000EF2AEECFF6FF000EEF22EECFF7FFEF22B1
:10317000EECFF8FF1200040EDBCFE6FF130EDB509C
:10318000E552E75C9ADFDB5004DF060EDB501200ED
:10319000090EDB500A0DF350DF24D00FE76E090E45
:1031A000E7CFDBFFB3EF17F0DB50F36E050EE1EF77
:1031B00017F0F70EDBCF14F0F80EDBCF15F012008E
:1031C000DFCFE6FFBDEF17F028DF030EECDE62EF86
:1031D00018F00FEC13F0E552E552E552E552000904
:1031E0001200BDDEEE50EFCFEAFFE96E010E1200D5
:1031F000130EDB50F36E040EE1EF17F0040EDB50FC
:10320000F36E090EE1EF17F0DBCFE6FFBDEF17F02D
:10321000E76E050EE7CFDBFF12008BDFE0EF18F063
:10322000DBCFE6FF86DFE9EF18F0D950F90FE96E42
:10323000FF0EAEEF18F0E96E000EDA20EA6E120013
:10324000949C948EFA0EE66E1DEC34F0E552400E1E
:10325000E66EE66A7C0EE66E47EC31F0E552E5522A
:10326000E5529F9A1200D9CFE6FFE1CFD9FFFD0EBC
:10327000DBCFF6FFFE0EDBCFF7FF0800F55014E0C2
:10328000ACA2FED7FD0EDBCFF6FFFE0EDBCFF7FFC5
:103290000800F550E66E34EC34F0E552FD0EDB2A02
:1032A000FE0E01E3DB2AE3D7E552E7CFD9FF120098
:1032B000D9CFE6FFE1CFD9FFFD0EDBCFE9FFFE0E50
:1032C000DBCFEAFFEF5013E0ACA2FED7FD0EDBCF61
:1032D000E9FFFE0EDBCFEAFFEF50E66E34EC34F090
:1032E000E552FD0EDB2AFE0E01E3DB2AE5D7E552AF
:1032F000E7CFD9FF12003D0EE66E4A0EE66EB3DF51
:10330000E552E5521200D9CFE6FFE1CFD9FFFD0E1D
:10331000DBCFE9FFFE0EDBCFEAFFEF5020E1F90E35
:10332000DBCF08F0FA0EDBCF09F0010E081801E13F
:1033300009500DE0085001E1095001E010D0CE0E17
:10334000E66E490EE66E8FDFE552E55208D0BC0E00
:10335000E66E490EE66E87DFE552E55200D0D950A1
:10336000FB0FE96EFF0EDA20EA6E010EEE1801E1A6
:10337000ED5001E089D3FD0EDBCFE9FFFE0EDBCF80
:10338000EAFFEF0401E0D8D0D950F90FE96EFF0E43
:10339000DA20EA6EEE50ED100EE1490EE66E490EAF
:1033A000E66E61DFE552E552050EE66E490EE66E09
:1033B0005ADFE552E552D950F90FE96EFF0EDA20D7
:1033C000EA6E010EEE1801E1ED504CE1F70EDBCF95
:1033D00008F0F80EDBCF09F0040E081801E10950DF
:1033E00038E0030E081801E109502AE0020E08181F
:1033F00001E109501CE0010E081801E109500EE03E
:10340000085001E1095001E02DD075DFF50EE66EA0
:10341000480EE66E28DFE552E55224D06CDFE40E5C
:10342000E66E480EE66E1FDFE552E5521BD063DF05
:10343000D40EE66E480EE66E16DFE552E55212D067
:103440005ADFBF0EE66E480EE66E0DDFE552E5521E
:1034500009D051DFAC0EE66E480EE66E04DFE55291
:10346000E55200D0D950F90FE96EFF0EDA20EA6E6E
:10347000020EEE1801E1ED505FE1F70EDBCF08F030
:10348000F80EDBCF09F0040E081801E109504BE0FB
:10349000020E081801E109501AE0010E081801E1B6
:1034A00009500DE0085001E1095001E045D09E0EA1
:1034B000E66E480EE66ED7DEE552E5523DD08F0E41
:1034C000E66E480EE66ECFDEE552E55235D013DFEC
:1034D000FD0EDBCFE9FFFE0EDBCFEAFF100EE92683
:1034E000000EEA22EECFE6FFEFCFE6FF800E146E6D
:1034F000480E156E166A14C0E6FF15C0E6FF16C02A
:10350000E6FF800EE66E000EE66E5BEC30F0176EA6
:10351000070EE15E1750800EE66E000EE66EC8DE06
:10352000E552E55209D0E7DE6F0EE66E480EE66E14
:103530009ADEE552E55200D0FD0EDBCFE9FFFE0E2C
:10354000DBCFEAFFEF50020856E1D950F90FE96EE0
:10355000FF0EDA20EA6EEE50ED100EE1320EE66E4E
:10356000480EE66E80DEE552E552050EE66E490E27
:10357000E66E79DEE552E552D950F90FE96EFF0E9D
:10358000DA20EA6E010EEE1801E1ED5022E1F70EAD
:10359000DBCF08F0F80EDBCF09F0010E081801E1CF
:1035A00009500EE0085001E1095001E012D0A3DEFD
:1035B0001F0EE66E480EE66E56DEE552E55209D065
:1035C0009ADE070EE66E480EE66E4DDEE552E552D7
:1035D00000D0D950F90FE96EFF0EDA20EA6E020E24
:1035E000EE1801E1ED5007E1F50EE66E470EE66ECE
:1035F0003ADEE552E552FD0EDBCFE9FFFE0EDBCFF2
:10360000EAFFEF50030801E03ED2D950F90FE96E0E
:10361000FF0EDA20EA6EEE50ED100EE1430EE66E7C
:10362000470EE66E20DEE552E552050EE66E490EC7
:10363000E66E19DEE552E552D950F90FE96EFF0E3C
:10364000DA20EA6E010EEE1801E1ED5068E1F70EA6
:10365000DBCF08F0F80EDBCF09F0060E081801E109
:10366000095054E0050E081801E1095046E0040E27
:10367000081801E1095038E0030E081801E109506B
:103680002AE0020E081801E109501CE0010E08189A
:1036900001E109500EE0085001E1095001E03FD07E
:1036A0002ADE320EE66E470EE66EDDDDE552E552AD
:1036B00036D021DE210EE66E470EE66ED4DDE552F1
:1036C000E5522DD018DE0D0EE66E470EE66ECBDD10
:1036D000E552E55224D00FDEEE0EE66E460EE66EA3
:1036E000C2DDE552E5521BD006DED80EE66E460E70
:1036F000E66EB9DDE552E55212D0FDDDB90EE66E9B
:10370000460EE66EB0DDE552E55209D0F4DDA10EBD
:10371000E66E460EE66EA7DDE552E55200D0D950C2
:10372000F90FE96EFF0EDA20EA6E020EEE1801E1E3
:10373000ED5001E003D1F70EDBCF08F0F80EDBCF40
:1037400009F0050E081801E1095001E1CBD0040E83
:10375000081801E1095001E199D0030E081801E1B0
:10376000095068E0020E081801E1095037E0010E27
:10377000081801E1095006E0085001E1095001E094
:10378000DDD0DCD0B8DDFD0EDBCFE9FFFE0EDBCFF8
:10379000EAFF100EE926000EEA22EECFE6FFEFCF99
:1037A000E6FF800E146E480E156E166A14C0E6FF12
:1037B00015C0E6FF16C0E6FF800EE66E000EE66E50
:1037C0005BEC30F0176E070EE15E1750800EE66E70
:1037D000000EE66E6DDDE552E552B0D08CDDFD0EDB
:1037E000DBCFE9FFFE0EDBCFEAFF120EE926000E6B
:1037F000EA22EECFE6FFEFCFE6FF8F0E146E460E05
:10380000156E166A14C0E6FF15C0E6FF16C0E6FF87
:10381000800EE66E000EE66E5BEC30F0176E070E63
:10382000E15E1750800EE66E000EE66E41DDE55259
:10383000E55284D060DDFD0EDBCFE9FFFE0EDBCF6D
:10384000EAFF140EE926000EEA22EECFE6FFEFCFE4
:10385000E6FF720E146E460E156E166A14C0E6FF71
:1038600015C0E6FF16C0E6FF800EE66E000EE66E9F
:103870005BEC30F0176E070EE15E1750800EE66EBF
:10388000000EE66E15DDE552E55258D034DDFD0E32
:10389000DBCFE9FFFE0EDBCFEAFF160EE926000EB6
:1038A000EA22EECFE6FFEFCFE6FF5E0E146E460E85
:1038B000156E166A14C0E6FF15C0E6FF16C0E6FFD7
:1038C000800EE66E000EE66E5BEC30F0176E070EB3
:1038D000E15E1750800EE66E000EE66EE9DCE55202
:1038E000E5522CD008DDFD0EDBCFE9FFFE0EDBCF6D
:1038F000EAFF180EE926000EEA22EECFE6FFEFCF30
:10390000E6FF410E146E460E156E166A14C0E6FFF1
:1039100015C0E6FF16C0E6FF800EE66E000EE66EEE
:103920005BEC30F0176E070EE15E1750800EE66E0E
:10393000000EE66EBDDCE552E55200D0D950F90F1D
:10394000E96EFF0EDA20EA6E030EEE1801E1ED508B
:1039500001E099D0F70EDBCF08F0F80EDBCF09F0CD
:10396000020E081801E1095062E0010E081801E199
:10397000095031E0085001E1095001E084D0BBDC7E
:10398000FD0EDBCFE9FFFE0EDBCFEAFF1A0EE926C4
:10399000000EEA22EECFE6FFEFCFE6FF2A0E146E0E
:1039A000460E156E166A14C0E6FF15C0E6FF16C077
:1039B000E6FF800EE66E000EE66E5BEC30F0176EF2
:1039C000070EE15E1750800EE66E000EE66E70DCAC
:1039D000E552E55258D08FDCFD0EDBCFE9FFFE0E3D
:1039E000DBCFEAFF1C0EE926000EEA22EECFE6FF4F
:1039F000EFCFE6FF170E146E460E156E166A14C052
:103A0000E6FF15C0E6FF16C0E6FF800EE66E000E6C
:103A1000E66E5BEC30F0176E070EE15E1750800E1D
:103A2000E66E000EE66E44DCE552E5522CD063DC17
:103A3000FD0EDBCFE9FFFE0EDBCFEAFF1E0EE9260F
:103A4000000EEA22EECFE6FFEFCFE6FF020E146E85
:103A5000460E156E166A14C0E6FF15C0E6FF16C0C6
:103A6000E6FF800EE66E000EE66E5BEC30F0176E41
:103A7000070EE15E1750800EE66E000EE66E18DC53
:103A8000E552E55200D056D0D950FB0FE96EFF0E3B
:103A9000DA20EA6EEE50ED104DE1FD0EDBCFE9FFCE
:103AA000FE0EDBCFEAFF070EE926000EEA22EF50FA
:103AB00000E0FD0EDBCFE9FFFE0EDBCFEAFFEF50AB
:103AC000030A27E0010A14E0030A01E033D0F00EF4
:103AD000E66E450EE66E33EC19F0E552E552D30E74
:103AE000E66E450EE66E33EC19F0E552E55222D053
:103AF000C30EE66E450EE66E33EC19F0E552E55264
:103B0000D30EE66E450EE66E33EC19F0E552E55243
:103B100011D0B50EE66E450EE66E33EC19F0E552A7
:103B2000E552D30EE66E450EE66E33EC19F0E55223
:0C3B3000E55200D0E552E7CFD9FF1200AB
:043B3C00D9CFE6FFF8
:103B4000E1CFD9FF6F0EE126D950060F146EDACF00
:103B500015F01C0E14C0DBFF1D0E15C0DBFFD95085
:103B60001E0F146EDACF15F03E0E14C0DBFF3F0EB1
:103B700015C0DBFF5B0EDB6A500EDB6A020EDB6AF0
:103B8000F29EF29C96EC2FF045EC25F01C0EDBCF5C
:103B9000E9FF1D0EDBCFEAFFEF6A1C0EDBCFE9FF6A
:103BA0001D0EDBCFEAFF020EE926000EEA220A0E06
:103BB000EE6EED6A1C0EDBCFE9FF1D0EDBCFEAFFD8
:103BC000040EE926000EEA220A0EEE6EED6A1C0EC5
:103BD000DBCFE9FF1D0EDBCFEAFF060EE926000E64
:103BE000EA220A0EEE6EED6A1C0EDBCFE9FF1D0E17
:103BF000DBCFEAFF080EE926000EEA220A0EEE6E7F
:103C0000ED6A1C0EDBCFE9FF1D0EDBCFEAFF0A0ECB
:103C1000E926000EEA220A0EEE6EED6A1C0EDBCFDC
:103C2000E9FF1D0EDBCFEAFF0C0EE926000EEA22AB
:103C30000A0EEE6EED6A1C0EDBCFE9FF1D0EDBCF28
:103C4000EAFF0E0EE926000EEA220A0EEE6EED6A7B
:103C50001C0EDBCFE9FF1D0EDBCFEAFF100EE926BD
:103C6000000EEA220A0EEE6EED6A1C0EDBCFE9FFB3
:103C70001D0EDBCFEAFF120EEB6A130EEB6A1C0E71
:103C8000DBCFE9FF1D0EDBCFEAFF140EEB6A150E4A
:103C9000EB6A3E0EDBCFE9FF3F0EDBCFEAFFEE52D1
:103CA000EF6A3E0EDBCFE9FF3F0EDBCFEAFF020EED
:103CB000E926000EEA220A0EEF6E3E0EDBCFE9FF88
:103CC0003F0EDBCFEAFF030EE926000EEA221E0EAE
:103CD000EF6E3E0EDBCFE9FF3F0EDBCFEAFF040EB7
:103CE000E926000EEA22140EEF6E3E0EDBCFE9FF4E
:103CF0003F0EDBCFEAFF050EE926000EEA220A0E90
:103D0000EF6E3E0EDBCFE9FF3F0EDBCFEAFF060E84
:103D1000E926000EEA22010EEF6E3E0EDBCFE9FF30
:103D20003F0EDBCFEAFF070EE926000EEA22010E66
:103D3000EF6E3E0EDBCFE9FF3F0EDBCFEAFF080E52
:103D4000EB6A090EEB6A3E0EDBCFE9FF3F0EDBCFDD
:103D5000EAFF0A0EE926000EEA22EF6A3E0EDBCFEA
:103D6000E9FF3F0EDBCFEAFF0B0EE926000EEA2249
:103D7000EF6A3E0EDBCFE9FF3F0EDBCFEAFF0C0E12
:103D8000EB6A0D0EEB6A3E0EDBCFE9FF3F0EDBCF99
:103D9000EAFF0E0EEB6A0F0EEB6AF28CD08EF28EFB
:103DA0005B0EDB6A550EF36E070EF3CFDBFF440E9E
:103DB000DB6A4F0EDBCF14F0156A14BE1568690E6E
:103DC00014C0DBFF6A0E15C0DBFF4D0EDBCF08F021
:103DD0004E0EDBCF09F0690E08C0DBFF6A0E09C08A
:103DE000DBFF1C0EDBCFE6FF1D0EDBCFE6FFEF0E89
:103DF000E66E000EE66EAAEC2FF0E552E552E552B3
:103E0000E5521C0EDBCFE9FF1D0EDBCFEAFFEF50C2
:103E100017E01C0EDBCFE9FF1D0EDBCFEAFFEE52F1
:103E2000EFCF14F0156A14BE15686D0E14C0DBFFD9
:103E30006E0E15C0DBFF6D0EDB2A6E0E01E3DB2A72
:103E40000001D0053AE1D950010FE66E000EDA20EC
:103E5000E66ED9CFE6FFDACFE6FFD950020FE66E65
:103E6000000EDA20E66ED9505D0FE66E000EDA2005
:103E7000E66ED10EE66E000EE66E0EEC27F0146EC6
:103E80000A0EE15E14505D0EDB50E76E400EE7CF88
:103E9000DBFF5E0EDB50E76E410EE7CFDBFF5F0E10
:103EA000DB50E76E420EE7CFDBFF020EDB50E76E22
:103EB000440EE7CFDBFF0001D06B060EDBCFE6FF41
:103EC0005B0EDBCFE6FF37DAE552E552E76E5B0EBD
:103ED000E7CFDBFFDBCFE6FFD950400FE66E000EE9
:103EE000DA20E66ED950060FE66E000EDA20E66E96
:103EF000D9504D0FE66E000EDA20E66ED9501E0F37
:103F0000E66E000EDA20E66E56EC28F0146E090E0E
:103F1000E15E14504F0EDBCF14F0156A14BE156825
:103F20006B0E14C0DBFF6C0E15C0DBFF4D0EDBCF3C
:103F300008F04E0EDBCF09F06B0E08C0DBFF6C0EF5
:103F400009C0DBFF440EDB6A4D0EDB6A010EF36E27
:103F50004E0EF3CFDBFF660EF36E4F0EF3CFDBFF9B
:103F60004D0EDBCFE6FF4E0EDBCFE6FF4F0EDBCF75
:103F7000E6FF8BEC25F0E552E552E5521C0EDBCF57
:103F8000E9FF1D0EDBCFEAFFEF50E66E3E0EDBCF02
:103F9000E9FF3F0EDBCFEAFFE552E750EF6E1C0E64
:103FA000DBCFE9FF1D0EDBCFEAFF020EE926000E94
:103FB000EA22EECF14F0EFCF15F03E0EDBCFE9FF93
:103FC0003F0EDBCFEAFF100EE926000EEA2214C0F6
:103FD000EEFF15C0EDFF1C0EDBCFE9FF1D0EDBCFA2
:103FE000EAFF040EE926000EEA22EECF14F0EFCF2E
:103FF00015F03E0EDBCFE9FF3F0EDBCFEAFF120EDE
:10400000E926000EEA2214C0EEFF15C0EDFF1C0EDB
:10401000DBCFE9FF1D0EDBCFEAFF060EE926000E1F
:10402000EA22EECF14F0EFCF15F03E0EDBCFE9FF22
:104030003F0EDBCFEAFF140EE926000EEA2214C081
:10404000EEFF15C0EDFF1C0EDBCFE9FF1D0EDBCF31
:10405000EAFF080EE926000EEA22EECF14F0EFCFB9
:1040600015F03E0EDBCFE9FF3F0EDBCFEAFF160E69
:10407000E926000EEA2214C0EEFF15C0EDFF1C0E6B
:10408000DBCFE9FF1D0EDBCFEAFF0C0EE926000EA9
:10409000EA22EECF14F0EFCF15F03E0EDBCFE9FFB2
:1040A0003F0EDBCFEAFF1A0EE926000EEA2214C00B
:1040B000EEFF15C0EDFF1C0EDBCFE9FF1D0EDBCFC1
:1040C000EAFF0E0EE926000EEA22EECF14F0EFCF43
:1040D00015F03E0EDBCFE9FF3F0EDBCFEAFF1C0EF3
:1040E000E926000EEA2214C0EEFF15C0EDFF1C0EFB
:1040F000DBCFE9FF1D0EDBCFEAFF100EE926000E35
:10410000EA22EECF14F0EFCF15F03E0EDBCFE9FF41
:104110003F0EDBCFEAFF1E0EE926000EEA2214C096
:10412000EEFF15C0EDFF1C0EDBCFE9FF1D0EDBCF50
:10413000EAFF0A0EE926000EEA22EECF14F0EFCFD6
:1041400015F03E0EDBCFE9FF3F0EDBCFEAFF180E86
:10415000E926000EEA2214C0EEFF15C0EDFF3E0E68
:10416000DBCFE6FF3F0EDBCFE6FFDEEC2FF0E552C4
:10417000E55237D66F0EE15C02E2E16AE552E16E8C
:10418000E552E7CFD9FF1200DACFE4FFE2CFDAFF42
:10419000E9CFE4FFEACFE4FFF6CFE4FFF7CFE4FF97
:1041A000F5CFE4FFF3CFE4FFF4CFE4FFFACFE4FF71
:1041B00000EE00F0140EE80403E3EECFE4FFFBD7BB
:1041C00000EE14F00C0EE80403E3EECFE4FFFBD79F
:1041D000E652F2A408D0F294F29AD59E010E0101A3
:1041E000396F3A6B10D09EAA09D0EF0EE66E000E22
:1041F000E66EA3EC2DF0E552E55205D0A1A003D068
:10420000A1902FEC2BF0E55200EE1FF00C0EE8040D
:1042100003E3E5CFEDFFFBD700EE13F0140EE80447
:1042200003E3E5CFEDFFFBD7E5CFFAFFE5CFF4FFE2
:10423000E5CFF3FFE5CFF5FFE5CFF7FFE5CFF6FFDD
:10424000E5CFEAFFE5CFE9FFE5CFDAFF1100DACFEE
:10425000E4FFE2CFDAFFE9CFE4FFEACFE4FFF6CFF5
:10426000E4FFF7CFE4FFF5CFE4FFF3CFE4FFF4CFB3
:10427000E4FFFACFE4FF00EE00F0140EE80403E3DD
:10428000EECFE4FFFBD700EE14F00C0EE80403E3DE
:10429000EECFE4FFFBD7E652F29EF0A210D0D00E94
:1042A000E66E000EE66ED10EE66E000EE66E53EC84
:1042B00025F0E552E552E552E552F09217D081A083
:1042C0000AD0F292EF0EE66E000EE66E71EC2EF062
:1042D000E552E5520BD081A209D0F090EF0EE66EC8
:1042E000000EE66E0CEC2DF0E552E552F28EE55232
:1042F00000EE1FF00C0EE80403E3E5CFEDFFFBD763
:1043000000EE13F0140EE80403E3E5CFEDFFFBD756
:10431000E5CFFAFFE5CFF4FFE5CFF3FFE5CFF5FFFB
:10432000E5CFF7FFE5CFF6FFE5CFEAFFE5CFE9FF01
:10433000E5CFDAFF1100D9CFE6FFE1CFD9FFFD0EBF
:0C434000DB5000D0E552E7CFD9FF12009F
:04434C0046524F4E38
:10435000543A256420636D2020202020004C3D2508
:104360006420636D20523D256420636D2000486108
:104370006C66205363616E20202020202020005393
:1043800063616E6E696E672E2E2E20202020200025
:1043900046756C6C205363616E2020202020202005
:1043A0000044204741494E3D20202020202020204D
:1043B000200049204741494E3D2020202020202038
:1043C00020200050204741494E3D20202020202021
:1043D0002020200052462053414D504C45533D2053
:1043E000202020200049522053414D504C4520525E
:1043F0004154453D200049522053414D504C4553B6
:104400003D2020202020004D415820594157205266
:104410004154453D20202000362D5345545F4D4FDB
:1044200044454D414E55414C00352D5345545F5246
:10443000465F53414D504C455300342D5345545F16
:1044400049525F5241544520202000332D5345549A
:104450005F49525F53414D504C455300322D5345F7
:10446000545F5941575F52415445202000312D532C
:1044700045545F53504545445F4D41582000302D11
:104480005345545F5049445F4741494E53200046CD
:104490004143544F52595F4D4F4445202020200046
:1044A000312D5345545F555345524D414E55414C66
:1044B00000302D5345545F46494E44504152524FAF
:1044C0005400555345525F4155544F5F4D4F44453D
:1044D000202000456E7465722050617373636F64B1
:1044E000653A20004D41582053504545443D202019
:1044F0002020202000256420202020202020202093
:10450000202020202020004D4F544F52535F4F4613
:1045100046004D4F544F52535F4F4E00342D53457C
:10452000545F464143544F525920202000332D53AD
:1045300045545F555345525F4155544F2000322D2D
:104540005345545F53504545445F4D415820003119
:104550002D5345545F4D4F544F52535F4F464600C5
:10456000302D5345545F4D4F544F52535F4F4E20A3
:1045700000555345525F4D414E55414C5F4D4F44A0
:104580004500202020202020202020202020202026
:10459000202000496E697469616C6973696E672EC9
:1045A0002E2E200057656C636F6D6520746F204858
:1045B00053532020000C464143544F52595F4D4FF6
:1045C0004445000C555345525F4155544F5F4D4F84
:1045D0004445000A0D5072657373204120746F20AA
:1045E000656E74657220636F6D6D616E640A0D0097
:1045F0000C555345525F4D414E55414C5F4D4F4414
:104600004500446572697661746976652047616921
:104610006E3D2025640D00496E74656772616C20E3
:104620004761696E3D2025640D0050726F706F7296
:1046300074696F6E616C204761696E3D2025640D61
:104640000052462053414D504C4553205045522076
:10465000455354494D4154453D2025640D00495270
:104660002053414D504C4520524154453D20256436
:104670000D0049522053414D504C45532050455256
:1046800020455354494D4154453D2025640D004D6E
:1046900041582059415720524154453D2025640D31
:1046A00000362D5345545F4D4F44455F5553455299
:1046B0005F4D414E55414C0D00352D5345545F52D1
:1046C000465F53414D504C45535F5045525F4553F3
:1046D00054494D4154450D00342D5345545F4952C2
:1046E0005F53414D504C455F524154450D00332DB1
:1046F0005345545F49525F53414D504C45535F50B1
:1047000045525F455354494D4154450D00322D5398
:1047100045545F5941575F524154455F4D41580DD3
:1047200000312D5345545F53504545445F4D41582A
:104730000D00302D5345545F5049445F4741494E69
:10474000530D000C464143544F52595F4D4F444561
:104750000A0D302D5345545F5049445F4741494E3F
:10476000530A0D312D5345545F53504545445F4D19
:1047700041580A0D322D5345545F5941575F5241FC
:1047800054455F4D41580A0D332D5345545F4952EE
:104790005F53414D504C45535F5045525F45535414
:1047A000494D4154450A0D342D5345545F49525FDC
:1047B00053414D504C455F524154450A0D352D53E0
:1047C00045545F52465F53414D504C45535F5045F1
:1047D000525F455354494D4154450A0D362D5345BA
:1047E000545F4D4F44455F555345525F4D414E55C3
:1047F000414C0A0D000A46696E64696E672050617B
:1048000072726F740A0D00312D5345545F4D4F4441
:10481000455F555345525F4D414E55414C0D00305B
:104820002D5345545F46494E445F504152524F54B8
:104830000D000C555345525F4155544F5F4D4F4449
:10484000450A0D302D5345545F46494E445F504153
:1048500052524F540A0D312D5345545F4D4F44452C
:104860005F555345525F4D414E55414C0A0D004531
:104870006E7465722050617373636F64653A0D00E6
:104880004D41582053504545443D2025640D000AB4
:104890000D4D4F544F52535F4F46460A0D000A0DBF
:1048A0004D4F544F52535F4F4E0A0D00342D534518
:1048B000545F4D4F44455F464143544F5259003376
:1048C0002D5345545F4D4F44455F555345525F410D
:1048D00055544F00322D5345545F53504545445F66
:1048E0004D415800312D5345545F4D4F544F525355
:1048F0005F4F464600302D5345545F4D4F544F5245
:10490000535F4F4E005573652055502F444F574EFF
:10491000206172726F777320746F207363726F6C93
:104920006C0A0D5072657373204120746F2073659B
:104930006C6563740A0D5072657373204220746F46
:1049400020657869740A0A0D000C555345525F4D75
:10495000414E55414C5F4D4F44450A0A0D302D5391
:1049600045545F4D4F544F52535F4F4E0A0D312DFA
:104970005345545F4D4F544F52535F4F46460A0DB7
:10498000322D5345545F53504545445F4D41580ABD
:104990000D332D5345545F4D4F44455F555345529C
:1049A0005F4155544F0A0D342D5345545F4D4F44CC
:1049B000455F464143544F52590A0D00496E697490
:1049C00069616C6973696E672E2E2E0A0D000C5793
:1049D000656C636F6D6520746F2074686520486135
:1049E00072616D626520536F756C205365656B65F0
:1049F000720A0D5072657373204120746F20656ECA
:104A000074657220636F6D6D616E647320616E6496
:104A10002055502F444F574E206172726F7773208C
:104A2000746F207363726F6C6C0A0D496E697469E0
:104A3000616C6973696E672E2E2E0A0D000D2020A1
:104A40002020202020202020202020202020202066
:104A50002020202020202020202020202020202056
:104A600020202020202020200D0057726F6E67200C
:104A700050617373636F646500550044004C0052CD
:094A80000048004600410042001C
:014A8900002C
:064A8A008CEC31F0F18E0E
:104A9000819493840F0EC16E82989498F088F08E62
:104AA000F092F1981200D9CFE6FFE1CFD9FF93EC55
:104AB00031F00101326F4B0E325D0AE1FD0EDBCFAA
:104AC00033F1FE0EDBCF34F10101010E3D6F1ED03C
:104AD0004F0E325D0BE1FB0EDBCFE9FFFC0EDBCFAF
:104AE000EAFF010EEF6E01013D6B10D07A0E325DD0
:104AF0000DE001013D050AE133C1E9FF34C1EAFFE0
:104B000032C1EFFF0101332B000E342300D0E552F8
:104B1000E7CFD9FF1200D9CFE6FFE1CFD9FF100EC2
:104B2000E126FE0EDB50DF6EFC0EDBCF08F0FD0E43
:104B3000DBCF09F0DE5208C0DEFF09C0DDFFDD5229
:104B4000100EF36E030EF3CFDBFF100EF36E040EA8
:104B5000F3CFDBFF100EF36E050EF3CFDBFF100E6D
:104B6000F36E060EF3CFDBFF070EDB6A200EF36E4B
:104B7000080EF3CFDBFF090EDB6A0C0EF36E0A0E94
:104B8000F3CFDBFF0B0EDB6A010EDBCF08F0020E6A
:104B9000DBCF09F00E0E08C0DBFF0F0E09C0DBFFF4
:104BA000090EDBCF14F0040EE76E1418E8AE02D045
:104BB000E73402D0E750145C01E377D00E0EDBCF70
:104BC00016F00F0EDBCF17F00A0EDB5016C014F0F4
:104BD00017C015F005E0D89015321432E804FBE157
:104BE0000C0E14C0DBFF0D0E15C0DBFFD950030FF8
:104BF0001C6EDACF1DF0090EDBCF1EF01F6A1EBE41
:104C00001F681C501E24E96E1D501F20EA6EEFCF56
:104C10001AF01B6A1ABE1B680C0EDB501A10186EB5
:104C20000D0EDB501B10196ED950030F146EDACF26
:104C300015F0090EDBCF16F0176A16BE1768145070
:104C40001624E96E15501720EA6E18C0EFFF0C0EFF
:104C5000DBCF18F00D0EDBCF19F00A0EDB5018C0B9
:104C600016F019C017F005E0D89016361736E8048C
:104C7000FBE10E0EDBCF08F00F0EDBCF09F0165074
:104C8000085C146E17500958156E0E0E14C0DBFF29
:104C90000F0E15C0DBFF0A0EDB50FC0FE76E0A0E8D
:104CA000E7CFDBFF090EDB2A7BD7D950030F1C6E41
:104CB000DACF1DF0090EDBCF1EF01F6A1EBE1F6883
:104CC0001C501E24E96E1D501F20EA6EEFCF1AF013
:104CD0001B6A1ABE1B680C0EDB501A10186E0D0EE4
:104CE000DB501B10196ED950030F146EDACF15F07C
:104CF000090EDBCF16F0176A16BE1768145016247B
:104D0000E96E15501720EA6E18C0EFFF4B0EE66EE5
:104D1000B4EC31F0E552040EE66EA5EC34F0E55249
:104D20005E0EE66EB4EC31F0E552040EE66EA5ECD4
:104D300034F0E5520B0EDBCF14F0040EE76E1418BE
:104D4000E8AE02D0E73402D0E750145C1EE2D9503E
:104D5000030F146EDACF15F00B0EDBCF16F0176AC7
:104D600016BE176814501624E96E15501720EA6E07
:104D7000EF50E66EB4EC31F0E5520B0EDB2A040E78
:104D8000E66EA5EC34F0E552D5D7040EE66EA5EC40
:104D900034F0E552DFCFE6FFB4EC31F0E552040E1B
:104DA000E66EA5EC34F0E5524F0EE66EB4EC31F051
:104DB000E552040EE66EA5EC34F0E552100EE15C0F
:104DC00003E200D0E16AE552E16EE552E7CFD9FF98
:104DD00012004B0EE66EB4EC31F0E552040EE66EB6
:104DE000A5EC34F0E5525E0EE66EB4EC31F0E5521F
:104DF000040EE66EA5EC34F0E5527E0EE66EB4ECE1
:104E000031F0E552040EE66EA5EC34F0E5524F0E9B
:104E1000E66EB4EC31F0E55200D01200D9CFE6FFD7
:104E2000E1CFD9FF030EE126010EDB6AFD0EDBCFD9
:104E3000E9FFFE0EDBCFEAFFEF505E0801E0F9D09C
:104E4000FD0EDB2AFE0E01E3DB2ADF6AFD0EDBCF5F
:104E5000E9FFFE0EDBCFEAFFEF507E0809E1F50E19
:104E6000DBCFE9FFF60EDBCFEAFF010EEF6EE1D0FC
:104E7000FD0EDBCFE9FFFE0EDBCFEAFFEF50F00BBC
:104E8000E76E020EE7CFDBFFDB5020082AE1DFCF21
:104E900014F0030EE76E1418E8AE02D0E73402D027
:104EA000E750145C1EE2FD0EDBCFE9FFFE0EDBCF08
:104EB000EAFFEF500F0BE66EFB0EDBCFE9FFFC0EB7
:104EC000DBCFEAFFE552E750EF6EFB0EDB2AFC0E6C
:104ED00001E3DB2AFD0EDB2AFE0E01E3DB2ADF2ADB
:104EE000D6D7F70EDBCFE9FFF80EDBCFEAFFEF6A8C
:104EF000DF6AFD0EDBCFE9FFFE0EDBCFEAFFEF50EE
:104F0000F00BE76E020EE7CFDBFFDB50300805E069
:104F1000020EDB50400801E08BD0DFCF14F0020E10
:104F2000E76E1418E8AE02D0E73402D0E750145C04
:104F30006CE2F70EDBCFE9FFF80EDBCFEAFFEF38CC
:104F4000F00BE66EF70EDBCFE9FFF80EDBCFEAFFE2
:104F5000E552E750EF6E020EDB50300824E1FD0E03
:104F6000DBCFE9FFFE0EDBCFEAFFEF50D00F146E70
:104F7000F70EDBCFE9FFF80EDBCFEAFFEF5014109E
:104F8000E66EF70EDBCFE9FFF80EDBCFEAFFE55266
:104F9000E750EF6EF70EDBCFE9FFF80EDBCFEAFF4D
:104FA000EF5001E1DF2A020EDB5040081BE1FD0E4D
:104FB000DBCFE9FFFE0EDBCFEAFFEF50C90F146E27
:104FC000F70EDBCFE9FFF80EDBCFEAFFEF5014104E
:104FD000E66EF70EDBCFE9FFF80EDBCFEAFFE55216
:104FE000E750EF6EFD0EDB2AFE0E01E3DB2AFD0E1D
:104FF000DBCFE9FFFE0EDBCFEAFFEF50F00BE76EF1
:10500000020EE7CFDBFFDF2A88D7FD0EDBCFE9FFFB
:10501000FE0EDBCFEAFFEF500F0BE66EF90EDBCF93
:10502000E9FFFA0EDBCFEAFFE552E750EF6E01D061
:1050300000D0030EE15C02E2E16AE552E16EE55266
:10504000E7CFD9FF1200020EE66E89EC34F0E5528C
:10505000040EE66EA5EC34F0E552000000000000FE
:105060000000000000000000000000001200010E1F
:10507000E66E89EC34F0E552020EE66EA5EC34F0F3
:10508000E55200001200020EE66E89EC34F0E552A3
:10509000040EE66EA5EC34F0E552000000000000BE
:0A50A00000000000000000001200F4
:0650AA001200D9CFE6FF61
:1050B000E1CFD9FFE652F70EDBCFE9FFF80EDBCFE9
:1050C000EAFF040EE926000EEA22EF5001E0CBD001
:1050D000030E01010C5D01E090D0F70EDBCFE9FF7C
:1050E000F80EDBCFEAFF030EE926000EEA22010EDE
:1050F000EF6EF70EDBCFE9FFF80EDBCFEAFF030E12
:10510000E926000EEA22EF5001E1F3D7F70EDBCFDC
:10511000E9FFF80EDBCFEAFF030EE926000EEA22D4
:10512000EF50E66E0DC1E9FFEA6AE9BEEA68000EDB
:10513000E926010EEA22E552E750EF6E0C0E01015E
:10514000E76E0D19E8AE02D0E73402D0E7500D5DEE
:1051500026E2F70EDBCFE9FFF80EDBCFEAFF040E05
:10516000E926000EEA22010EEF6E0D2B030E0C6FE6
:10517000FB0EDBCFE9FFFC0EDBCFEAFF020EE926D8
:10518000000EEA22520EEF6EFB0EDBCFE9FFFC0EA3
:10519000DBCFEAFFF40EEE6E010EED6E2DD0FD0EAC
:1051A000DBCFE6FFFE0EDBCFE6FF000EE66E010E64
:1051B000E66E5ED8E552E552E552E552DF6E01013A
:1051C0000D6BDFCF14F0320EE76E1418E8AE02D08C
:1051D000143403D0E750D88014540CE2FD0EDBCF1A
:1051E000E9FFFE0EDBCFEAFF070EE926000EEA22FA
:1051F000010EEF6E010E0C6F35D00C052EE1F60E90
:10520000DB5012E1FB0EDBCFE6FFFC0EDBCFE6FF4F
:10521000F90EDBCFE6FFFA0EDBCFE6FF8FD8E552C3
:10522000E552E552E5520CD0F60EDB0409E1FB0E27
:10523000DBCFE6FFFC0EDBCFE6FF5BD9E552E552A4
:10524000F70EDBCFE9FFF80EDBCFEAFF040EE9260D
:10525000000EEA22010EEF6E05D0020E0C5D02E197
:10526000010E0C6F00D0E552E552E7CFD9FF1200D6
:10527000D9CFE6FFE1CFD9FF030EE126010EDB6AAD
:10528000020EDB6ADF6ADFCF14F00C0EE76E141833
:10529000E8AE02D0E73402D0E750145C30E2DFCF52
:1052A00015F0166A15BE1668FD0EDB501524E96E62
:1052B000FE0EDB501620EA6EEFCF14F0020EDB502C
:1052C000E76E1418E8AE02D0143403D0E750D8804B
:1052D000145413E2010EDFCFDBFFDFCF14F0156AA9
:1052E00014BE1568FD0EDB501424E96EFE0EDB5073
:1052F0001520EA6E020EEFCFDBFFDF2AC4D7FB0ECC
:10530000DBCFE9FFFC0EDBCFEAFFEE52010EDBCF75
:10531000EFFF020EDBCF10F1010EDBCF0FF1020E1B
:10532000DB50146E030EE15C03E200D0E16AE5524B
:10533000E16E1450E552E7CFD9FF1200D9CFE6FF56
:10534000E1CFD9FFFD0EDBCFE9FFFE0EDBCFEAFF99
:10535000EE52EF50550824E1FB0EDBCFE9FFFC0EC7
:10536000DBCFEAFFF40EEE6E010EED6EFD0EDBCF2D
:10537000E9FFFE0EDBCFEAFFEE52EF50E66EFB0ECA
:10538000DBCFE9FFFC0EDBCFEAFF020EE926000EC1
:10539000EA22E552E750EF6E0101020E0C6FA5D034
:1053A000FD0EDBCFE9FFFE0EDBCFEAFFEE52EF5042
:1053B000420824E1FB0EDBCFE9FFFC0EDBCFEAFF66
:1053C000F40EEE6E010EED6EFD0EDBCFE9FFFE0E6C
:1053D000DBCFEAFFEE52EF50E66EFB0EDBCFE9FFCC
:1053E000FC0EDBCFEAFF020EE926000EEA22E552B0
:1053F000E750EF6E0101020E0C6F77D0FD0EDBCF90
:10540000E9FFFE0EDBCFEAFFEE52EF50520824E137
:10541000FB0EDBCFE9FFFC0EDBCFEAFFF40EEE6EF6
:10542000010EED6EFD0EDBCFE9FFFE0EDBCFEAFFD6
:10543000EE52EF50E66EFB0EDBCFE9FFFC0EDBCF4A
:10544000EAFF020EE926000EEA22E552E750EF6E6F
:105450000101020E0C6F49D0FD0EDBCFE9FFFE0EFD
:10546000DBCFEAFFEE52EF504C0824E1FB0EDBCF1E
:10547000E9FFFC0EDBCFEAFFF40EEE6E010EED6EDF
:10548000FD0EDBCFE9FFFE0EDBCFEAFFEE52EF5061
:10549000E66EFB0EDBCFE9FFFC0EDBCFEAFF020E70
:1054A000E926000EEA22E552E750EF6E0101020EF6
:1054B0000C6F1BD0FD0EDBCFE9FFFE0EDBCFEAFF4A
:1054C000EE52EF50460804E10101030E0C6F0DD0BF
:1054D000FD0EDBCFE9FFFE0EDBCFEAFFEE52EF5011
:1054E000480803E10101030E0C6FE552E7CFD9FF35
:1054F0001200D9CFE6FFE1CFD9FF0C0EE126010162
:105500000E0503E0020E0E5D04E1030E0C6F0E6F3C
:105510009CD0030E0E5D2CE1FD0EDBCFE9FFFE0EED
:10552000DBCFEAFF020EE926000EEA22520EEF6EF2
:105530000FC114F0156A14BE1568F40E1502F3CFEE
:1055400015F014501526F40E1402F3CF14F0F45095
:105550001526FD0EDBCFE9FFFE0EDBCFEAFF14C000
:10556000EEFF15C0EDFF020E0C6F040E0E6F6DD036
:10557000040E0E5D6AE1640EDE6EDD6AC80EF36E27
:10558000020EF3CFDBFF030EDB6A2C0EF36E040E6C
:10559000F3CFDBFF010EF36E050EF3CFDBFF900EB2
:1055A000F36E060EF3CFDBFF010EF36E070EF3CFA3
:1055B000DBFFF40EF36E080EF3CFDBFF010EF36E8C
:1055C000090EF3CFDBFF580EF36E0A0EF3CFDBFFAD
:1055D000020EF36E0B0EF3CFDBFFFD0EDBCFE9FF08
:1055E000FE0EDBCFEAFF020EE926000EEA22460E8F
:1055F000EF6ED9CF16F0DACF17F00A0E1A6E1AC076
:105600000EF010C109F000EC31F009C018F0196A71
:1056100018BE1968D8901836193616501824E96E35
:1056200017501920EA6EEECF14F0EFCF15F0FD0EF3
:10563000DBCFE9FFFE0EDBCFEAFF14C0EEFF15C0A3
:10564000EDFF0101020E0C6F0E6F0C0EE15C02E229
:0E565000E16AE552E16EE552E7CFD9FF1200A4
:02565E0082A424
:1056600006D082941FC1BCFF21C1BBFF07D082B40A
:1056700005D082841BC1BCFF1DC1BBFF1200BB6AE9
:10568000890EB16E829494940B0EBA6EA190A08094
:10569000A29012008284110EBC6E170EBB6E120017
:1056A000D9CFE6FFE1CFD9FFFD0EDBCFE6FFFE0E3F
:1056B000DBCFE6FF0FD8E552E552FD0EDBCFE6FF6C
:1056C000FE0EDBCFE6FF98D8E552E552E552E7CF74
:1056D000D9FF1200D9CFE6FFE1CFD9FFFD0EDBCF16
:1056E00014F0FE0EDBCF15F00001800E151410E152
:1056F000FD0EDBCF16F0FE0EDBCF17F0D890175063
:1057000004E6170E165C000E175802E22FD970D06F
:10571000FD0EDBCF14F0FE0EDBCF15F0D890155048
:1057200004E6170E145C000E15580FE3FD0EDBCFD8
:1057300016F0FE0EDBCF17F0173404E216504408C3
:10574000000E175402E31AD953D0FD0EDBCF14F02C
:10575000FE0EDBCF15F0153404E214504408000EA1
:1057600015540FE2FD0EDBCF16F0FE0EDBCF17F067
:10577000173404E216507108000E175402E306D9DC
:1057800037D0FD0EDBCF14F0FE0EDBCF15F0153455
:1057900004E214507108000E15540FE2FD0EDBCF29
:1057A00016F0FE0EDBCF17F0173404E216509E08F9
:1057B000000E175402E3F2D81BD0FD0EDBCF14F01D
:1057C000FE0EDBCF15F0153404E214509E08000ED7
:1057D00015540EE2FD0EDBCF16F0FE0EDBCF17F0F8
:1057E000173404E21650B408000E175401E3DED853
:1057F000E552E7CFD9FF1200D9CFE6FFE1CFD9FFBD
:10580000FD0EDBCF14F0FE0EDBCF15F00001800E95
:10581000151410E1FD0EDBCF16F0FE0EDBCF17F0F6
:10582000D890175004E6170E165C000E175802E2C7
:1058300075D870D0FD0EDBCF14F0FE0EDBCF15F067
:10584000D890155004E6170E145C000E15580FE39F
:10585000FD0EDBCF16F0FE0EDBCF17F0173404E29F
:1058600016504408000E175402E360D853D0FD0EC2
:10587000DBCF14F0FE0EDBCF15F0153404E214502C
:105880004408000E15540FE2FD0EDBCF16F0FE0E9D
:10589000DBCF17F0173404E216507108000E1754CE
:1058A00002E34CD837D0FD0EDBCF14F0FE0EDBCF79
:1058B00015F0153404E214507108000E15540FE26F
:1058C000FD0EDBCF16F0FE0EDBCF17F0173404E22F
:1058D00016509E08000E175402E338D81BD0FD0E58
:1058E000DBCF14F0FE0EDBCF15F0153404E21450BC
:1058F0009E08000E15540EE2FD0EDBCF16F0FE0ED4
:10590000DBCF17F0173404E21650B408000E17541A
:1059100001E324D8E552E7CFD9FF1200090E0101B7
:105920001B6F1C6BC40E1D6F1E6B12000E0E01014F
:105930001B6F1C6BA60E1D6F1E6B1200110E01015A
:105940001B6F1C6B170E1D6F1E6B1200130E0101D7
:105950001B6F1C6B880E1D6F1E6B12001A0E01014F
:105960001B6F1C6BDB0E1D6F1E6B1200B90E01014D
:105970001F6F206B8C0E216F226B1200B40E010181
:105980001F6F206BAA0E216F226B1200B20E010155
:105990001F6F206B390E216F226B1200AF0E0101B9
:1059A0001F6F206BC80E216F226B1200A80E010121
:0C59B0001F6F206B750E216F226B120020
:0459BC00F18E816A7D
:1059C0001F0E936E94860F0EC16EF288F292F18CC8
:1059D000F086F08CF090F18AF098F092F290F296C6
:1059E000F1801200D9CFE6FFE1CFD9FFFD0EDBCF6A
:1059F000F6FFFE0EDBCFF7FF0800F550E66EFB0E5C
:105A0000DBCFE9FFFC0EDBCFEAFFE552E750EF6E9C
:105A1000E552E7CFD9FF1200D9CFE6FFE1CFD9FF9A
:105A200080AA10D0FD0EDBCFE6FFFE0EDBCFE6FF37
:105A3000870EE66E4A0EE66ED5DFE552E552E55278
:105A4000E5527DD080A810D0FD0EDBCFE6FFFE0E24
:105A5000DBCFE6FF850EE66E4A0EE66EC3DFE5524B
:105A6000E552E552E5526BD081A610D0FD0EDBCF9A
:105A7000E6FFFE0EDBCFE6FF830EE66E4A0EE66E15
:105A8000B1DFE552E552E552E55259D082A610D079
:105A9000FD0EDBCFE6FFFE0EDBCFE6FF810EE66EEE
