:020000040000FA
:0600000042EF32F0120095
:020006001200E6
:0600080085EF28F0120054
:02000E001200DE
:020010001200DC
:0600180022EF28F01200A7
:02001E000500DB
:1000200079420000940100000100000033650000E7
:1000300050010000110000002C6500008401000048
:1000400007000000246500007C010000080000009B
:0C0050001B6500006B01000009000000AF
:04005C00D9CFE6FF13
:10006000E1CFD9FFFD0EDBCFE9FFFE0EDBCFEAFFCC
:10007000EFCF14F0840E01018725E96E010E88216F
:10008000EA6EEF50145C11E1872B000E8823020EFC
:10009000871901E1885105E1020EF36EF46A0AD076
:1000A00009D0010EF36EF46A05D0876B886BF36A92
:1000B000F46A00D0E552E7CFD9FF1200D9CFE6FFAE
:1000C000E1CFD9FFFD0EDBCFE9FFFE0EDBCFEAFF6C
:1000D000EE50ED100EE1960ED56EF28AF294F19488
:1000E000FD0EDBCFE9FFFE0EDBCFEAFF010EEE6E69
:1000F000ED6A0101715172110FE0716B726BFD0EAF
:10010000DBCFE9FFFE0EDBCFEAFFEE6AED6A010E00
:10011000F36EF46A04D003D0F36AF46A00D0E552B7
:10012000E7CFD9FF1200D9CFE6FFE1CFD9FFFB0E11
:10013000DBCFE9FFFC0EDBCFEAFFEE50ED1001E074
:10014000BCD1FD0EDBCFE9FFFE0EDBCFEAFFEF50A7
:10015000030A01E118D1010A01E1BCD0030A61E000
:10016000010A01E069D1F90EDBCFE9FFFA0EDBCF1E
:10017000EAFFEECF08F0EDCF09F0010E081801E11B
:10018000095026E0085001E1095001E049D0890EEC
:10019000E66E010EE66E92DFE552E552F3CF14F003
:1001A000F4CF15F01450151012E0F90EDBCFE9FF73
:1001B000FA0EDBCFEAFF010EEE6EED6AF30EDBCF37
:1001C000E9FFF40EDBCFEAFF010EEE6EED6A28D0F8
:1001D000890EE66E010EE66E71DFE552E552F3CF51
:1001E00014F0F4CF15F01450151019E0FD0EDBCF0C
:1001F000E9FFFE0EDBCFEAFF010EEF6EF90EDBCF5B
:10020000E9FFFA0EDBCFEAFFEE6AED6AF30EDBCF11
:10021000E9FFF40EDBCFEAFF010EEE6EED6A00D0CF
:100220000BD1F90EDBCFE9FFFA0EDBCFEAFFEECF01
:1002300008F0EDCF09F0010E081801E1095026E0A1
:10024000085001E1095001E044D0890EE66E010E2C
:10025000E66E34DFE552E552F3CF14F0F4CF15F03B
:100260001450151012E0F90EDBCFE9FFFA0EDBCFC8
:10027000EAFF010EEE6EED6AF30EDBCFE9FFF40E3E
:10028000DBCFEAFF010EEE6EED6A23D0F50EDBCF79
:10029000E9FFF60EDBCFEAFFEF50410819E1FB0E54
:1002A000DBCFE9FFFC0EDBCFEAFF010EEE6EED6A5D
:1002B000F90EDBCFE9FFFA0EDBCFEAFFEE6AED6A5B
:1002C000F70EDBCFE9FFF80EDBCFEAFFEE6AED6A4F
:1002D00000D0B2D0F90EDBCFE9FFFA0EDBCFEAFF98
:1002E000EECF08F0EDCF09F0010E081801E109503A
:1002F00026E0085001E1095001E044D0890EE66E85
:10030000010EE66EDBDEE552E552F3CF14F0F4CFDA
:1003100015F01450151012E0F90EDBCFE9FFFA0EBC
:10032000DBCFEAFF010EEE6EED6AF30EDBCFE9FFE5
:10033000F40EDBCFEAFF010EEE6EED6A23D0F50E70
:10034000DBCFE9FFF60EDBCFEAFFEF50410819E102
:10035000FB0EDBCFE9FFFC0EDBCFEAFF010EEE6EFA
:10036000ED6AF90EDBCFE9FFFA0EDBCFEAFFEE6AAA
:10037000ED6AF70EDBCFE9FFF80EDBCFEAFFEE6A9E
:10038000ED6A00D059D0F90EDBCFE9FFFA0EDBCFD2
:10039000EAFFEECF08F0EDCF09F0010E081801E1F9
:1003A000095026E0085001E1095001E044D0890ECF
:1003B000E66E010EE66E82DEE552E552F3CF14F0F2
:1003C000F4CF15F01450151012E0F90EDBCFE9FF51
:1003D000FA0EDBCFEAFF010EEE6EED6AF30EDBCF15
:1003E000E9FFF40EDBCFEAFF010EEE6EED6A23D0DB
:1003F000F50EDBCFE9FFF60EDBCFEAFFEF50410849
:1004000019E1FB0EDBCFE9FFFC0EDBCFEAFF010EAB
:10041000EE6EED6AF90EDBCFE9FFFA0EDBCFEAFFF5
:10042000EE6AED6AF70EDBCFE9FFF80EDBCFEAFFED
:10043000EE6AED6A00D000D0F50EDBCFE9FFF60ED4
:10044000DBCFEAFFEF50410809E0F50EDBCFE9FF13
:10045000F60EDBCFEAFFEF5042081BE1FD0EDBCFCB
:10046000E9FFFE0EDBCFEAFFEE52EF6AF50EDBCFBF
:10047000E9FFF60EDBCFEAFFEF50410809E1F30E8A
:10048000DBCFE9FFF40EDBCFEAFF010EEE6EED6A83
:1004900012D0F50EDBCFE9FFF60EDBCFEAFFEF500F
:1004A000E66EFD0EDBCFE9FFFE0EDBCFEAFFEE527C
:1004B000E552E750EF6EB7EF0BF0FB0EDBCFE9FF35
:1004C000FC0EDBCFEAFF010EEE1801E1ED5002E079
:1004D000B7EF0BF0FD0EDBCFE9FFFE0EDBCFEAFF3F
:1004E000EF50030A01E149D3010A01E122D2030AD4
:1004F00002E079EF0BF0F90EDBCFE9FFFA0EDBCF6C
:10050000EAFFEECF08F0EDCF09F0020E081801E186
:10051000095001E1FCD0010E081801E1095026E064
:10052000085001E1095001E002D2890EE66E010E89
:10053000E66EC4DDE552E552F3CF14F0F4CF15F0CA
:100540001450151012E0F90EDBCFE9FFFA0EDBCFE5
:10055000EAFF010EEE6EED6AF30EDBCFE9FFF40E5B
:10056000DBCFEAFF010EEE6EED6AE1D1F50EDBCFD7
:10057000E9FFF60EDBCFEAFFEF50410842E1F70E4C
:10058000DBCFE9FFF80EDBCFEAFF030EEE1801E147
:10059000ED500AE0F90EDBCFE9FFFA0EDBCFEAFF00
:1005A000020EEE6EED6A2DD0F70EDBCFE9FFF80EEE
:1005B000DBCFEAFF030EEE1801E1ED5022E1FD0E64
:1005C000DBCFE9FFFE0EDBCFEAFF020EEF6EF90E86
:1005D000DBCFE9FFFA0EDBCFEAFFEE6AED6AF70E3A
:1005E000DBCFE9FFF80EDBCFEAFFEE6AED6AFD0E26
:1005F000DBCFE9FFFE0EDBCFEAFF140EEB6A150E30
:10060000EB6AF50EDBCFE9FFF60EDBCFEAFFEF502A
:10061000420818E1FB0EDBCFE9FFFC0EDBCFEAFF5F
:10062000EE6AED6AF90EDBCFE9FFFA0EDBCFEAFFE7
:10063000EE6AED6AF70EDBCFE9FFF80EDBCFEAFFDB
:10064000EE6AED6AF50EDBCFE9FFF60EDBCFEAFFCF
:10065000EF50550828E1F70EDBCFE9FFF80EDBCFAE
:10066000EAFFEECF14F0EFCF15F0153404E214508A
:100670000008000E155417E2F70EDBCFE9FFF80E65
:10068000DBCFEAFFEECF14F0EFCF15F01406000E2B
:10069000155AF70EDBCFE9FFF80EDBCFEAFF14C0E7
:1006A000EEFF15C0EDFFF50EDBCFE9FFF60EDBCF59
:1006B000EAFFEF5044082AE1F70EDBCFE9FFF80E1E
:1006C000DBCFEAFFEECF14F0EFCF15F0D890155046
:1006D00004E6040E145C000E155818E2F70EDBCF8A
:1006E000E9FFF80EDBCFEAFFEECF14F0EFCF15F005
:1006F000010E1426000E1522F70EDBCFE9FFF80ECF
:10070000DBCFEAFF14C0EEFF15C0EDFF10D1F70EEE
:10071000DBCFE9FFF80EDBCFEAFFEECF08F0EDCF3D
:1007200009F0040E081801E1095001E1AFD0020EF2
:10073000081801E1095047E0010E081801E10950CD
:1007400025E0085001E1095001E0F0D0FD0EDBCFBB
:10075000E9FFFE0EDBCFEAFF120EE926000EEA22C9
:10076000010EEE6EED6AF90EDBCFE9FFFA0EDBCF7C
:10077000EAFF010EEE6EED6AF30EDBCFE9FFF40E39
:10078000DBCFEAFF010EEE6EED6AD0D0FD0EDBCFBF
:10079000E9FFFE0EDBCFEAFF120EEB6A130EEB6AE7
:1007A000F90EDBCFE9FFFA0EDBCFEAFF010EEE6EAA
:1007B000ED6AF30EDBCFE9FFF40EDBCFEAFF010EAB
:1007C000EE6EED6AB3D0F50EDBCFE9FFF60EDBCFB0
:1007D000EAFFEF504C081EE1FD0EDBCFE9FFFE0EF5
:1007E000DBCFEAFF020EE926000EEA22EECF14F07C
:1007F000EFCF15F01406155AFD0EDBCFE9FFFE0E04
:10080000DBCFEAFF020EE926000EEA2214C0EEFF5B
:1008100015C0EDFFF50EDBCFE9FFF60EDBCFEAFFEB
:10082000EF50520820E1FD0EDBCFE9FFFE0EDBCFDB
:10083000EAFF020EE926000EEA22EECF14F0EFCF17
:1008400015F0010E1426000E1522FD0EDBCFE9FF78
:10085000FE0EDBCFEAFF020EE926000EEA2214C0EC
:10086000EEFF15C0EDFFF50EDBCFE9FFF60EDBCF97
:10087000EAFFEF50420809E1F90EDBCFE9FFFA0E7B
:10088000DBCFEAFF010EEE6EED6A50D0F50EDBCF46
:10089000E9FFF60EDBCFEAFFEF5047E0F50EDBCFC6
:1008A000E6FFF60EDBCFE6FF2EEC00F0E552E55258
:1008B000F3CF90F1F4CF91F101019051911112E138
:1008C000F90EDBCFE9FFFA0EDBCFEAFF010EEE6E89
:1008D000ED6A5A0EE66E420EE66E33EC19F0E55202
:1008E000E55223D0010E901901E1915101E11DD093
:1008F000020E901901E1915118E1FD0EDBCFE9FFE5
:10090000FE0EDBCFEAFF030EEF6EF90EDBCFE9FF41
:10091000FA0EDBCFEAFFEE6AED6AF70EDBCFE9FFF6
:10092000F80EDBCFEAFFEE6AED6A00D000D079EF77
:100930000BF0F90EDBCFE9FFFA0EDBCFEAFFEECFCB
:1009400008F0EDCF09F0020E081801E1095001E1AD
:10095000F2D0010E081801E1095027E0085001E12A
:10096000095001E008D1890EE66E010EE66E5EECDC
:1009700000F0E552E552F3CF14F0F4CF15F0145027
:10098000151012E0F90EDBCFE9FFFA0EDBCFEAFF1C
:10099000010EEE6EED6AF30EDBCFE9FFF40EDBCF56
:1009A000EAFF010EEE6EED6AE6D0F50EDBCFE9FF51
:1009B000F60EDBCFEAFFEF50410837E1F70EDBCF51
:1009C000E9FFF80EDBCFEAFFEECF08F0EDCF09F03C
:1009D000010E081801E109500FE0085001E109502B
:1009E00001E023D0F90EDBCFE9FFFA0EDBCFEAFFFF
:1009F000020EEE6EED6A19D0FD0EDBCFE9FFFE0EA2
:100A0000DBCFEAFF010EEF6EF70EDBCFE9FFF80E4A
:100A1000DBCFEAFFEE6AED6AF90EDBCFE9FFFA0EF3
:100A2000DBCFEAFFEE6AED6A00D0F50EDBCFE9FF1F
:100A3000F60EDBCFEAFFEF50420818E1FB0EDBCFEA
:100A4000E9FFFC0EDBCFEAFFEE6AED6AF90EDBCFC1
:100A5000E9FFFA0EDBCFEAFFEE6AED6AF70EDBCFB5
:100A6000E9FFF80EDBCFEAFFEE6AED6AF50EDBCFA9
:100A7000E9FFF60EDBCFEAFFEF50550828E1F70E4D
:100A8000DBCFE9FFF80EDBCFEAFFEECF14F0EFCFBC
:100A900015F0153404E214500008000E155417E246
:100AA000F70EDBCFE9FFF80EDBCFEAFFEECF14F055
:100AB000EFCF15F01406000E155AF70EDBCFE9FF45
:100AC000F80EDBCFEAFF14C0EEFF15C0EDFFF50E08
:100AD000DBCFE9FFF60EDBCFEAFFEF5044082AE157
:100AE000F70EDBCFE9FFF80EDBCFEAFFEECF14F015
:100AF000EFCF15F0D890155004E6010E145C000EEF
:100B0000155818E2F70EDBCFE9FFF80EDBCFEAFF4E
:100B1000EECF14F0EFCF15F0010E1426000E1522C3
:100B2000F70EDBCFE9FFF80EDBCFEAFF14C0EEFFD4
:100B300015C0EDFF20D0FD0EDBCFE9FFFE0EDBCFB1
:100B4000EAFF140EE926000EEA22010EEE6EED6AAF
:100B5000F90EDBCFE9FFFA0EDBCFEAFF010EEE6EF6
:100B6000ED6AF30EDBCFE9FFF40EDBCFEAFF010EF7
:100B7000EE6EED6A00D079EF0BF0F90EDBCFE9FFF6
:100B8000FA0EDBCFEAFFEECF08F0EDCF09F0030E4F
:100B9000081801E1095001E122D3020E081801E111
:100BA000095001E1F6D0010E081801E1095029E0D1
:100BB000085001E1095002E078EF0BF0890EE66E73
:100BC000010EE66E5EEC00F0E552E552F3CF14F054
:100BD000F4CF15F01450151012E0F90EDBCFE9FF39
:100BE000FA0EDBCFEAFF010EEE6EED6AF30EDBCFFD
:100BF000E9FFF40EDBCFEAFF010EEE6EED6A78EF4F
:100C00000BF0F50EDBCFE9FFF60EDBCFEAFFEF507E
:100C1000410838E1F70EDBCFE9FFF80EDBCFEAFF42
:100C2000060EEE1801E1ED500AE0F90EDBCFE9FF08
:100C3000FA0EDBCFEAFF020EEE6EED6A23D0F70E5E
:100C4000DBCFE9FFF80EDBCFEAFF060EEE1801E17D
:100C5000ED5018E1FD0EDBCFE9FFFE0EDBCFEAFF22
:100C6000010EEF6EF90EDBCFE9FFFA0EDBCFEAFFE4
:100C7000EE6AED6AF70EDBCFE9FFF80EDBCFEAFF95
:100C8000EE6AED6AF50EDBCFE9FFF60EDBCFEAFF89
:100C9000EF50420818E1FB0EDBCFE9FFFC0EDBCF83
:100CA000EAFFEE6AED6AF90EDBCFE9FFFA0EDBCF61
:100CB000EAFFEE6AED6AF70EDBCFE9FFF80EDBCF55
:100CC000EAFFEE6AED6AF50EDBCFE9FFF60EDBCF49
:100CD000EAFFEF50550828E1F70EDBCFE9FFF80EE9
:100CE000DBCFEAFFEECF14F0EFCF15F0153404E2BE
:100CF00014500008000E155417E2F70EDBCFE9FF81
:100D0000F80EDBCFEAFFEECF14F0EFCF15F01406AC
:100D1000000E155AF70EDBCFE9FFF80EDBCFEAFF26
:100D200014C0EEFF15C0EDFFF50EDBCFE9FFF60EA8
:100D3000DBCFEAFFEF5044082AE1F70EDBCFE9FFF3
:100D4000F80EDBCFEAFFEECF14F0EFCF15F0D8901E
:100D5000155004E6060E145C000E155818E2F70E46
:100D6000DBCFE9FFF80EDBCFEAFFEECF14F0EFCFD9
:100D700015F0010E1426000E1522F70EDBCFE9FF49
:100D8000F80EDBCFEAFF14C0EEFF15C0EDFF78EFE1
:100D90000BF0F70EDBCFE9FFF80EDBCFEAFFEECF6B
:100DA00008F0EDCF09F0050E081801E1095001E146
:100DB000B2D1040E081801E1095001E149D1030E36
:100DC000081801E1095001E1E0D0020E081801E124
:100DD000095001E177D0010E081801E109500FE038
:100DE000085001E1095001E0F9D1F90EDBCFE9FF2C
:100DF000FA0EDBCFEAFF030EEE6EED6AEFD1F50ED1
:100E0000DBCFE9FFF60EDBCFEAFFEF504C081EE127
:100E1000FD0EDBCFE9FFFE0EDBCFEAFF020EE92677
:100E2000000EEA22EECF14F0EFCF15F01406155A9B
:100E3000FD0EDBCFE9FFFE0EDBCFEAFF020EE92657
:100E4000000EEA2214C0EEFF15C0EDFFF50EDBCF59
:100E5000E9FFF60EDBCFEAFFEF50520820E1FD0E6E
:100E6000DBCFE9FFFE0EDBCFEAFF020EE926000E24
:100E7000EA22EECF14F0EFCF15F0010E1426000E8B
:100E80001522FD0EDBCFE9FFFE0EDBCFEAFF020EDF
:100E9000E926000EEA2214C0EEFF15C0EDFFF50EA4
:100EA000DBCFE9FFF60EDBCFEAFFEF50420809E1A6
:100EB000F90EDBCFE9FFFA0EDBCFEAFF010EEE6E93
:100EC000ED6A8CD1F50EDBCFE9FFF60EDBCFEAFF42
:100ED000EF504C081EE1FD0EDBCFE9FFFE0EDBCF2D
:100EE000EAFF040EE926000EEA22EECF14F0EFCF5F
:100EF00015F01406155AFD0EDBCFE9FFFE0EDBCF11
:100F0000EAFF040EE926000EEA2214C0EEFF15C027
:100F1000EDFFF50EDBCFE9FFF60EDBCFEAFFEF507A
:100F2000520820E1FD0EDBCFE9FFFE0EDBCFEAFF2A
:100F3000040EE926000EEA22EECF14F0EFCF15F0F2
:100F4000010E1426000E1522FD0EDBCFE9FFFE0E6A
:100F5000DBCFEAFF040EE926000EEA2214C0EEFF02
:100F600015C0EDFFF50EDBCFE9FFF60EDBCFEAFF94
:100F7000EF50420809E1F90EDBCFE9FFFA0EDBCFB3
:100F8000EAFF010EEE6EED6A29D1F50EDBCFE9FF27
:100F9000F60EDBCFEAFFEF504C081EE1FD0EDBCF73
:100FA000E9FFFE0EDBCFEAFF060EE926000EEA227D
:100FB000EECF14F0EFCF15F01406155AFD0EDBCF6F
:100FC000E9FFFE0EDBCFEAFF060EE926000EEA225D
:100FD00014C0EEFF15C0EDFFF50EDBCFE9FFF60EF6
:100FE000DBCFEAFFEF50520820E1FD0EDBCFE9FF37
:100FF000FE0EDBCFEAFF060EE926000EEA22EECF58
:1010000014F0EFCF15F0010E1426000E1522FD0E80
:10101000DBCFE9FFFE0EDBCFEAFF060EE926000E6E
:10102000EA2214C0EEFF15C0EDFFF50EDBCFE9FF9D
:10103000F60EDBCFEAFFEF50420809E1F90EDBCFF5
:10104000E9FFFA0EDBCFEAFF010EEE6EED6AC6D0C5
:10105000F50EDBCFE9FFF60EDBCFEAFFEF504C08D1
:101060001EE1FD0EDBCFE9FFFE0EDBCFEAFF080E2F
:10107000E926000EEA22EECF14F0EFCF15F01406A9
:10108000155AFD0EDBCFE9FFFE0EDBCFEAFF080E9F
:10109000E926000EEA2214C0EEFF15C0EDFFF50EA2
:1010A000DBCFE9FFF60EDBCFEAFFEF50520820E17D
:1010B000FD0EDBCFE9FFFE0EDBCFEAFF080EE926CF
:1010C000000EEA22EECF14F0EFCF15F0010E142639
:1010D000000E1522FD0EDBCFE9FFFE0EDBCFEAFF8F
:1010E000080EE926000EEA2214C0EEFF15C0EDFF3F
:1010F000F50EDBCFE9FFF60EDBCFEAFFEF5042083B
:1011000009E1F90EDBCFE9FFFA0EDBCFEAFF010EB2
:10111000EE6EED6A63D0F50EDBCFE9FFF60EDBCFA6
:10112000EAFFEF504C081EE1FD0EDBCFE9FFFE0E9B
:10113000DBCFEAFF0A0EE926000EEA22EECF14F01A
:10114000EFCF15F01406155AFD0EDBCFE9FFFE0EAA
:10115000DBCFEAFF0A0EE926000EEA2214C0EEFFFA
:1011600015C0EDFFF50EDBCFE9FFF60EDBCFEAFF92
:10117000EF50520820E1FD0EDBCFE9FFFE0EDBCF82
:10118000EAFF0A0EE926000EEA22EECF14F0EFCFB6
:1011900015F0010E1426000E1522FD0EDBCFE9FF1F
:1011A000FE0EDBCFEAFF0A0EE926000EEA2214C08B
:1011B000EEFF15C0EDFFF50EDBCFE9FFF60EDBCF3E
:1011C000EAFFEF50420809E1F90EDBCFE9FFFA0E22
:1011D000DBCFEAFF010EEE6EED6A00D089D2F70E8A
:1011E000DBCFE9FFF80EDBCFEAFFEECF08F0EDCF63
:1011F00009F0020E081801E1095001E1A9D1010E20
:10120000081801E1095001E1D4D0085001E109506A
:1012100001E06DD2F50EDBCFE9FFF60EDBCFEAFF82
:10122000EF504C081EE1FD0EDBCFE9FFFE0EDBCFD9
:10123000EAFF0C0EE926000EEA22EECF14F0EFCF03
:1012400015F01406155AFD0EDBCFE9FFFE0EDBCFBD
:10125000EAFF0C0EE926000EEA2214C0EEFF15C0CC
:10126000EDFFF50EDBCFE9FFF60EDBCFEAFFEF5027
:10127000520820E1FD0EDBCFE9FFFE0EDBCFEAFFD7
:101280000C0EE926000EEA22EECF14F0EFCF15F097
:10129000010E1426000E1522FD0EDBCFE9FFFE0E17
:1012A000DBCFEAFF0C0EE926000EEA2214C0EEFFA7
:1012B00015C0EDFFF50EDBCFE9FFF60EDBCFEAFF41
:1012C000EF50420811E1F90EDBCFE9FFFA0EDBCF58
:1012D000EAFF010EEE6EED6AF70EDBCFE9FFF80EC6
:1012E000DBCFEAFFEE6AED6AF50EDBCFE9FFF60E23
:1012F000DBCFEAFFEF50550828E1F70EDBCFE9FF1F
:10130000F80EDBCFEAFFEECF14F0EFCF15F0153477
:1013100004E214500008000E155417E2F70EDBCF5C
:10132000E9FFF80EDBCFEAFFEECF14F0EFCF15F0B8
:101330001406000E155AF70EDBCFE9FFF80EDBCFCF
:10134000EAFF14C0EEFF15C0EDFFF50EDBCFE9FF9D
:10135000F60EDBCFEAFFEF5044082AE1F70EDBCFB1
:10136000E9FFF80EDBCFEAFFEECF14F0EFCF15F078
:10137000D890155004E6020E145C000E155818E2C1
:10138000F70EDBCFE9FFF80EDBCFEAFFEECF14F06C
:10139000EFCF15F0010E1426000E1522F70EDBCF4D
:1013A000E9FFF80EDBCFEAFF14C0EEFF15C0EDFF3A
:1013B0009ED1F50EDBCFE9FFF60EDBCFEAFFEF5053
:1013C0004C081EE1FD0EDBCFE9FFFE0EDBCFEAFF8E
:1013D0000E0EE926000EEA22EECF14F0EFCF15F044
:1013E0001406155AFD0EDBCFE9FFFE0EDBCFEAFF38
:1013F0000E0EE926000EEA2214C0EEFF15C0EDFF26
:10140000F50EDBCFE9FFF60EDBCFEAFFEF50520817
:1014100020E1FD0EDBCFE9FFFE0EDBCFEAFF0E0E73
:10142000E926000EEA22EECF14F0EFCF15F0010E00
:101430001426000E1522FD0EDBCFE9FFFE0EDBCFDA
:10144000EAFF0E0EE926000EEA2214C0EEFF15C0D8
:10145000EDFFF50EDBCFE9FFF60EDBCFEAFFEF5035
:10146000420811E1F90EDBCFE9FFFA0EDBCFEAFF0C
:10147000010EEE6EED6AF70EDBCFE9FFF80EDBCF63
:10148000EAFFEE6AED6AF50EDBCFE9FFF60EDBCF81
:10149000EAFFEF50550828E1F70EDBCFE9FFF80E21
:1014A000DBCFEAFFEECF14F0EFCF15F0153404E2F6
:1014B00014500008000E155417E2F70EDBCFE9FFB9
:1014C000F80EDBCFEAFFEECF14F0EFCF15F01406E5
:1014D000000E155AF70EDBCFE9FFF80EDBCFEAFF5F
:1014E00014C0EEFF15C0EDFFF50EDBCFE9FFF60EE1
:1014F000DBCFEAFFEF5044082AE1F70EDBCFE9FF2C
:10150000F80EDBCFEAFFEECF14F0EFCF15F0D89056
:10151000155004E6020E145C000E155818E2F70E82
:10152000DBCFE9FFF80EDBCFEAFFEECF14F0EFCF11
:1015300015F0010E1426000E1522F70EDBCFE9FF81
:10154000F80EDBCFEAFF14C0EEFF15C0EDFFCFD0E1
:10155000F50EDBCFE9FFF60EDBCFEAFFEF504C08CC
:101560001EE1FD0EDBCFE9FFFE0EDBCFEAFF100E22
:10157000E926000EEA22EECF14F0EFCF15F01406A4
:10158000155AFD0EDBCFE9FFFE0EDBCFEAFF100E92
:10159000E926000EEA2214C0EEFF15C0EDFFF50E9D
:1015A000DBCFE9FFF60EDBCFEAFFEF50520820E178
:1015B000FD0EDBCFE9FFFE0EDBCFEAFF100EE926C2
:1015C000000EEA22EECF14F0EFCF15F0010E142634
:1015D000000E1522FD0EDBCFE9FFFE0EDBCFEAFF8A
:1015E000100EE926000EEA2214C0EEFF15C0EDFF32
:1015F000F50EDBCFE9FFF60EDBCFEAFFEF50420836
:1016000011E1F90EDBCFE9FFFA0EDBCFEAFF010EA5
:10161000EE6EED6AF70EDBCFE9FFF80EDBCFEAFFE7
:10162000EE6AED6AF50EDBCFE9FFF60EDBCFEAFFDF
:10163000EF50550828E1F70EDBCFE9FFF80EDBCFBE
:10164000EAFFEECF14F0EFCF15F0153404E214509A
:101650000008000E155417E2F70EDBCFE9FFF80E75
:10166000DBCFEAFFEECF14F0EFCF15F01406000E3B
:10167000155AF70EDBCFE9FFF80EDBCFEAFF14C0F7
:10168000EEFF15C0EDFFF50EDBCFE9FFF60EDBCF69
:10169000EAFFEF5044082AE1F70EDBCFE9FFF80E2E
:1016A000DBCFEAFFEECF14F0EFCF15F0D890155056
:1016B00004E6020E145C000E155818E2F70EDBCF9C
:1016C000E9FFF80EDBCFEAFFEECF14F0EFCF15F015
:1016D000010E1426000E1522F70EDBCFE9FFF80EDF
:1016E000DBCFEAFF14C0EEFF15C0EDFF00D000D045
:1016F00000D0F50EDBCFE9FFF60EDBCFEAFFEF50AF
:10170000460809E0F50EDBCFE9FFF60EDBCFEAFF76
:10171000EF50480813E1F50EDBCFE9FFF60EDBCF03
:10172000EAFFEF50E66EFD0EDBCFE9FFFE0EDBCFEA
:10173000EAFFEE52E552E750EF6E19D0FD0EDBCF17
:10174000E9FFFE0EDBCFEAFFEE52EF6AF50EDBCFCC
:10175000E9FFF60EDBCFEAFFEF5009E0F30EDBCF37
:10176000E9FFF40EDBCFEAFF010EEE6EED6AE55203
:06177000E7CFD9FF1200D3
:0A1776008290949082929492829ADD
:10178000949A1200D9CFE6FFE1CFD9FFD950FD0FCF
:10179000E96EFF0EDA20EA6EEE50ED1002E0828272
:1017A00001D08292D950FB0FE96EFF0EDA20EA6E6B
:1017B000EE50ED1002E0828001D08290FA0EDB50F4
:1017C00002E0828A01D0829AE552E7CFD9FF120067
:1017D000D9CFE6FFE1CFD9FFFD0EDBCFE9FFFE0E4B
:1017E000DBCFEAFF0B0EE926000EEA22EF50E66E91
:1017F000FD0EDBCFE9FFFE0EDBCFEAFF060EE9268A
:10180000000EEA22EFCF14F0156A14BE156814C05A
:10181000E6FF15C0E6FFFD0EDBCFE9FFFE0EDBCFD6
:10182000EAFF070EE926000EEA22EFCF16F0176A4C
:1018300016BE176816C0E6FF17C0E6FFA3DF186ED6
:10184000050EE15E1850FD0EDBCFE9FFFE0EDBCF8B
:10185000EAFFEE52EFCF14F0156A14BE156814C0FB
:10186000E6FF15C0E6FF25EC29F0E552E552FD0E36
:10187000DBCFE9FFFE0EDBCFEAFFEF5032E1F90EDE
:10188000DBCF08F0FA0EDBCF09F0010E081801E1FA
:10189000095016E0085001E1095001E022D0940EF1
:1018A000E66E3D0EE66E5DEC2CF0E552E552830EE1
:1018B000E66E3D0EE66EA7EC2CF0E552E55211D037
:1018C000830EE66E3D0EE66E5DEC2CF0E552E552C1
:1018D000720EE66E3D0EE66EA7EC2CF0E552E55278
:1018E00000D0D950FB0FE96EFF0EDA20EA6E010E30
:1018F000EE1801E1ED5002E0D5EF10F0FD0EDBCF68
:10190000E9FFFE0EDBCFEAFFEF0401E025D1D9505D
:10191000F90FE96EFF0EDA20EA6EEE50ED1010E1DD
:10192000610EE66E3D0EE66E5DEC2CF0E552E55282
:10193000720EE66E3D0EE66EA7EC2CF0E552E55217
:10194000D950F90FE96EFF0EDA20EA6E010EEE189B
:1019500001E1ED5074E1F70EDBCF08F0F80EDBCFBC
:1019600009F0040E081801E1095058E0030E0818A8
:1019700001E1095042E0020E081801E109502CE093
:10198000010E081801E1095016E0085001E1095064
:1019900001E055D0500EE66E3D0EE66E5DEC2CF08B
:1019A000E552E552720EE66E3D0EE66EA7EC2CF0A7
:1019B000E552E55244D03F0EE66E3D0EE66E5DEC1C
:1019C0002CF0E552E552720EE66E3D0EE66EA7EC87
:1019D0002CF0E552E55233D02E0EE66E3D0EE66E4B
:1019E0005DEC2CF0E552E552720EE66E3D0EE66EB1
:1019F000A7EC2CF0E552E55222D01D0EE66E3D0E0E
:101A0000E66E5DEC2CF0E552E552720EE66E3D0E90
:101A1000E66EA7EC2CF0E552E55211D00C0EE66E06
:101A20003D0EE66E5DEC2CF0E552E552720EE66E70
:101A30003D0EE66EA7EC2CF0E552E55200D0D950F1
:101A4000F90FE96EFF0EDA20EA6E020EEE1801E1E0
:101A5000ED5001E081D0F70EDBCF08F0F80EDBCFC0
:101A600009F0040E081801E1095065E0020E08189B
:101A700001E109502CE0010E081801E1095016E0BF
:101A8000085001E1095001E067D0020EE66E3D0EFC
:101A9000E66E5DEC2CF0E552E552720EE66E3D0E00
:101AA000E66EA7EC2CF0E552E55256D0F70EE66E46
:101AB0003C0EE66E5DEC2CF0E552E552720EE66EE1
:101AC0003D0EE66EA7EC2CF0E552E55245D0FD0E3A
:101AD000DBCFE9FFFE0EDBCFEAFF100EE926000E9A
:101AE000EA22EECFE6FFEFCFE6FFE50E146E3C0EE6
:101AF000156E166A14C0E6FF15C0E6FF16C0E6FFB5
:101B0000F00EE66E000EE66E30EC2EF0176E070E4D
:101B1000E15E1750D40EE66E3C0EE66E5DEC2CF0E6
:101B2000E552E552F00EE66E000EE66ED0EC2CF0BB
:101B3000E552E55211D0C30EE66E3C0EE66E5DEC4A
:101B40002CF0E552E552720EE66E3D0EE66EA7EC05
:101B50002CF0E552E55200D0FD0EDBCFE9FFFE0E82
:101B6000DBCFEAFFEF50020856E1D950F90FE96EDA
:101B7000FF0EDA20EA6EEE50ED1010E1B20EE66EC6
:101B80003C0EE66E5DEC2CF0E552E552720EE66E10
:101B90003D0EE66EA7EC2CF0E552E552D950F90F58
:101BA000E96EFF0EDA20EA6E010EEE1801E1ED504B
:101BB00032E1F70EDBCF08F0F80EDBCF09F0010EB3
:101BC000081801E1095016E0085001E1095001E050
:101BD00022D0A10EE66E3C0EE66E5DEC2CF0E552D6
:101BE000E552720EE66E3D0EE66EA7EC2CF0E55265
:101BF000E55211D0900EE66E3C0EE66E5DEC2CF0D8
:101C0000E552E552720EE66E3D0EE66EA7EC2CF044
:101C1000E552E55200D0FD0EDBCFE9FFFE0EDBCF33
:101C2000EAFFEF50030801E0BFD2D950F90FE96E87
:101C3000FF0EDA20EA6EEE50ED1010E17F0EE66E38
:101C40003C0EE66E5DEC2CF0E552E552720EE66E4F
:101C50003D0EE66EA7EC2CF0E552E552D950F90F97
:101C6000E96EFF0EDA20EA6E010EEE1801E1ED508A
:101C700001E0A1D0F70EDBCF08F0F80EDBCF09F0C2
:101C8000060E081801E1095001E184D0050E08187C
:101C900001E109506EE0040E081801E1095058E016
:101CA000030E081801E1095042E0020E081801E194
:101CB00009502CE0010E081801E1095016E0085007
:101CC00001E1095001E077D06E0EE66E3C0EE66E43
:101CD0005DEC2CF0E552E552720EE66E3D0EE66EBE
:101CE000A7EC2CF0E552E55266D05D0EE66E3C0E98
:101CF000E66E5DEC2CF0E552E552720EE66E3D0E9E
:101D0000E66EA7EC2CF0E552E55255D04C0EE66E8F
:101D10003C0EE66E5DEC2CF0E552E552720EE66E7E
:101D20003D0EE66EA7EC2CF0E552E55244D03B0E9A
:101D3000E66E3C0EE66E5DEC2CF0E552E552720E5E
:101D4000E66E3D0EE66EA7EC2CF0E552E55233D080
:101D50002A0EE66E3C0EE66E5DEC2CF0E552E55286
:101D6000720EE66E3D0EE66EA7EC2CF0E552E552E3
:101D700022D0190EE66E3C0EE66E5DEC2CF0E552BC
:101D8000E552720EE66E3D0EE66EA7EC2CF0E552C3
:101D9000E55211D0080EE66E3C0EE66E5DEC2CF0BE
:101DA000E552E552720EE66E3D0EE66EA7EC2CF0A3
:101DB000E552E55200D0D950F90FE96EFF0EDA2056
:101DC000EA6E020EEE1801E1ED5001E02CD1F70EA3
:101DD000DBCF08F0F80EDBCF09F0050E081801E1A3
:101DE000095001E1ECD0040E081801E1095001E1AD
:101DF000B2D0030E081801E1095001E178D0020EBB
:101E0000081801E109503FE0010E081801E10950EE
:101E100006E0085001E1095001E005D104D1FD0EB2
:101E2000DBCFE9FFFE0EDBCFEAFF100EE926000E46
:101E3000EA22EECFE6FFEFCFE6FFE50E146E3C0E92
:101E4000156E166A14C0E6FF15C0E6FF16C0E6FF61
:101E5000F00EE66E000EE66E30EC2EF0176E070EFA
:101E6000E15E1750D40EE66E3C0EE66E5DEC2CF093
:101E7000E552E552F00EE66E000EE66ED0EC2CF068
:101E8000E552E552D0D0FD0EDBCFE9FFFE0EDBCFF1
:101E9000EAFF120EE926000EEA22EECFE6FFEFCFB0
:101EA000E6FFE50E146E3C0E156E166A14C0E6FFD2
:101EB00015C0E6FF16C0E6FFF00EE66E000EE66EF9
:101EC00030EC2EF0176E070EE15E1750F70EE66E3F
:101ED0003B0EE66E5DEC2CF0E552E552F00EE66E40
:101EE000000EE66ED0EC2CF0E552E5529CD0FD0ED3
:101EF000DBCFE9FFFE0EDBCFEAFF140EE926000E72
:101F0000EA22EECFE6FFEFCFE6FFE50E146E3C0EC1
:101F1000156E166A14C0E6FF15C0E6FF16C0E6FF90
:101F2000F00EE66E000EE66E30EC2EF0176E070E29
:101F3000E15E1750E60EE66E3B0EE66E5DEC2CF0B1
:101F4000E552E552F00EE66E000EE66ED0EC2CF097
:101F5000E552E55268D0FD0EDBCFE9FFFE0EDBCF88
:101F6000EAFF160EE926000EEA22EECFE6FFEFCFDB
:101F7000E6FFE50E146E3C0E156E166A14C0E6FF01
:101F800015C0E6FF16C0E6FFF00EE66E000EE66E28
:101F900030EC2EF0176E070EE15E1750D50EE66E90
:101FA0003B0EE66E5DEC2CF0E552E552F00EE66E6F
:101FB000000EE66ED0EC2CF0E552E55234D0FD0E6A
:101FC000DBCFE9FFFE0EDBCFEAFF180EE926000E9D
:101FD000EA22EECFE6FFEFCFE6FFE50E146E3C0EF1
:101FE000156E166A14C0E6FF15C0E6FF16C0E6FFC0
:101FF000F00EE66E000EE66E30EC2EF0176E070E59
:10200000E15E1750C40EE66E3B0EE66E5DEC2CF002
:10201000E552E552F00EE66E000EE66ED0EC2CF0C6
:10202000E552E55200D0D950F90FE96EFF0EDA20E3
:10203000EA6E030EEE1801E1ED5001E0B5D0F70EA7
:10204000DBCF08F0F80EDBCF09F0020E081801E133
:10205000095074E0010E081801E1095039E00850F8
:1020600001E1095001E0A0D0FD0EDBCFE9FFFE0E3B
:10207000DBCFEAFF1A0EE926000EEA22EECFE6FFDA
:10208000EFCFE6FFE50E146E3C0E156E166A14C017
:10209000E6FF15C0E6FF16C0E6FFF00EE66E000E86
:1020A000E66E30EC2EF0176E070EE15E1750B30EA1
:1020B000E66E3B0EE66E5DEC2CF0E552E552F00E5E
:1020C000E66E000EE66ED0EC2CF0E552E5526CD0D8
:1020D000F1EC2CF0FD0EDBCFE9FFFE0EDBCFEAFFCB
:1020E0001C0EE926000EEA22EECFE6FFEFCFE6FF58
:1020F000E50E146E3C0E156E166A14C0E6FF15C090
:10210000E6FF16C0E6FFF00EE66E000EE66E30EC5F
:102110002EF0176E070EE15E1750A20EE66E3B0E14
:10212000E66E5DEC2CF0E552E552F00EE66E000E28
:10213000E66ED0EC2CF0E552E55236D0F1EC2CF006
:10214000FD0EDBCFE9FFFE0EDBCFEAFF1E0EE92618
:10215000000EEA22EECFE6FFEFCFE6FFE50E146EAB
:102160003C0E156E166A14C0E6FF15C0E6FF16C0D9
:10217000E6FFF00EE66E000EE66E30EC2EF0176E07
:10218000070EE15E1750910EE66E3B0EE66E5DECBB
:102190002CF0E552E552F00EE66E000EE66ED0EC45
:1021A0002CF0E552E55200D036D2D950FB0FE96E43
:1021B000FF0EDA20EA6EEE50ED1001E02CD2FD0E9B
:1021C000DBCFE9FFFE0EDBCFEAFFEF0401E0D1D069
:1021D000F90EDBCF08F0FA0EDBCF09F0010E08187C
:1021E00001E1095016E0085001E1095001E0C1D0B9
:1021F000610EE66E3D0EE66E5DEC2CF0E552E552AA
:10220000720EE66E3D0EE66EA7EC2CF0E552E5523E
:10221000B0D0FD0EDBCFE9FFFE0EDBCFEAFF0E0EE6
:10222000E926000EEA22EE50ED1011E0800EE66E77
:102230003B0EE66E5DEC2CF0E552E5526F0EE66E5D
:102240003B0EE66EA7EC2CF0E552E55291D0FD0E68
:10225000DBCFE9FFFE0EDBCFEAFF0C0EE926000E16
:10226000EA22EE50ED1011E05E0EE66E3B0EE66ED9
:102270005DEC2CF0E552E5526F0EE66E3B0EE66E1D
:10228000A7EC2CF0E552E55273D0FD0EDBCFE9FF51
:10229000FE0EDBCFEAFF050EE926000EEA22EFCFA5
:1022A00014F0156A14BE156814C0E6FF15C0E6FFE9
:1022B000FD0EDBCFE9FFFE0EDBCFEAFF030EE926C2
:1022C000000EEA22EFCF16F0176A16BE176816C086
:1022D000E6FF17C0E6FF4D0E186E3B0E196E1A6A28
:1022E00018C0E6FF19C0E6FF1AC0E6FFF00EE66E62
:1022F000000EE66E30EC2EF01B6E090EE15E1B50F8
:10230000F00EE66E000EE66E86EC2CF0E552E5521D
:10231000FD0EDBCFE9FFFE0EDBCFEAFF040EE92660
:10232000000EEA22EFCF14F0156A14BE156814C02F
:10233000E6FF15C0E6FF3C0E166E3B0E176E186AE0
:1023400016C0E6FF17C0E6FF18C0E6FFF00EE66E07
:10235000000EE66E30EC2EF0196E070EE15E19509D
:10236000F00EE66E000EE66ED0EC2CF0E552E55273
:1023700000D0FD0EDBCFE9FFFE0EDBCFEAFFEF5012
:1023800002086EE1F90EDBCF08F0FA0EDBCF09F0A0
:10239000010E081801E1095016E0085001E109504A
:1023A00001E05ED0B20EE66E3C0EE66E5DEC2CF007
:1023B000E552E552720EE66E3D0EE66EA7EC2CF08D
:1023C000E552E5524DD0FD0EDBCFE9FFFE0EDBCF2F
:1023D000EAFF0E0EE926000EEA22EE50ED1011E0A3
:1023E000800EE66E3B0EE66E5DEC2CF0E552E5529B
:1023F0006F0EE66E3B0EE66EA7EC2CF0E552E55252
:102400002ED0FD0EDBCFE9FFFE0EDBCFEAFF0C0E78
:10241000E926000EEA22EE50ED1011E05E0EE66EA7
:102420003B0EE66E5DEC2CF0E552E5526F0EE66E6B
:102430003B0EE66EA7EC2CF0E552E55210D0B20E42
:10244000E66E3C0EE66E5DEC2CF0E552E552720E47
:10245000E66E3D0EE66EA7EC2CF0E552E55200D09C
:10246000FD0EDBCFE9FFFE0EDBCFEAFFEF500308E6
:1024700001E0D1D0F90EDBCF08F0FA0EDBCF09F086
:10248000010E081801E1095016E0085001E1095059
:1024900001E0C1D07F0EE66E3C0EE66E5DEC2CF0E6
:1024A000E552E552720EE66E3D0EE66EA7EC2CF09C
:1024B000E552E552B0D0FD0EDBCFE9FFFE0EDBCFDB
:1024C000EAFF0E0EE926000EEA22EE50ED1011E0B2
:1024D000800EE66E3B0EE66E5DEC2CF0E552E552AA
:1024E0006F0EE66E3B0EE66EA7EC2CF0E552E55261
:1024F00091D0FD0EDBCFE9FFFE0EDBCFEAFF0C0E25
:10250000E926000EEA22EE50ED1011E05E0EE66EB6
:102510003B0EE66E5DEC2CF0E552E5526F0EE66E7A
:102520003B0EE66EA7EC2CF0E552E55273D0FD0EA3
:10253000DBCFE9FFFE0EDBCFEAFF050EE926000E3A
:10254000EA22EFCF14F0156A14BE156814C0E6FF36
:1025500015C0E6FFFD0EDBCFE9FFFE0EDBCFEAFF85
:10256000030EE926000EEA22EFCF16F0176A16BE18
:10257000176816C0E6FF17C0E6FF4D0E186E3B0E3B
:10258000196E1A6A18C0E6FF19C0E6FF1AC0E6FF06
:10259000F00EE66E000EE66E30EC2EF01B6E090EAD
:1025A000E15E1B50F00EE66E000EE66E86EC2CF03F
:1025B000E552E552FD0EDBCFE9FFFE0EDBCFEAFF71
:1025C000040EE926000EEA22EFCF14F0156A14BEBD
:1025D000156814C0E6FF15C0E6FF3C0E166E3B0EF4
:1025E000176E186A16C0E6FF17C0E6FF18C0E6FFB0
:1025F000F00EE66E000EE66E30EC2EF0196E070E51
:10260000E15E1950F00EE66E000EE66ED0EC2CF096
:0E261000E552E55200D0E552E7CFD9FF1200A7
:02261E004BEC83
:1026200018F0FB0EDBCFF3FFDB06F35000090AE0E6
:1026300099EC18F0FA0E04EC19F0F3E1151CF1E135
:10264000010E01D0000E7AEF18F04BEC18F03B0EA3
:10265000E12402E3E168E652E16E010EDB6A020E5C
:10266000DB6AF90EDBCFF6FFFA0EDBCFF7FFFB0ECE
:10267000DBCFF8FF0800F550DF6EDF5002E19EEF80
:1026800017F0250EDF5C02E091EF17F0030EDB6A16
:10269000040EDB6A050EDB6A060EDB6A070EDB6AD8
:1026A000B3EC17F02D0EDF5C0CE02B0EDF5C09E0C5
:1026B000200EDF5C06E0230EDF5C03E0300EDF5C03
:1026C0001AE1DF50300A14E0130A0FE0030A0AE0AF
:1026D0000B0A05E0060AE4E1030EDB80E1D7030EF6
:1026E000DB82DED7030EDB84DBD7030EDB86D8D795
:1026F000030EDB88D5D72A0EDF5C1BE1AFEC17F0A9
:10270000FDEC17F010E0030EDB8008680968130E7B
:10271000DBCF0DF0140EDBCF0EF0EFEC2EF0040E3D
:1027200006C0DBFF03D0130EE6EC17F0B3EC17F096
:102730000BD0090EDB6A54EC18F003E0C8EC18F07B
:10274000FAD7090EE6EC17F0030EDBB0DB982E0E7D
:10275000DF5C1BE1B3EC17F02A0EDF5C0BE1AFECA2
:1027600017F0FDEC17F003E1130E38EC18F0B3ECA2
:1027700017F00BD0090EDB6A54EC18F003E0C8EC3C
:1027800018F0FAD7090E38EC18F0680EDF5C07E194
:10279000B3EC17F0680EDF5C1DE1030E18D0740E69
:1027A000DF5C17E07A0EDF5C14E0480EDF5C06E0C9
:1027B000540EDF5C03E05A0EDF5C02E1020E07D02C
:1027C0006C0EDF5C03E06A0EDF5C04E1010E8BEC53
:1027D00018F0C9DBDF506E0A01E17FD31E0A01E168
:1027E00092D1200A01E18FD13F0A01E149D11A0AB1
:1027F00001E146D10D0A01E143D1200A01E140D1B6
:102800003A0A01E13DD1200A01E13AD1260A01E16B
:1028100035D10D0A01E132D11A0A01E1D9D0200ADD
:102820004AE0300A1FE0460A0EE0250A01E083D3A1
:10283000D950F90FE96EFF0EDA20EA6E010EEE5E56
:10284000000EEE5AEE5A99EC18F0250EE66E95DB66
:1028500003E1151C01E169D395EC18F001E26BD39B
:10286000DB2A69D3080EDB6A040EDB50010806E29E
:10287000040EDB045DEC18F0DB508BDB080EDB5044
:1028800009E0030EDB50010B05E172DB01E04DD3E3
:10289000080EDB6A64DBEFCFDFFF0DEC19F003E11C
:1028A000151C01E142D395EC18F001E3DB2A60DB53
:1028B00001E141D33AD3070EDB5002080FE1D9EC16
:1028C00018F0030EA0EC18F00E0EEECFDBFF0F0E8B
:1028D000EECFDBFF100EEECFDBFF20D0F70EDBCF0D
:1028E00017F0F80EDBCF18F0020E175E000E185A24
:1028F000F70E17C0DBFFF80E18C0DBFF17C0E9FFAB
:1029000018C0EAFF90EC18F0166A0E0E14C0DBFF38
:102910000F0E15C0DBFF100E16C0DBFF0E0EDBCF57
:10292000E6FF0F0EDBCFE6FF100EDBCFE6FF61EC1C
:1029300030F0E552E552E552130E07C0DBFF140EEE
:1029400008C0DBFF060EDB5005E0130ED4EC18F0D8
:1029500001E26ADBF8EC18F002E2130E37DBBBECA5
:1029600018F006E0040ED4EC18F002E2050E2EDB9F
:10297000030EDBB005D0FCDA01E0D7D2080EDB6A2B
:10298000090EDB6A0E0EDBCFF6FF0F0EDBCFF7FF73
:10299000100EDBCFF8FF0800F550DF6EDF5014E0BB
:1029A000FEEC18F011E20DEC19F003E1151C01E149
:1029B000BCD2BBDB01E3DB2A090EDB2AD9500E0FA8
:1029C000E96E000ECBDBE7D7D3DA01E1B4D2ADD2AA
:1029D000C6DA110EEECFDBFF120EEDCFDBFF110ECC
:1029E000DBCFE6FF120EDBCFE6FF53EC30F0E55213
:1029F000E552130EF3CFDBFF140EF4CFDBFF060E10
:102A0000DB5004E0130ED0DB01E20EDBF8EC18F033
:102A100002E2130EDBDAAFDB05E0040EC5DB02E2F7
:102A2000050ED4DA030EDBB005D0A2DA01E07DD2C8
:102A3000080EDB6A090EDB6A110EDBCFE9FF120E0E
:102A4000DBCFEAFFEFCFDFFFDF5014E0D7DB12E28E
:102A5000E4DB03E1151C01E168D267DB01E3DB2A5B
:102A6000090EDB2A110EDB2ADBCFE9FF120EE8E3A9
:102A7000DB2AE6D77DDA01E15ED257D2030EDB8E88
:102A8000070EDB0410E195DB040E5ADB0A0EEECFD5
:102A9000DBFF0B0EEECFDBFF0C0EEECFDBFF0D0EE0
:102AA000EECFDBFF6CD0070EDB5003082CE1030EEA
:102AB000DBAE0DD0B2DA020E76DAEFCF14F0156A83
:102AC000166A176A14AE39D01568166835D0F70E35
:102AD000DBCF15F0F80EDBCF16F0020E155E000E00
:102AE000165AF70E15C0DBFFF80E16C0DBFF15C037
:102AF000E9FF16C0EAFFEFCF14F00A0E14C0DBFFA7
:102B00000B0EDB6A38D0070EDB50020809E1030E1A
:102B1000DBAE04D059DB16AE10D00ED055DB0DD095
:102B2000030EDBAE12D079DA020E3DDAF9DA166A5C
:102B3000176A15AE02D016681768E2DA0C0E16C0D6
:102B4000DBFF0D0E17C0DBFF1AD0F70EDBCF16F040
:102B5000F80EDBCF17F0020E165E000E175AF70EB6
:102B600016C0DBFFF80E17C0DBFF16C0E9FF17C069
:102B7000EAFFD6DAC5DA0C0EDB6A0D0EDB6A060E4A
:102B8000DB5005E1010EF36E050EF3CFDBFF150EF2
:102B9000DB6A160EDB6AD950370F146E000EDA208E
:102BA000156E390E14C0DBFF3A0E15C0DBFF380E70
:102BB000DB6A080EDB6A0A0EAEDADF50780A12E032
:102BC000200A10E0280A0CE0200A0AE03F0A06E08A
:102BD0000D0A02E0200A08E1020E05D0080E03D01B
:102BE000080EDF26100E97DA030EDBBE02D0DB9252
:102BF000DB94DB50800B24E08ADAD890030EEB5094
:102C0000000A08E6000EEE5C000EEE58000EEE58CC
:102C1000000EEE5815E213DA0B680C680D680E68AA
:102C2000E7EC2FF00A0E02C0DBFF0B0E03C0DBFF48
:102C30000C0E04C0DBFF0D0E05C0DBFF2D0E08D00F
:102C4000030EDBA202D02B0E03D0DBA408D0200E93
:102C5000F36E170EF3CFDBFF150EDB2A02D0170E33
:102C6000DB6A050EDB5003E1B7D901E189D00A0E1A
:102C7000146E650E156E000E166E070EDBCF17F084
:102C8000186A196A1A6A17C00BF018C00CF019C03C
:102C90000DF01AC00EF0D3D94BEC31F014500224D1
:102CA000F36E15500320F46E16500420F86EF4CF26
:102CB000F7FFF3CFF6FF0800090EF5CFDBFF580E44
:102CC000DF5C0FE1610EF36E090E7BD90AE3200E83
:102CD000146E090EDBCFE7FF1450E75E090EE7CF55
:102CE000DBFF070EDBCF14F0156A166A176A0FDADE
:102CF00014C00BF015C00CF016C00DF017C00EF08C
:102D0000EECF06F0EECF07F0EECF08F0EFCF09F0F0
:102D10004BEC31F009C0EDFF08C0EDFF07C0EDFF3F
:102D200006C0EFFF390EDBCFE9FFDB063A0EDBCF43
:102D3000EAFF01E2DB06090EDBCFEFFF150EDB2A0F
:102D40004BD995E1030EDBA61DD06F0EDF5C06E1CB
:102D5000C1D918E3150EDB285BDA14D0780EDF5CDE
:102D600009E0580EDF5C06E0620EDF5C03E0420E15
:102D7000DF5C08E1020EF36E160EF3CFDBFF02D02C
:102D8000150EDB6A030EDB50100B0EE0040EDBCFDA
:102D900014F0050EDB50D880145406E2060EDB500A
:102DA00003E1040EDB5034DA95D90AE2050EDBCFDD
:102DB000E7FF150EDB50E75E050EE7CFDBFF02D025
:102DC000050EDB6A040EDBCF14F0160E45D9D88051
:102DD000145414E2160EDBCFE6FF150EDBCFE6FF30
:102DE000040EDBCFE6FF050EDB50E552E75CE55253
:102DF000D880E754E552D880E7545FD9030EDB5002
:102E0000010B0BE1080EDB5008E0B2D801E08DD0D9
:102E1000080EDB50BED8080EDB6A170EDB5007E049
:102E200088D9170EF1D903E1151C01E17ED0160EE9
:102E3000DB5016E07ED9300EE66E9FD802E1151CFD
:102E400074E077D9DFCFE6FFA5EC2FF0E552E5522D
:102E5000E552F4CF15F00001F31C02E1151C65E00A
:102E6000050EDBCF14F0160EDB50D880145409E2A7
:102E7000050EDBCFE7FF160EDB50E75E050EE7CF52
:102E8000DBFF300EE66E050ECBD94FE1390EDB2AA3
:102E9000DBCFE9FF3A0E01E3DB2ADBCFEAFF090EC5
:102EA000EFCFDBFFDB500EE044D9090EADD902E1D4
:102EB000151C3BE0390EDB2ADBCFE9FF3A0EEDE3D0
:102EC000DB2AEBD755D831E1160EDBCFE6FF080E33
:102ED000C3D8E552E7245DD82ED0070EDB50030A95
:102EE0001CE0010A14E0030A07E07BD9DBCFEEFF08
:102EF000020EDBCFEDFF1FD0F5D8196A17AE02D056
:102F0000186819682CD8BCD819C0EEFF14D0EAD8BC
:102F100017BE186824D8B4D80ED063D9DBCFEFFF22
:102F20000AD07BD905E1151C03E1F368F46810D0E1
:102F3000FCD801E3DB2A79D93AEF13F0010EDBCF9D
:102F400014F0020EDBCF15F014C0F3FF15C0F4FF30
:102F50003B0EE15C02E2E16AE552E16ECBD029D999
:102F6000020EA0EF18F061D90800F550DF6E1200D4
:102F7000200EE66E080E10EF19F0A5EC2FF0E552CA
:102F8000E552E552F3CF14F0F4CF15F00001F31C35
:102F90001200146E156AD950010F4DD91450EE2647
:102FA0001550ED221200185E000E195AF70E18C0C7
:102FB000DBFFF80E19C0DBFF18C0E9FF19C0EAFFFC
:102FC0001200DBCFF4FFF350F45C1200DB50E76E2D
:102FD000040EE7CFDBFF12000A0EDBCF14F00B0E5E
:102FE000DBCF15F00C0EDBCF16F00D0EDBCF17F09C
:102FF00014501510161017101200130EEECFDBFF31
:10300000140EEDCFDBFF130EDBCF14F0140EDBCF6D
:1030100015F00001800E15141200F70EDBCF18F02A
:10302000F80EDBCF19F01200050EDB50E66ED9501A
:10303000130F01D9E552E750EE6EED6A12000A0E49
:10304000DBCF06F00B0EDBCF07F00C0EDBCF08F06A
:103050000D0EDBCF09F01200DBCFE6FF150EDBCF44
:10306000E6FF050EDB50E552E724E552E7241200A7
:10307000DB50CED8010EF36E060EF3CFDBFF12004D
:10308000EE50EFCFEAFFE96E16C0EEFF17C0EEFF7D
:1030900018C0EEFF1200D9CFE6FFDACFE6FFE1CF8E
:1030A000D9FFE2CFDAFF1200DFCFE6FFE66A20ECBD
:1030B00032F0E552E552F3501200E76E080EE7CF0A
:1030C000DBFF1200EECF14F0EECF15F0EFCF16F0CD
:1030D000176A1200050EDBCF14F0150EDB50D880F6
:1030E00014541200010EDBCF16F0020EDBCF17F0E6
:1030F000186A1200E552E5CFDAFFE7CFD9FF1200D8
:103100000A0E14C0DBFF0B0E15C0DBFF1200D950F6
:103110000A0F1BEF19F0F36E070EF3CFDBFF12005F
:10312000EECF14F0EFCF15F01200010EDB2A020EE5
:103130001200FC0EDBCFE6FFFD0EDBCFE6FF120038
:10314000145E000E155AF70E14C0DBFFF80E15C002
:10315000DBFF14C0E9FF15C0EAFF1200DA20EA6EB7
:10316000EF2AEECFF6FF000EEF22EECFF7FFEF22B1
:10317000EECFF8FF1200040EDBCFE6FF130EDB509C
:10318000E552E75C9ADFDB5004DF060EDB501200ED
:10319000090EDB500A0DF350DF24D00FE76E090E45
:1031A000E7CFDBFFB3EF17F0DB50F36E050EE1EF77
:1031B00017F0F70EDBCF14F0F80EDBCF15F012008E
:1031C000DFCFE6FFBDEF17F028DF030EECDE62EF86
:1031D00018F00FEC13F0E552E552E552E552000904
:1031E0001200BDDEEE50EFCFEAFFE96E010E1200D5
:1031F000130EDB50F36E040EE1EF17F0040EDB50FC
:10320000F36E090EE1EF17F0DBCFE6FFBDEF17F02D
:10321000E76E050EE7CFDBFF12008BDFE0EF18F063
:10322000DBCFE6FF86DFE9EF18F0D950F90FE96E42
:10323000FF0EAEEF18F0E96E000EDA20EA6E120013
:10324000949C948EFA0EE66EF2EC31F0E552400E4C
:10325000E66EE66A7C0EE66E1CEC2FF0E552E55257
:10326000E5529F9A1200D9CFE6FFE1CFD9FFFD0EBC
:10327000DBCFF6FFFE0EDBCFF7FF0800F55014E0C2
:10328000ACA2FED7FD0EDBCFF6FFFE0EDBCFF7FFC5
:103290000800F550E66E09EC32F0E552FD0EDB2A2F
:1032A000FE0E01E3DB2AE3D7E552E7CFD9FF120098
:1032B000D9CFE6FFE1CFD9FFFD0EDBCFE9FFFE0E50
:1032C000DBCFEAFFEF5013E0ACA2FED7FD0EDBCF61
:1032D000E9FFFE0EDBCFEAFFEF50E66E09EC32F0BD
:1032E000E552FD0EDB2AFE0E01E3DB2AE5D7E552AF
:1032F000E7CFD9FF12002D0EE66E420EE66EB3DF69
:10330000E552E5521200D9CFE6FFE1CFD9FFFD0E1D
:10331000DBCFE9FFFE0EDBCFEAFFEF5020E1F90E35
:10332000DBCF08F0FA0EDBCF09F0010E081801E13F
:1033300009500DE0085001E1095001E010D0BE0E27
:10334000E66E410EE66E8FDFE552E55208D0AC0E18
:10335000E66E410EE66E87DFE552E55200D0D950A9
:10336000FB0FE96EFF0EDA20EA6E010EEE1801E1A6
:10337000ED5001E089D3FD0EDBCFE9FFFE0EDBCF80
:10338000EAFFEF0401E0D8D0D950F90FE96EFF0E43
:10339000DA20EA6EEE50ED100EE1390EE66E410EC7
:1033A000E66E61DFE552E552F50EE66E400EE66E22
:1033B0005ADFE552E552D950F90FE96EFF0EDA20D7
:1033C000EA6E010EEE1801E1ED504CE1F70EDBCF95
:1033D00008F0F80EDBCF09F0040E081801E10950DF
:1033E00038E0030E081801E109502AE0020E08181F
:1033F00001E109501CE0010E081801E109500EE03E
:10340000085001E1095001E02DD075DFE50EE66EB0
:10341000400EE66E28DFE552E55224D06CDFD40E74
:10342000E66E400EE66E1FDFE552E5521BD063DF0D
:10343000C40EE66E400EE66E16DFE552E55212D07F
:103440005ADFAF0EE66E400EE66E0DDFE552E55236
:1034500009D051DF9C0EE66E400EE66E04DFE552A9
:10346000E55200D0D950F90FE96EFF0EDA20EA6E6E
:10347000020EEE1801E1ED505FE1F70EDBCF08F030
:10348000F80EDBCF09F0040E081801E109504BE0FB
:10349000020E081801E109501AE0010E081801E1B6
:1034A00009500DE0085001E1095001E045D08E0EB1
:1034B000E66E400EE66ED7DEE552E5523DD07F0E59
:1034C000E66E400EE66ECFDEE552E55235D013DFF4
:1034D000FD0EDBCFE9FFFE0EDBCFEAFF100EE92683
:1034E000000EEA22EECFE6FFEFCFE6FF700E146E7D
:1034F000400E156E166A14C0E6FF15C0E6FF16C032
:10350000E6FF000EE66E010EE66E30EC2EF0176E52
:10351000070EE15E1750000EE66E010EE66EC8DE85
:10352000E552E55209D0E7DE5F0EE66E400EE66E2C
:103530009ADEE552E55200D0FD0EDBCFE9FFFE0E2C
:10354000DBCFEAFFEF50020856E1D950F90FE96EE0
:10355000FF0EDA20EA6EEE50ED100EE1220EE66E5E
:10356000400EE66E80DEE552E552F50EE66E400E48
:10357000E66E79DEE552E552D950F90FE96EFF0E9D
:10358000DA20EA6E010EEE1801E1ED5022E1F70EAD
:10359000DBCF08F0F80EDBCF09F0010E081801E1CF
:1035A00009500EE0085001E1095001E012D0A3DEFD
:1035B0000F0EE66E400EE66E56DEE552E55209D07D
:1035C0009ADEF70EE66E3F0EE66E4DDEE552E552F0
:1035D00000D0D950F90FE96EFF0EDA20EA6E020E24
:1035E000EE1801E1ED5007E1E50EE66E3F0EE66EE6
:1035F0003ADEE552E552FD0EDBCFE9FFFE0EDBCFF2
:10360000EAFFEF50030801E03ED2D950F90FE96E0E
:10361000FF0EDA20EA6EEE50ED100EE1330EE66E8C
:103620003F0EE66E20DEE552E552F50EE66E400EE8
:10363000E66E19DEE552E552D950F90FE96EFF0E3C
:10364000DA20EA6E010EEE1801E1ED5068E1F70EA6
:10365000DBCF08F0F80EDBCF09F0060E081801E109
:10366000095054E0050E081801E1095046E0040E27
:10367000081801E1095038E0030E081801E109506B
:103680002AE0020E081801E109501CE0010E08189A
:1036900001E109500EE0085001E1095001E03FD07E
:1036A0002ADE220EE66E3F0EE66EDDDDE552E552C5
:1036B00036D021DE110EE66E3F0EE66ED4DDE55209
:1036C000E5522DD018DEFD0EE66E3E0EE66ECBDD29
:1036D000E552E55224D00FDEDE0EE66E3E0EE66EBB
:1036E000C2DDE552E5521BD006DEC80EE66E3E0E88
:1036F000E66EB9DDE552E55212D0FDDDA90EE66EAB
:103700003E0EE66EB0DDE552E55209D0F4DD910ED5
:10371000E66E3E0EE66EA7DDE552E55200D0D950CA
:10372000F90FE96EFF0EDA20EA6E020EEE1801E1E3
:10373000ED5001E003D1F70EDBCF08F0F80EDBCF40
:1037400009F0050E081801E1095001E1CBD0040E83
:10375000081801E1095001E199D0030E081801E1B0
:10376000095068E0020E081801E1095037E0010E27
:10377000081801E1095006E0085001E1095001E094
:10378000DDD0DCD0B8DDFD0EDBCFE9FFFE0EDBCFF8
:10379000EAFF100EE926000EEA22EECFE6FFEFCF99
:1037A000E6FF700E146E400E156E166A14C0E6FF2A
:1037B00015C0E6FF16C0E6FF000EE66E010EE66ECF
:1037C00030EC2EF0176E070EE15E1750000EE66E1D
:1037D000010EE66E6DDDE552E552B0D08CDDFD0EDA
:1037E000DBCFE9FFFE0EDBCFEAFF120EE926000E6B
:1037F000EA22EECFE6FFEFCFE6FF7F0E146E3E0E1D
:10380000156E166A14C0E6FF15C0E6FF16C0E6FF87
:10381000000EE66E010EE66E30EC2EF0176E070E0F
:10382000E15E1750000EE66E010EE66E41DDE552D8
:10383000E55284D060DDFD0EDBCFE9FFFE0EDBCF6D
:10384000EAFF140EE926000EEA22EECFE6FFEFCFE4
:10385000E6FF620E146E3E0E156E166A14C0E6FF89
:1038600015C0E6FF16C0E6FF000EE66E010EE66E1E
:1038700030EC2EF0176E070EE15E1750000EE66E6C
:10388000010EE66E15DDE552E55258D034DDFD0E31
:10389000DBCFE9FFFE0EDBCFEAFF160EE926000EB6
:1038A000EA22EECFE6FFEFCFE6FF4E0E146E3E0E9D
:1038B000156E166A14C0E6FF15C0E6FF16C0E6FFD7
:1038C000000EE66E010EE66E30EC2EF0176E070E5F
:1038D000E15E1750000EE66E010EE66EE9DCE55281
:1038E000E5522CD008DDFD0EDBCFE9FFFE0EDBCF6D
:1038F000EAFF180EE926000EEA22EECFE6FFEFCF30
:10390000E6FF310E146E3E0E156E166A14C0E6FF09
:1039100015C0E6FF16C0E6FF000EE66E010EE66E6D
:1039200030EC2EF0176E070EE15E1750000EE66EBB
:10393000010EE66EBDDCE552E55200D0D950F90F1C
:10394000E96EFF0EDA20EA6E030EEE1801E1ED508B
:1039500001E099D0F70EDBCF08F0F80EDBCF09F0CD
:10396000020E081801E1095062E0010E081801E199
:10397000095031E0085001E1095001E084D0BBDC7E
:10398000FD0EDBCFE9FFFE0EDBCFEAFF1A0EE926C4
:10399000000EEA22EECFE6FFEFCFE6FF1A0E146E1E
:1039A0003E0E156E166A14C0E6FF15C0E6FF16C07F
:1039B000E6FF000EE66E010EE66E30EC2EF0176E9E
:1039C000070EE15E1750000EE66E010EE66E70DC2B
:1039D000E552E55258D08FDCFD0EDBCFE9FFFE0E3D
:1039E000DBCFEAFF1C0EE926000EEA22EECFE6FF4F
:1039F000EFCFE6FF070E146E3E0E156E166A14C06A
:103A0000E6FF15C0E6FF16C0E6FF000EE66E010EEB
:103A1000E66E30EC2EF0176E070EE15E1750000ECA
:103A2000E66E010EE66E44DCE552E5522CD063DC16
:103A3000FD0EDBCFE9FFFE0EDBCFEAFF1E0EE9260F
:103A4000000EEA22EECFE6FFEFCFE6FFF20E146E95
:103A50003D0E156E166A14C0E6FF15C0E6FF16C0CF
:103A6000E6FF000EE66E010EE66E30EC2EF0176EED
:103A7000070EE15E1750000EE66E010EE66E18DCD2
:103A8000E552E55200D056D0D950FB0FE96EFF0E3B
:103A9000DA20EA6EEE50ED104DE1FD0EDBCFE9FFCE
:103AA000FE0EDBCFEAFF070EE926000EEA22EF50FA
:103AB00000E0FD0EDBCFE9FFFE0EDBCFEAFFEF50AB
:103AC000030A27E0010A14E0030A01E033D0E00E04
:103AD000E66E3D0EE66E33EC19F0E552E552C30E8C
:103AE000E66E3D0EE66E33EC19F0E552E55222D05B
:103AF000B30EE66E3D0EE66E33EC19F0E552E5527C
:103B0000C30EE66E3D0EE66E33EC19F0E552E5525B
:103B100011D0A50EE66E3D0EE66E33EC19F0E552BF
:103B2000E552C30EE66E3D0EE66E33EC19F0E5523B
:0C3B3000E55200D0E552E7CFD9FF1200AB
:043B3C0046524F4E50
:103B4000543A256420636D2020202020004C3D2520
:103B50006420636D20523D256420636D2000486120
:103B60006C66205363616E202020202020200053AB
:103B700063616E6E696E672E2E2E2020202020003D
:103B800046756C6C205363616E202020202020201D
:103B90000044204741494E3D202020202020202065
:103BA000200049204741494E3D2020202020202050
:103BB00020200050204741494E3D20202020202039
:103BC0002020200052462053414D504C45533D206B
:103BD000202020200049522053414D504C45205276
:103BE0004154453D200049522053414D504C4553CE
:103BF0003D2020202020004D41582059415720527F
:103C00004154453D20202000362D5345545F4D4FF3
:103C100044454D414E55414C00352D5345545F525E
:103C2000465F53414D504C455300342D5345545F2E
:103C300049525F5241544520202000332D534554B2
:103C40005F49525F53414D504C455300322D53450F
:103C5000545F5941575F52415445202000312D5344
:103C600045545F53504545445F4D41582000302D29
:103C70005345545F5049445F4741494E53200046E5
:103C80004143544F52595F4D4F444520202020005E
:103C9000312D5345545F555345524D414E55414C7E
:103CA00000302D5345545F46494E44504152524FC7
:103CB0005400555345525F4155544F5F4D4F444555
:103CC000202000456E7465722050617373636F64C9
:103CD000653A20004D41582053504545443D202031
:103CE00020202020002564202020202020202020AB
:103CF000202020202020004D4F544F52535F4F462C
:103D000046004D4F544F52535F4F4E00342D534594
:103D1000545F464143544F525920202000332D53C5
:103D200045545F555345525F4155544F2000322D45
:103D30005345545F53504545445F4D415820003131
:103D40002D5345545F4D4F544F52535F4F464600DD
:103D5000302D5345545F4D4F544F52535F4F4E20BB
:103D600000555345525F4D414E55414C5F4D4F44B8
:103D7000450020202020202020202020202020203E
:103D8000202000496E697469616C6973696E672EE1
:103D90002E2E200057656C636F6D6520746F204870
:103DA00053532020000C464143544F52595F4D4F0E
:103DB0004445000C555345525F4155544F5F4D4F9C
:103DC0004445000A0D5072657373204120746F20C2
:103DD000656E74657220636F6D6D616E640A0D00AF
:103DE0000C555345525F4D414E55414C5F4D4F442C
:103DF000450044657269766174697665204761693A
:103E00006E3D2025640D00496E74656772616C20FB
:103E10004761696E3D2025640D0050726F706F72AE
:103E200074696F6E616C204761696E3D2025640D79
:103E30000052462053414D504C455320504552208E
:103E4000455354494D4154453D2025640D00495288
:103E50002053414D504C4520524154453D2025644E
:103E60000D0049522053414D504C4553205045526E
:103E700020455354494D4154453D2025640D004D86
:103E800041582059415720524154453D2025640D49
:103E900000362D5345545F4D4F44455F55534552B1
:103EA0005F4D414E55414C0D00352D5345545F52E9
:103EB000465F53414D504C45535F5045525F45530B
:103EC00054494D4154450D00342D5345545F4952DA
:103ED0005F53414D504C455F524154450D00332DC9
:103EE0005345545F49525F53414D504C45535F50C9
:103EF00045525F455354494D4154450D00322D53B1
:103F000045545F5941575F524154455F4D41580DEB
:103F100000312D5345545F53504545445F4D415842
:103F20000D00302D5345545F5049445F4741494E81
:103F3000530D000C464143544F52595F4D4F444579
:103F40000A0D302D5345545F5049445F4741494E57
:103F5000530A0D312D5345545F53504545445F4D31
:103F600041580A0D322D5345545F5941575F524114
:103F700054455F4D41580A0D332D5345545F495206
:103F80005F53414D504C45535F5045525F4553542C
:103F9000494D4154450A0D342D5345545F49525FF4
:103FA00053414D504C455F524154450A0D352D53F8
:103FB00045545F52465F53414D504C45535F504509
:103FC000525F455354494D4154450A0D362D5345D2
:103FD000545F4D4F44455F555345525F4D414E55DB
:103FE000414C0A0D000A46696E64696E6720506193
:103FF00072726F740A0D00312D5345545F4D4F445A
:10400000455F555345525F4D414E55414C0D003073
:104010002D5345545F46494E445F504152524F54D0
:104020000D000C555345525F4155544F5F4D4F4461
:10403000450A0D302D5345545F46494E445F50416B
:1040400052524F540A0D312D5345545F4D4F444544
:104050005F555345525F4D414E55414C0A0D004549
:104060006E7465722050617373636F64653A0D00FE
:104070004D41582053504545443D2025640D000ACC
:104080000D4D4F544F52535F4F46460A0D000A0DD7
:104090004D4F544F52535F4F4E0A0D00342D534530
:1040A000545F4D4F44455F464143544F525900338E
:1040B0002D5345545F4D4F44455F555345525F4125
:1040C00055544F00322D5345545F53504545445F7E
:1040D0004D415800312D5345545F4D4F544F52536D
:1040E0005F4F464600302D5345545F4D4F544F525D
:1040F000535F4F4E005573652055502F444F574E18
:10410000206172726F777320746F207363726F6CAB
:104110006C0A0D5072657373204120746F207365B3
:104120006C6563740A0D5072657373204220746F5E
:1041300020657869740A0A0D000C555345525F4D8D
:10414000414E55414C5F4D4F44450A0A0D302D53A9
:1041500045545F4D4F544F52535F4F4E0A0D312D12
:104160005345545F4D4F544F52535F4F46460A0DCF
:10417000322D5345545F53504545445F4D41580AD5
:104180000D332D5345545F4D4F44455F55534552B4
:104190005F4155544F0A0D342D5345545F4D4F44E4
:1041A000455F464143544F52590A0D00496E6974A8
:1041B00069616C6973696E672E2E2E0A0D000C57AB
:1041C000656C636F6D6520746F207468652048614D
:1041D00072616D626520536F756C205365656B6508
:1041E000720A0D5072657373204120746F20656EE2
:1041F00074657220636F6D6D616E647320616E64AF
:104200002055502F444F574E206172726F777320A4
:10421000746F207363726F6C6C0A0D496E697469F8
:10422000616C6973696E672E2E2E0A0D000D2020B9
:10423000202020202020202020202020202020207E
:10424000202020202020202020202020202020206E
:1042500020202020202020200D0057726F6E672024
:1042600050617373636F646500550044004C0052E5
:0942700000480046004100420034
:014279000044
:06427A0061EC2FF0F18E53
:10428000819493840F0EC16E82989498F088F08E7A
:10429000F092F1981200D9CFE6FFE1CFD9FF68EC98
:1042A0002FF001018B6F4B0E8B5D0AE1FD0EDBCF12
:1042B0008CF1FE0EDBCF8DF10101010E946F1ED04B
:1042C0004F0E8B5D0BE1FB0EDBCFE9FFFC0EDBCF6E
:1042D000EAFF010EEF6E0101946B10D07A0E8B5D38
:1042E0000DE0010194050AE18CC1E9FF8DC1EAFFEF
:1042F0008BC1EFFF01018C2B000E8D2300D0E55206
:10430000E7CFD9FF1200D9CFE6FFE1CFD9FF100EDA
:10431000E126FE0EDB50DF6EFC0EDBCF08F0FD0E5B
:10432000DBCF09F0DE5208C0DEFF09C0DDFFDD5241
:10433000100EF36E030EF3CFDBFF100EF36E040EC0
:10434000F3CFDBFF100EF36E050EF3CFDBFF100E85
:10435000F36E060EF3CFDBFF070EDB6A200EF36E63
:10436000080EF3CFDBFF090EDB6A0C0EF36E0A0EAC
:10437000F3CFDBFF0B0EDB6A010EDBCF08F0020E82
:10438000DBCF09F00E0E08C0DBFF0F0E09C0DBFF0C
:10439000090EDBCF14F0040EE76E1418E8AE02D05D
:1043A000E73402D0E750145C01E377D00E0EDBCF88
:1043B00016F00F0EDBCF17F00A0EDB5016C014F00C
:1043C00017C015F005E0D89015321432E804FBE16F
:1043D0000C0E14C0DBFF0D0E15C0DBFFD950030F10
:1043E0001C6EDACF1DF0090EDBCF1EF01F6A1EBE59
:1043F0001F681C501E24E96E1D501F20EA6EEFCF6F
:104400001AF01B6A1ABE1B680C0EDB501A10186ECD
:104410000D0EDB501B10196ED950030F146EDACF3E
:1044200015F0090EDBCF16F0176A16BE1768145088
:104430001624E96E15501720EA6E18C0EFFF0C0E17
:10444000DBCF18F00D0EDBCF19F00A0EDB5018C0D1
:1044500016F019C017F005E0D89016361736E804A4
:10446000FBE10E0EDBCF08F00F0EDBCF09F016508C
:10447000085C146E17500958156E0E0E14C0DBFF41
:104480000F0E15C0DBFF0A0EDB50FC0FE76E0A0EA5
:10449000E7CFDBFF090EDB2A7BD7D950030F1C6E59
:1044A000DACF1DF0090EDBCF1EF01F6A1EBE1F689B
:1044B0001C501E24E96E1D501F20EA6EEFCF1AF02B
:1044C0001B6A1ABE1B680C0EDB501A10186E0D0EFC
:1044D000DB501B10196ED950030F146EDACF15F094
:1044E000090EDBCF16F0176A16BE17681450162493
:1044F000E96E15501720EA6E18C0EFFF4B0EE66EFE
:1045000089EC2FF0E552640EE66E7AEC32F0E5525B
:104510005E0EE66E89EC2FF0E552640EE66E7AECE4
:1045200032F0E5520B0EDBCF14F0040EE76E1418D8
:10453000E8AE02D0E73402D0E750145C1EE2D95056
:10454000030F146EDACF15F00B0EDBCF16F0176ADF
:1045500016BE176814501624E96E15501720EA6E1F
:10456000EF50E66E89EC2FF0E5520B0EDB2A640E5D
:10457000E66E7AEC32F0E552D5D7640EE66E7AEC50
:1045800032F0E552DFCFE6FF89EC2FF0E552640E02
:10459000E66E7AEC32F0E5524F0EE66E89EC2FF0C3
:1045A000E552640EE66E7AEC32F0E552100EE15CF4
:1045B00003E200D0E16AE552E16EE552E7CFD9FFB0
:1045C00012004B0EE66E89EC2FF0E552040EE66EFB
:1045D0007AEC32F0E5525E0EE66E89EC2FF0E55291
:1045E000040EE66E7AEC32F0E5527E0EE66E89EC51
:1045F0002FF0E552040EE66E7AEC32F0E5524F0EE3
:10460000E66E89EC2FF0E55200D01200D9CFE6FF1C
:10461000E1CFD9FF030EE126010EDB6AFD0EDBCFF1
:10462000E9FFFE0EDBCFEAFFEF505E0801E0F9D0B4
:10463000FD0EDB2AFE0E01E3DB2ADF6AFD0EDBCF77
:10464000E9FFFE0EDBCFEAFFEF507E0809E1F50E31
:10465000DBCFE9FFF60EDBCFEAFF010EEF6EE1D014
:10466000FD0EDBCFE9FFFE0EDBCFEAFFEF50F00BD4
:10467000E76E020EE7CFDBFFDB5020082AE1DFCF39
:1046800014F0030EE76E1418E8AE02D0E73402D03F
:10469000E750145C1EE2FD0EDBCFE9FFFE0EDBCF20
:1046A000EAFFEF500F0BE66EFB0EDBCFE9FFFC0ECF
:1046B000DBCFEAFFE552E750EF6EFB0EDB2AFC0E84
:1046C00001E3DB2AFD0EDB2AFE0E01E3DB2ADF2AF3
:1046D000D6D7F70EDBCFE9FFF80EDBCFEAFFEF6AA4
:1046E000DF6AFD0EDBCFE9FFFE0EDBCFEAFFEF5006
:1046F000F00BE76E020EE7CFDBFFDB50300805E082
:10470000020EDB50400801E08BD0DFCF14F0020E28
:10471000E76E1418E8AE02D0E73402D0E750145C1C
:104720006CE2F70EDBCFE9FFF80EDBCFEAFFEF38E4
:10473000F00BE66EF70EDBCFE9FFF80EDBCFEAFFFA
:10474000E552E750EF6E020EDB50300824E1FD0E1B
:10475000DBCFE9FFFE0EDBCFEAFFEF50D00F146E88
:10476000F70EDBCFE9FFF80EDBCFEAFFEF501410B6
:10477000E66EF70EDBCFE9FFF80EDBCFEAFFE5527E
:10478000E750EF6EF70EDBCFE9FFF80EDBCFEAFF65
:10479000EF5001E1DF2A020EDB5040081BE1FD0E65
:1047A000DBCFE9FFFE0EDBCFEAFFEF50C90F146E3F
:1047B000F70EDBCFE9FFF80EDBCFEAFFEF50141066
:1047C000E66EF70EDBCFE9FFF80EDBCFEAFFE5522E
:1047D000E750EF6EFD0EDB2AFE0E01E3DB2AFD0E35
:1047E000DBCFE9FFFE0EDBCFEAFFEF50F00BE76E09
:1047F000020EE7CFDBFFDF2A88D7FD0EDBCFE9FF14
:10480000FE0EDBCFEAFFEF500F0BE66EF90EDBCFAB
:10481000E9FFFA0EDBCFEAFFE552E750EF6E01D079
:1048200000D0030EE15C02E2E16AE552E16EE5527E
:10483000E7CFD9FF1200020EE66E5EEC32F0E552D1
:10484000040EE66E7AEC32F0E55200000000000043
:104850000000000000000000000000001200010E37
:10486000E66E5EEC32F0E552020EE66E7AEC32F065
:10487000E55200001200020EE66E5EEC32F0E552E8
:10488000040EE66E7AEC32F0E55200000000000003
:0A489000000000000000000012000C
:06489A001200D9CFE6FF79
:1048A000E1CFD9FFE652F70EDBCFE9FFF80EDBCF01
:1048B000EAFF040EE926000EEA22EF5001E0C9D01B
:1048C000030E01015C5D01E092D0F70EDBCFE9FF42
:1048D000F80EDBCFEAFF030EE926000EEA22010EF6
:1048E000EF6EF70EDBCFE9FFF80EDBCFEAFF030E2A
:1048F000E926000EEA22EF5001E1F3D7F70EDBCFF5
:10490000E9FFF80EDBCFEAFF030EE926000EEA22EC
:10491000EF50E66E5DC1E9FFEA6AE9BEEA68500E53
:10492000E926010EEA22E552E750EF6E0C0E010176
:10493000E76E5D19E8AE02D0E73402D0E7505D5D66
:1049400027E25D2B030E5C6FFB0EDBCFE9FFFC0E55
:10495000DBCFEAFF020EE926000EEA22520EEF6ECE
:10496000FB0EDBCFE9FFFC0EDBCFEAFFF40EEE6EB1
:10497000010EED6EF70EDBCFE9FFF80EDBCFEAFF9D
:10498000040EE926000EEA22010EEF6E64D060D01C
:10499000FD0EDBCFE6FFFE0EDBCFE6FF500EE66E30
:1049A000010EE66E5DD8E552E552E552E552DF6E46
:1049B00001015D6BDFCF14F0320EE76E1418E8AE24
:1049C00002D0143403D0E750D88014540CE2FD0E0A
:1049D000DBCFE9FFFE0EDBCFEAFF070EE926000E74
:1049E000EA22010EEF6E010E5C6F000E34D05C0502
:1049F00028E1F60EDB5018E1F70EDBCFE6FFF80EEC
:104A0000DBCFE6FFFB0EDBCFE6FFFC0EDBCFE6FFE6
:104A1000F90EDBCFE6FFFA0EDBCFE6FF87D8146E88
:104A2000060EE15E14500CD0F60EDB0409E1FB0E1D
:104A3000DBCFE6FFFC0EDBCFE6FF60D9E552E552A7
:104A400007D0020E5C5D04E1010E5C6F000E03D026
:104A500002D0000E00D0E552E552E7CFD9FF120098
:104A6000D9CFE6FFE1CFD9FF030EE126010EDB6AC5
:104A7000020EDB6ADF6ADFCF14F00C0EE76E14184B
:104A8000E8AE02D0E73402D0E750145C30E2DFCF6A
:104A900015F0166A15BE1668FD0EDB501524E96E7A
:104AA000FE0EDB501620EA6EEFCF14F0020EDB5044
:104AB000E76E1418E8AE02D0143403D0E750D88063
:104AC000145413E2010EDFCFDBFFDFCF14F0156AC1
:104AD00014BE1568FD0EDB501424E96EFE0EDB508B
:104AE0001520EA6E020EEFCFDBFFDF2AC4D7FB0EE4
:104AF000DBCFE9FFFC0EDBCFEAFFEE52010EDBCF8E
:104B0000EFFF020EDBCF60F1010EDBCF5FF1020E93
:104B1000DB50146E030EE15C03E200D0E16AE55263
:104B2000E16E1450E552E7CFD9FF1200D9CFE6FF6E
:104B3000E1CFD9FFFD0EDBCFE9FFFE0EDBCFEAFFB1
:104B4000EE52EF50550831E1FB0EDBCFE9FFFC0ED2
:104B5000DBCFEAFFF40EEE6E010EED6EFD0EDBCF45
:104B6000E9FFFE0EDBCFEAFFEE52EF50E66EFB0EE2
:104B7000DBCFE9FFFC0EDBCFEAFF020EE926000ED9
:104B8000EA22E552E750EF6E0101020E5C6FF90E6A
:104B9000DBCFE9FFFA0EDBCFEAFF040EE926000EB9
:104BA000EA22010EEF6EA6D0A5D0FD0EDBCFE9FF05
:104BB000FE0EDBCFEAFFEE52EF50420824E1FB0E7F
:104BC000DBCFE9FFFC0EDBCFEAFFF40EEE6E010E49
:104BD000ED6EFD0EDBCFE9FFFE0EDBCFEAFFEE52FE
:104BE000EF50E66EFB0EDBCFE9FFFC0EDBCFEAFFFA
:104BF000020EE926000EEA22E552E750EF6E0101AF
:104C0000020E5C6F77D0FD0EDBCFE9FFFE0EDBCF2F
:104C1000EAFFEE52EF50520824E1FB0EDBCFE9FF32
:104C2000FC0EDBCFEAFFF40EEE6E010EED6EFD0E14
:104C3000DBCFE9FFFE0EDBCFEAFFEE52EF50E66E70
:104C4000FB0EDBCFE9FFFC0EDBCFEAFF020EE9260D
:104C5000000EEA22E552E750EF6E0101020E5C6F92
:104C600049D0FD0EDBCFE9FFFE0EDBCFEAFFEE52AF
:104C7000EF504C0824E1FB0EDBCFE9FFFC0EDBCF4D
:104C8000EAFFF40EEE6E010EED6EFD0EDBCFE9FFD6
:104C9000FE0EDBCFEAFFEE52EF50E66EFB0EDBCFEF
:104CA000E9FFFC0EDBCFEAFF020EE926000EEA2246
:104CB000E552E750EF6E0101020E5C6F1BD0FD0E56
:104CC000DBCFE9FFFE0EDBCFEAFFEE52EF504608E6
:104CD00004E10101030E5C6F0DD0FD0EDBCFE9FF97
:104CE000FE0EDBCFEAFFEE52EF50480803E1010170
:104CF000030E5C6FE552E7CFD9FF1200D9CFE6FF74
:104D0000E1CFD9FF0C0EE12601015E0503E0020EA2
:104D10005E5D04E1030E5C6F5E6F9CD0030E5E5D12
:104D20002CE1FD0EDBCFE9FFFE0EDBCFEAFF020E2A
:104D3000E926000EEA22520EEF6E5FC114F0156AEA
:104D400014BE1568F40E1502F3CF15F01450152695
:104D5000F40E1402F3CF14F0F4501526FD0EDBCF41
:104D6000E9FFFE0EDBCFEAFF14C0EEFF15C0EDFF3A
:104D7000020E5C6F040E5E6F6DD0040E5E5D6AE124
:104D8000640EDE6EDD6AC80EF36E020EF3CFDBFF3B
:104D9000030EDB6A2C0EF36E040EF3CFDBFF010E65
:104DA000F36E050EF3CFDBFF900EF36E060EF3CF1E
:104DB000DBFF010EF36E070EF3CFDBFFF40EF36E95
:104DC000080EF3CFDBFF010EF36E090EF3CFDBFF0E
:104DD000580EF36E0A0EF3CFDBFF020EF36E0B0ECE
:104DE000F3CFDBFFFD0EDBCFE9FFFE0EDBCFEAFFEB
:104DF000020EE926000EEA22460EEF6ED9CF16F01B
:104E0000DACF17F00A0E1A6E1AC00EF060C109F060
:104E1000D5EC2EF009C018F0196A18BE1968D890A0
:104E20001836193616501824E96E17501920EA6EF4
:104E3000EECF14F0EFCF15F0FD0EDBCFE9FFFE0E45
:104E4000DBCFEAFF14C0EEFF15C0EDFF0101020E3B
:104E50005C6F5E6F0C0EE15C02E2E16AE552E16EAE
:084E6000E552E7CFD9FF120073
:084E6800F29EF29C6BEC2DF0B0
:104E70003DEC21F00001806B0A0E826F836B846F22
:104E8000856B866F876B886F896B8A6F8B6B8C6F76
:104E90008D6B8E6F8F6B906F916B926B936B946B2E
:104EA000956B976B986F1E0E996F140E9A6F0A0E82
:104EB0009B6F010E9C6F9D6F9E6B9F6BA06BA16B98
:104EC000A26BA36BA46BA56B01016F6B0001550E68
:104ED000816FBA6BC5C0EEF0EF6BEEBFEF69C3C078
:104EE000EEF0C4C0EFF0E80EC36F030EC46F620EA5
:104EF000C56FF28CD08EF28E800EE66E000EE66EDE
:104F0000E50EE66E000EE66E7FEC2DF0E552E55202
:104F1000E552E55280C096F082C0A6F083C0A7F0AB
:104F200084C0A8F085C0A9F086C0AAF087C0ABF005
:104F300088C0ACF089C0ADF08CC0B0F08DC0B1F0CD
:104F40008EC0B2F08FC0B3F090C0B4F091C0B5F095
:104F50008AC0AEF08BC0AFF00001C60524E1EA0EB6
:104F6000E66E000EE66EE90EE66E000EE66E700E60
:104F7000E66E010EE66EE60EE66E000EE66EC70EFB
:104F8000E66E000EE66E06EC23F0146E0A0EE15E8D
:104F90001450E6C0B6F0E7C0B7F0E8C0B8F070C192
:104FA000BAF00001C66B80C0E6FF6FC1E6FF21D9F1
:104FB000E552E55201016F6F440E0001815D04E18D
:104FC000EE2B000EEF2306D0550E815D03E1EE2B94
:104FD000000EEF236FC1E6FFB60EE66E000EE66E22
:104FE000800EE66E000EE66EC30EE66E000EE66EF6
:104FF000960EE66E000EE66E4EEC24F0146E090E70
:10500000E15E14500101736F960EE66E000EE66EBF
:10501000B3EC2DF0E552E5520101735111E00001AE
:10502000EE2B000EEF23C3C0E6FFC4C0E6FFC5C0F1
:10503000E6FF83EC21F0E552E552E5520101736B86
:105040005BD71200DACFE4FFE2CFDAFFE9CFE4FF6B
:10505000EACFE4FFF6CFE4FFF7CFE4FFF5CFE4FFBC
:10506000F3CFE4FFF4CFE4FFFACFE4FF00EE00F06B
:10507000140EE80403E3EECFE4FFFBD700EE14F0D8
:105080000C0EE80403E3EECFE4FFFBD7E652F2A4F4
:1050900008D0F294F29AD59E010E0101716F726BE5
:1050A00010D09EAA09D0E50EE66E000EE66E78ECF2
:1050B0002BF0E552E55205D0A1A003D0A19004EC5D
:1050C00029F0E55200EE1FF00C0EE80403E3E5CFF3
:1050D000EDFFFBD700EE13F0140EE80403E3E5CF79
:1050E000EDFFFBD7E5CFFAFFE5CFF4FFE5CFF3FF08
:1050F000E5CFF5FFE5CFF7FFE5CFF6FFE5CFEAFF18
:10510000E5CFE9FFE5CFDAFF1100DACFE4FFE2CF28
:10511000DAFFE9CFE4FFEACFE4FFF6CFE4FFF7CF11
:10512000E4FFF5CFE4FFF3CFE4FFF4CFE4FFFACFE1
:10513000E4FF00EE00F0140EE80403E3EECFE4FF1A
:10514000FBD700EE14F00C0EE80403E3EECFE4FF0F
:10515000FBD7E652F29EF0A210D0C60EE66E000E0D
:10516000E66EC70EE66E000EE66E4BEC21F0E552E1
:10517000E552E552E552F09217D081A00AD0F292A2
:10518000E50EE66E000EE66E46EC2CF0E552E552BA
:105190000BD081A209D0F090E50EE66E000EE66E0F
:1051A000E1EC2AF0E552E552F28EE55200EE1FF0F6
:1051B0000C0EE80403E3E5CFEDFFFBD700EE13F0A0
:1051C000140EE80403E3E5CFEDFFFBD7E5CFFAFFCC
:1051D000E5CFF4FFE5CFF3FFE5CFF5FFE5CFF7FF30
:1051E000E5CFF6FFE5CFEAFFE5CFE9FFE5CFDAFF50
:1051F0001100D9CFE6FFE1CFD9FFFD0EDB5000D083
:08520000E552E7CFD9FF1200CF
:0852080082A406D0829478C153
:10521000BCFF7AC1BBFF07D082B405D0828474C1C1
:10522000BCFF76C1BBFF1200BB6A890EB16E8294CF
:1052300094940B0EBA6EA190A080A290120082846A
:10524000110EBC6E170EBB6E1200D9CFE6FFE1CF78
:10525000D9FFFD0EDBCFE6FFFE0EDBCFE6FF0FD85A
:10526000E552E552FD0EDBCFE6FFFE0EDBCFE6FF9B
:1052700098D8E552E552E552E7CFD9FF1200D9CFD1
:10528000E6FFE1CFD9FFFD0EDBCF14F0FE0EDBCF42
:1052900015F00001800E151410E1FD0EDBCF16F0A5
:1052A000FE0EDBCF17F0D890175004E6170E165CF1
:1052B000000E175802E22FD970D0FD0EDBCF14F08C
:1052C000FE0EDBCF15F0D890155004E6170E145CD7
:1052D000000E15580FE3FD0EDBCF16F0FE0EDBCFF0
:1052E00017F0173404E216504408000E175402E376
:1052F0001AD953D0FD0EDBCF14F0FE0EDBCF15F024
:10530000153404E214504408000E15540FE2FD0E4B
:10531000DBCF16F0FE0EDBCF17F0173404E2165089
:105320007108000E175402E306D937D0FD0EDBCF0B
:1053300014F0FE0EDBCF15F0153404E214507108A2
:10534000000E15540FE2FD0EDBCF16F0FE0EDBCF84
:1053500017F0173404E216509E08000E175402E3AB
:10536000F2D81BD0FD0EDBCF14F0FE0EDBCF15F014
:10537000153404E214509E08000E15540EE2FD0E82
:10538000DBCF16F0FE0EDBCF17F0173404E2165019
:10539000B408000E175401E3DED8E552E7CFD9FF79
:1053A0001200D9CFE6FFE1CFD9FFFD0EDBCF14F01D
:1053B000FE0EDBCF15F00001800E151410E1FD0E7E
:1053C000DBCF16F0FE0EDBCF17F0D890175004E6B7
:1053D000170E165C000E175802E275D870D0FD0E3D
:1053E000DBCF14F0FE0EDBCF15F0D890155004E69D
:1053F000170E145C000E15580FE3FD0EDBCF16F0F0
:10540000FE0EDBCF17F0173404E216504408000EEE
:10541000175402E360D853D0FD0EDBCF14F0FE0E1C
:10542000DBCF15F0153404E214504408000E155477
:105430000FE2FD0EDBCF16F0FE0EDBCF17F01734B8
:1054400004E216507108000E175402E34CD837D00E
:10545000FD0EDBCF14F0FE0EDBCF15F0153404E2A9
:1054600014507108000E15540FE2FD0EDBCF16F03C
:10547000FE0EDBCF17F0173404E216509E08000E24
:10548000175402E338D81BD0FD0EDBCF14F0FE0E0C
:10549000DBCF15F0153404E214509E08000E1554AD
:1054A0000EE2FD0EDBCF16F0FE0EDBCF17F0173449
:1054B00004E21650B408000E175401E324D8E55254
:1054C000E7CFD9FF1200090E0101746F756BC40E8E
:1054D000766F776B12000E0E0101746F756BA60E5E
:1054E000766F776B1200110E0101746F756B170EDA
:1054F000766F776B1200130E0101746F756B880E57
:10550000766F776B12001A0E0101746F756BDB0EEC
:10551000766F776B1200B90E0101786F796B8C0E84
:105520007A6F7B6B1200B40E0101786F796BAA0E53
:105530007A6F7B6B1200B20E0101786F796B390EB6
:105540007A6F7B6B1200AF0E0101786F796BC80E1A
:105550007A6F7B6B1200A80E0101786F796B750E64
:065560007A6F7B6B120064
:0A556600F18E816A1F0E936E948689
:105570000F0EC16EF288F292F18CF086F08CF090F2
:10558000F18AF098F092F290F296F1801200D9CF61
:10559000E6FFE1CFD9FFFD0EDBCFF6FFFE0EDBCF3E
:1055A000F7FF0800F550E66EFB0EDBCFE9FFFC0EBF
:1055B000DBCFEAFFE552E750EF6EE552E7CFD9FFC8
:1055C0001200D9CFE6FFE1CFD9FF80A810D0FD0EA1
:1055D000DBCFE6FFFE0EDBCFE6FF770EE66E420E78
:1055E000E66ED5DFE552E552E552E5527DD080AA60
:1055F00010D0FD0EDBCFE6FFFE0EDBCFE6FF750E13
:10560000E66E420EE66EC3DFE552E552E552E55224
:105610006BD081A610D0FD0EDBCFE6FFFE0EDBCFF8
:10562000E6FF730EE66E420EE66EB1DFE552E5521E
:10563000E552E55259D082A610D0FD0EDBCFE6FF31
:10564000FE0EDBCFE6FF710EE66E420EE66E9FDFCA
:10565000E552E552E552E55247D080A010D0FD0E4C
:10566000DBCFE6FFFE0EDBCFE6FF6F0EE66E420EEF
:10567000E66E8DDFE552E552E552E55235D080A663
:1056800010D0FD0EDBCFE6FFFE0EDBCFE6FF6D0E8A
:10569000E66E420EE66E7BDFE552E552E552E552DC
:1056A00023D080A210D0FD0EDBCFE6FFFE0EDBCFB5
:1056B000E6FF6B0EE66E420EE66E69DFE552E552DE
:1056C000E552E55211D080A40FD0FD0EDBCFE6FFEE
:1056D000FE0EDBCFE6FF690EE66E420EE66E57DF8A
:1056E000E552E552E552E552E552E7CFD9FF120007
:1056F000D9CFE6FFE1CFD9FF7F0EAE5C10E1FD0E02
:10570000DBCFE6FFFE0EDBCFE6FF770EE66E420E46
:10571000E66E3DDFE552E552E552E55284D00D0ECE
:10572000AE5C10E1FD0EDBCFE6FFFE0EDBCFE6FF49
:10573000750EE66E420EE66E2ADFE552E552E55240
:10574000E55271D0660EAE5C10E1FD0EDBCFE6FFD8
:10575000FE0EDBCFE6FF730EE66E420EE66E17DF3F
:10576000E552E552E552E5525ED0680EAE5C10E1BE
:10577000FD0EDBCFE6FFFE0EDBCFE6FF710EE66E21
:10578000420EE66E04DFE552E552E552E5524BD09B
:10579000610EAE5C10E1FD0EDBCFE6FFFE0EDBCF4F
:1057A000E6FF6D0EE66E420EE66EF1DEE552E55264
:1057B000E552E55238D0640EAE5C10E1FD0EDBCF51
:1057C000E6FFFE0EDBCFE6FF6F0EE66E420EE66EE4
:1057D000DEDEE552E552E552E55225D0730EAE5CB1
:1057E00010E1FD0EDBCFE6FFFE0EDBCFE6FF6B0E1A
:1057F000E66E420EE66ECBDEE552E552E552E5522C
:1058000012D0770EAE5C0FE1FD0EDBCFE6FFFE0E91
:10581000DBCFE6FF690EE66E420EE66EB8DEE552BD
:10582000E552E552E552E552E7CFD9FF1200D9CF54
:10583000E6FFE1CFD9FFE652FD0EDBCFE9FFFE0E1A
:10584000DBCFEAFFEFCFDFFFFD0EDBCFE9FFFE0E80
:10585000DBCFEAFFEF6ADF5000D0E552E552E7CF39
:10586000D9FF1200D9CFE6FFE1CFD9FFFD0EDBCF84
:10587000E9FFFE0EDBCFEAFFEF6AE552E7CFD9FF83
:10588000120081A800D081B800D01200D9CFE6FF65
:10589000E1CFD9FFFD0EDBCFE6FFFE0EDBCFE6FF4B
:0E58A000E1DFE552E552E552E7CFD9FF1200F5
:0258AE002B0EBF
:1058B000E66EFCEC2CF0E5521200D9CFE6FFE1CF0A
:1058C000D9FFB5EC31F0000901E0FBD7800EE66EA0
:1058D000FDEC30F0E552B5EC31F0000901E0FBD70A
:1058E000FD0EDBCF14F0FE0EDBCF15F0166A14C0F0
:1058F000E6FF15C0E6FF16C0E6FF1FEC30F0E552EC
:10590000E552E552E552E7CFD9FF1200D9CFE6FFC5
:10591000E1CFD9FFB5EC31F0000901E0FBD7800EF3
:10592000E66EFDEC30F0E552B5EC31F0000901E037
:10593000FBD7FD0EDBCFE6FFFE0EDBCFE6FF24EC50
:1059400031F0E552E552E552E7CFD9FF1200D9CF49
:10595000E6FFE1CFD9FFB5EC31F0000901E0FBD75C
:10596000C00EE66EFDEC30F0E552B5EC31F000090A
:1059700001E0FBD7FD0EDBCF14F0FE0EDBCF15F000
:10598000166A14C0E6FF15C0E6FF16C0E6FF1FEC5E
:1059900030F0E552E552E552E552E7CFD9FF12006B
:1059A000D9CFE6FFE1CFD9FFB5EC31F0000901E036
:1059B000FBD7C00EE66EFDEC30F0E552B5EC31F0F1
:1059C000000901E0FBD7FD0EDBCFE6FFFE0EDBCFCB
:1059D000E6FF24EC31F0E552E552E552E7CFD9FF7E
:1059E0001200B5EC31F0000901E0FBD7010EE66EC4
:0859F000FDEC30F0E55212005D
:0859F800D9CFE6FFE1CFD9FF92
:105A00000F0E831695169592959495908C928C9482
:105A10008C90E9EC2DF0300EE66EFDEC30F0E552A6
:105A2000050EE66EF2EC31F0E552300EE66EFDEC5E
:105A300030F0E552010EE66EF2EC31F0E552320E36
:105A4000E66EFDEC30F0E552B5EC31F0000901E016
:105A5000FBD7B5EC31F0000901E0FBD7FE0EDBCF40
:105A6000E6FFFDEC30F0E552B5EC31F0000901E065
:105A7000FBD7080EE66EFDEC30F0E552B5EC31F0E8
:105A8000000901E0FBD70C0EE66EFDEC30F0E552AC
