:020000040000FA
:060000009FEF32F0120038
:020006001200E6
:06000800C6EF28F0120013
:02000E001200DE
:020010001200DC
:0600180057EF28F0120072
:02001E000500DB
:100020004B4200007F01000001000000ED65000070
:10003000DB00000011000000E66500007301000015
:1000400007000000DE6500006B01000008000000F2
:0C005000D56500005A0100000900000006
:04005C00D9CFE6FF13
:10006000E1CFD9FFFD0EDBCFE9FFFE0EDBCFEAFFCC
:10007000EFCF14F0730E01017625E96E010E7721A2
:10008000EA6EEF50145C11E1762B000E7723020E1E
:10009000761901E1775105E1020EF36EF46A0AD098
:1000A00009D0010EF36EF46A05D0766B776BF36AB4
:1000B000F46A00D0E552E7CFD9FF1200D9CFE6FFAE
:1000C000E1CFD9FFFD0EDBCFE9FFFE0EDBCFEAFF6C
:1000D000EE50ED100EE1960ED56EF28AF294F19488
:1000E000FD0EDBCFE9FFFE0EDBCFEAFF010EEE6E69
:1000F000ED6A0101605161110FE0606B616BFD0EF3
:10010000DBCFE9FFFE0EDBCFEAFFEE6AED6A010E00
:10011000F36EF46A04D003D0F36AF46A00D0E552B7
:10012000E7CFD9FF1200D9CFE6FFE1CFD9FFFB0E11
:10013000DBCFE9FFFC0EDBCFEAFFEE50ED1001E074
:10014000BCD1FD0EDBCFE9FFFE0EDBCFEAFFEF50A7
:10015000030A01E118D1010A01E1BCD0030A61E000
:10016000010A01E069D1F90EDBCFE9FFFA0EDBCF1E
:10017000EAFFEECF08F0EDCF09F0010E081801E11B
:10018000095026E0085001E1095001E049D0780EFD
:10019000E66E010EE66E92DFE552E552F3CF14F003
:1001A000F4CF15F01450151012E0F90EDBCFE9FF73
:1001B000FA0EDBCFEAFF010EEE6EED6AF30EDBCF37
:1001C000E9FFF40EDBCFEAFF010EEE6EED6A28D0F8
:1001D000780EE66E010EE66E71DFE552E552F3CF62
:1001E00014F0F4CF15F01450151019E0FD0EDBCF0C
:1001F000E9FFFE0EDBCFEAFF010EEF6EF90EDBCF5B
:10020000E9FFFA0EDBCFEAFFEE6AED6AF30EDBCF11
:10021000E9FFF40EDBCFEAFF010EEE6EED6A00D0CF
:100220000BD1F90EDBCFE9FFFA0EDBCFEAFFEECF01
:1002300008F0EDCF09F0010E081801E1095026E0A1
:10024000085001E1095001E044D0780EE66E010E3D
:10025000E66E34DFE552E552F3CF14F0F4CF15F03B
:100260001450151012E0F90EDBCFE9FFFA0EDBCFC8
:10027000EAFF010EEE6EED6AF30EDBCFE9FFF40E3E
:10028000DBCFEAFF010EEE6EED6A23D0F50EDBCF79
:10029000E9FFF60EDBCFEAFFEF50410819E1FB0E54
:1002A000DBCFE9FFFC0EDBCFEAFF010EEE6EED6A5D
:1002B000F90EDBCFE9FFFA0EDBCFEAFFEE6AED6A5B
:1002C000F70EDBCFE9FFF80EDBCFEAFFEE6AED6A4F
:1002D00000D0B2D0F90EDBCFE9FFFA0EDBCFEAFF98
:1002E000EECF08F0EDCF09F0010E081801E109503A
:1002F00026E0085001E1095001E044D0780EE66E96
:10030000010EE66EDBDEE552E552F3CF14F0F4CFDA
:1003100015F01450151012E0F90EDBCFE9FFFA0EBC
:10032000DBCFEAFF010EEE6EED6AF30EDBCFE9FFE5
:10033000F40EDBCFEAFF010EEE6EED6A23D0F50E70
:10034000DBCFE9FFF60EDBCFEAFFEF50410819E102
:10035000FB0EDBCFE9FFFC0EDBCFEAFF010EEE6EFA
:10036000ED6AF90EDBCFE9FFFA0EDBCFEAFFEE6AAA
:10037000ED6AF70EDBCFE9FFF80EDBCFEAFFEE6A9E
:10038000ED6A00D059D0F90EDBCFE9FFFA0EDBCFD2
:10039000EAFFEECF08F0EDCF09F0010E081801E1F9
:1003A000095026E0085001E1095001E044D0780EE0
:1003B000E66E010EE66E82DEE552E552F3CF14F0F2
:1003C000F4CF15F01450151012E0F90EDBCFE9FF51
:1003D000FA0EDBCFEAFF010EEE6EED6AF30EDBCF15
:1003E000E9FFF40EDBCFEAFF010EEE6EED6A23D0DB
:1003F000F50EDBCFE9FFF60EDBCFEAFFEF50410849
:1004000019E1FB0EDBCFE9FFFC0EDBCFEAFF010EAB
:10041000EE6EED6AF90EDBCFE9FFFA0EDBCFEAFFF5
:10042000EE6AED6AF70EDBCFE9FFF80EDBCFEAFFED
:10043000EE6AED6A00D000D0F50EDBCFE9FFF60ED4
:10044000DBCFEAFFEF50410809E0F50EDBCFE9FF13
:10045000F60EDBCFEAFFEF5042081BE1FD0EDBCFCB
:10046000E9FFFE0EDBCFEAFFEE52EF6AF50EDBCFBF
:10047000E9FFF60EDBCFEAFFEF50410809E1F30E8A
:10048000DBCFE9FFF40EDBCFEAFF010EEE6EED6A83
:1004900012D0F50EDBCFE9FFF60EDBCFEAFFEF500F
:1004A000E66EFD0EDBCFE9FFFE0EDBCFEAFFEE527C
:1004B000E552E750EF6E4AEF0BF0FB0EDBCFE9FFA2
:1004C000FC0EDBCFEAFF010EEE1801E1ED5002E079
:1004D0004AEF0BF0FD0EDBCFE9FFFE0EDBCFEAFFAC
:1004E000EF50030A01E13DD3010A01E117D2030AEB
:1004F00002E00CEF0BF0F90EDBCFE9FFFA0EDBCFD9
:10050000EAFFEECF08F0EDCF09F0020E081801E186
:10051000095001E1FDD0010E081801E1095026E063
:10052000085001E1095001E0F7D1780EE66E010EA6
:10053000E66EC4DDE552E552F3CF14F0F4CF15F0CA
:100540001450151012E0F90EDBCFE9FFFA0EDBCFE5
:10055000EAFF010EEE6EED6AF30EDBCFE9FFF40E5B
:10056000DBCFEAFF010EEE6EED6AD6D1F50EDBCFE2
:10057000E9FFF60EDBCFEAFFEF50410843E1F70E4B
:10058000DBCFE9FFF80EDBCFEAFF030EEE1801E147
:10059000ED500AE0F90EDBCFE9FFFA0EDBCFEAFF00
:1005A000020EEE6EED6A2ED0F70EDBCFE9FFF80EED
:1005B000DBCFEAFF030EEE1801E1ED5023E1FD0E63
:1005C000DBCFE9FFFE0EDBCFEAFF020EEF6EF90E86
:1005D000DBCFE9FFFA0EDBCFEAFFEE6AED6AF70E3A
:1005E000DBCFE9FFF80EDBCFEAFFEE6AED6AFD0E26
:1005F000DBCFE9FFFE0EDBCFEAFF0B0EE926000E94
:10060000EA22EF6AF50EDBCFE9FFF60EDBCFEAFF59
:10061000EF50420818E1FB0EDBCFE9FFFC0EDBCF09
:10062000EAFFEE6AED6AF90EDBCFE9FFFA0EDBCFE7
:10063000EAFFEE6AED6AF70EDBCFE9FFF80EDBCFDB
:10064000EAFFEE6AED6AF50EDBCFE9FFF60EDBCFCF
:10065000EAFFEF50550828E1F70EDBCFE9FFF80E6F
:10066000DBCFEAFFEECF14F0EFCF15F0153404E244
:1006700014500008000E155417E2F70EDBCFE9FF07
:10068000F80EDBCFEAFFEECF14F0EFCF15F0140633
:10069000000E155AF70EDBCFE9FFF80EDBCFEAFFAD
:1006A00014C0EEFF15C0EDFFF50EDBCFE9FFF60E2F
:1006B000DBCFEAFFEF5044082AE1F70EDBCFE9FF7A
:1006C000F80EDBCFEAFFEECF14F0EFCF15F0D890A5
:1006D000155004E6040E145C000E155818E2F70ECF
:1006E000DBCFE9FFF80EDBCFEAFFEECF14F0EFCF60
:1006F00015F0010E1426000E1522F70EDBCFE9FFD0
:10070000F80EDBCFEAFF14C0EEFF15C0EDFF04D1F9
:10071000F70EDBCFE9FFF80EDBCFEAFFEECF08F0F4
:10072000EDCF09F0040E081801E1095001E1A3D052
:10073000020E081801E1095047E0010E081801E116
:10074000095024E0085001E1095001E0E4D0FD0E19
:10075000DBCFE9FFFE0EDBCFEAFF0A0EE926000E33
:10076000EA22010EEF6EF90EDBCFE9FFFA0EDBCFC6
:10077000EAFF010EEE6EED6AF30EDBCFE9FFF40E39
:10078000DBCFEAFF010EEE6EED6AC5D0FD0EDBCFCA
:10079000E9FFFE0EDBCFEAFF0A0EE926000EEA2291
:1007A000EF6AF90EDBCFE9FFFA0EDBCFEAFF010EAD
:1007B000EE6EED6AF30EDBCFE9FFF40EDBCFEAFF5E
:1007C000010EEE6EED6AA7D0F50EDBCFE9FFF60E57
:1007D000DBCFEAFFEF504C0819E1FD0EDBCFE9FF5C
:1007E000FE0EDBCFEAFF020EE926000EEA22EF043E
:1007F000E66EFD0EDBCFE9FFFE0EDBCFEAFF020E59
:10080000E926000EEA22E552E750EF6EF50EDBCF47
:10081000E9FFF60EDBCFEAFFEF50520819E1FD0EBB
:10082000DBCFE9FFFE0EDBCFEAFF020EE926000E6A
:10083000EA22EF28E66EFD0EDBCFE9FFFE0EDBCFEE
:10084000EAFF020EE926000EEA22E552E750EF6EBB
:10085000F50EDBCFE9FFF60EDBCFEAFFEF504208E3
:1008600009E1F90EDBCFE9FFFA0EDBCFEAFF010E5B
:10087000EE6EED6A50D0F50EDBCFE9FFF60EDBCF62
:10088000EAFFEF5047E0F50EDBCFE6FFF60EDBCFD9
:10089000E6FF2EEC00F0E552E552F3CF7CF1F4CF09
:1008A0007DF101017C517D1112E1F90EDBCFE9FFF1
:1008B000FA0EDBCFEAFF010EEE6EED6A2C0EE66E4D
:1008C000420EE66EEEEC18F0E552E55223D0010E32
:1008D0007C1901E17D5101E11DD0020E7C1901E17D
:1008E0007D5118E1FD0EDBCFE9FFFE0EDBCFEAFF05
:1008F000030EEF6EF90EDBCFE9FFFA0EDBCFEAFF56
:10090000EE6AED6AF70EDBCFE9FFF80EDBCFEAFF08
:10091000EE6AED6A00D000D00CEF0BF0F90EDBCFE1
:10092000E9FFFA0EDBCFEAFFEECF08F0EDCF09F0DA
:10093000020E081801E1095001E1F2D0010E081879
:1009400001E1095027E0085001E1095001E007D119
:10095000780EE66E010EE66E5EEC00F0E552E552B2
:10096000F3CF14F0F4CF15F01450151012E0F90E77
:10097000DBCFE9FFFA0EDBCFEAFF010EEE6EED6A88
:10098000F30EDBCFE9FFF40EDBCFEAFF010EEE6ED4
:10099000ED6AE5D0F50EDBCFE9FFF60EDBCFEAFF1F
:1009A000EF50410837E1F70EDBCFE9FFF80EDBCF60
:1009B000EAFFEECF08F0EDCF09F0010E081801E1D3
:1009C00009500FE0085001E1095001E023D0F90E71
:1009D000DBCFE9FFFA0EDBCFEAFF020EEE6EED6A27
:1009E00019D0FD0EDBCFE9FFFE0EDBCFEAFF010ED3
:1009F000EF6EF70EDBCFE9FFF80EDBCFEAFFEE6A12
:100A0000ED6AF90EDBCFE9FFFA0EDBCFEAFFEE6A03
:100A1000ED6A00D0F50EDBCFE9FFF60EDBCFEAFF83
:100A2000EF50420818E1FB0EDBCFE9FFFC0EDBCFF5
:100A3000EAFFEE6AED6AF90EDBCFE9FFFA0EDBCFD3
:100A4000EAFFEE6AED6AF70EDBCFE9FFF80EDBCFC7
:100A5000EAFFEE6AED6AF50EDBCFE9FFF60EDBCFBB
:100A6000EAFFEF50550828E1F70EDBCFE9FFF80E5B
:100A7000DBCFEAFFEECF14F0EFCF15F0153404E230
:100A800014500008000E155417E2F70EDBCFE9FFF3
:100A9000F80EDBCFEAFFEECF14F0EFCF15F014061F
:100AA000000E155AF70EDBCFE9FFF80EDBCFEAFF99
:100AB00014C0EEFF15C0EDFFF50EDBCFE9FFF60E1B
:100AC000DBCFEAFFEF5044082AE1F70EDBCFE9FF66
:100AD000F80EDBCFEAFFEECF14F0EFCF15F0D89091
:100AE000155004E6010E145C000E155818E2F70EBE
:100AF000DBCFE9FFF80EDBCFEAFFEECF14F0EFCF4C
:100B000015F0010E1426000E1522F70EDBCFE9FFBB
:100B1000F80EDBCFEAFF14C0EEFF15C0EDFF1FD0CB
:100B2000FD0EDBCFE9FFFE0EDBCFEAFF0B0EE92661
:100B3000000EEA22010EEF6EF90EDBCFE9FFFA0E8E
:100B4000DBCFEAFF010EEE6EED6AF30EDBCFE9FFBD
:100B5000F40EDBCFEAFF010EEE6EED6A00D00CEF73
:100B60000BF0F90EDBCFE9FFFA0EDBCFEAFFEECF99
:100B700008F0EDCF09F0030E081801E1095001E17A
:100B8000E5D2020E081801E1095001E1F6D0010E8C
:100B9000081801E1095029E0085001E1095002E07C
:100BA0000BEF0BF0780EE66E010EE66E5EEC00F0D9
:100BB000E552E552F3CF14F0F4CF15F014501510B0
:100BC00012E0F90EDBCFE9FFFA0EDBCFEAFF010EF0
:100BD000EE6EED6AF30EDBCFE9FFF40EDBCFEAFF3A
:100BE000010EEE6EED6A0BEF0BF0F50EDBCFE9FFB9
:100BF000F60EDBCFEAFFEF50410838E1F70EDBCF0E
:100C0000E9FFF80EDBCFEAFF060EEE1801E1ED502A
:100C10000AE0F90EDBCFE9FFFA0EDBCFEAFF020EA6
:100C2000EE6EED6A23D0F70EDBCFE9FFF80EDBCFD7
:100C3000EAFF060EEE1801E1ED5018E1FD0EDBCFE4
:100C4000E9FFFE0EDBCFEAFF010EEF6EF90EDBCF00
:100C5000E9FFFA0EDBCFEAFFEE6AED6AF70EDBCFB3
:100C6000E9FFF80EDBCFEAFFEE6AED6AF50EDBCFA7
:100C7000E9FFF60EDBCFEAFFEF50420818E1FB0E6A
:100C8000DBCFE9FFFC0EDBCFEAFFEE6AED6AF90E7F
:100C9000DBCFE9FFFA0EDBCFEAFFEE6AED6AF70E73
:100CA000DBCFE9FFF80EDBCFEAFFEE6AED6AF50E67
:100CB000DBCFE9FFF60EDBCFEAFFEF50550828E166
:100CC000F70EDBCFE9FFF80EDBCFEAFFEECF14F033
:100CD000EFCF15F0153404E214500008000E15543F
:100CE00017E2F70EDBCFE9FFF80EDBCFEAFFEECF1E
:100CF00014F0EFCF15F01406000E155AF70EDBCFE7
:100D0000E9FFF80EDBCFEAFF14C0EEFF15C0EDFFE0
:100D1000F50EDBCFE9FFF60EDBCFEAFFEF5044081C
:100D20002AE1F70EDBCFE9FFF80EDBCFEAFFEECFCB
:100D300014F0EFCF15F0D890155004E6060E145CB1
:100D4000000E155818E2F70EDBCFE9FFF80EDBCFE7
:100D5000EAFFEECF14F0EFCF15F0010E1426000ECF
:100D60001522F70EDBCFE9FFF80EDBCFEAFF14C048
:100D7000EEFF15C0EDFF0BEF0BF0F70EDBCFE9FF39
:100D8000F80EDBCFEAFFEECF08F0EDCF09F0050E4D
:100D9000081801E1095001E181D1040E081801E1B0
:100DA000095001E124D1030E081801E1095001E1C5
:100DB000C7D0020E081801E109506BE0010E0818B7
:100DC00001E109500FE0085001E1095001E0BDD1F7
:100DD000F90EDBCFE9FFFA0EDBCFEAFF030EEE6E72
:100DE000ED6AB3D1F50EDBCFE9FFF60EDBCFEAFFFC
:100DF000EF504C0819E1FD0EDBCFE9FFFE0EDBCF13
:100E0000EAFF020EE926000EEA22EF04E66EFD0E6E
:100E1000DBCFE9FFFE0EDBCFEAFF020EE926000E74
:100E2000EA22E552E750EF6EF50EDBCFE9FFF60E52
:100E3000DBCFEAFFEF50520819E1FD0EDBCFE9FFEF
:100E4000FE0EDBCFEAFF020EE926000EEA22EF28B3
:100E5000E66EFD0EDBCFE9FFFE0EDBCFEAFF020EF2
:100E6000E926000EEA22E552E750EF6EF50EDBCFE1
:100E7000E9FFF60EDBCFEAFFEF50420809E1F90E79
:100E8000DBCFE9FFFA0EDBCFEAFF010EEE6EED6A73
:100E90005CD1F50EDBCFE9FFF60EDBCFEAFFEF50BA
:100EA0004C0819E1FD0EDBCFE9FFFE0EDBCFEAFFB8
:100EB000030EE926000EEA22EF04E66EFD0EDBCFFC
:100EC000E9FFFE0EDBCFEAFF030EE926000EEA2261
:100ED000E552E750EF6EF50EDBCFE9FFF60EDBCF04
:100EE000EAFFEF50520819E1FD0EDBCFE9FFFE0EDD
:100EF000DBCFEAFF030EE926000EEA22EF28E66EBA
:100F0000FD0EDBCFE9FFFE0EDBCFEAFF030EE92685
:100F1000000EEA22E552E750EF6EF50EDBCFE9FF57
:100F2000F60EDBCFEAFFEF50420809E1F90EDBCF06
:100F3000E9FFFA0EDBCFEAFF010EEE6EED6A05D196
:100F4000F50EDBCFE9FFF60EDBCFEAFFEF504C08E2
:100F500019E1FD0EDBCFE9FFFE0EDBCFEAFF040E49
:100F6000E926000EEA22EF04E66EFD0EDBCFE9FF74
:100F7000FE0EDBCFEAFF040EE926000EEA22E55260
:100F8000E750EF6EF50EDBCFE9FFF60EDBCFEAFFA1
:100F9000EF50520819E1FD0EDBCFE9FFFE0EDBCF6B
:100FA000EAFF040EE926000EEA22EF28E66EFD0EA7
:100FB000DBCFE9FFFE0EDBCFEAFF040EE926000ED1
:100FC000EA22E552E750EF6EF50EDBCFE9FFF60EB1
:100FD000DBCFEAFFEF50420809E1F90EDBCFE9FF72
:100FE000FA0EDBCFEAFF010EEE6EED6AAED0F50E23
:100FF000DBCFE9FFF60EDBCFEAFFEF504C0819E13B
:10100000FD0EDBCFE9FFFE0EDBCFEAFF050EE92682
:10101000000EEA22EF04E66EFD0EDBCFE9FFFE0EC6
:10102000DBCFEAFF050EE926000EEA22E552E75083
:10103000EF6EF50EDBCFE9FFF60EDBCFEAFFEF50E8
:10104000520819E1FD0EDBCFE9FFFE0EDBCFEAFF10
:10105000050EE926000EEA22EF28E66EFD0EDBCF34
:10106000E9FFFE0EDBCFEAFF050EE926000EEA22BD
:10107000E552E750EF6EF50EDBCFE9FFF60EDBCF62
:10108000EAFFEF50420809E1F90EDBCFE9FFFA0E63
:10109000DBCFEAFF010EEE6EED6A57D0F50EDBCF27
:1010A000E9FFF60EDBCFEAFFEF504C0819E1FD0E29
:1010B000DBCFE9FFFE0EDBCFEAFF060EE926000ECE
:1010C000EA22EF04E66EFD0EDBCFE9FFFE0EDBCF7A
:1010D000EAFF060EE926000EEA22E552E750EF6E1F
:1010E000F50EDBCFE9FFF60EDBCFEAFFEF5052083B
:1010F00019E1FD0EDBCFE9FFFE0EDBCFEAFF060EA6
:10110000E926000EEA22EF28E66EFD0EDBCFE9FFAE
:10111000FE0EDBCFEAFF060EE926000EEA22E552BC
:10112000E750EF6EF50EDBCFE9FFF60EDBCFEAFFFF
:10113000EF50420809E1F90EDBCFE9FFFA0EDBCFF1
:10114000EAFF010EEE6EED6A00D065D2F70EDBCF3E
:10115000E9FFF80EDBCFEAFFEECF08F0EDCF09F0A4
:10116000020E081801E1095001E191D1010E0818A1
:1011700001E1095001E1C8D0085001E1095001E046
:1011800049D2F50EDBCFE9FFF60EDBCFEAFFEF50D9
:101190004C0819E1FD0EDBCFE9FFFE0EDBCFEAFFC5
:1011A000070EE926000EEA22EF04E66EFD0EDBCF05
:1011B000E9FFFE0EDBCFEAFF070EE926000EEA226A
:1011C000E552E750EF6EF50EDBCFE9FFF60EDBCF11
:1011D000EAFFEF50520819E1FD0EDBCFE9FFFE0EEA
:1011E000DBCFEAFF070EE926000EEA22EF28E66EC3
:1011F000FD0EDBCFE9FFFE0EDBCFEAFF070EE9268F
:10120000000EEA22E552E750EF6EF50EDBCFE9FF64
:10121000F60EDBCFEAFFEF50420811E1F90EDBCF0B
:10122000E9FFFA0EDBCFEAFF010EEE6EED6AF70E74
:10123000DBCFE9FFF80EDBCFEAFFEE6AED6AF50ED1
:10124000DBCFE9FFF60EDBCFEAFFEF50550828E1D0
:10125000F70EDBCFE9FFF80EDBCFEAFFEECF14F09D
:10126000EFCF15F0153404E214500008000E1554A9
:1012700017E2F70EDBCFE9FFF80EDBCFEAFFEECF88
:1012800014F0EFCF15F01406000E155AF70EDBCF51
:10129000E9FFF80EDBCFEAFF14C0EEFF15C0EDFF4B
:1012A000F50EDBCFE9FFF60EDBCFEAFFEF50440887
:1012B0002AE1F70EDBCFE9FFF80EDBCFEAFFEECF36
:1012C00014F0EFCF15F0D890155004E6020E145C20
:1012D000000E155818E2F70EDBCFE9FFF80EDBCF52
:1012E000EAFFEECF14F0EFCF15F0010E1426000E3A
:1012F0001522F70EDBCFE9FFF80EDBCFEAFF14C0B3
:10130000EEFF15C0EDFF86D1F50EDBCFE9FFF60E3F
:10131000DBCFEAFFEF504C0819E1FD0EDBCFE9FF10
:10132000FE0EDBCFEAFF080EE926000EEA22EF04EC
:10133000E66EFD0EDBCFE9FFFE0EDBCFEAFF080E07
:10134000E926000EEA22E552E750EF6EF50EDBCFFC
:10135000E9FFF60EDBCFEAFFEF50520819E1FD0E70
:10136000DBCFE9FFFE0EDBCFEAFF080EE926000E19
:10137000EA22EF28E66EFD0EDBCFE9FFFE0EDBCFA3
:10138000EAFF080EE926000EEA22E552E750EF6E6A
:10139000F50EDBCFE9FFF60EDBCFEAFFEF50420898
:1013A00011E1F90EDBCFE9FFFA0EDBCFEAFF010E08
:1013B000EE6EED6AF70EDBCFE9FFF80EDBCFEAFF4A
:1013C000EE6AED6AF50EDBCFE9FFF60EDBCFEAFF42
:1013D000EF50550828E1F70EDBCFE9FFF80EDBCF21
:1013E000EAFFEECF14F0EFCF15F0153404E21450FD
:1013F0000008000E155417E2F70EDBCFE9FFF80ED8
:10140000DBCFEAFFEECF14F0EFCF15F01406000E9D
:10141000155AF70EDBCFE9FFF80EDBCFEAFF14C059
:10142000EEFF15C0EDFFF50EDBCFE9FFF60EDBCFCB
:10143000EAFFEF5044082AE1F70EDBCFE9FFF80E90
:10144000DBCFEAFFEECF14F0EFCF15F0D8901550B8
:1014500004E6020E145C000E155818E2F70EDBCFFE
:10146000E9FFF80EDBCFEAFFEECF14F0EFCF15F077
:10147000010E1426000E1522F70EDBCFE9FFF80E41
:10148000DBCFEAFF14C0EEFF15C0EDFFC3D0F50EB1
:10149000DBCFE9FFF60EDBCFEAFFEF504C0819E196
:1014A000FD0EDBCFE9FFFE0EDBCFEAFF090EE926DA
:1014B000000EEA22EF04E66EFD0EDBCFE9FFFE0E22
:1014C000DBCFEAFF090EE926000EEA22E552E750DB
:1014D000EF6EF50EDBCFE9FFF60EDBCFEAFFEF5044
:1014E000520819E1FD0EDBCFE9FFFE0EDBCFEAFF6C
:1014F000090EE926000EEA22EF28E66EFD0EDBCF8C
:10150000E9FFFE0EDBCFEAFF090EE926000EEA2214
:10151000E552E750EF6EF50EDBCFE9FFF60EDBCFBD
:10152000EAFFEF50420811E1F90EDBCFE9FFFA0EB6
:10153000DBCFEAFF010EEE6EED6AF70EDBCFE9FFBF
:10154000F80EDBCFEAFFEE6AED6AF50EDBCFE9FFBE
:10155000F60EDBCFEAFFEF50550828E1F70EDBCFA0
:10156000E9FFF80EDBCFEAFFEECF14F0EFCF15F076
:10157000153404E214500008000E155417E2F70E5B
:10158000DBCFE9FFF80EDBCFEAFFEECF14F0EFCFB1
:1015900015F01406000E155AF70EDBCFE9FFF80E12
:1015A000DBCFEAFF14C0EEFF15C0EDFFF50EDBCF79
:1015B000E9FFF60EDBCFEAFFEF5044082AE1F70E11
:1015C000DBCFE9FFF80EDBCFEAFFEECF14F0EFCF71
:1015D00015F0D890155004E6020E145C000E155854
:1015E00018E2F70EDBCFE9FFF80EDBCFEAFFEECF14
:1015F00014F0EFCF15F0010E1426000E1522F70E91
:10160000DBCFE9FFF80EDBCFEAFF14C0EEFF15C019
:10161000EDFF00D000D000D0F50EDBCFE9FFF60ED5
:10162000DBCFEAFFEF50460809E0F50EDBCFE9FF1C
:10163000F60EDBCFEAFFEF50480813E1F50EDBCFE3
:10164000E9FFF60EDBCFEAFFEF50E66EFD0EDBCFD3
:10165000E9FFFE0EDBCFEAFFEE52E552E750EF6EF8
:1016600019D0FD0EDBCFE9FFFE0EDBCFEAFFEE5215
:10167000EF6AF50EDBCFE9FFF60EDBCFEAFFEF50A6
:1016800009E0F30EDBCFE9FFF40EDBCFEAFF010E3A
:0C169000EE6EED6AE552E7CFD9FF1200C4
:04169C008290949014
:1016A00082929492829A949A1200D9CFE6FFE1CF67
:1016B000D9FFD950FD0FE96EFF0EDA20EA6EEE5029
:1016C000ED1002E0828201D08292D950FB0FE96EC8
:1016D000FF0EDA20EA6EEE50ED1002E0828001D0BB
:1016E0008290FA0EDB5002E0828A01D0829AE552A3
:1016F000E7CFD9FF1200D9CFE6FFE1CFD9FFFD0E2A
:10170000DBCFE9FFFE0EDBCFEAFF0A0EE926000E73
:10171000EA22EF50E66EFD0EDBCFE9FFFE0EDBCFD7
:10172000EAFF060EE926000EEA22EFCF14F0156A52
:1017300014BE156814C0E6FF15C0E6FFFD0EDBCF32
:10174000E9FFFE0EDBCFEAFF070EE926000EEA22D4
:10175000EFCF16F0176A16BE176816C0E6FF17C05F
:10176000E6FFA3DF186E050EE15E1850FD0EDBCF1D
:10177000E9FFFE0EDBCFEAFFEE52EFCF14F0156A61
:1017800014BE156814C0E6FF15C0E6FF10EC2BF080
:10179000E552E552FD0EDBCFE9FFFE0EDBCFEAFF9F
:1017A000EF5032E1F90EDBCF08F0FA0EDBCF09F093
:1017B000010E081801E1095016E0085001E1095036
:1017C00001E022D0660EE66E3D0EE66EA4EC2CF033
:1017D000E552E552550EE66E3D0EE66EEEEC2CF04F
:1017E000E552E55211D0550EE66E3D0EE66EA4ECC4
:1017F0002CF0E552E552440EE66E3D0EE66EEEEC40
:101800002CF0E552E55200D0D950FB0FE96EFF0EE7
:10181000DA20EA6E010EEE1801E1ED5002E096EFDB
:1018200010F0FD0EDBCFE9FFFE0EDBCFEAFFEF0489
:1018300001E02AD1D950F90FE96EFF0EDA20EA6EE5
:10184000EE50ED1010E1330EE66E3D0EE66EA4ECA8
:101850002CF0E552E552440EE66E3D0EE66EEEECDF
:101860002CF0E552E552D950F90FE96EFF0EDA205F
:10187000EA6E010EEE1801E1ED5074E1F70EDBCFD8
:1018800008F0F80EDBCF09F0040E081801E109504A
:1018900058E0030E081801E1095042E0020E081852
:1018A00001E109502CE0010E081801E1095016E091
:1018B000085001E1095001E055D0220EE66E3D0EC0
:1018C000E66EA4EC2CF0E552E552440EE66E3D0EB9
:1018D000E66EEEEC2CF0E552E55244D0110EE66EC9
:1018E0003D0EE66EA4EC2CF0E552E552440EE66E99
:1018F0003D0EE66EEEEC2CF0E552E55233D0000ED4
:10190000E66E3D0EE66EA4EC2CF0E552E552440E78
:10191000E66E3D0EE66EEEEC2CF0E552E55222D07E
:10192000EF0EE66E3C0EE66EA4EC2CF0E552E552AE
:10193000440EE66E3D0EE66EEEEC2CF0E552E552FE
:1019400011D0DE0EE66E3C0EE66EA4EC2CF0E552F5
:10195000E552440EE66E3D0EE66EEEEC2CF0E552DE
:10196000E55200D0D950F90FE96EFF0EDA20EA6E89
:10197000020EEE1801E1ED5001E086D0F70EDBCF4C
:1019800008F0F80EDBCF09F0040E081801E1095049
:101990006AE0020E081801E109502CE0010E081857
:1019A00001E1095016E0085001E1095001E06CD056
:1019B000D40EE66E3C0EE66EA4EC2CF0E552E55239
:1019C000440EE66E3D0EE66EEEEC2CF0E552E5526E
:1019D0005BD0C90EE66E3C0EE66EA4EC2CF0E55230
:1019E000E552440EE66E3D0EE66EEEEC2CF0E5524E
:1019F000E5524AD0FD0EDBCFE9FFFE0EDBCFEAFF5A
:101A00000D0EE926000EEA22EFCF14F0156A14BE7F
:101A1000156814C0E6FF15C0E6FFB70E166E3C0E43
:101A2000176E186A16C0E6FF17C0E6FF18C0E6FF7B
:101A3000EC0EE66E000EE66E8DEC2EF0196E070EC3
:101A4000E15E1950A60EE66E3C0EE66EA4EC2CF09C
:101A5000E552E552EC0EE66E000EE66E17EC2DF048
:101A6000E552E55211D0950EE66E3C0EE66EA4EC02
:101A70002CF0E552E552440EE66E3D0EE66EEEECBD
:101A80002CF0E552E55200D0FD0EDBCFE9FFFE0E53
:101A9000DBCFEAFFEF50020856E1D950F90FE96EAB
:101AA000FF0EDA20EA6EEE50ED1010E1840EE66EC5
:101AB0003C0EE66EA4EC2CF0E552E552440EE66EC8
:101AC0003D0EE66EEEEC2CF0E552E552D950F90FE2
:101AD000E96EFF0EDA20EA6E010EEE1801E1ED501C
:101AE00032E1F70EDBCF08F0F80EDBCF09F0010E84
:101AF000081801E1095016E0085001E1095001E021
:101B000022D0730EE66E3C0EE66EA4EC2CF0E5528D
:101B1000E552440EE66E3D0EE66EEEEC2CF0E5521C
:101B2000E55211D0620EE66E3C0EE66EA4EC2CF08F
:101B3000E552E552440EE66E3D0EE66EEEEC2CF0FC
:101B4000E552E55200D0FD0EDBCFE9FFFE0EDBCF04
:101B5000EAFFEF50030801E0E8D2D950F90FE96E2F
:101B6000FF0EDA20EA6EEE50ED1010E1510EE66E37
:101B70003C0EE66EA4EC2CF0E552E552440EE66E07
:101B80003D0EE66EEEEC2CF0E552E552D950F90F21
:101B9000E96EFF0EDA20EA6E010EEE1801E1ED505B
:101BA00001E0A1D0F70EDBCF08F0F80EDBCF09F093
:101BB000060E081801E1095001E184D0050E08184D
:101BC00001E109506EE0040E081801E1095058E0E7
:101BD000030E081801E1095042E0020E081801E165
:101BE00009502CE0010E081801E1095016E00850D8
:101BF00001E1095001E077D0400EE66E3C0EE66E42
:101C0000A4EC2CF0E552E552440EE66E3D0EE66E75
:101C1000EEEC2CF0E552E55266D02F0EE66E3C0E4F
:101C2000E66EA4EC2CF0E552E552440EE66E3D0E55
:101C3000E66EEEEC2CF0E552E55255D01E0EE66E47
:101C40003C0EE66EA4EC2CF0E552E552440EE66E36
:101C50003D0EE66EEEEC2CF0E552E55244D00D0E52
:101C6000E66E3C0EE66EA4EC2CF0E552E552440E16
:101C7000E66E3D0EE66EEEEC2CF0E552E55233D00A
:101C8000FC0EE66E3B0EE66EA4EC2CF0E552E5523F
:101C9000440EE66E3D0EE66EEEEC2CF0E552E5529B
:101CA00022D0EB0EE66E3B0EE66EA4EC2CF0E55275
:101CB000E552440EE66E3D0EE66EEEEC2CF0E5527B
:101CC000E55211D0DA0EE66E3B0EE66EA4EC2CF077
:101CD000E552E552440EE66E3D0EE66EEEEC2CF05B
:101CE000E552E55200D0D950F90FE96EFF0EDA2027
:101CF000EA6E020EEE1801E1ED5001E045D1F70E5B
:101D0000DBCF08F0F80EDBCF09F0050E081801E173
:101D1000095001E100D1040E081801E1095001E168
:101D2000C1D0030E081801E1095001E182D0020E72
:101D3000081801E1095044E0010E081801E10950BA
:101D400006E0085001E1095001E01ED11DD1FD0E51
:101D5000DBCFE9FFFE0EDBCFEAFF0D0EE926000E1A
:101D6000EA22EFCF14F0156A14BE156814C0E6FF1E
:101D700015C0E6FFB70E166E3C0E176E186A16C039
:101D8000E6FF17C0E6FF18C0E6FFEC0EE66E000E99
:101D9000E66E8DEC2EF0196E070EE15E1950A60E60
:101DA000E66E3C0EE66EA4EC2CF0E552E552EC0E2D
:101DB000E66E000EE66E17EC2DF0E552E552E4D02B
:101DC000FD0EDBCFE9FFFE0EDBCFEAFF0E0EE926AC
:101DD000000EEA22EFCF14F0156A14BE156814C085
:101DE000E6FF15C0E6FFB70E166E3C0E176E186ABA
:101DF00016C0E6FF17C0E6FF18C0E6FFEC0EE66E61
:101E0000000EE66E8DEC2EF0196E070EE15E195095
:101E1000C90EE66E3B0EE66EA4EC2CF0E552E552E0
:101E2000EC0EE66E000EE66E17EC2DF0E552E55274
:101E3000ABD0FD0EDBCFE9FFFE0EDBCFEAFF0F0ECE
:101E4000E926000EEA22EFCF14F0156A14BE1568D9
:101E500014C0E6FF15C0E6FFB70E166E3C0E176EF7
:101E6000186A16C0E6FF17C0E6FF18C0E6FFEC0EC2
:101E7000E66E000EE66E8DEC2EF0196E070EE15E3A
:101E80001950B80EE66E3B0EE66EA4EC2CF0E5524F
:101E9000E552EC0EE66E000EE66E17EC2DF0E55204
:101EA000E55272D0FD0EDBCFE9FFFE0EDBCFEAFF7D
:101EB000100EE926000EEA22EFCF14F0156A14BEC8
:101EC000156814C0E6FF15C0E6FFB70E166E3C0E8F
:101ED000176E186A16C0E6FF17C0E6FF18C0E6FFC7
:101EE000EC0EE66E000EE66E8DEC2EF0196E070E0F
:101EF000E15E1950A70EE66E3B0EE66EA4EC2CF0E8
:101F0000E552E552EC0EE66E000EE66E17EC2DF093
:101F1000E552E55239D0FD0EDBCFE9FFFE0EDBCFF7
:101F2000EAFF110EE926000EEA22EFCF14F0156A3F
:101F300014BE156814C0E6FF15C0E6FFB70E166E96
:101F40003C0E176E186A16C0E6FF17C0E6FF18C0F1
:101F5000E6FFEC0EE66E000EE66E8DEC2EF0196ECE
:101F6000070EE15E1950960EE66E3B0EE66EA4EC8F
:101F70002CF0E552E552EC0EE66E000EE66E17EC24
:101F80002DF0E552E55200D0D950F90FE96EFF0E61
:101F9000DA20EA6E030EEE1801E1ED5001E0C5D043
:101FA000F70EDBCF08F0F80EDBCF09F0020E0818B1
:101FB00001E1095001E17ED0010E081801E109504C
:101FC0003EE0085001E1095001E0AFD0FD0EDBCF4B
:101FD000E9FFFE0EDBCFEAFF120EE926000EEA2231
:101FE000EFCF14F0156A14BE156814C0E6FF15C0D3
:101FF000E6FFB70E166E3C0E176E186A16C0E6FFA7
:1020000017C0E6FF18C0E6FFEC0EE66E000EE66EA7
:102010008DEC2EF0196E070EE15E1950850EE66EFE
:102020003B0EE66EA4EC2CF0E552E552EC0EE66EAB
:10203000000EE66E17EC2DF0E552E55276D038EC46
:102040002DF0FD0EDBCFE9FFFE0EDBCFEAFF130E16
:10205000E926000EEA22EFCF14F0156A14BE1568C7
:1020600014C0E6FF15C0E6FFB70E166E3C0E176EE5
:10207000186A16C0E6FF17C0E6FF18C0E6FFEC0EB0
:10208000E66E000EE66E8DEC2EF0196E070EE15E28
:102090001950740EE66E3B0EE66EA4EC2CF0E55281
:1020A000E552EC0EE66E000EE66E17EC2DF0E552F2
:1020B000E5523BD038EC2DF0FD0EDBCFE9FFFE0EF4
:1020C000DBCFEAFF140EE926000EEA22EFCF14F070
:1020D000156A14BE156814C0E6FF15C0E6FFB70EFA
:1020E000166E3C0E176E186A16C0E6FF17C0E6FFA4
:1020F00018C0E6FFEC0EE66E000EE66E8DEC2EF0DC
:10210000196E070EE15E1950630EE66E3B0EE66E29
:10211000A4EC2CF0E552E552EC0EE66E000EE66EF5
:1021200017EC2DF0E552E55200D030D2D950FB0F1C
:10213000E96EFF0EDA20EA6EEE50ED1001E026D2D5
:10214000FD0EDBCFE9FFFE0EDBCFEAFFEF0401E07F
:10215000CFD0F90EDBCF08F0FA0EDBCF09F0010E7D
:10216000081801E1095016E0085001E1095001E0AA
:10217000BFD0330EE66E3D0EE66EA4EC2CF0E552B9
:10218000E552440EE66E3D0EE66EEEEC2CF0E552A6
:10219000E552AED0FD0EDBCFE9FFFE0EDBCFEAFF4E
:1021A0000C0EE926000EEA22EF5011E0520EE66E08
:1021B0003B0EE66EA4EC2CF0E552E552410EE66EC5
:1021C0003B0EE66EEEEC2CF0E552E55290D0FD0EA3
:1021D000DBCFE9FFFE0EDBCFEAFF0B0EE926000E98
:1021E000EA22EF5011E0300EE66E3B0EE66EA4ECF4
:1021F0002CF0E552E552410EE66E3B0EE66EEEEC3B
:102200002CF0E552E55273D0FD0EDBCFE9FFFE0E58
:10221000DBCFEAFF050EE926000EEA22EFCF14F02D
:10222000156A14BE156814C0E6FF15C0E6FFFD0E62
:10223000DBCFE9FFFE0EDBCFEAFF030EE926000E3F
:10224000EA22EFCF16F0176A16BE176816C0E6FF2F
:1022500017C0E6FF1F0E186E3B0E196E1A6A18C0E3
:10226000E6FF19C0E6FF1AC0E6FFEC0EE66E000EB0
:10227000E66E8DEC2EF01B6E090EE15E1B50EC0E2F
:10228000E66E000EE66ECDEC2CF0E552E552FD0E4A
:10229000DBCFE9FFFE0EDBCFEAFF040EE926000EDE
:1022A000EA22EFCF14F0156A14BE156814C0E6FFD9
:1022B00015C0E6FF0E0E166E3B0E176E186A16C09E
:1022C000E6FF17C0E6FF18C0E6FFEC0EE66E000E54
:1022D000E66E8DEC2EF0196E070EE15E1950EC0ED5
:1022E000E66E000EE66E17EC2DF0E552E55200D0DA
:1022F000FD0EDBCFE9FFFE0EDBCFEAFFEF50020859
:102300006CE1F90EDBCF08F0FA0EDBCF09F0010E1D
:10231000081801E1095016E0085001E1095001E0F8
:102320005CD0840EE66E3C0EE66EA4EC2CF0E5521A
:10233000E552440EE66E3D0EE66EEEEC2CF0E552F4
:10234000E5524BD0FD0EDBCFE9FFFE0EDBCFEAFFFF
:102350000C0EE926000EEA22EF5011E0520EE66E56
:102360003B0EE66EA4EC2CF0E552E552410EE66E13
:102370003B0EE66EEEEC2CF0E552E5522DD0FD0E54
:10238000DBCFE9FFFE0EDBCFEAFF0B0EE926000EE6
:10239000EA22EF5011E0300EE66E3B0EE66EA4EC42
:1023A0002CF0E552E552410EE66E3B0EE66EEEEC89
:1023B0002CF0E552E55210D0840EE66E3C0EE66E2F
:1023C000A4EC2CF0E552E552440EE66E3D0EE66EAE
:1023D000EEEC2CF0E552E55200D0FD0EDBCFE9FF2C
:1023E000FE0EDBCFEAFFEF50030801E0CFD0F90E7D
:1023F000DBCF08F0FA0EDBCF09F0010E081801E17F
:10240000095016E0085001E1095001E0BFD0510E1B
:10241000E66E3C0EE66EA4EC2CF0E552E552440E5E
:10242000E66E3D0EE66EEEEC2CF0E552E552AED0D7
:10243000FD0EDBCFE9FFFE0EDBCFEAFF0C0EE92637
:10244000000EEA22EF5011E0520EE66E3B0EE66EF1
:10245000A4EC2CF0E552E552410EE66E3B0EE66E22
:10246000EEEC2CF0E552E55290D0FD0EDBCFE9FF0B
:10247000FE0EDBCFEAFF0B0EE926000EEA22EF503C
:1024800011E0300EE66E3B0EE66EA4EC2CF0E55249
:10249000E552410EE66E3B0EE66EEEEC2CF0E55298
:1024A000E55273D0FD0EDBCFE9FFFE0EDBCFEAFF76
:1024B000050EE926000EEA22EFCF14F0156A14BECD
:1024C000156814C0E6FF15C0E6FFFD0EDBCFE9FF7F
:1024D000FE0EDBCFEAFF030EE926000EEA22EFCF65
:1024E00016F0176A16BE176816C0E6FF17C0E6FF9B
:1024F0001F0E186E3B0E196E1A6A18C0E6FF19C03F
:10250000E6FF1AC0E6FFEC0EE66E000EE66E8DECFE
:102510002EF01B6E090EE15E1B50EC0EE66E000EF7
:10252000E66ECDEC2CF0E552E552FD0EDBCFE9FF77
:10253000FE0EDBCFEAFF040EE926000EEA22EFCF03
:1025400014F0156A14BE156814C0E6FF15C0E6FF46
:102550000E0E166E3B0E176E186A16C0E6FF17C0F9
:10256000E6FF18C0E6FFEC0EE66E000EE66E8DECA0
:102570002EF0196E070EE15E1950EC0EE66E000E9D
:10258000E66E17EC2DF0E552E55200D0E552E7CFAC
:04259000D9FF12005D
:0C25940006EC18F0FB0EDBCFF3FFDB06BB
:1025A000F35000090AE054EC18F0FA0EBFEC18F0F2
:1025B000F3E1151CF1E1010E01D0000E35EF18F02A
:1025C00006EC18F03B0EE12402E3E168E652E16E0E
:1025D000010EDB6A020EDB6AF90EDBCFF6FFFA0EA4
:1025E000DBCFF7FFFB0EDBCFF8FF0800F550DF6E07
:1025F000DF5002E159EF17F0250EDF5C02E04CEFEF
:1026000017F0030EDB6A040EDB6A050EDB6A060EAA
:10261000DB6A070EDB6A6EEC17F02D0EDF5C0CE058
:102620002B0EDF5C09E0200EDF5C06E0230EDF5C92
:1026300003E0300EDF5C1AE1DF50300A14E0130AC9
:102640000FE0030A0AE00B0A05E0060AE4E1030EC4
:10265000DB80E1D7030EDB82DED7030EDB84DBD722
:10266000030EDB86D8D7030EDB88D5D72A0EDF5CB6
:102670001BE16AEC17F0B8EC17F010E0030EDB80FA
:1026800008680968130EDBCF0DF0140EDBCF0EF0D7
:102690004CEC2FF0040E06C0DBFF03D0130EA1ECB0
:1026A00017F06EEC17F00BD0090EDB6A0FEC18F088
:1026B00003E083EC18F0FAD7090EA1EC17F0030E33
:1026C000DBB0DB982E0EDF5C1BE16EEC17F02A0E00
:1026D000DF5C0BE16AEC17F0B8EC17F003E1130EC6
:1026E000F3EC17F06EEC17F00BD0090EDB6A0FEC71
:1026F00018F003E083EC18F0FAD7090EF3EC17F0AA
:10270000680EDF5C07E16EEC17F0680EDF5C1DE120
:10271000030E18D0740EDF5C17E07A0EDF5C14E055
:10272000480EDF5C06E0540EDF5C03E05A0EDF5C0F
:1027300002E1020E07D06C0EDF5C03E06A0EDF5C84
:1027400004E1010E46EC18F0C9DBDF506E0A01E12E
:102750007FD31E0A01E192D1200A01E18FD13F0A05
:1027600001E149D11A0A01E146D10D0A01E143D143
:10277000200A01E140D13A0A01E13DD1200A01E1FC
:102780003AD1260A01E135D10D0A01E132D11A0A06
:1027900001E1D9D0200A4AE0300A1FE0460A0EE0E3
:1027A000250A01E083D3D950F90FE96EFF0EDA2034
:1027B000EA6E010EEE5E000EEE5AEE5A54EC18F080
:1027C000250EE66E95DB03E1151C01E169D350ECA3
:1027D00018F001E26BD3DB2A69D3080EDB6A040E22
:1027E000DB50010806E2040EDB0418EC18F0DB50A5
:1027F0008BDB080EDB5009E0030EDB50010B05E11B
:1028000072DB01E04DD3080EDB6A64DBEFCFDFFF44
:10281000C8EC18F003E1151C01E142D350EC18F0AC
:1028200001E3DB2A60DB01E141D33AD3070EDB5041
:1028300002080FE194EC18F0030E5BEC18F00E0E9A
:10284000EECFDBFF0F0EEECFDBFF100EEECFDBFF88
:1028500020D0F70EDBCF17F0F80EDBCF18F0020E0A
:10286000175E000E185AF70E17C0DBFFF80E18C0DF
:10287000DBFF17C0E9FF18C0EAFF4BEC18F0166A3F
:102880000E0E14C0DBFF0F0E15C0DBFF100E16C0BE
:10289000DBFF0E0EDBCFE6FF0F0EDBCFE6FF100EE9
:1028A000DBCFE6FFBEEC30F0E552E552E552130E09
:1028B00007C0DBFF140E08C0DBFF060EDB5005E08F
:1028C000130E8FEC18F001E26ADBB3EC18F002E2B1
:1028D000130E37DB76EC18F006E0040E8FEC18F0E0
:1028E00002E2050E2EDB030EDBB005D0FCDA01E0C0
:1028F000D7D2080EDB6A090EDB6A0E0EDBCFF6FFBD
:102900000F0EDBCFF7FF100EDBCFF8FF0800F550FE
:10291000DF6EDF5014E0B9EC18F011E2C8EC18F0EB
:1029200003E1151C01E1BCD2BBDB01E3DB2A090E8C
:10293000DB2AD9500E0FE96E000ECBDBE7D7D3DAD6
:1029400001E1B4D2ADD2C6DA110EEECFDBFF120E2A
:10295000EDCFDBFF110EDBCFE6FF120EDBCFE6FF84
:10296000B0EC30F0E552E552130EF3CFDBFF140E5E
:10297000F4CFDBFF060EDB5004E0130ED0DB01E2E8
:102980000EDBB3EC18F002E2130EDBDAAFDB05E08E
:10299000040EC5DB02E2050ED4DA030EDBB005D06F
:1029A000A2DA01E07DD2080EDB6A090EDB6A110EA5
:1029B000DBCFE9FF120EDBCFEAFFEFCFDFFFDF5007
:1029C00014E0D7DB12E2E4DB03E1151C01E168D27D
:1029D00067DB01E3DB2A090EDB2A110EDB2ADBCFE2
:1029E000E9FF120EE8E3DB2AE6D77DDA01E15ED2E9
:1029F00057D2030EDB8E070EDB0410E195DB040ECD
:102A00005ADB0A0EEECFDBFF0B0EEECFDBFF0C0E18
:102A1000EECFDBFF0D0EEECFDBFF6CD0070EDB50F1
:102A200003082CE1030EDBAE0DD0B2DA020E76DA2B
:102A3000EFCF14F0156A166A176A14AE39D015680C
:102A4000166835D0F70EDBCF15F0F80EDBCF16F099
:102A5000020E155E000E165AF70E15C0DBFFF80EBB
:102A600016C0DBFF15C0E9FF16C0EAFFEFCF14F078
:102A70000A0E14C0DBFF0B0EDB6A38D0070EDB50EA
:102A8000020809E1030EDBAE04D059DB16AE10D00C
:102A90000ED055DB0DD0030EDBAE12D079DA020E6C
:102AA0003DDAF9DA166A176A15AE02D016681768A9
:102AB000E2DA0C0E16C0DBFF0D0E17C0DBFF1AD0DA
:102AC000F70EDBCF16F0F80EDBCF17F0020E165E16
:102AD000000E175AF70E16C0DBFFF80E17C0DBFF0B
:102AE00016C0E9FF17C0EAFFD6DAC5DA0C0EDB6ABA
:102AF0000D0EDB6A060EDB5005E1010EF36E050ECE
:102B0000F3CFDBFF150EDB6A160EDB6AD950370FE9
:102B1000146E000EDA20156E390E14C0DBFF3A0E6B
:102B200015C0DBFF380EDB6A080EDB6A0A0EAEDA70
:102B3000DF50780A12E0200A10E0280A0CE0200A90
:102B40000AE03F0A06E00D0A02E0200A08E1020E50
:102B500005D0080E03D0080EDF26100E97DA030EFC
:102B6000DBBE02D0DB92DB94DB50800B24E08ADA00
:102B7000D890030EEB50000A08E6000EEE5C000E43
:102B8000EE58000EEE58000EEE5815E213DA0B6800
:102B90000C680D680E6844EC30F00A0E02C0DBFFD2
:102BA0000B0E03C0DBFF0C0E04C0DBFF0D0E05C0D7
:102BB000DBFF2D0E08D0030EDBA202D02B0E03D0BC
:102BC000DBA408D0200EF36E170EF3CFDBFF150E3B
:102BD000DB2A02D0170EDB6A050EDB5003E1B7D902
:102BE00001E189D0C40E146E650E156E000E166ECE
:102BF000070EDBCF17F0186A196A1A6A17C00BF0B4
:102C000018C00CF019C00DF01AC00EF0D3D9A8EC02
:102C100031F014500224F36E15500320F46E165058
:102C20000420F86EF4CFF7FFF3CFF6FF0800090E8B
:102C3000F5CFDBFF580EDF5C0FE1610EF36E090E7E
:102C40007BD90AE3200E146E090EDBCFE7FF145088
:102C5000E75E090EE7CFDBFF070EDBCF14F0156A46
:102C6000166A176A0FDA14C00BF015C00CF016C004
:102C70000DF017C00EF0EECF06F0EECF07F0EECF5E
:102C800008F0EFCF09F0A8EC31F009C0EDFF08C063
:102C9000EDFF07C0EDFF06C0EFFF390EDBCFE9FF08
:102CA000DB063A0EDBCFEAFF01E2DB06090EDBCFE3
:102CB000EFFF150EDB2A4BD995E1030EDBA61DD0E5
:102CC0006F0EDF5C06E1C1D918E3150EDB285BDA75
:102CD00014D0780EDF5C09E0580EDF5C06E0620E6F
:102CE000DF5C03E0420EDF5C08E1020EF36E160EBD
:102CF000F3CFDBFF02D0150EDB6A030EDB50100BA7
:102D00000EE0040EDBCF14F0050EDB50D880145417
:102D100006E2060EDB5003E1040EDB5034DA95D9EF
:102D20000AE2050EDBCFE7FF150EDB50E75E050E6E
:102D3000E7CFDBFF02D0050EDB6A040EDBCF14F019
:102D4000160E45D9D880145414E2160EDBCFE6FFD8
:102D5000150EDBCFE6FF040EDBCFE6FF050EDB50E2
:102D6000E552E75CE552D880E754E552D880E75455
:102D70005FD9030EDB50010B0BE1080EDB5008E0BE
:102D8000B2D801E08DD0080EDB50BED8080EDB6A49
:102D9000170EDB5007E088D9170EF1D903E1151C97
:102DA00001E17ED0160EDB5016E07ED9300EE66EC5
:102DB0009FD802E1151C74E077D9DFCFE6FF02EC63
:102DC00030F0E552E552E552F4CF15F00001F31C66
:102DD00002E1151C65E0050EDBCF14F0160EDB508A
:102DE000D880145409E2050EDBCFE7FF160EDB5046
:102DF000E75E050EE7CFDBFF300EE66E050ECBD9A2
:102E00004FE1390EDB2ADBCFE9FF3A0E01E3DB2A83
:102E1000DBCFEAFF090EEFCFDBFFDB500EE044D93A
:102E2000090EADD902E1151C3BE0390EDB2ADBCFE0
:102E3000E9FF3A0EEDE3DB2AEBD755D831E1160E68
:102E4000DBCFE6FF080EC3D8E552E7245DD82ED0CD
:102E5000070EDB50030A1CE0010A14E0030A07E036
:102E60007BD9DBCFEEFF020EDBCFEDFF1FD0F5D815
:102E7000196A17AE02D0186819682CD8BCD819C0C6
:102E8000EEFF14D0EAD817BE186824D8B4D80ED0F4
:102E900063D9DBCFEFFF0AD07BD905E1151C03E135
:102EA000F368F46810D0FCD801E3DB2A79D9F5EF98
:102EB00012F0010EDBCF14F0020EDBCF15F014C0C0
:102EC000F3FF15C0F4FF3B0EE15C02E2E16AE5525C
:102ED000E16ECBD029D9020E5BEF18F061D9080062
:102EE000F550DF6E1200200EE66E080ECBEF18F0E4
:102EF00002EC30F0E552E552E552F3CF14F0F4CF96
:102F000015F00001F31C1200146E156AD950010F60
:102F10004DD91450EE261550ED221200185E000E09
:102F2000195AF70E18C0DBFFF80E19C0DBFF18C0E6
:102F3000E9FF19C0EAFF1200DBCFF4FFF350F45CA5
:102F40001200DB50E76E040EE7CFDBFF12000A0E23
:102F5000DBCF14F00B0EDBCF15F00C0EDBCF16F031
:102F60000D0EDBCF17F014501510161017101200AD
:102F7000130EEECFDBFF140EEDCFDBFF130EDBCF16
:102F800014F0140EDBCF15F00001800E15141200A2
:102F9000F70EDBCF18F0F80EDBCF19F01200050E9C
:102FA000DB50E66ED950130F01D9E552E750EE6EB3
:102FB000ED6A12000A0EDBCF06F00B0EDBCF07F036
:102FC0000C0EDBCF08F00D0EDBCF09F01200DBCFCB
:102FD000E6FF150EDBCFE6FF050EDB50E552E724DA
:102FE000E552E7241200DB50CED8010EF36E060E38
:102FF000F3CFDBFF1200EE50EFCFEAFFE96E16C011
:10300000EEFF17C0EEFF18C0EEFF1200D9CFE6FFAB
:10301000DACFE6FFE1CFD9FFE2CFDAFF1200DFCF50
:10302000E6FFE66A7DEC32F0E552E552F35012001D
:10303000E76E080EE7CFDBFF1200EECF14F0EECF05
:1030400015F0EFCF16F0176A1200050EDBCF14F063
:10305000150EDB50D88014541200010EDBCF16F091
:10306000020EDBCF17F0186A1200E552E5CFDAFF47
:10307000E7CFD9FF12000A0E14C0DBFF0B0E15C0FC
:10308000DBFF1200D9500A0FD6EF18F0F36E070ECF
:10309000F3CFDBFF1200EECF14F0EFCF15F01200EC
:1030A000010EDB2A020E1200FC0EDBCFE6FFFD0E46
:1030B000DBCFE6FF1200145E000E155AF70E14C0A7
:1030C000DBFFF80E15C0DBFF14C0E9FF15C0EAFFF7
:1030D0001200DA20EA6EEF2AEECFF6FF000EEF22A2
:1030E000EECFF7FFEF22EECFF8FF1200040EDBCF9A
:1030F000E6FF130EDB50E552E75C9ADFDB5004DF9E
:10310000060EDB501200090EDB500A0DF350DF24CF
:10311000D00FE76E090EE7CFDBFF6EEF17F0DB5045
:10312000F36E050E9CEF17F0F70EDBCF14F0F80EE0
:10313000DBCF15F01200DFCFE6FF78EF17F028DFC6
:10314000030EECDE1DEF18F0CAEC12F0E552E5526A
:10315000E552E55200091200BDDEEE50EFCFEAFF66
:10316000E96E010E1200130EDB50F36E040E9CEF9D
:1031700017F0040EDB50F36E090E9CEF17F0DBCF57
:10318000E6FF78EF17F0E76E050EE7CFDBFF1200E2
:103190008BDF9BEF18F0DBCFE6FF86DFA4EF18F0A4
:1031A000D950F90FE96EFF0E69EF18F0E96E000EC5
:0631B000DA20EA6E1200B5
:0A31B600949C948EFA0EE66E4FEC26
:1031C00032F0E552400EE66EE66A7C0EE66E79EC71
:1031D0002FF0E552E552E5529F9A1200D9CFE6FF53
:1031E000E1CFD9FFFD0EDBCFF6FFFE0EDBCFF7FF01
:1031F0000800F55014E0ACA2FED7FD0EDBCFF6FFC1
:10320000FE0EDBCFF7FF0800F550E66E66EC32F0FD
:10321000E552FD0EDB2AFE0E01E3DB2AE3D7E55281
:10322000E7CFD9FF1200D9CFE6FFE1CFD9FFFD0EDE
:10323000DBCFE9FFFE0EDBCFEAFFEF5013E0ACA2DD
:10324000FED7FD0EDBCFE9FFFE0EDBCFEAFFEF502E
:10325000E66E66EC32F0E552FD0EDB2AFE0E01E36F
:10326000DB2AE5D7E552E7CFD9FF1200FF0EE66E65
:10327000410EE66EB3DFE552E5521200D9CFE6FF0C
:10328000E1CFD9FFFD0EDBCFE9FFFE0EDBCFEAFF7A
:10329000EF5020E1F90EDBCF08F0FA0EDBCF09F09A
:1032A000010E081801E109500DE0085001E1095034
:1032B00001E010D0900EE66E410EE66E8FDFE55213
:1032C000E55208D07E0EE66E410EE66E87DFE552CF
:1032D000E55200D0D950FB0FE96EFF0EDA20EA6EFE
:1032E000010EEE1801E1ED5001E0B7D3FD0EDBCF8A
:1032F000E9FFFE0EDBCFEAFFEF0401E0DDD0D9509D
:10330000F90FE96EFF0EDA20EA6EEE50ED100EE1D5
:103310000B0EE66E410EE66E61DFE552E552C70E1A
:10332000E66E400EE66E5ADFE552E552D950F90FCF
:10333000E96EFF0EDA20EA6E010EEE1801E1ED50A3
:103340004CE1F70EDBCF08F0F80EDBCF09F0040EEE
:10335000081801E1095038E0030E081801E109508E
:103360002AE0020E081801E109501CE0010E0818BD
:1033700001E109500EE0085001E1095001E02DD0B3
:1033800075DFB70EE66E400EE66E28DFE552E552B9
:1033900024D06CDFA60EE66E400EE66E1FDFE5520F
:1033A000E5521BD063DF960EE66E400EE66E16DF2A
:1033B000E552E55212D05ADF810EE66E400EE66EFF
:1033C0000DDFE552E55209D051DF6E0EE66E400E7C
:1033D000E66E04DFE552E55200D0D950F90FE96EF0
:1033E000FF0EDA20EA6E020EEE1801E1ED5064E104
:1033F000F70EDBCF08F0F80EDBCF09F0040E08184B
:1034000001E1095050E0020E081801E109501AE0EC
:10341000010E081801E109500DE0085001E10950C2
:1034200001E04AD0600EE66E400EE66ED7DEE55251
:10343000E55242D0510EE66E400EE66ECFDEE5520A
:10344000E5523AD013DFFD0EDBCFE9FFFE0EDBCFF6
:10345000EAFF0D0EE926000EEA22EFCF14F0156AFE
:1034600014BE156814C0E6FF15C0E6FF420E166EC6
:10347000400E176E186A16C0E6FF17C0E6FF18C0A8
:10348000E6FF000EE66E010EE66E8DEC2EF0196E74
:10349000070EE15E1950000EE66E010EE66EC3DE09
:1034A000E552E55209D0E2DE310EE66E400EE66EE0
:1034B00095DEE552E55200D0FD0EDBCFE9FFFE0EB2
:1034C000DBCFEAFFEF50020856E1D950F90FE96E61
:1034D000FF0EDA20EA6EEE50ED100EE1F40EE66E0D
:1034E0003F0EE66E7BDEE552E552C70EE66E400EFD
:1034F000E66E74DEE552E552D950F90FE96EFF0E23
:10350000DA20EA6E010EEE1801E1ED5022E1F70E2D
:10351000DBCF08F0F80EDBCF09F0010E081801E14F
:1035200009500EE0085001E1095001E012D09EDE82
:10353000E10EE66E3F0EE66E51DEE552E55209D031
:1035400095DEC90EE66E3F0EE66E48DEE552E552A8
:1035500000D0D950F90FE96EFF0EDA20EA6E020EA4
:10356000EE1801E1ED5007E1B70EE66E3F0EE66E94
:1035700035DEE552E552FD0EDBCFE9FFFE0EDBCF77
:10358000EAFFEF50030801E067D2D950F90FE96E66
:10359000FF0EDA20EA6EEE50ED100EE1050EE66E3B
:1035A0003F0EE66E1BDEE552E552C70EE66E400E9C
:1035B000E66E14DEE552E552D950F90FE96EFF0EC2
:1035C000DA20EA6E010EEE1801E1ED5068E1F70E27
:1035D000DBCF08F0F80EDBCF09F0060E081801E18A
:1035E000095054E0050E081801E1095046E0040EA8
:1035F000081801E1095038E0030E081801E10950EC
:103600002AE0020E081801E109501CE0010E08181A
:1036100001E109500EE0085001E1095001E03FD0FE
:1036200025DEF40EE66E3E0EE66ED8DDE552E5527E
:1036300036D01CDEE30EE66E3E0EE66ECFDDE552C2
:10364000E5522DD013DECF0EE66E3E0EE66EC6DDE1
:10365000E552E55224D00ADEB00EE66E3E0EE66E6E
:10366000BDDDE552E5521BD001DE9A0EE66E3E0E40
:10367000E66EB4DDE552E55212D0F8DD7B0EE66E63
:103680003E0EE66EABDDE552E55209D0EFDD630E8E
:10369000E66E3E0EE66EA2DDE552E55200D0D95050
:1036A000F90FE96EFF0EDA20EA6E020EEE1801E164
:1036B000ED5001E01CD1F70EDBCF08F0F80EDBCFA8
:1036C00009F0050E081801E1095001E1DFD0040EF0
:1036D000081801E1095001E1A8D0030E081801E122
:1036E000095072E0020E081801E109503CE0010E99
:1036F000081801E1095006E0085001E1095001E015
:10370000F6D0F5D0B3DDFD0EDBCFE9FFFE0EDBCF4B
:10371000EAFF0D0EE926000EEA22EFCF14F0156A3B
:1037200014BE156814C0E6FF15C0E6FF420E166E03
:10373000400E176E186A16C0E6FF17C0E6FF18C0E5
:10374000E6FF000EE66E010EE66E8DEC2EF0196EB1
:10375000070EE15E1950000EE66E010EE66E63DDA7
:10376000E552E552C4D082DDFD0EDBCFE9FFFE0E4F
:10377000DBCFEAFF0E0EE926000EEA22EFCF14F0AF
:10378000156A14BE156814C0E6FF15C0E6FF510E99
:10379000166E3E0E176E186A16C0E6FF17C0E6FFDB
:1037A00018C0E6FF000EE66E010EE66E8DEC2EF000
:1037B000196E070EE15E1950000EE66E010EE66E00
:1037C00032DDE552E55293D051DDFD0EDBCFE9FF4E
:1037D000FE0EDBCFEAFF0F0EE926000EEA22EFCF46
:1037E00014F0156A14BE156814C0E6FF15C0E6FF94
:1037F000340E166E3E0E176E186A16C0E6FF17C01E
:10380000E6FF18C0E6FF000EE66E010EE66E8DECD8
:103810002EF0196E070EE15E1950000EE66E010ED5
:10382000E66E01DDE552E55262D020DDFD0EDBCF14
:10383000E9FFFE0EDBCFEAFF100EE926000EEA22BA
:10384000EFCF14F0156A14BE156814C0E6FF15C05A
:10385000E6FF200E166E3E0E176E186A16C0E6FFC3
:1038600017C0E6FF18C0E6FF000EE66E010EE66E1A
:103870008DEC2EF0196E070EE15E1950000EE66E0B
:10388000010EE66ED0DCE552E55231D0EFDCFD0EE4
:10389000DBCFE9FFFE0EDBCFEAFF110EE926000EBB
:1038A000EA22EFCF14F0156A14BE156814C0E6FFC3
:1038B00015C0E6FF030E166E3E0E176E186A16C090
:1038C000E6FF17C0E6FF18C0E6FF000EE66E010E29
:1038D000E66E8DEC2EF0196E070EE15E1950000EAB
:1038E000E66E010EE66E9FDCE552E55200D0D9503F
:1038F000F90FE96EFF0EDA20EA6E030EEE1801E111
:10390000ED5001E0A9D0F70EDBCF08F0F80EDBCFC9
:1039100009F0020E081801E109506CE0010E0818C8
:1039200001E1095036E0085001E1095001E094D06E
:103930009DDCFD0EDBCFE9FFFE0EDBCFEAFF120EB2
:10394000E926000EEA22EFCF14F0156A14BE1568BE
:1039500014C0E6FF15C0E6FFEC0E166E3D0E176EA6
:10396000186A16C0E6FF17C0E6FF18C0E6FF000E93
:10397000E66E010EE66E8DEC2EF0196E070EE15E1E
:103980001950000EE66E010EE66E4DDCE552E55272
:1039900063D06CDCFD0EDBCFE9FFFE0EDBCFEAFF70
:1039A000130EE926000EEA22EFCF14F0156A14BEBA
:1039B000156814C0E6FF15C0E6FFD90E166E3D0E61
:1039C000176E186A16C0E6FF17C0E6FF18C0E6FFBC
:1039D000000EE66E010EE66E8DEC2EF0196E070EEF
:1039E000E15E1950000EE66E010EE66E1CDCE5523B
:1039F000E55232D03BDCFD0EDBCFE9FFFE0EDBCF24
:103A0000EAFF140EE926000EEA22EFCF14F0156A41
:103A100014BE156814C0E6FF15C0E6FFC40E166E8E
:103A20003D0E176E186A16C0E6FF17C0E6FF18C0F5
:103A3000E6FF000EE66E010EE66E8DEC2EF0196EBE
:103A4000070EE15E1950000EE66E010EE66E13ECF5
:103A500019F0E552E55200D056D0D950FB0FE96E6F
:103A6000FF0EDA20EA6EEE50ED104DE1FD0EDBCFD9
:103A7000E9FFFE0EDBCFEAFF070EE926000EEA2281
:103A8000EF5000E0FD0EDBCFE9FFFE0EDBCFEAFFDB
:103A9000EF50030A27E0010A14E0030A01E033D0E3
:103AA000B20EE66E3D0EE66EEEEC18F0E552E55213
:103AB000950EE66E3D0EE66EEEEC18F0E552E55220
:103AC00022D0850EE66E3D0EE66EEEEC18F0E55265
:103AD000E552950EE66E3D0EE66EEEEC18F0E55200
:103AE000E55211D0770EE66E3D0EE66EEEEC18F064
:103AF000E552E552950EE66E3D0EE66EEEEC18F0E0
:0E3B0000E552E55200D0E552E7CFD9FF1200A2
:023B0E0046521D
:103B10004F4E543A256420636D2020202020004C15
:103B20003D256420636D20523D256420636D200097
:103B300048616C66205363616E2020202020202085
:103B4000005363616E6E696E672E2E2E202020203A
:103B5000200046756C6C205363616E20202020206D
:103B600020200044204741494E3D20202020202095
:103B70002020200049204741494E3D202020202080
:103B8000202020200050204741494E3D2020202069
:103B900020202020200052462053414D504C4553B8
:103BA0003D20202020200049522053414D504C45BB
:103BB00020524154453D200049522053414D504C24
:103BC00045533D2020202020004D41582059415789
:103BD00020524154453D20202000362D5345545F4E
:103BE0004D4F44454D414E55414C00352D534554A4
:103BF0005F52465F53414D504C455300342D534561
:103C0000545F49525F5241544520202000332D53C8
:103C100045545F49525F53414D504C455300322D3E
:103C20005345545F5941575F52415445202000315C
:103C30002D5345545F53504545445F4D4158200036
:103C4000302D5345545F5049445F4741494E5320FE
:103C500000464143544F52595F4D4F444520202068
:103C60002000312D5345545F555345524D414E551B
:103C7000414C00302D5345545F46494E445041520B
:103C8000524F5400555345525F4155544F5F4D4F6D
:103C90004445202000456E74657220506173736343
:103CA0006F64653A20004D41582053504545443DCE
:103CB00020202020202000256420202020202020DB
:103CC0002020202020202020004D4F544F52535FB1
:103CD0004F4646004D4F544F52535F4F4E00342DC8
:103CE0005345545F464143544F52592020200033DE
:103CF0002D5345545F555345525F4155544F200055
:103D0000322D5345545F53504545445F4D41582033
:103D100000312D5345545F4D4F544F52535F4F4622
:103D20004600302D5345545F4D4F544F52535F4F13
:103D30004E2000555345525F4D414E55414C5F4D0D
:103D40004F4445002020202020202020202020201B
:103D50002020202000496E697469616C6973696E66
:103D6000672E2E2E200057656C636F6D6520746F73
:103D7000204853532020000C464143544F52595F72
:103D80004D4F4445000C555345525F4155544F5FCC
:103D90004D4F4445000A0D507265737320412074E5
:103DA0006F20656E74657220636F6D6D616E640A5D
:103DB0000D000C555345525F4D414E55414C5F4DE2
:103DC0004F444500446572697661746976652047A1
:103DD00061696E3D2025640D00496E7465677261EE
:103DE0006C204761696E3D2025640D0050726F7034
:103DF0006F7274696F6E616C204761696E3D20253A
:103E0000640D0052462053414D504C4553205045BF
:103E10005220455354494D4154453D2025640D00E1
:103E200049522053414D504C4520524154453D206C
:103E300025640D0049522053414D504C45532050AC
:103E4000455220455354494D4154453D2025640D6C
:103E5000004D41582059415720524154453D20259D
:103E6000640D00362D5345545F4D4F44455F555307
:103E700045525F4D414E55414C0D00352D53455433
:103E80005F52465F53414D504C45535F5045525F22
:103E9000455354494D4154450D00342D5345545F0D
:103EA00049525F53414D504C455F524154450D00BE
:103EB000332D5345545F49525F53414D504C455348
:103EC0005F5045525F455354494D4154450D0032B2
:103ED0002D5345545F5941575F524154455F4D4101
:103EE000580D00312D5345545F53504545445F4DA7
:103EF00041580D00302D5345545F5049445F4741B0
:103F0000494E530D000C464143544F52595F4D4F9B
:103F100044450A0D302D5345545F5049445F474195
:103F2000494E530A0D312D5345545F535045454476
:103F30005F4D41580A0D322D5345545F5941575F2B
:103F4000524154455F4D41580A0D332D5345545F3E
:103F500049525F53414D504C45535F5045525F4568
:103F60005354494D4154450A0D342D5345545F492E
:103F7000525F53414D504C455F524154450A0D35F7
:103F80002D5345545F52465F53414D504C45535F4E
:103F90005045525F455354494D4154450A0D362D05
:103FA0005345545F4D4F44455F555345525F4D4116
:103FB0004E55414C0A0D000A46696E64696E6720D1
:103FC000506172726F740A0D00312D5345545F4D6C
:103FD0004F44455F555345525F4D414E55414C0D41
:103FE00000302D5345545F46494E445F5041525274
:103FF0004F540D000C555345525F4155544F5F4D82
:104000004F44450A0D302D5345545F46494E445F99
:10401000504152524F540A0D312D5345545F4D4F6C
:1040200044455F555345525F4D414E55414C0A0D35
:1040300000456E7465722050617373636F64653AF6
:104040000D004D41582053504545443D2025640DF9
:10405000000A0D4D4F544F52535F4F46460A0D0014
:104060000A0D4D4F544F52535F4F4E0A0D00342DE1
:104070005345545F4D4F44455F464143544F525959
:1040800000332D5345545F4D4F44455F55534552C2
:104090005F4155544F00322D5345545F53504545B1
:1040A000445F4D415800312D5345545F4D4F544F9F
:1040B00052535F4F464600302D5345545F4D4F5489
:1040C0004F52535F4F4E005573652055502F444F4C
:1040D000574E206172726F777320746F2073637212
:1040E0006F6C6C0A0D5072657373204120746F20E1
:1040F00073656C6563740A0D50726573732042209A
:10410000746F20657869740A0A0D000C5553455286
:104110005F4D414E55414C5F4D4F44450A0A0D30AD
:104120002D5345545F4D4F544F52535F4F4E0A0D20
:10413000312D5345545F4D4F544F52535F4F4646B8
:104140000A0D322D5345545F53504545445F4D4150
:10415000580A0D332D5345545F4D4F44455F555319
:1041600045525F4155544F0A0D342D5345545F4D10
:104170004F44455F464143544F52590A0D00496E22
:10418000697469616C6973696E672E2E2E0A0D0061
:104190000C57656C636F6D6520746F2074686520C3
:1041A000486172616D626520536F756C205365655F
:1041B0006B65720A0D5072657373204120746F2015
:1041C000656E74657220636F6D6D616E64732061DE
:1041D0006E642055502F444F574E206172726F7796
:1041E0007320746F207363726F6C6C0A0D496E6973
:1041F0007469616C6973696E672E2E2E0A0D000D4D
:1042000020202020202020202020202020202020AE
:10421000202020202020202020202020202020209E
:10422000202020202020202020200D0057726F6E9B
:10423000672050617373636F646500550044004CE0
:0B424000005200480046004100420010
:01424B000072
:04424C001200D9CFB4
:10425000E6FFE1CFD9FFE652F70EDBCFE9FFF80E1C
:10426000DBCFEAFF040EE926000EEA22EF5001E060
:10427000D2D0030E0001E75D01E092D0F70EDBCF54
:10428000E9FFF80EDBCFEAFF030EE926000EEA2273
:10429000010EEF6EF70EDBCFE9FFF80EDBCFEAFF82
:1042A000030EE926000EEA22EF5001E1F3D7F70EE4
:1042B000DBCFE9FFF80EDBCFEAFF030EE926000EA5
:1042C000EA22EF50E66EE8C0E9FFEA6AE9BEEA6872
:1042D000DB0EE926000EEA22E552E750EF6E0C0EE7
:1042E0000001E76EE819E8AE02D0E73402D0E750EB
:1042F000E85D27E2E82B030EE76FFB0EDBCFE9FF5B
:10430000FC0EDBCFEAFF020EE926000EEA22520E77
:10431000EF6EFB0EDBCFE9FFFC0EDBCFEAFFE80E12
:10432000EE6E020EED6EF70EDBCFE9FFF80EDBCF7F
:10433000EAFF040EE926000EEA22010EEF6E6DD0B0
:1043400069D0FD0EDBCFE6FFFE0EDBCFE6FFDB0E16
:10435000E66E000EE66E66D8E552E552E552E5528D
:10436000DF6E0001E86BDFCF14F0320EE76E141839
:10437000E8AE02D0143403D0E750D88014540CE2D5
:10438000FD0EDBCFE9FFFE0EDBCFEAFF070EE926CD
:10439000000EEA22010EEF6E010EE76F000E3DD017
:1043A000E70531E1F60EDB041EE1F70EDBCFE6FF99
:1043B000F80EDBCFE6FFFB0EDBCFE6FFFC0EDBCF1C
:1043C000E6FFF90EDBCFE6FFFA0EDBCFE6FF90D873
:1043D000146E060EE15E1450000902E0010E1DD0BD
:1043E000000E1BD00FD0F60EDB5002080BE1FB0EC7
:1043F000DBCFE6FFFC0EDBCFE6FFA5D9E552E552A9
:10440000010E0BD007D0020EE75D04E1010EE76F4D
:10441000000E03D002D0000E00D0E552E552E7CFE7
:10442000D9FF1200D9CFE6FFE1CFD9FF030EE12675
:10443000010EDB6A020EDB6ADF6ADFCF14F00C0EBE
:10444000E76E1418E8AE02D0E73402D0E750145CEF
:1044500030E2DFCF15F0166A15BE1668FD0EDB5090
:104460001524E96EFE0EDB501620EA6EEFCF14F035
:10447000020EDB50E76E1418E8AE02D0143403D0FD
:10448000E750D880145413E2010EDFCFDBFFDFCFFB
:1044900014F0156A14BE1568FD0EDB501424E96E85
:1044A000FE0EDB501520EA6E020EEFCFDBFFDF2A97
:1044B000C4D7FB0EDBCFE9FFFC0EDBCFEAFFEE52E9
:1044C000010EDBCFEFFF020EDBCFEBF0010EDBCFF7
:1044D000EAF0020EDB50146E030EE15C03E200D042
:1044E000E16AE552E16E1450E552E7CFD9FF1200C0
:1044F000D9CFE6FFE1CFD9FFFD0EDBCFE9FFFE0EFE
:10450000DBCFEAFFEE52EF50550831E1FB0EDBCF77
:10451000E9FFFC0EDBCFEAFFE80EEE6E020EED6E59
:10452000FD0EDBCFE9FFFE0EDBCFEAFFEE52EF50D0
:10453000E66EFB0EDBCFE9FFFC0EDBCFEAFF020EDF
:10454000E926000EEA22E552E750EF6E0001020E66
:10455000E76FF90EDBCFE9FFFA0EDBCFEAFF040EBF
:10456000E926000EEA22010EEF6EE9D0E6D0FD0E3C
:10457000DBCFE9FFFE0EDBCFEAFFEE52EF5044083F
:1045800031E1FB0EDBCFE9FFFC0EDBCFEAFFE80EEB
:10459000EE6E020EED6EFD0EDBCFE9FFFE0EDBCF01
:1045A000EAFFEE52EF50E66EFB0EDBCFE9FFFC0EAA
:1045B000DBCFEAFF020EE926000EEA22E552E750C1
:1045C000EF6E0001020EE76FF90EDBCFE9FFFA0E86
:1045D000DBCFEAFF040EE926000EEA22010EEF6EA1
:1045E000AED0ABD0FD0EDBCFE9FFFE0EDBCFEAFF96
:1045F000EE52EF50520831E1FB0EDBCFE9FFFC0E2B
:10460000DBCFEAFFE80EEE6E020EED6EFD0EDBCFA5
:10461000E9FFFE0EDBCFEAFFEE52EF50E66EFB0E37
:10462000DBCFE9FFFC0EDBCFEAFF020EE926000E2E
:10463000EA22E552E750EF6E0001020EE76FF90E35
:10464000DBCFE9FFFA0EDBCFEAFF040EE926000E0E
:10465000EA22010EEF6E73D070D0FD0EDBCFE9FFC2
:10466000FE0EDBCFEAFFEE52EF504C0831E1FB0EBD
:10467000DBCFE9FFFC0EDBCFEAFFE80EEE6E020EA9
:10468000ED6EFD0EDBCFE9FFFE0EDBCFEAFFEE5253
:10469000EF50E66EFB0EDBCFE9FFFC0EDBCFEAFF4F
:1046A000020EE926000EEA22E552E750EF6E000105
:1046B000020EE76FF90EDBCFE9FFFA0EDBCFEAFF60
:1046C000040EE926000EEA22010EEF6E38D035D036
:1046D000FD0EDBCFE9FFFE0EDBCFEAFFEE52EF501F
:1046E000460811E10001030EE76FF90EDBCFE9FF89
:1046F000FA0EDBCFEAFF040EE926000EEA22010ED5
:10470000EF6E1DD01AD0FD0EDBCFE9FFFE0EDBCF22
:10471000EAFFEE52EF50480810E10001030EE76F88
:10472000F90EDBCFE9FFFA0EDBCFEAFF040EE92634
:10473000000EEA22010EEF6E02D0000E00D0E5520C
:10474000E7CFD9FF1200D9CFE6FFE1CFD9FF0C0E9A
:10475000E1260001E90504E1030EE76FE96FA5D04A
:10476000030EE95D2EE1FD0EDBCFE9FFFE0EDBCF90
:10477000EAFF020EE926000EEA22520EEF6EEAC0B0
:1047800014F0156A14BE1568E80E1502F3CF15F083
:10479000020E1402F3501526E80E1402F3CF14F0A3
:1047A000F4501526FD0EDBCFE9FFFE0EDBCFEAFF4E
:1047B00014C0EEFF15C0EDFF020EE76F040EE96FA7
:1047C00074D0040EE95D6BE1640EDE6EDD6AC80E26
:1047D000F36E020EF3CFDBFF030EDB6A2C0EF36EDB
:1047E000040EF3CFDBFF010EF36E050EF3CFDBFFFC
:1047F000900EF36E060EF3CFDBFF010EF36E070E85
:10480000F3CFDBFFF40EF36E080EF3CFDBFF010EE8
:10481000F36E090EF3CFDBFF580EF36E0A0EF3CFE3
:10482000DBFF020EF36E0B0EF3CFDBFFFD0EDBCFD3
:10483000E9FFFE0EDBCFEAFF020EE926000EEA22B8
:10484000460EEF6ED9CF16F0DACF17F00A0E1A6EB9
:104850001AC00EF0EBC009F032EC2FF009C018F0CE
:10486000196A18BE1968D8901836193616501824C7
:10487000E96E17501920EA6EEECF14F0EFCF15F065
:10488000FD0EDBCFE9FFFE0EDBCFEAFF14C0EEFF2B
:1048900015C0EDFF0001020EE76FE96F06D0020EB2
:1048A000E95D03E1010EE76FE96F0C0EE15C02E2E6
:0E48B000E16AE552E16EE552E7CFD9FF120052
:0248BE00BEEC4E
:1048C0002FF0F18E819493840F0EC16E829894988C
:1048D000F088F08EF092F1981200D9CFE6FFE1CF88
:1048E000D9FFC5EC2FF00001FC6F4B0EFC5D0AE117
:1048F000FD0EDBCFFDF0FE0EDBCFFEF00101010E61
:104900007F6F1ED04F0EFC5D0BE1FB0EDBCFE9FF8E
:10491000FC0EDBCFEAFF010EEF6E01017F6B10D0C2
:104920007A0EFC5D0DE001017F050AE1FDC0E9FFA3
:10493000FEC0EAFFFCC0EFFF0001FD2B000EFE23CE
:1049400000D0E552E7CFD9FF1200D9CFE6FFE1CF83
:10495000D9FF100EE126FE0EDB50DF6EFC0EDBCF22
:1049600008F0FD0EDBCF09F0DE5208C0DEFF09C003
:10497000DDFFDD52100EF36E030EF3CFDBFF100EE2
:10498000F36E040EF3CFDBFF100EF36E050EF3CFC4
:10499000DBFF100EF36E060EF3CFDBFF070EDB6AB4
:1049A000200EF36E080EF3CFDBFF090EDB6A0C0E50
:1049B000F36E0A0EF3CFDBFF0B0EDB6A010EDBCFCB
:1049C00008F0020EDBCF09F00E0E08C0DBFF0F0E61
:1049D00009C0DBFF090EDBCF14F0040EE76E1418DC
:1049E000E8AE02D0E73402D0E750145C01E377D0A0
:1049F0000E0EDBCF16F00F0EDBCF17F00A0EDB50DA
:104A000016C014F017C015F005E0D8901532143216
:104A1000E804FBE10C0E14C0DBFF0D0E15C0DBFF3C
:104A2000D950030F1C6EDACF1DF0090EDBCF1EF03C
:104A30001F6A1EBE1F681C501E24E96E1D501F20D9
:104A4000EA6EEFCF1AF01B6A1ABE1B680C0EDB5021
:104A50001A10186E0D0EDB501B10196ED950030F73
:104A6000146EDACF15F0090EDBCF16F0176A16BEFA
:104A7000176814501624E96E15501720EA6E18C0F6
:104A8000EFFF0C0EDBCF18F00D0EDBCF19F00A0E86
:104A9000DB5018C016F019C017F005E0D890163694
:104AA0001736E804FBE10E0EDBCF08F00F0EDBCF6C
:104AB00009F01650085C146E17500958156E0E0E4A
:104AC00014C0DBFF0F0E15C0DBFF0A0EDB50FC0F1E
:104AD000E76E0A0EE7CFDBFF090EDB2A7BD7D95042
:104AE000030F1C6EDACF1DF0090EDBCF1EF01F6A1C
:104AF0001EBE1F681C501E24E96E1D501F20EA6E4A
:104B0000EFCF1AF01B6A1ABE1B680C0EDB501A108E
:104B1000186E0D0EDB501B10196ED950030F146E5A
:104B2000DACF15F0090EDBCF16F0176A16BE17683C
:104B300014501624E96E15501720EA6E18C0EFFFC6
:104B40004B0EE66EE6EC2FF0E552640EE66ED7EC07
:104B500032F0E5525E0EE66EE6EC2FF0E552640EA2
:104B6000E66ED7EC32F0E5520B0EDBCF14F0040EFC
:104B7000E76E1418E8AE02D0E73402D0E750145CB8
:104B80001EE2D950030F146EDACF15F00B0EDBCFF7
:104B900016F0176A16BE176814501624E96E1550E1
:104BA0001720EA6EEF50E66EE6EC2FF0E5520B0EA2
:104BB000DB2A640EE66ED7EC32F0E552D5D7640EF0
:104BC000E66ED7EC32F0E552DFCFE6FFE6EC2FF0F1
:104BD000E552640EE66ED7EC32F0E5524F0EE66E0B
:104BE000E6EC2FF0E552640EE66ED7EC32F0E552BB
:104BF000100EE15C03E200D0E16AE552E16EE5529D
:104C0000E7CFD9FF12004B0EE66EE6EC2FF0E5522F
:104C1000040EE66ED7EC32F0E5525E0EE66EE6EC80
:104C20002FF0E552040EE66ED7EC32F0E5527E0E20
:104C3000E66EE6EC2FF0E552040EE66ED7EC32F0AD
:104C4000E5524F0EE66EE6EC2FF0E55200D0120072
:104C5000D9CFE6FFE1CFD9FF030EE126010EDB6AD3
:104C6000FD0EDBCFE9FFFE0EDBCFEAFFEF505E0863
:104C700001E0F9D0FD0EDB2AFE0E01E3DB2ADF6A3C
:104C8000FD0EDBCFE9FFFE0EDBCFEAFFEF507E0823
:104C900009E1F50EDBCFE9FFF60EDBCFEAFF010EEF
:104CA000EF6EE1D0FD0EDBCFE9FFFE0EDBCFEAFFBA
:104CB000EF50F00BE76E020EE7CFDBFFDB50200872
:104CC0002AE1DFCF14F0030EE76E1418E8AE02D02D
:104CD000E73402D0E750145C1EE2FD0EDBCFE9FFA3
:104CE000FE0EDBCFEAFFEF500F0BE66EFB0EDBCFC5
:104CF000E9FFFC0EDBCFEAFFE552E750EF6EFB0E5B
:104D0000DB2AFC0E01E3DB2AFD0EDB2AFE0E01E3AB
:104D1000DB2ADF2AD6D7F70EDBCFE9FFF80EDBCF91
:104D2000EAFFEF6ADF6AFD0EDBCFE9FFFE0EDBCFA5
:104D3000EAFFEF50F00BE76E020EE7CFDBFFDB5030
:104D4000300805E0020EDB50400801E08BD0DFCFD9
:104D500014F0020EE76E1418E8AE02D0E73402D069
:104D6000E750145C6CE2F70EDBCFE9FFF80EDBCF07
:104D7000EAFFEF38F00BE66EF70EDBCFE9FFF80E37
:104D8000DBCFEAFFE552E750EF6E020EDB50300852
:104D900024E1FD0EDBCFE9FFFE0EDBCFEAFFEF5093
:104DA000D00F146EF70EDBCFE9FFF80EDBCFEAFF72
:104DB000EF501410E66EF70EDBCFE9FFF80EDBCFF5
:104DC000EAFFE552E750EF6EF70EDBCFE9FFF80E92
:104DD000DBCFEAFFEF5001E1DF2A020EDB50400893
:104DE0001BE1FD0EDBCFE9FFFE0EDBCFEAFFEF504C
:104DF000C90F146EF70EDBCFE9FFF80EDBCFEAFF29
:104E0000EF501410E66EF70EDBCFE9FFF80EDBCFA4
:104E1000EAFFE552E750EF6EFD0EDB2AFE0E01E3DE
:104E2000DB2AFD0EDBCFE9FFFE0EDBCFEAFFEF5002
:104E3000F00BE76E020EE7CFDBFFDF2A88D7FD0E0F
:104E4000DBCFE9FFFE0EDBCFEAFFEF500F0BE66E84
:104E5000F90EDBCFE9FFFA0EDBCFEAFFE552E750B0
:104E6000EF6E01D000D0030EE15C02E2E16AE55290
:104E7000E16EE552E7CFD9FF1200020EE66EBBEC01
:104E800032F0E552040EE66ED7EC32F0E552000047
:104E90000000000000000000000000000000000012
:104EA0001200010EE66EBBEC32F0E552020EE66E29
:104EB000D7EC32F0E55200001200020EE66EBBECB9
:104EC00032F0E552040EE66ED7EC32F0E552000007
:0E4ED0000000000000000000000000001200C2
:024EDE00F29E42
:104EE000F29C43EC2DF05FEC24F00001806B0A0E85
:104EF000826F836F846F856F866F876F886F896F0E
:104F00008A6B8B6B8D6B8E6F1E0E8F6F140E906F76
:104F10000A0E916F010E926F936F946B956B966F63
:104F2000976B986B01015E6F0001550E816FA56B49
:104F3000B0C0D9F0DA6BD9BFDA69AEC0D9F0AFC072
:104F4000DAF0E80EAE6F030EAF6F620EB06FF28C48
:104F5000D08EF28E800EE66E000EE66ED00EE66EFD
:104F6000000EE66E55EC2DF0E552E552E552E552A5
:104F700080C08CF082C099F083C09AF084C09BF00E
:104F800085C09CF087C09EF088C09FF089C0A0F0CB
:104F900086C09DF00001B10524E1D50EE66E000E3D
:104FA000E66ED40EE66E000EE66E5F0EE66E010E45
:104FB000E66ED10EE66E000EE66EB20EE66E000EE6
:104FC000E66E28EC26F0146E0A0EE15E1450D1C095
:104FD000A1F0D2C0A2F0D3C0A3F05FC1A5F0000140
:104FE000B16B80C0E6FF5EC1E6FF38D9E552E552FD
:104FF00001015E6F5E0505E10001D92B000EDA2389
:1050000007D0020E5E5D04E10001D92B000EDA2309
:10501000440E0001815D04E1D92B000EDA2306D095
:10502000550E815D03E1D92B000EDA23A50502E1BF
:10503000D96BDA6B5EC1E6FFA10EE66E000EE66E7E
:10504000800EE66E000EE66EAE0EE66E000EE66EAA
:105050008C0EE66E000EE66E27EC21F0146E090E43
:10506000E15E14500101626F8C0EE66E000EE66E7A
:1050700089EC2DF0E552E55201015E5102E1000E8E
:1050800001D0010E621511E00001D92B000EDA23C8
:10509000AEC0E6FFAFC0E6FFB0C0E6FFA5EC24F06F
:1050A000E552E552E5520101626B54D71200DACFA6
:1050B000E4FFE2CFDAFFE9CFE4FFEACFE4FFF6CF87
:1050C000E4FFF7CFE4FFF5CFE4FFF3CFE4FFF4CF45
:1050D000E4FFFACFE4FF00EE00F0140EE80403E36F
:1050E000EECFE4FFFBD700EE14F00C0EE80403E370
:1050F000EECFE4FFFBD7E65281A20AD0F090D00EAB
:10510000E66E000EE66E67EC29F0E552E5521AD025
:10511000F2A408D0F294F29AD59E010E0101606FBC
:10512000616B10D09EAA09D0D00EE66E000EE66E1E
:10513000FEEC29F0E552E55205D0A1A003D0A190E4
:10514000EFEC2AF0E55200EE1FF00C0EE80403E34A
:10515000E5CFEDFFFBD700EE13F0140EE80403E3F8
:10516000E5CFEDFFFBD7E5CFFAFFE5CFF4FFE5CFC5
:10517000F3FFE5CFF5FFE5CFF7FFE5CFF6FFE5CF8E
:10518000EAFFE5CFE9FFE5CFDAFF1100DACFE4FF70
:10519000E2CFDAFFE9CFE4FFEACFE4FFF6CFE4FFA6
:1051A000F7CFE4FFF5CFE4FFF3CFE4FFF4CFE4FF64
:1051B000FACFE4FF00EE00F0140EE80403E3EECFB4
:1051C000E4FFFBD700EE14F00C0EE80403E3EECF8F
:1051D000E4FFFBD7E652F29EF0A210D0F092B10E9F
:1051E000E66E000EE66EB20EE66E000EE66E6DEC3A
:1051F00024F0E552E552E552E5520BD081A009D0EA
:10520000F292D00EE66E000EE66EDEEC2AF0E5526B
:10521000E552F28EE55200EE1FF00C0EE80403E3B7
:10522000E5CFEDFFFBD700EE13F0140EE80403E327
:10523000E5CFEDFFFBD7E5CFFAFFE5CFF4FFE5CFF4
:10524000F3FFE5CFF5FFE5CFF7FFE5CFF6FFE5CFBD
:10525000EAFFE5CFE9FFE5CFDAFF1100D9CFE6FF9E
:10526000E1CFD9FFFD0EDB5000D0E552E7CFD9FFEB
:0252700012002A
:0E527200F18E816A1F0E936E94860F0EC16E30
:10528000F288F292F18CF086F09CF090F18AF0981E
:10529000F092F290F296F1801200D9CFE6FFE1CFC2
:1052A000D9FFFD0EDBCFF6FFFE0EDBCFF7FF0800C8
:1052B000F550E66EFB0EDBCFE9FFFC0EDBCFEAFF1D
:1052C000E552E750EF6EE552E7CFD9FF1200D9CF94
:1052D000E6FFE1CFD9FF80A810D0FD0EDBCFE6FFBF
:1052E000FE0EDBCFE6FF490EE66E420EE66ED5DF20
:1052F000E552E552E552E5527DD080AA10D0FD0E70
:10530000DBCFE6FFFE0EDBCFE6FF470EE66E420E7A
:10531000E66EC3DFE552E552E552E5526BD081A659
:1053200010D0FD0EDBCFE6FFFE0EDBCFE6FF450E15
:10533000E66E420EE66EB1DFE552E552E552E55209
:1053400059D082A610D0FD0EDBCFE6FFFE0EDBCFDC
:10535000E6FF430EE66E420EE66E9FDFE552E55233
:10536000E552E55247D080A010D0FD0EDBCFE6FF1E
:10537000FE0EDBCFE6FF410EE66E420EE66E8DDFDF
:10538000E552E552E552E55235D080A610D0FD0E2B
:10539000DBCFE6FFFE0EDBCFE6FF3F0EE66E420EF2
:1053A000E66E7BDFE552E552E552E55223D080A25E
:1053B00010D0FD0EDBCFE6FFFE0EDBCFE6FF3D0E8D
:1053C000E66E420EE66E69DFE552E552E552E552C1
:1053D00011D080A40FD0FD0EDBCFE6FFFE0EDBCF99
:1053E000E6FF3B0EE66E420EE66E57DFE552E552F3
:1053F000E552E552E552E7CFD9FF1200D9CFE6FFDB
:10540000E1CFD9FF7F0EAE5C10E1FD0EDBCFE6FFF2
:10541000FE0EDBCFE6FF490EE66E420EE66E3DDF86
:10542000E552E552E552E55296D00D0EAE5C10E124
:10543000FD0EDBCFE6FFFE0EDBCFE6FF470EE66E8E
:10544000420EE66E2ADFE552E552E552E55283D080
:10545000660EAE5C03E0460EAE5C10E1FD0EDBCFE7
:10546000E6FFFE0EDBCFE6FF450EE66E420EE66E71
:1054700014DFE552E552E552E5526DD0680EAE5CA0
:1054800003E0480EAE5C10E1FD0EDBCFE6FFFE0E42
:10549000DBCFE6FF430EE66E420EE66EFEDEE55221
:1054A000E552E552E55257D0610EAE5C03E0410E85
:1054B000AE5C10E1FD0EDBCFE6FFFE0EDBCFE6FFBC
:1054C0003F0EE66E420EE66EE8DEE552E552E5522C
:1054D000E55241D0640EAE5C03E0440EAE5C10E1D8
:1054E000FD0EDBCFE6FFFE0EDBCFE6FF410EE66EE4
:1054F000420EE66ED2DEE552E552E552E5522BD081
:10550000730EAE5C03E0530EAE5C10E1FD0EDBCF1C
:10551000E6FFFE0EDBCFE6FF3D0EE66E420EE66EC8
:10552000BCDEE552E552E552E55215D0770EAE5C91
:1055300003E0570EAE5C0FE1FD0EDBCFE6FFFE0E83
:10554000DBCFE6FF3B0EE66E420EE66EA6DEE552D0
:10555000E552E552E552E552E7CFD9FF1200D9CF27
:10556000E6FFE1CFD9FFE652FD0EDBCFE9FFFE0EED
:10557000DBCFEAFFEFCFDFFFFD0EDBCFE9FFFE0E53
:10558000DBCFEAFFEF6ADF5000D0E552E552E7CF0C
:10559000D9FF1200D9CFE6FFE1CFD9FFFD0EDBCF57
:1055A000E9FFFE0EDBCFEAFFEF6AE552E7CFD9FF56
:1055B000120081A800D081B800D01200D9CFE6FF38
:1055C000E1CFD9FFFD0EDBCFE6FFFE0EDBCFE6FF1E
:0E55D000E1DFE552E552E552E7CFD9FF1200C8
:0255DE0082A4A5
:1055E00006D0829467C1BCFF69C1BBFF07D082B4FB
:1055F00005D0828463C1BCFF65C1BBFF1200BB6ADA
:10560000890EB16E829494940B0EBA6EA190A08014
:10561000A29012008284110EBC6E170EBB6E120097
:10562000D9CFE6FFE1CFD9FFFD0EDBCFE6FFFE0EBF
:10563000DBCFE6FF0FD8E552E552FD0EDBCFE6FFEC
:10564000FE0EDBCFE6FF98D8E552E552E552E7CFF4
:10565000D9FF1200D9CFE6FFE1CFD9FFFD0EDBCF96
:1056600014F0FE0EDBCF15F00001800E151410E1D2
:10567000FD0EDBCF16F0FE0EDBCF17F0D8901750E3
:1056800004E6170E165C000E175802E22FD970D0F0
:10569000FD0EDBCF14F0FE0EDBCF15F0D8901550C9
:1056A00004E6170E145C000E15580FE3FD0EDBCF59
:1056B00016F0FE0EDBCF17F0173404E21650440844
:1056C000000E175402E31AD953D0FD0EDBCF14F0AD
:1056D000FE0EDBCF15F0153404E214504408000E22
:1056E00015540FE2FD0EDBCF16F0FE0EDBCF17F0E8
:1056F000173404E216507108000E175402E306D95D
:1057000037D0FD0EDBCF14F0FE0EDBCF15F01534D5
:1057100004E214507108000E15540FE2FD0EDBCFA9
:1057200016F0FE0EDBCF17F0173404E216509E0879
:10573000000E175402E3F2D81BD0FD0EDBCF14F09D
:10574000FE0EDBCF15F0153404E214509E08000E57
:1057500015540EE2FD0EDBCF16F0FE0EDBCF17F078
:10576000173404E21650B408000E175401E3DED8D3
:10577000E552E7CFD9FF1200D9CFE6FFE1CFD9FF3D
:10578000FD0EDBCF14F0FE0EDBCF15F00001800E16
:10579000151410E1FD0EDBCF16F0FE0EDBCF17F077
:1057A000D890175004E6170E165C000E175802E248
:1057B00075D870D0FD0EDBCF14F0FE0EDBCF15F0E8
:1057C000D890155004E6170E145C000E15580FE320
:1057D000FD0EDBCF16F0FE0EDBCF17F0173404E220
:1057E00016504408000E175402E360D853D0FD0E43
:1057F000DBCF14F0FE0EDBCF15F0153404E21450AD
:105800004408000E15540FE2FD0EDBCF16F0FE0E1D
:10581000DBCF17F0173404E216507108000E17544E
:1058200002E34CD837D0FD0EDBCF14F0FE0EDBCFF9
:1058300015F0153404E214507108000E15540FE2EF
:10584000FD0EDBCF16F0FE0EDBCF17F0173404E2AF
:1058500016509E08000E175402E338D81BD0FD0ED8
:10586000DBCF14F0FE0EDBCF15F0153404E214503C
:105870009E08000E15540EE2FD0EDBCF16F0FE0E54
:10588000DBCF17F0173404E21650B408000E17549B
:1058900001E324D8E552E7CFD9FF1200090E010138
:1058A000636F646BC40E656F666B12000E0E0101B0
:1058B000636F646BA60E656F666B1200110E0101BB
:1058C000636F646B170E656F666B1200130E010138
:1058D000636F646B880E656F666B12001A0E0101B0
:1058E000636F646BDB0E656F666B1200B90E0101AE
:1058F000676F686B8C0E696F6A6B1200B40E0101E2
:10590000676F686BAA0E696F6A6B1200B20E0101B5
:10591000676F686B390E696F6A6B1200AF0E010119
:10592000676F686BC80E696F6A6B1200A80E010181
:0C593000676F686B750E696F6A6B120080
:04593C002B0EE66EDA
:10594000C8EC2DF0E5521200D9CFE6FFE1CFD9FF28
:1059500012EC32F0000901E0FBD7800EE66E5AEC43
:1059600031F0E55212EC32F0000901E0FBD7FD0EF8
:10597000DBCF14F0FE0EDBCF15F0166A14C0E6FF85
:1059800015C0E6FF16C0E6FF7CEC30F0E552E552AC
:10599000E552E552E7CFD9FF1200D9CFE6FFE1CFBC
:1059A000D9FF12EC32F0000901E0FBD7800EE66E61
:1059B0005AEC31F0E55212EC32F0000901E0FBD76D
:1059C000FD0EDBCFE6FFFE0EDBCFE6FF81EC31F014
:1059D000E552E552E552E7CFD9FF1200D9CFE6FFF5
:1059E000E1CFD9FF12EC32F0000901E0FBD7C00E85
:1059F000E66E5AEC31F0E55212EC32F0000901E0AB
:105A0000FBD7FD0EDBCF14F0FE0EDBCF15F0166AD0
:105A100014C0E6FF15C0E6FF16C0E6FF7CEC30F0D0
:105A2000E552E552E552E552E7CFD9FF1200D9CF52
:105A3000E6FFE1CFD9FF12EC32F0000901E0FBD71D
:105A4000C00EE66E5AEC31F0E55212EC32F000096D
:105A500001E0FBD7FD0EDBCFE6FFFE0EDBCFE6FF5E
:105A600081EC31F0E552E552E552E7CFD9FF120063
:105A700012EC32F0000901E0FBD7010EE66E5AECA1
:065A800031F0E5521200B6
:0A5A86009EEC2CF039EC29F0DBEC6B
