:020000040000FA
:06000000F7EF35F01200DD
:020006001200E6
:06000800E7EF2DF01200ED
:02000E001200DE
:020010001200DC
:020012000000EC
:0600180087EF2DF012003D
:02001E000400DC
:100020001F5600002301000001000000716C000059
:100030001201000007000000696C00000A010000C6
:1000400008000000120000001F0100000200000074
:10005000D9CFE6FFE1CFD9FFFD0EDBCFE9FFFE0EE2
:10006000DBCFEAFFEFCF14F0120E01011525E96E88
:10007000010E1621EA6EEF50145C11E1152B000EF3
:100080001623020E151901E1165105E1020EF36E59
:10009000F46A0AD009D0010EF36EF46A05D0156B2C
:1000A000166BF36AF46A00D0E552E7CFD9FF12006D
:1000B000D9CFE6FFE1CFD9FFFD0EDBCFE9FFFE0E82
:1000C000DBCFEAFFEE50ED100EE1960ED56EF28A10
:1000D000F294F194FD0EDBCFE9FFFE0EDBCFEAFFD9
:1000E000010EEE6EED6A01011F51201110E0010EAC
:1000F000F36EF46A0FD001011F6B206BFD0EDBCF96
:10010000E9FFFE0EDBCFEAFFEE6AED6A03D0F36A89
:10011000F46A00D0E552E7CFD9FF1200D9CFE6FF4D
:10012000E1CFD9FFFB0EDBCFE9FFFC0EDBCFEAFF0F
:10013000EE50ED1001E0BCD1FD0EDBCFE9FFFE0E6D
:10014000DBCFEAFFEF50030A01E118D1010A01E118
:10015000BCD0030A61E0010A01E069D1F90EDBCFEE
:10016000E9FFFA0EDBCFEAFFEECF08F0EDCF09F0A2
:10017000010E081801E1095026E0085001E109507C
:1001800001E049D0170EE66E010EE66E91DFE552F2
:10019000E552F3CF14F0F4CF15F01450151012E01F
:1001A000F90EDBCFE9FFFA0EDBCFEAFF010EEE6EB0
:1001B000ED6AF30EDBCFE9FFF40EDBCFEAFF010EB1
:1001C000EE6EED6A28D0170EE66E010EE66E70DF59
:1001D000E552E552F3CF14F0F4CF15F0145015109A
:1001E00019E0FD0EDBCFE9FFFE0EDBCFEAFF010ECB
:1001F000EF6EF90EDBCFE9FFFA0EDBCFEAFFEE6A16
:10020000ED6AF30EDBCFE9FFF40EDBCFEAFF010E60
:10021000EE6EED6A00D00BD1F90EDBCFE9FFFA0EDE
:10022000DBCFEAFFEECF08F0EDCF09F0010E0818A2
:1002300001E1095026E0085001E1095001E044D0F5
:10024000170EE66E010EE66E33DFE552E552F3CF90
:1002500014F0F4CF15F01450151012E0F90EDBCFA6
:10026000E9FFFA0EDBCFEAFF010EEE6EED6AF30E48
:10027000DBCFE9FFF40EDBCFEAFF010EEE6EED6A95
:1002800023D0F50EDBCFE9FFF60EDBCFEAFFEF5010
:10029000410819E1FB0EDBCFE9FFFC0EDBCFEAFFE3
:1002A000010EEE6EED6AF90EDBCFE9FFFA0EDBCF41
:1002B000EAFFEE6AED6AF70EDBCFE9FFF80EDBCF5F
:1002C000EAFFEE6AED6A00D0B2D0F90EDBCFE9FFAB
:1002D000FA0EDBCFEAFFEECF08F0EDCF09F0010E0A
:1002E000081801E1095026E0085001E1095001E039
:1002F00044D0170EE66E010EE66EDADEE552E552E8
:10030000F3CF14F0F4CF15F01450151012E0F90EDD
:10031000DBCFE9FFFA0EDBCFEAFF010EEE6EED6AEE
:10032000F30EDBCFE9FFF40EDBCFEAFF010EEE6E3A
:10033000ED6A23D0F50EDBCFE9FFF60EDBCFEAFF47
:10034000EF50410819E1FB0EDBCFE9FFFC0EDBCFDC
:10035000EAFF010EEE6EED6AF90EDBCFE9FFFA0E51
:10036000DBCFEAFFEE6AED6AF70EDBCFE9FFF80EAE
:10037000DBCFEAFFEE6AED6A00D059D0F90EDBCF91
:10038000E9FFFA0EDBCFEAFFEECF08F0EDCF09F080
:10039000010E081801E1095026E0085001E109505A
:1003A00001E044D0170EE66E010EE66E81DEE552E6
:1003B000E552F3CF14F0F4CF15F01450151012E0FD
:1003C000F90EDBCFE9FFFA0EDBCFEAFF010EEE6E8E
:1003D000ED6AF30EDBCFE9FFF40EDBCFEAFF010E8F
:1003E000EE6EED6A23D0F50EDBCFE9FFF60EDBCF24
:1003F000EAFFEF50410819E1FB0EDBCFE9FFFC0EED
:10040000DBCFEAFF010EEE6EED6AF90EDBCFE9FFFE
:10041000FA0EDBCFEAFFEE6AED6AF70EDBCFE9FFFB
:10042000F80EDBCFEAFFEE6AED6A00D000D0F50EE1
:10043000DBCFE9FFF60EDBCFEAFFEF50410809E022
:10044000F50EDBCFE9FFF60EDBCFEAFFEF504208F7
:100450001BE1FD0EDBCFE9FFFE0EDBCFEAFFEE5224
:10046000EF6AF50EDBCFE9FFF60EDBCFEAFFEF50C8
:10047000410809E1F30EDBCFE9FFF40EDBCFEAFF21
:10048000010EEE6EED6A12D0F50EDBCFE9FFF60E2F
:10049000DBCFEAFFEF50E66EFD0EDBCFE9FFFE0E8D
:1004A000DBCFEAFFEE52E552E750EF6E97EF0BF02D
:1004B000FB0EDBCFE9FFFC0EDBCFEAFF010EEE18EF
:1004C00001E1ED5002E097EF0BF0FD0EDBCFE9FF0D
:1004D000FE0EDBCFEAFFEF50030A01E12ED3010A43
:1004E00001E110D2030A02E059EF0BF0F90EDBCF65
:1004F000E9FFFA0EDBCFEAFFEECF08F0EDCF09F00F
:10050000020E081801E1095001E1FCD0010E0818A3
:1005100001E1095026E0085001E1095001E0F0D165
:10052000170EE66E010EE66EC3DDE552E552F3CF1F
:1005300014F0F4CF15F01450151012E0F90EDBCFC3
:10054000E9FFFA0EDBCFEAFF010EEE6EED6AF30E65
:10055000DBCFE9FFF40EDBCFEAFF010EEE6EED6AB2
:10056000CFD1F50EDBCFE9FFF60EDBCFEAFFEF5080
:10057000410842E1F70EDBCFE9FFF80EDBCFEAFFDF
:10058000030EEE1801E1ED500AE0F90EDBCFE9FFB2
:10059000FA0EDBCFEAFF020EEE6EED6A2DD0F70EFB
:1005A000DBCFE9FFF80EDBCFEAFF030EEE1801E127
:1005B000ED5022E1FD0EDBCFE9FFFE0EDBCFEAFFBF
:1005C000020EEF6EF90EDBCFE9FFFA0EDBCFEAFF8A
:1005D000EE6AED6AF70EDBCFE9FFF80EDBCFEAFF3C
:1005E000EE6AED6AFD0EDBCFE9FFFE0EDBCFEAFF20
:1005F000140EEB6A150EEB6AF50EDBCFE9FFF60E73
:10060000DBCFEAFFEF50420818E1FB0EDBCFE9FF3A
:10061000FC0EDBCFEAFFEE6AED6AF90EDBCFE9FFF5
:10062000FA0EDBCFEAFFEE6AED6AF70EDBCFE9FFE9
:10063000F80EDBCFEAFFEE6AED6AF50EDBCFE9FFDD
:10064000F60EDBCFEAFFEF50550828E1F70EDBCFBF
:10065000E9FFF80EDBCFEAFFEECF14F0EFCF15F095
:10066000153404E214500008000E155417E2F70E7A
:10067000DBCFE9FFF80EDBCFEAFFEECF14F0EFCFD0
:1006800015F01406000E155AF70EDBCFE9FFF80E31
:10069000DBCFEAFF14C0EEFF15C0EDFFF50EDBCF98
:1006A000E9FFF60EDBCFEAFFEF5044082AE1F70E30
:1006B000DBCFE9FFF80EDBCFEAFFEECF14F0EFCF90
:1006C00015F0D890155004E6040E145C000E155871
:1006D00018E2F70EDBCFE9FFF80EDBCFEAFFEECF33
:1006E00014F0EFCF15F0010E1426000E1522F70EB0
:1006F000DBCFE9FFF80EDBCFEAFF14C0EEFF15C039
:10070000EDFFFED0F70EDBCFE9FFF80EDBCFEAFFFF
:10071000EECF08F0EDCF09F0040E081801E1095002
:1007200001E19DD0020E081801E1095035E0010EEB
:10073000081801E109501CE0085001E1095001E0EE
:10074000DED0FD0EDBCFE9FFFE0EDBCFEAFF120E9F
:10075000E926000EEA22010EEE6EED6AF90EDBCFFD
:10076000E9FFFA0EDBCFEAFF010EEE6EED6AC7D0AD
:10077000FD0EDBCFE9FFFE0EDBCFEAFF120EEB6AC8
:10078000130EEB6AF90EDBCFE9FFFA0EDBCFEAFFBF
:10079000010EEE6EED6AB3D0F50EDBCFE9FFF60E7B
:1007A000DBCFEAFFEF504C081EE1FD0EDBCFE9FF87
:1007B000FE0EDBCFEAFF020EE926000EEA22EECFA4
:1007C00014F0EFCF15F01406155AFD0EDBCFE9FF3C
:1007D000FE0EDBCFEAFF020EE926000EEA2214C06D
:1007E000EEFF15C0EDFFF50EDBCFE9FFF60EDBCF18
:1007F000EAFFEF50520820E1FD0EDBCFE9FFFE0ECD
:10080000DBCFEAFF020EE926000EEA22EECF14F05B
:10081000EFCF15F0010E1426000E1522FD0EDBCFD2
:10082000E9FFFE0EDBCFEAFF020EE926000EEA2208
:1008300014C0EEFF15C0EDFFF50EDBCFE9FFF60E9D
:10084000DBCFEAFFEF50420809E1F90EDBCFE9FF09
:10085000FA0EDBCFEAFF010EEE6EED6A50D0F50E18
:10086000DBCFE9FFF60EDBCFEAFFEF5047E0F50EF6
:10087000DBCFE6FFF60EDBCFE6FF28EC00F0E5521B
:10088000E552F3CF1BF1F4CF1CF101011B511C11F8
:1008900012E1F90EDBCFE9FFFA0EDBCFEAFF010E22
:1008A000EE6EED6A000EE66E560EE66E0AEC23F072
:1008B000E552E55223D0010E1B1901E11C5101E163
:1008C0001DD0020E1B1901E11C5118E1FD0EDBCFFA
:1008D000E9FFFE0EDBCFEAFF030EEF6EF90EDBCF72
:1008E000E9FFFA0EDBCFEAFFEE6AED6AF70EDBCF27
:1008F000E9FFF80EDBCFEAFFEE6AED6A00D000D028
:1009000059EF0BF0F90EDBCFE9FFFA0EDBCFEAFF70
:10091000EECF08F0EDCF09F0020E081801E1095002
:1009200001E1F2D0010E081801E1095027E008505A
:1009300001E1095001E0FFD0170EE66E010EE66EF0
:1009400058EC00F0E552E552F3CF14F0F4CF15F077
:100950001450151012E0F90EDBCFE9FFFA0EDBCFD1
:10096000EAFF010EEE6EED6AF30EDBCFE9FFF40E47
:10097000DBCFEAFF010EEE6EED6ADDD0F50EDBCFC8
:10098000E9FFF60EDBCFEAFFEF50410837E1F70E43
:10099000DBCFE9FFF80EDBCFEAFFEECF08F0EDCFBB
:1009A00009F0010E081801E109500FE0085001E1BB
:1009B000095001E023D0F90EDBCFE9FFFA0EDBCFBF
:1009C000EAFF020EEE6EED6A19D0FD0EDBCFE9FFF5
:1009D000FE0EDBCFEAFF010EEF6EF70EDBCFE9FF75
:1009E000F80EDBCFEAFFEE6AED6AF90EDBCFE9FF26
:1009F000FA0EDBCFEAFFEE6AED6A00D0F50EDBCF30
:100A0000E9FFF60EDBCFEAFFEF50420818E1FB0EDC
:100A1000DBCFE9FFFC0EDBCFEAFFEE6AED6AF90EF1
:100A2000DBCFE9FFFA0EDBCFEAFFEE6AED6AF70EE5
:100A3000DBCFE9FFF80EDBCFEAFFEE6AED6AF50ED9
:100A4000DBCFE9FFF60EDBCFEAFFEF50550828E1D8
:100A5000F70EDBCFE9FFF80EDBCFEAFFEECF14F0A5
:100A6000EFCF15F0153404E214500008000E1554B1
:100A700017E2F70EDBCFE9FFF80EDBCFEAFFEECF90
:100A800014F0EFCF15F01406000E155AF70EDBCF59
:100A9000E9FFF80EDBCFEAFF14C0EEFF15C0EDFF53
:100AA000F50EDBCFE9FFF60EDBCFEAFFEF5044088F
:100AB0002AE1F70EDBCFE9FFF80EDBCFEAFFEECF3E
:100AC00014F0EFCF15F0D890155004E6010E145C29
:100AD000000E155818E2F70EDBCFE9FFF80EDBCF5A
:100AE000EAFFEECF14F0EFCF15F0010E1426000E42
:100AF0001522F70EDBCFE9FFF80EDBCFEAFF14C0BB
:100B0000EEFF15C0EDFF17D0FD0EDBCFE9FFFE0EA7
:100B1000DBCFEAFF140EE926000EEA22010EEE6E8C
:100B2000ED6AF90EDBCFE9FFFA0EDBCFEAFF010E2B
:100B3000EE6EED6A00D059EF0BF0F90EDBCFE9FF56
:100B4000FA0EDBCFEAFFEECF08F0EDCF09F0030E8F
:100B5000081801E1095001E122D3020E081801E151
:100B6000095001E1F6D0010E081801E1095029E011
:100B7000085001E1095002E058EF0BF0170EE66E45
:100B8000010EE66E58EC00F0E552E552F3CF14F09A
:100B9000F4CF15F01450151012E0F90EDBCFE9FF79
:100BA000FA0EDBCFEAFF010EEE6EED6AF30EDBCF3D
:100BB000E9FFF40EDBCFEAFF010EEE6EED6A58EFAF
:100BC0000BF0F50EDBCFE9FFF60EDBCFEAFFEF50BF
:100BD000410838E1F70EDBCFE9FFF80EDBCFEAFF83
:100BE000060EEE1801E1ED500AE0F90EDBCFE9FF49
:100BF000FA0EDBCFEAFF020EEE6EED6A23D0F70E9F
:100C0000DBCFE9FFF80EDBCFEAFF060EEE1801E1BD
:100C1000ED5018E1FD0EDBCFE9FFFE0EDBCFEAFF62
:100C2000010EEF6EF90EDBCFE9FFFA0EDBCFEAFF24
:100C3000EE6AED6AF70EDBCFE9FFF80EDBCFEAFFD5
:100C4000EE6AED6AF50EDBCFE9FFF60EDBCFEAFFC9
:100C5000EF50420818E1FB0EDBCFE9FFFC0EDBCFC3
:100C6000EAFFEE6AED6AF90EDBCFE9FFFA0EDBCFA1
:100C7000EAFFEE6AED6AF70EDBCFE9FFF80EDBCF95
:100C8000EAFFEE6AED6AF50EDBCFE9FFF60EDBCF89
:100C9000EAFFEF50550828E1F70EDBCFE9FFF80E29
:100CA000DBCFEAFFEECF14F0EFCF15F0153404E2FE
:100CB00014500008000E155417E2F70EDBCFE9FFC1
:100CC000F80EDBCFEAFFEECF14F0EFCF15F01406ED
:100CD000000E155AF70EDBCFE9FFF80EDBCFEAFF67
:100CE00014C0EEFF15C0EDFFF50EDBCFE9FFF60EE9
:100CF000DBCFEAFFEF5044082AE1F70EDBCFE9FF34
:100D0000F80EDBCFEAFFEECF14F0EFCF15F0D8905E
:100D1000155004E6060E145C000E155818E2F70E86
:100D2000DBCFE9FFF80EDBCFEAFFEECF14F0EFCF19
:100D300015F0010E1426000E1522F70EDBCFE9FF89
:100D4000F80EDBCFEAFF14C0EEFF15C0EDFF58EF41
:100D50000BF0F70EDBCFE9FFF80EDBCFEAFFEECFAB
:100D600008F0EDCF09F0050E081801E1095001E186
:100D7000B2D1040E081801E1095001E149D1030E76
:100D8000081801E1095001E1E0D0020E081801E164
:100D9000095001E177D0010E081801E109500FE078
:100DA000085001E1095001E0F9D1F90EDBCFE9FF6C
:100DB000FA0EDBCFEAFF030EEE6EED6AEFD1F50E11
:100DC000DBCFE9FFF60EDBCFEAFFEF504C081EE168
:100DD000FD0EDBCFE9FFFE0EDBCFEAFF020EE926B8
:100DE000000EEA22EECF14F0EFCF15F01406155ADC
:100DF000FD0EDBCFE9FFFE0EDBCFEAFF020EE92698
:100E0000000EEA2214C0EEFF15C0EDFFF50EDBCF99
:100E1000E9FFF60EDBCFEAFFEF50520820E1FD0EAE
:100E2000DBCFE9FFFE0EDBCFEAFF020EE926000E64
:100E3000EA22EECF14F0EFCF15F0010E1426000ECB
:100E40001522FD0EDBCFE9FFFE0EDBCFEAFF020E1F
:100E5000E926000EEA2214C0EEFF15C0EDFFF50EE4
:100E6000DBCFE9FFF60EDBCFEAFFEF50420809E1E6
:100E7000F90EDBCFE9FFFA0EDBCFEAFF010EEE6ED3
:100E8000ED6A8CD1F50EDBCFE9FFF60EDBCFEAFF82
:100E9000EF504C081EE1FD0EDBCFE9FFFE0EDBCF6D
:100EA000EAFF040EE926000EEA22EECF14F0EFCF9F
:100EB00015F01406155AFD0EDBCFE9FFFE0EDBCF51
:100EC000EAFF040EE926000EEA2214C0EEFF15C068
:100ED000EDFFF50EDBCFE9FFF60EDBCFEAFFEF50BB
:100EE000520820E1FD0EDBCFE9FFFE0EDBCFEAFF6B
:100EF000040EE926000EEA22EECF14F0EFCF15F033
:100F0000010E1426000E1522FD0EDBCFE9FFFE0EAA
:100F1000DBCFEAFF040EE926000EEA2214C0EEFF42
:100F200015C0EDFFF50EDBCFE9FFF60EDBCFEAFFD4
:100F3000EF50420809E1F90EDBCFE9FFFA0EDBCFF3
:100F4000EAFF010EEE6EED6A29D1F50EDBCFE9FF67
:100F5000F60EDBCFEAFFEF504C081EE1FD0EDBCFB3
:100F6000E9FFFE0EDBCFEAFF060EE926000EEA22BD
:100F7000EECF14F0EFCF15F01406155AFD0EDBCFAF
:100F8000E9FFFE0EDBCFEAFF060EE926000EEA229D
:100F900014C0EEFF15C0EDFFF50EDBCFE9FFF60E36
:100FA000DBCFEAFFEF50520820E1FD0EDBCFE9FF77
:100FB000FE0EDBCFEAFF060EE926000EEA22EECF98
:100FC00014F0EFCF15F0010E1426000E1522FD0EC1
:100FD000DBCFE9FFFE0EDBCFEAFF060EE926000EAF
:100FE000EA2214C0EEFF15C0EDFFF50EDBCFE9FFDE
:100FF000F60EDBCFEAFFEF50420809E1F90EDBCF36
:10100000E9FFFA0EDBCFEAFF010EEE6EED6AC6D005
:10101000F50EDBCFE9FFF60EDBCFEAFFEF504C0811
:101020001EE1FD0EDBCFE9FFFE0EDBCFEAFF080E6F
:10103000E926000EEA22EECF14F0EFCF15F01406E9
:10104000155AFD0EDBCFE9FFFE0EDBCFEAFF080EDF
:10105000E926000EEA2214C0EEFF15C0EDFFF50EE2
:10106000DBCFE9FFF60EDBCFEAFFEF50520820E1BD
:10107000FD0EDBCFE9FFFE0EDBCFEAFF080EE9260F
:10108000000EEA22EECF14F0EFCF15F0010E142679
:10109000000E1522FD0EDBCFE9FFFE0EDBCFEAFFCF
:1010A000080EE926000EEA2214C0EEFF15C0EDFF7F
:1010B000F50EDBCFE9FFF60EDBCFEAFFEF5042087B
:1010C00009E1F90EDBCFE9FFFA0EDBCFEAFF010EF3
:1010D000EE6EED6A63D0F50EDBCFE9FFF60EDBCFE7
:1010E000EAFFEF504C081EE1FD0EDBCFE9FFFE0EDC
:1010F000DBCFEAFF0A0EE926000EEA22EECF14F05B
:10110000EFCF15F01406155AFD0EDBCFE9FFFE0EEA
:10111000DBCFEAFF0A0EE926000EEA2214C0EEFF3A
:1011200015C0EDFFF50EDBCFE9FFF60EDBCFEAFFD2
:10113000EF50520820E1FD0EDBCFE9FFFE0EDBCFC2
:10114000EAFF0A0EE926000EEA22EECF14F0EFCFF6
:1011500015F0010E1426000E1522FD0EDBCFE9FF5F
:10116000FE0EDBCFEAFF0A0EE926000EEA2214C0CB
:10117000EEFF15C0EDFFF50EDBCFE9FFF60EDBCF7E
:10118000EAFFEF50420809E1F90EDBCFE9FFFA0E62
:10119000DBCFEAFF010EEE6EED6A00D089D2F70ECA
:1011A000DBCFE9FFF80EDBCFEAFFEECF08F0EDCFA3
:1011B00009F0020E081801E1095001E1A9D1010E60
:1011C000081801E1095001E1D4D0085001E10950AB
:1011D00001E06DD2F50EDBCFE9FFF60EDBCFEAFFC3
:1011E000EF504C081EE1FD0EDBCFE9FFFE0EDBCF1A
:1011F000EAFF0C0EE926000EEA22EECF14F0EFCF44
:1012000015F01406155AFD0EDBCFE9FFFE0EDBCFFD
:10121000EAFF0C0EE926000EEA2214C0EEFF15C00C
:10122000EDFFF50EDBCFE9FFF60EDBCFEAFFEF5067
:10123000520820E1FD0EDBCFE9FFFE0EDBCFEAFF17
:101240000C0EE926000EEA22EECF14F0EFCF15F0D7
:10125000010E1426000E1522FD0EDBCFE9FFFE0E57
:10126000DBCFEAFF0C0EE926000EEA2214C0EEFFE7
:1012700015C0EDFFF50EDBCFE9FFF60EDBCFEAFF81
:10128000EF50420811E1F90EDBCFE9FFFA0EDBCF98
:10129000EAFF010EEE6EED6AF70EDBCFE9FFF80E06
:1012A000DBCFEAFFEE6AED6AF50EDBCFE9FFF60E63
:1012B000DBCFEAFFEF50550828E1F70EDBCFE9FF5F
:1012C000F80EDBCFEAFFEECF14F0EFCF15F01534B8
:1012D00004E214500008000E155417E2F70EDBCF9D
:1012E000E9FFF80EDBCFEAFFEECF14F0EFCF15F0F9
:1012F0001406000E155AF70EDBCFE9FFF80EDBCF10
:10130000EAFF14C0EEFF15C0EDFFF50EDBCFE9FFDD
:10131000F60EDBCFEAFFEF5044082AE1F70EDBCFF1
:10132000E9FFF80EDBCFEAFFEECF14F0EFCF15F0B8
:10133000D890155004E6020E145C000E155818E201
:10134000F70EDBCFE9FFF80EDBCFEAFFEECF14F0AC
:10135000EFCF15F0010E1426000E1522F70EDBCF8D
:10136000E9FFF80EDBCFEAFF14C0EEFF15C0EDFF7A
:101370009ED1F50EDBCFE9FFF60EDBCFEAFFEF5093
:101380004C081EE1FD0EDBCFE9FFFE0EDBCFEAFFCE
:101390000E0EE926000EEA22EECF14F0EFCF15F084
:1013A0001406155AFD0EDBCFE9FFFE0EDBCFEAFF78
:1013B0000E0EE926000EEA2214C0EEFF15C0EDFF66
:1013C000F50EDBCFE9FFF60EDBCFEAFFEF50520858
:1013D00020E1FD0EDBCFE9FFFE0EDBCFEAFF0E0EB4
:1013E000E926000EEA22EECF14F0EFCF15F0010E41
:1013F0001426000E1522FD0EDBCFE9FFFE0EDBCF1B
:10140000EAFF0E0EE926000EEA2214C0EEFF15C018
:10141000EDFFF50EDBCFE9FFF60EDBCFEAFFEF5075
:10142000420811E1F90EDBCFE9FFFA0EDBCFEAFF4C
:10143000010EEE6EED6AF70EDBCFE9FFF80EDBCFA3
:10144000EAFFEE6AED6AF50EDBCFE9FFF60EDBCFC1
:10145000EAFFEF50550828E1F70EDBCFE9FFF80E61
:10146000DBCFEAFFEECF14F0EFCF15F0153404E236
:1014700014500008000E155417E2F70EDBCFE9FFF9
:10148000F80EDBCFEAFFEECF14F0EFCF15F0140625
:10149000000E155AF70EDBCFE9FFF80EDBCFEAFF9F
:1014A00014C0EEFF15C0EDFFF50EDBCFE9FFF60E21
:1014B000DBCFEAFFEF5044082AE1F70EDBCFE9FF6C
:1014C000F80EDBCFEAFFEECF14F0EFCF15F0D89097
:1014D000155004E6020E145C000E155818E2F70EC3
:1014E000DBCFE9FFF80EDBCFEAFFEECF14F0EFCF52
:1014F00015F0010E1426000E1522F70EDBCFE9FFC2
:10150000F80EDBCFEAFF14C0EEFF15C0EDFFCFD021
:10151000F50EDBCFE9FFF60EDBCFEAFFEF504C080C
:101520001EE1FD0EDBCFE9FFFE0EDBCFEAFF100E62
:10153000E926000EEA22EECF14F0EFCF15F01406E4
:10154000155AFD0EDBCFE9FFFE0EDBCFEAFF100ED2
:10155000E926000EEA2214C0EEFF15C0EDFFF50EDD
:10156000DBCFE9FFF60EDBCFEAFFEF50520820E1B8
:10157000FD0EDBCFE9FFFE0EDBCFEAFF100EE92602
:10158000000EEA22EECF14F0EFCF15F0010E142674
:10159000000E1522FD0EDBCFE9FFFE0EDBCFEAFFCA
:1015A000100EE926000EEA2214C0EEFF15C0EDFF72
:1015B000F50EDBCFE9FFF60EDBCFEAFFEF50420876
:1015C00011E1F90EDBCFE9FFFA0EDBCFEAFF010EE6
:1015D000EE6EED6AF70EDBCFE9FFF80EDBCFEAFF28
:1015E000EE6AED6AF50EDBCFE9FFF60EDBCFEAFF20
:1015F000EF50550828E1F70EDBCFE9FFF80EDBCFFF
:10160000EAFFEECF14F0EFCF15F0153404E21450DA
:101610000008000E155417E2F70EDBCFE9FFF80EB5
:10162000DBCFEAFFEECF14F0EFCF15F01406000E7B
:10163000155AF70EDBCFE9FFF80EDBCFEAFF14C037
:10164000EEFF15C0EDFFF50EDBCFE9FFF60EDBCFA9
:10165000EAFFEF5044082AE1F70EDBCFE9FFF80E6E
:10166000DBCFEAFFEECF14F0EFCF15F0D890155096
:1016700004E6020E145C000E155818E2F70EDBCFDC
:10168000E9FFF80EDBCFEAFFEECF14F0EFCF15F055
:10169000010E1426000E1522F70EDBCFE9FFF80E1F
:1016A000DBCFEAFF14C0EEFF15C0EDFF00D000D085
:1016B00000D0F50EDBCFE9FFF60EDBCFEAFFEF50EF
:1016C000460809E0F50EDBCFE9FFF60EDBCFEAFFB7
:1016D000EF50480813E1F50EDBCFE9FFF60EDBCF44
:1016E000EAFFEF50E66EFD0EDBCFE9FFFE0EDBCF2B
:1016F000EAFFEE52E552E750EF6E19D0FD0EDBCF58
:10170000E9FFFE0EDBCFEAFFEE52EF6AF50EDBCF0C
:10171000E9FFF60EDBCFEAFFEF5009E0F30EDBCF77
:10172000E9FFF40EDBCFEAFF010EEE6EED6AE55243
:06173000E7CFD9FF120013
:0A1736001200D9CFE6FFE1CFD9FF82
:10174000E552E7CFD9FF1200D9CFE6FFE1CFD9FFAD
:10175000550EE126640EDE6EDD6AF36E020EF3CFE7
:10176000DBFF030EDB6AD950180FE66E000EDA209D
:10177000E66ED950040FE66E000EDA20E66E0C0E0F
:10178000E66EE66AD9CFE6FFDACFE6FF67DA146ED7
:10179000080EE15E1450010123050DE1FE0EDB5041
:1017A00001E108D0FE0EDB0401E104D0FE0EDB50A7
:1017B000020800E14ED0020E235D43E1FA0EDBCFBA
:1017C000E9FFFB0EDBCFEAFFEECF14F0EFCF15F011
:1017D000FC0EDBCFE9FFFD0EDBCFEAFFEECF16F00C
:1017E000EFCF17F01650141802E11750151828E122
:1017F000020EE76EFA0EDBCFE9FFFB0EDBCFEAFF4E
:10180000E750E926000EEA22EECF18F0EFCF19F0EC
:10181000020EE76EFC0EDBCFE9FFFD0EDBCFEAFF29
:10182000E750E926000EEA22EECF1AF0EFCF1BF0C8
:101830001A50181802E11B50191802E1010E236F0B
:1018400008D0030E235D05E1140EF36E2C0EF3CFCA
:10185000DBFF550EE15C02E2E16AE552E16EE55222
:10186000E7CFD9FF1200D9CFE6FFE1CFD9FF410E74
:10187000E126020EDB68030EDB68D9501C0FE66E12
:10188000000EDA20E66ED950040FE66E000EDA2064
:10189000E66EF70EDBCFE6FFF80EDBCFE6FFFD0EC0
:1018A000DBCFE6FFFE0EDBCFE6FFD8D9146E080EC5
:1018B000E15E1450D950020FE96EDACFEAFFFF0E55
:1018C000EE1802E1FF0EED1822E1FB0EDBCFE9FF7F
:1018D000FC0EDBCFEAFF040EDBCFEEFF050EDBCF05
:1018E000EDFF020EE76EFB0EDBCFE9FFFC0EDBCF58
:1018F000EAFFE750E926000EEA221C0EDBCFEEFFDE
:101900001D0EDBCFEDFF020EDB6A030EDB6AFD0E60
:10191000DBCFE9FFFE0EDBCFEAFFEECF14F0EFCF17
:1019200015F0D950040F186EDACF19F0020E086EB8
:10193000096ADBCF0DF0030EDBCF0EF03FEC32F087
:1019400018500624E96E19500720EA6EEECF16F003
:10195000EFCF17F01650141802E11750151801E0D8
:1019600073D1020EE76EFD0EDBCFE9FFFE0EDBCF7B
:10197000EAFFE750E926000EEA22EECF1AF0EFCF99
:101980001BF0D9501C0F1E6EDACF1FF0020E086E2E
:10199000096ADBCF0DF0030EDBCF0EF03FEC32F027
:1019A0001E500624E96E1F500720EA6EEECF1CF091
:1019B000EFCF1DF01C501A1802E11D501B1801E05A
:1019C00043D1F90EDBCFE9FFFA0EDBCFEAFFEECF12
:1019D00020F0EFCF21F0213404E220500008000E67
:1019E000215401E331D1F90EDBCFE9FFFA0EDBCF51
:1019F000EAFFEF50E66ED950340F146EDACF15F0CF
:101A0000020EDB501424E96E030EDB501520EA6E43
:101A1000E552E750EF6EF90EDBCFE9FFFA0EDBCFB0
:101A2000EAFFEE6AED6A020EDB2A030E01E3DB2A0F
:101A3000020EDBCF14F0030EDBCF15F0F70EDB50F8
:101A4000141803E1F80EDB50151801E0B1D0400E78
:101A5000DB6ADE6ADD6ADECF14F0DDCF15F0F70E4B
:101A6000DBCF16F0F80EDBCF17F015501718E8AEE5
:101A700002D0173404D01650145C1750155831E2B8
:101A8000D950340F156EDACF16F0DE501524E96EFA
:101A9000DD501620EA6EEFCF14F0D950340F176ED8
:101AA000DACF18F0400EDBCF19F01A6A19BE1A68A7
:101AB00017501924E96E18501A20EA6EEF50E76E9D
:101AC0001418E8AE02D0143403D0E750D880145470
:101AD00003E2400EDFCFDBFFDF2A010E01E3DB2A4A
:101AE000BAD7D950040F166EDACF17F0400EDBCFFD
:101AF00018F0196A18BE1968D89018361936165099
:101B00001824E96E17501920EA6EEECF14F0EFCFCB
:101B100015F0F50EDBCFE9FFF60EDBCFEAFF14C0C0
:101B2000EEFF15C0EDFFD9501C0F166EDACF17F07F
:101B3000400EDBCF18F0196A18BE1968D890183615
:101B4000193616501824E96E17501920EA6EEECF98
:101B500014F0EFCF15F0020EE76EF50EDBCFE9FFC4
:101B6000F60EDBCFEAFFE750E926000EEA2214C0AA
:101B7000EEFF15C0EDFFD950340F146EDACF15F01B
:101B8000400EDBCF16F0176A16BE176814501624E5
:101B9000E96E15501720EA6EEF50E66EF30EDBCFBC
:101BA000E9FFF40EDBCFEAFFE552E750EF6E4CD0D1
:101BB000D950040F166EDACF17F0020E086E096ABC
:101BC000DBCF0DF0030EDBCF0EF03FEC32F0165002
:101BD0000624E96E17500720EA6EEECF14F0EFCF1F
:101BE00015F0FB0EDBCFE9FFFC0EDBCFEAFF14C0E4
:101BF000EEFF15C0EDFFD9501C0F166EDACF17F0AF
:101C0000020E086E096ADBCF0DF0030EDBCF0EF07B
:101C10003FEC32F016500624E96E17500720EA6EAA
:101C2000EECF14F0EFCF15F0020EE76EFB0EDBCF18
:101C3000E9FFFC0EDBCFEAFFE750E926000EEA22BF
:101C400014C0EEFF15C0EDFF410EE15C02E2E16A57
:101C5000E552E16EE552E7CFD9FF1200D9CFE6FF9A
:101C6000E1CFD9FF120EE126290EF36E060EF3CF57
:101C7000DBFF070EDB6AFD0EDBCFE9FFFE0EDBCFDD
:101C8000EAFF640EEE6EED6A020EE76EFD0EDBCF2C
:101C9000E9FFFE0EDBCFEAFFE750E926000EEA225D
:101CA000640EEE6EED6AFB0EDBCF14F0FC0EDBCFA4
:101CB00015F0020E0D6E0E6A14C008F015C009F082
:101CC00019EC32F004C014F005C015F0010E141820
:101CD00001E1155001E004D3010EE76EFB0EDBCFEE
:101CE00014F0FC0EDBCF15F0E7501426000E152281
:101CF000020E0D6E0E6A14C008F015C009F019EC42
:101D000032F008C014F009C015F01406000E155A80
:101D1000080E14C0DBFF090E15C0DBFFFD0EDBCF84
:101D2000E9FFFE0EDBCFEAFF020EEECFDBFF030E74
:101D3000EDCFDBFF080EDBCF08F0090EDBCF09F09B
:101D4000040E08C0DBFF050E09C0DBFFFD0EDBCF74
:101D5000E9FFFE0EDBCFEAFFEECF16F0EFCF17F074
:101D6000080EDBCF14F0090EDBCF15F0D890143637
:101D70001536F90EDB501424E96EFA0EDB501520EF
:101D8000EA6E16C0EEFF17C0EDFF020EE76EFD0E05
:101D9000DBCFE9FFFE0EDBCFEAFFE750E926000EBE
:101DA000EA22020EEECFDBFF030EEDCFDBFF020EC9
:101DB000E76EFD0EDBCFE9FFFE0EDBCFEAFFE7505B
:101DC000E926000EEA22EECF16F0EFCF17F0080E4C
:101DD000DBCF14F0090EDBCF15F0D8901436153692
:101DE000F70EDB501424E96EF80EDB501520EA6E76
:101DF00016C0EEFF17C0EDFFDE6ADD6ADECF14F01D
:101E0000DDCF15F0080EDBCF16F0090EDBCF17F093
:101E100015501718E8AE02D0173404D01650145CD1
:101E20001750155801E30ED2FD0EDBCFE9FFFE0E71
:101E3000DBCFEAFFEECF16F0EFCF17F0DECF1AF0D0
:101E4000DDCF1BF0010E1A26000E1B22020E086EBB
:101E5000096A1AC00DF01BC00EF03FEC32F006C04C
:101E600018F007C019F018C008F019C009F0060EE4
:101E7000DBCF0DF0070EDBCF0EF03FEC32F016504B
:101E80000624146E17500720156E020E14C0DBFFD7
:101E9000030E15C0DBFF080EDBCF16F0090EDBCFFB
:101EA00017F0DE501624146EDD501720156E010E4B
:101EB0001426000E1522040E14C0DBFF050E15C0FB
:101EC000DBFFFD0EDBCFE9FFFE0EDBCFEAFFEECF3F
:101ED0001AF0EFCF1BF0DECF1EF0DDCF1FF0010EAA
:101EE0001E26000E1F22020E086E096A1EC00DF08B
:101EF0001FC00EF03FEC32F006C01CF007C01DF012
:101F00001CC008F01DC009F0060EDBCF0DF0070E57
:101F1000DBCF0EF03FEC32F01A500624186E1B5047
:101F20000720196E080EDBCF16F0090EDBCF17F075
:101F3000DE501624146EDD501720156E010E142687
:101F4000000E1522D89014361536F90EDB501424E5
:101F5000E96EFA0EDB501520EA6E18C0EEFF19C0CC
:101F6000EDFF020EE76EFD0EDBCFE9FFFE0EDBCFCD
:101F7000EAFFE750E926000EEA22EECF16F0EFCF97
:101F800017F0060EDB50165C146E070EDB50175868
:101F9000156E020E14C0DBFF030E15C0DBFF020E30
:101FA000E76EFD0EDBCFE9FFFE0EDBCFEAFFE75069
:101FB000E926000EEA22EECF1AF0EFCF1BF0DECFBB
:101FC0001EF0DDCF1FF0010E1E26000E1F22020E96
:101FD000086E096A1EC00DF01FC00EF03FEC32F013
:101FE00006C01CF007C01DF01CC008F01DC009F0A1
:101FF000060EDBCF0DF0070EDBCF0EF03FEC32F01C
:1020000006501A5C186E07501B58196E080EDBCF6D
:1020100016F0090EDBCF17F0DE501624146EDD50DB
:102020001720156E010E1426000E1522D8901436B6
:102030001536F70EDB501424E96EF80EDB50152030
:10204000EA6E18C0EEFF19C0EDFFFD0EDBCFE9FF11
:10205000FE0EDBCFEAFFEECF16F0EFCF17F0060E45
:10206000DB50165C146E070EDB501758156E020E0F
:1020700014C0DBFF030E15C0DBFFDECF16F0DDCF93
:1020800017F0010E1626000E1722080EDBCF08F0FF
:10209000090EDBCF09F01650085C146E1750095872
:1020A000156E040E14C0DBFF050E15C0DBFFFD0E20
:1020B000DBCFE9FFFE0EDBCFEAFFEECF1AF0EFCF6A
:1020C0001BF0DECF1EF0DDCF1FF0010E1E26000E2E
:1020D0001F22020E086E096A1EC00DF01FC00EF00E
:1020E0003FEC32F006C01CF007C01DF01CC008F029
:1020F0001DC009F0060EDBCF0DF0070EDBCF0EF092
:102100003FEC32F006501A5C186E07501B58196EDF
:10211000DECF16F0DDCF17F0010E1626000E1722C7
:10212000080EDBCF08F0090EDBCF09F01650085C73
:10213000146E17500958156ED89014361536F90ECE
:10214000DB501424E96EFA0EDB501520EA6E18C03D
:10215000EEFF19C0EDFFFD0EDBCFE9FFFE0EDBCF7A
:10216000EAFFEECF16F0EFCF17F0060EDB50165C4D
:10217000146E070EDB501758156E020E14C0DBFFED
:10218000030E15C0DBFF020EE76EFD0EDBCFE9FF8D
:10219000FE0EDBCFEAFFE750E926000EEA22EECF83
:1021A0001AF0EFCF1BF0DECF1EF0DDCF1FF0010ED7
:1021B0001E26000E1F22020E086E096A1EC00DF0B8
:1021C0001FC00EF03FEC32F006C01CF007C01DF03F
:1021D0001CC008F01DC009F0060EDBCF0DF0070E85
:1021E000DBCF0EF03FEC32F01A500624186E1B5075
:1021F0000720196EDECF16F0DDCF17F0010E162680
:10220000000E1722080EDBCF08F0090EDBCF09F015
:102210001650085C146E17500958156ED890143675
:102220001536F70EDB501424E96EF80EDB5015203E
:10223000EA6E18C0EEFF19C0EDFFDF2A010E01E3C0
:10224000DB2ADCD5DE6ADD6ADECF14F0DDCF15F0E7
:10225000D890155004E60C0E145C000E15583EE2A2
:10226000040EDB2A050E01E3DB2ADECF14F0DDCFFE
:1022700015F0D89014361536F90EDB501424E96E9B
:10228000FA0EDB501520EA6E020EEECFDBFF030ED6
:10229000EDCFDBFF040EDB2A050E01E3DB2ADECFE8
:1022A00014F0DDCF15F0D89014361536F70EDB504C
:1022B0001424E96EF80EDB501520EA6E020EEECF04
:1022C000DBFF030EEDCFDBFF040EDB2A050E01E37F
:1022D000DB2ADF2A010E01E3DB2AB6D7B1EF15F0C6
:1022E000020E146E156AFB0EDBCF08F0FC0EDBCF7E
:1022F00009F014C00DF015C00EF019EC32F0100EFC
:1023000008C0DBFF110E09C0DBFF060EDBCF16F0A5
:10231000070EDBCF17F0FD0EDBCFE9FFFE0EDBCFA4
:10232000EAFF1650EE24146E1750EE20156E0E0EB6
:1023300014C0DBFF0F0E15C0DBFF060EDBCF18F05D
:10234000070EDBCF19F0FD0EDBCFE9FFFE0EDBCF72
:10235000EAFF1850EE24166E1950EE20176E100E7C
:10236000DBCF14F0110EDBCF15F0D89014361536F4
:10237000F90EDB501424E96EFA0EDB501520EA6EDC
:1023800016C0EEFF17C0EDFF020EE76EFD0EDBCFAD
:10239000E9FFFE0EDBCFEAFFE750E926000EEA2256
:1023A000EECF16F0EFCF17F0060EDB50165C146E72
:1023B000070EDB501758156E0E0E14C0DBFF0F0E04
:1023C00015C0DBFF020EE76EFD0EDBCFE9FFFE0E50
:1023D000DBCFEAFFE750E926000EEA22EECF18F045
:1023E000EFCF19F0060EDB50185C166E070EDB50AF
:1023F0001958176E100EDBCF14F0110EDBCF15F04D
:10240000D89014361536F70EDB501424E96EF80E0A
:10241000DB501520EA6E16C0EEFF17C0EDFF100E60
:10242000DBCF14F0110EDBCF15F01406000E155A99
:102430000C0E14C0DBFF0D0E15C0DBFFFD0EDBCF55
:10244000E9FFFE0EDBCFEAFFEECF16F0EFCF17F07D
:10245000060EDB50165C146E070EDB501758156E17
:102460000E0E14C0DBFF0F0E15C0DBFFFD0EDBCF21
:10247000E9FFFE0EDBCFEAFFEECF18F0EFCF19F049
:10248000060EDB50185C166E070EDB501958176EDF
:10249000100EDBCF14F0110EDBCF15F01406000E7A
:1024A000155AD89014361536F90EDB501424E96EFF
:1024B000FA0EDB501520EA6E16C0EEFF17C0EDFFD6
:1024C000060EDBCF16F0070EDBCF17F0FD0EDBCFCD
:1024D000E9FFFE0EDBCFEAFF1650EE24146E175014
:1024E000EE20156E0E0E14C0DBFF0F0E15C0DBFFC5
:1024F000060EDBCF18F0070EDBCF19F0020EE76EE9
:10250000FD0EDBCFE9FFFE0EDBCFEAFFE750E92649
:10251000000EEA221850EE24166E1950EE20176EA7
:10252000100EDBCF14F0110EDBCF15F01406000EE9
:10253000155AD89014361536F70EDB501424E96E70
:10254000F80EDB501520EA6E16C0EEFF17C0EDFF47
:102550000A0EDB6A0B0EDB6A0A0EDBCF14F00B0EE1
:10256000DBCF15F0100EDBCF16F0110EDBCF17F01E
:102570001606000E175A15501718E8AE02D0173479
:1025800004D01650145C1750155801E3EAD2010E1E
:10259000E76E0A0EDBCF16F00B0EDBCF17F0E7501D
:1025A0001626000E1722100EDB501624146E110E84
:1025B000DB501720156E0C0E14C0DBFF0D0E15C07E
:1025C000DBFF060EDBCF18F0070EDBCF19F0FD0E98
:1025D000DBCFE9FFFE0EDBCFEAFF1850EE24166ECC
:1025E0001950EE20176E010EE76E0A0EDBCF1CF0BD
:1025F0000B0EDBCF1DF0E7501C26000E1D22020E35
:10260000086E096A1CC00DF01DC00EF03FEC32F0E0
:1026100006C01AF007C01BF01AC008F01BC009F072
:10262000060EDBCF0DF0070EDBCF0EF03FEC32F0E5
:1026300016500624146E17500720156E0E0E14C087
:10264000DBFF0F0E15C0DBFF060EDBCF1CF0070E05
:10265000DBCF1DF0FD0EDBCFE9FFFE0EDBCFEAFF87
:102660001C50EE241A6E1D50EE201B6E010EE76EFC
:102670000A0EDBCF20F00B0EDBCF21F0E750202637
:10268000000E2122020E086E096A20C00DF021C042
:102690000EF03FEC32F006C01EF007C01FF01EC067
:1026A00008F01FC009F0060EDBCF0DF0070EDBCFE0
:1026B0000EF03FEC32F01A500624186E1B50072023
:1026C000196E010EE76E0A0EDBCF16F00B0EDBCF94
:1026D00017F0E7501626000E1722100EDB501624B6
:1026E000146E110EDB501720156ED8901436153667
:1026F000F90EDB501424E96EFA0EDB501520EA6E59
:1027000018C0EEFF19C0EDFF020EE76EFD0EDBCF25
:10271000E9FFFE0EDBCFEAFFE750E926000EEA22D2
:10272000EECF18F0EFCF19F0060EDB50185C166EE6
:10273000070EDB501958176E010EE76E0A0EDBCF3D
:102740001CF00B0EDBCF1DF0E7501C26000E1D22E7
:10275000020E086E096A1CC00DF01DC00EF03FECA1
:1027600032F006C01AF007C01BF01AC008F01BC0F8
:1027700009F0060EDBCF0DF0070EDBCF0EF03FECBD
:1027800032F00650165C146E07501758156E0E0E78
:1027900014C0DBFF0F0E15C0DBFF020EE76EFD0E4F
:1027A000DBCFE9FFFE0EDBCFEAFFE750E926000EA4
:1027B000EA22EECF1CF0EFCF1DF0060EDB501C5CC2
:1027C0001A6E070EDB501D581B6E010EE76E0A0EC7
:1027D000DBCF20F00B0EDBCF21F0E7502026000EE0
:1027E0002122020E086E096A20C00DF021C00EF0F1
:1027F0003FEC32F006C01EF007C01FF01EC008F00C
:102800001FC009F0060EDBCF0DF0070EDBCF0EF078
:102810003FEC32F006501A5C186E07501B58196EC8
:10282000010EE76E0A0EDBCF16F00B0EDBCF17F0B2
:10283000E7501626000E1722100EDB501624146ED9
:10284000110EDB501720156ED89014361536F70E82
:10285000DB501424E96EF80EDB501520EA6E18C028
:10286000EEFF19C0EDFF010EE76E0A0EDBCF16F08A
:102870000B0EDBCF17F0E7501626000E1722100EB6
:10288000DBCF08F0110EDBCF09F01650085C146E98
:1028900017500958156E0C0E14C0DBFF0D0E15C035
:1028A000DBFFFD0EDBCFE9FFFE0EDBCFEAFFEECF55
:1028B00018F0EFCF19F0060EDB50185C166E070EFD
:1028C000DB501958176E010EE76E0A0EDBCF1CF0B5
:1028D0000B0EDBCF1DF0E7501C26000E1D22020E52
:1028E000086E096A1CC00DF01DC00EF03FEC32F0FE
:1028F00006C01AF007C01BF01AC008F01BC009F090
:10290000060EDBCF0DF0070EDBCF0EF03FEC32F002
:102910000650165C146E07501758156E0E0E14C034
:10292000DBFF0F0E15C0DBFFFD0EDBCFE9FFFE0E58
:10293000DBCFEAFFEECF1CF0EFCF1DF0060EDB5031
:102940001C5C1A6E070EDB501D581B6E010EE76EE5
:102950000A0EDBCF20F00B0EDBCF21F0E750202654
:10296000000E2122020E086E096A20C00DF021C05F
:102970000EF03FEC32F006C01EF007C01FF01EC084
:1029800008F01FC009F0060EDBCF0DF0070EDBCFFD
:102990000EF03FEC32F006501A5C186E07501B58D0
:1029A000196E020EE76E0A0EDBCF16F00B0EDBCFB0
:1029B00017F0E7501626000E1722100EDBCF08F096
:1029C000110EDBCF09F01650085C146E1750095831
:1029D000156ED89014361536F90EDB501424E96EB6
:1029E000FA0EDB501520EA6E18C0EEFF19C0EDFF9D
:1029F000060EDBCF18F0070EDBCF19F0020EE76EE4
:102A0000FD0EDBCFE9FFFE0EDBCFEAFFE750E92644
:102A1000000EEA221850EE24166E1950EE20176EA2
:102A2000010EE76E0A0EDBCF1CF00B0EDBCF1DF0A4
:102A3000E7501C26000E1D22020E086E096A1CC0FB
:102A40000DF01DC00EF03FEC32F006C01AF007C0CA
:102A50001BF01AC008F01BC009F0060EDBCF0DF00A
:102A6000070EDBCF0EF03FEC32F016500624146E4A
:102A700017500720156E0E0E14C0DBFF0F0E15C089
:102A8000DBFF060EDBCF1CF0070EDBCF1DF0020EC6
:102A9000E76EFD0EDBCFE9FFFE0EDBCFEAFFE7506E
:102AA000E926000EEA221C50EE241A6E1D50EE207C
:102AB0001B6E010EE76E0A0EDBCF20F00B0EDBCF94
:102AC00021F0E7502026000E2122020E086E096A2E
:102AD00020C00DF021C00EF03FEC32F006C01EF019
:102AE00007C01FF01EC008F01FC009F0060EDBCFA4
:102AF0000DF0070EDBCF0EF03FEC32F01A5006243B
:102B0000186E1B500720196E020EE76E0A0EDBCFFF
:102B100016F00B0EDBCF17F0E7501626000E17222B
:102B2000100EDBCF08F0110EDBCF09F01650085C59
:102B3000146E17500958156ED89014361536F70EC6
:102B4000DB501424E96EF80EDB501520EA6E18C035
:102B5000EEFF19C0EDFF0A0EDB2A0B0E01E3DB2AA4
:102B6000FBD4120EE15C02E2E16AE552E16EE5524D
:062B7000E7CFD9FF1200BF
:0A2B760082909490829294921200D3
:102B8000D9CFE6FFE1CFD9FFD950FD0FE96EFF0E97
:102B9000DA20EA6EEE50ED1002E0828201D08292DD
:102BA000D950FB0FE96EFF0EDA20EA6EEE50ED1001
:102BB00002E0828001D08290E552E7CFD9FF120077
:102BC000D9CFE6FFE1CFD9FFFD0EDBCFE9FFFE0E47
:102BD000DBCFEAFF060EE926000EEA22EFCF14F063
:102BE000156A14BE156814C0E6FF15C0E6FFFD0E99
:102BF000DBCFE9FFFE0EDBCFEAFF070EE926000E72
:102C0000EA22EFCF16F0176A16BE176816C0E6FF65
:102C100017C0E6FFB5DFE552E552E552E552FD0E7D
:102C2000DBCFE9FFFE0EDBCFEAFFEF5032E1F90E1A
:102C3000DBCF08F0FA0EDBCF09F0010E081801E136
:102C4000095016E0085001E1095001E022D01C0EA5
:102C5000E66E510EE66E5AEC2FF0E552E5520B0E81
:102C6000E66E510EE66EA4EC2FF0E552E55211D05F
:102C7000FA0EE66E500EE66E5AEC2FF0E552E55273
:102C8000E90EE66E500EE66EA4EC2FF0E552E5522A
:102C900000D0D950FB0FE96EFF0EDA20EA6E010E6C
:102CA000EE1801E1ED5002E0ADEF1AF0FD0EDBCFC2
:102CB000E9FFFE0EDBCFEAFFEF0401E025D1D9509A
:102CC000F90FE96EFF0EDA20EA6EEE50ED1010E11A
:102CD000FA0EE66E500EE66E5AEC2FF0E552E55213
:102CE000E90EE66E500EE66EA4EC2FF0E552E552CA
:102CF000D950F90FE96EFF0EDA20EA6E010EEE18D8
:102D000001E1ED5074E1F70EDBCF08F0F80EDBCFF8
:102D100009F0040E081801E1095058E0030E0818E4
:102D200001E1095042E0020E081801E109502CE0CF
:102D3000010E081801E1095016E0085001E10950A0
:102D400001E055D0D80EE66E500EE66E5AEC2FF02C
:102D5000E552E552E90EE66E500EE66EA4EC2FF059
:102D6000E552E55244D0C70EE66E500EE66E5AECC0
:102D70002FF0E552E552E90EE66E500EE66EA4EC39
:102D80002FF0E552E55233D0B60EE66E500EE66EE9
:102D90005AEC2FF0E552E552E90EE66E500EE66E63
:102DA000A4EC2FF0E552E55222D0A50EE66E500EAF
:102DB000E66E5AEC2FF0E552E552E90EE66E500E43
:102DC000E66EA4EC2FF0E552E55211D0940EE66EBB
:102DD000500EE66E5AEC2FF0E552E552E90EE66E23
:102DE000500EE66EA4EC2FF0E552E55200D0D9501B
:102DF000F90FE96EFF0EDA20EA6E020EEE1801E11D
:102E0000ED5001E081D0F70EDBCF08F0F80EDBCFFC
:102E100009F0040E081801E1095065E0020E0818D7
:102E200001E109502CE0010E081801E1095016E0FB
:102E3000085001E1095001E067D08A0EE66E500E9D
:102E4000E66E5AEC2FF0E552E552E90EE66E500EB2
:102E5000E66EA4EC2FF0E552E55256D07F0EE66EFA
:102E6000500EE66E5AEC2FF0E552E552E90EE66E92
:102E7000500EE66EA4EC2FF0E552E55245D0FD0E63
:102E8000DBCFE9FFFE0EDBCFEAFF100EE926000ED6
:102E9000EA22EECFE6FFEFCFE6FF6D0E146E500E86
:102EA000156E166A14C0E6FF15C0E6FF16C0E6FFF1
:102EB000F00EE66E000EE66EC3EC31F0176E070EF4
:102EC000E15E17505C0EE66E500EE66E5AEC2FF087
:102ED000E552E552F00EE66E000EE66ECDEC2FF0F8
:102EE000E552E55211D04B0EE66E500EE66E5AECEE
:102EF0002FF0E552E552E90EE66E500EE66EA4ECB8
:102F00002FF0E552E55200D0FD0EDBCFE9FFFE0EBB
:102F1000DBCFEAFFEF50020856E1D950F90FE96E16
:102F2000FF0EDA20EA6EEE50ED1010E13A0EE66E7A
:102F3000500EE66E5AEC2FF0E552E552E90EE66EC1
:102F4000500EE66EA4EC2FF0E552E552D950F90F81
:102F5000E96EFF0EDA20EA6E010EEE1801E1ED5087
:102F600032E1F70EDBCF08F0F80EDBCF09F0010EEF
:102F7000081801E1095016E0085001E1095001E08C
:102F800022D0290EE66E500EE66E5AEC2FF0E55276
:102F9000E552E90EE66E500EE66EA4EC2FF0E55217
:102FA000E55211D0180EE66E500EE66E5AEC2FF078
:102FB000E552E552E90EE66E500EE66EA4EC2FF0F7
:102FC000E552E55200D0FD0EDBCFE9FFFE0EDBCF70
:102FD000EAFFEF50030801E0BFD2D950F90FE96EC4
:102FE000FF0EDA20EA6EEE50ED1010E1070EE66EED
:102FF000500EE66E5AEC2FF0E552E552E90EE66E01
:10300000500EE66EA4EC2FF0E552E552D950F90FC0
:10301000E96EFF0EDA20EA6E010EEE1801E1ED50C6
:1030200001E0A1D0F70EDBCF08F0F80EDBCF09F0FE
:10303000060E081801E1095001E184D0050E0818B8
:1030400001E109506EE0040E081801E1095058E052
:10305000030E081801E1095042E0020E081801E1D0
:1030600009502CE0010E081801E1095016E0085043
:1030700001E1095001E077D0F60EE66E4F0EE66EE4
:103080005AEC2FF0E552E552E90EE66E500EE66E70
:10309000A4EC2FF0E552E55266D0E50EE66E4F0E39
:1030A000E66E5AEC2FF0E552E552E90EE66E500E50
:1030B000E66EA4EC2FF0E552E55255D0D40EE66E44
:1030C0004F0EE66E5AEC2FF0E552E552E90EE66E31
:1030D000500EE66EA4EC2FF0E552E55244D0C30E3C
:1030E000E66E4F0EE66E5AEC2FF0E552E552E90E11
:1030F000E66E500EE66EA4EC2FF0E552E55233D0AA
:10310000B20EE66E4F0EE66E5AEC2FF0E552E55227
:10311000E90EE66E500EE66EA4EC2FF0E552E55295
:1031200022D0A10EE66E4F0EE66E5AEC2FF0E5525D
:10313000E552E90EE66E500EE66EA4EC2FF0E55275
:10314000E55211D0900EE66E4F0EE66E5AEC2FF05F
:10315000E552E552E90EE66E500EE66EA4EC2FF055
:10316000E552E55200D0D950F90FE96EFF0EDA2092
:10317000EA6E020EEE1801E1ED5001E02CD1F70EDF
:10318000DBCF08F0F80EDBCF09F0050E081801E1DF
:10319000095001E1ECD0040E081801E1095001E1E9
:1031A000B2D0030E081801E1095001E178D0020EF7
:1031B000081801E109503FE0010E081801E109502B
:1031C00006E0085001E1095001E005D104D1FD0EEF
:1031D000DBCFE9FFFE0EDBCFEAFF100EE926000E83
:1031E000EA22EECFE6FFEFCFE6FF6D0E146E500E33
:1031F000156E166A14C0E6FF15C0E6FF16C0E6FF9E
:10320000F00EE66E000EE66EC3EC31F0176E070EA0
:10321000E15E17505C0EE66E500EE66E5AEC2FF033
:10322000E552E552F00EE66E000EE66ECDEC2FF0A4
:10323000E552E552D0D0FD0EDBCFE9FFFE0EDBCF2D
:10324000EAFF120EE926000EEA22EECFE6FFEFCFEC
:10325000E6FF6D0E146E500E156E166A14C0E6FF72
:1032600015C0E6FF16C0E6FFF00EE66E000EE66E35
:10327000C3EC31F0176E070EE15E17507F0EE66E5D
:103280004F0EE66E5AEC2FF0E552E552F00EE66E68
:10329000000EE66ECDEC2FF0E552E5529CD0FD0E0F
:1032A000DBCFE9FFFE0EDBCFEAFF140EE926000EAE
:1032B000EA22EECFE6FFEFCFE6FF6D0E146E500E62
:1032C000156E166A14C0E6FF15C0E6FF16C0E6FFCD
:1032D000F00EE66E000EE66EC3EC31F0176E070ED0
:1032E000E15E17506E0EE66E4F0EE66E5AEC2FF052
:1032F000E552E552F00EE66E000EE66ECDEC2FF0D4
:10330000E552E55268D0FD0EDBCFE9FFFE0EDBCFC4
:10331000EAFF160EE926000EEA22EECFE6FFEFCF17
:10332000E6FF6D0E146E500E156E166A14C0E6FFA1
:1033300015C0E6FF16C0E6FFF00EE66E000EE66E64
:10334000C3EC31F0176E070EE15E17505D0EE66EAE
:103350004F0EE66E5AEC2FF0E552E552F00EE66E97
:10336000000EE66ECDEC2FF0E552E55234D0FD0EA6
:10337000DBCFE9FFFE0EDBCFEAFF180EE926000ED9
:10338000EA22EECFE6FFEFCFE6FF6D0E146E500E91
:10339000156E166A14C0E6FF15C0E6FF16C0E6FFFC
:1033A000F00EE66E000EE66EC3EC31F0176E070EFF
:1033B000E15E17504C0EE66E4F0EE66E5AEC2FF0A3
:1033C000E552E552F00EE66E000EE66ECDEC2FF003
:1033D000E552E55200D0D950F90FE96EFF0EDA2020
:1033E000EA6E030EEE1801E1ED5001E0B5D0F70EE4
:1033F000DBCF08F0F80EDBCF09F0020E081801E170
:10340000095074E0010E081801E1095039E0085034
:1034100001E1095001E0A0D0FD0EDBCFE9FFFE0E77
:10342000DBCFEAFF1A0EE926000EEA22EECFE6FF16
:10343000EFCFE6FF6D0E146E500E156E166A14C0B7
:10344000E6FF15C0E6FF16C0E6FFF00EE66E000EC2
:10345000E66EC3EC31F0176E070EE15E17503B0EBF
:10346000E66E4F0EE66E5AEC2FF0E552E552F00E86
:10347000E66E000EE66ECDEC2FF0E552E5526CD014
:10348000EEEC2FF0FD0EDBCFE9FFFE0EDBCFEAFF07
:103490001C0EE926000EEA22EECFE6FFEFCFE6FF94
:1034A0006D0E146E500E156E166A14C0E6FF15C030
:1034B000E6FF16C0E6FFF00EE66E000EE66EC3EC09
:1034C00031F0176E070EE15E17502A0EE66E4F0EB2
:1034D000E66E5AEC2FF0E552E552F00EE66E000E65
:1034E000E66ECDEC2FF0E552E55236D0EEEC2FF043
:1034F000FD0EDBCFE9FFFE0EDBCFEAFF1E0EE92655
:10350000000EEA22EECFE6FFEFCFE6FF6D0E146E5F
:10351000500E156E166A14C0E6FF15C0E6FF16C001
:10352000E6FFF00EE66E000EE66EC3EC31F0176EAD
:10353000070EE15E1750190EE66E4F0EE66E5AEC5E
:103540002FF0E552E552F00EE66E000EE66ECDEC81
:103550002FF0E552E55200D036D2D950FB0FE96E7C
:10356000FF0EDA20EA6EEE50ED1001E02CD2FD0ED7
:10357000DBCFE9FFFE0EDBCFEAFFEF0401E0D1D0A5
:10358000F90EDBCF08F0FA0EDBCF09F0010E0818B8
:1035900001E1095016E0085001E1095001E0C1D0F5
:1035A000FA0EE66E500EE66E5AEC2FF0E552E5523A
:1035B000E90EE66E500EE66EA4EC2FF0E552E552F1
:1035C000B0D0FD0EDBCFE9FFFE0EDBCFEAFF0E0E23
:1035D000E926000EEA22EE50ED1011E0080EE66E2C
:1035E0004F0EE66E5AEC2FF0E552E552F70EE66EFE
:1035F0004E0EE66EA4EC2FF0E552E55291D0FD0E92
:10360000DBCFE9FFFE0EDBCFEAFF0C0EE926000E52
:10361000EA22EE50ED1011E0E60EE66E4E0EE66E7A
:103620005AEC2FF0E552E552F70EE66E4E0EE66EBE
:10363000A4EC2FF0E552E55273D0FD0EDBCFE9FF8D
:10364000FE0EDBCFEAFF050EE926000EEA22EFCFE1
:1036500014F0156A14BE156814C0E6FF15C0E6FF25
:10366000FD0EDBCFE9FFFE0EDBCFEAFF030EE926FE
:10367000000EEA22EFCF16F0176A16BE176816C0C2
:10368000E6FF17C0E6FFD50E186E4E0E196E1A6AC9
:1036900018C0E6FF19C0E6FF1AC0E6FFF00EE66E9E
:1036A000000EE66EC3EC31F01B6E090EE15E1B509E
:1036B000F00EE66E000EE66E83EC2FF0E552E5525A
:1036C000FD0EDBCFE9FFFE0EDBCFEAFF040EE9269D
:1036D000000EEA22EFCF14F0156A14BE156814C06C
:1036E000E6FF15C0E6FFC40E166E4E0E176E186A82
:1036F00016C0E6FF17C0E6FF18C0E6FFF00EE66E44
:10370000000EE66EC3EC31F0196E070EE15E195043
:10371000F00EE66E000EE66ECDEC2FF0E552E552AF
:1037200000D0FD0EDBCFE9FFFE0EDBCFEAFFEF504E
:1037300002086EE1F90EDBCF08F0FA0EDBCF09F0DC
:10374000010E081801E1095016E0085001E1095086
:1037500001E05ED03A0EE66E500EE66E5AEC2FF0A7
:10376000E552E552E90EE66E500EE66EA4EC2FF03F
:10377000E552E5524DD0FD0EDBCFE9FFFE0EDBCF6B
:10378000EAFF0E0EE926000EEA22EE50ED1011E0DF
:10379000080EE66E4F0EE66E5AEC2FF0E552E5523B
:1037A000F70EE66E4E0EE66EA4EC2FF0E552E552F3
:1037B0002ED0FD0EDBCFE9FFFE0EDBCFEAFF0C0EB5
:1037C000E926000EEA22EE50ED1011E0E60EE66E5C
:1037D0004E0EE66E5AEC2FF0E552E552F70EE66E0D
:1037E0004E0EE66EA4EC2FF0E552E55210D03A0EE4
:1037F000E66E500EE66E5AEC2FF0E552E552E90EF9
:10380000E66E500EE66EA4EC2FF0E552E55200D0C5
:10381000FD0EDBCFE9FFFE0EDBCFEAFFEF50030822
:1038200001E0D1D0F90EDBCF08F0FA0EDBCF09F0C2
:10383000010E081801E1095016E0085001E1095095
:1038400001E0C1D0070EE66E500EE66E5AEC2FF086
:10385000E552E552E90EE66E500EE66EA4EC2FF04E
:10386000E552E552B0D0FD0EDBCFE9FFFE0EDBCF17
:10387000EAFF0E0EE926000EEA22EE50ED1011E0EE
:10388000080EE66E4F0EE66E5AEC2FF0E552E5524A
:10389000F70EE66E4E0EE66EA4EC2FF0E552E55202
:1038A00091D0FD0EDBCFE9FFFE0EDBCFEAFF0C0E61
:1038B000E926000EEA22EE50ED1011E0E60EE66E6B
:1038C0004E0EE66E5AEC2FF0E552E552F70EE66E1C
:1038D0004E0EE66EA4EC2FF0E552E55273D0FD0ECD
:1038E000DBCFE9FFFE0EDBCFEAFF050EE926000E77
:1038F000EA22EFCF14F0156A14BE156814C0E6FF73
:1039000015C0E6FFFD0EDBCFE9FFFE0EDBCFEAFFC1
:10391000030EE926000EEA22EFCF16F0176A16BE54
:10392000176816C0E6FF17C0E6FFD50E186E4E0EDC
:10393000196E1A6A18C0E6FF19C0E6FF1AC0E6FF42
:10394000F00EE66E000EE66EC3EC31F01B6E090E53
:10395000E15E1B50F00EE66E000EE66E83EC2FF07B
:10396000E552E552FD0EDBCFE9FFFE0EDBCFEAFFAD
:10397000040EE926000EEA22EFCF14F0156A14BEF9
:10398000156814C0E6FF15C0E6FFC40E166E4E0E95
:10399000176E186A16C0E6FF17C0E6FF18C0E6FFEC
:1039A000F00EE66E000EE66EC3EC31F0196E070EF7
:1039B000E15E1950F00EE66E000EE66ECDEC2FF0D3
:0E39C000E552E55200D0E552E7CFD9FF1200E4
:0239CE0023ECE8
:1039D00022F0FB0EDBCFF3FFDB06F35000090AE019
:1039E00071EC22F0FA0EDCEC22F0F3E1151CF1E1AF
:1039F000010E01D0000E52EF22F023EC22F03B0E1C
:103A0000E12402E3E168E652E16E010EDB6A020E98
:103A1000DB6AF90EDBCFF6FFFA0EDBCFF7FFFB0E0A
:103A2000DBCFF8FF0800F550DF6EDF5002E176EFE4
:103A300021F0250EDF5C02E069EF21F0030EDB6A66
:103A4000040EDB6A050EDB6A060EDB6A070EDB6A14
:103A50008BEC21F02D0EDF5C0CE02B0EDF5C09E01F
:103A6000200EDF5C06E0230EDF5C03E0300EDF5C3F
:103A70001AE1DF50300A14E0130A0FE0030A0AE0EB
:103A80000B0A05E0060AE4E1030EDB80E1D7030E32
:103A9000DB82DED7030EDB84DBD7030EDB86D8D7D1
:103AA000030EDB88D5D72A0EDF5C1BE187EC21F003
:103AB000D5EC21F010E0030EDB8008680968130ED6
:103AC000DBCF0DF0140EDBCF0EF03FEC32F0040E26
:103AD00006C0DBFF03D0130EBEEC21F08BEC21F00F
:103AE0000BD0090EDB6A2CEC22F003E0A0EC22F0F4
:103AF000FAD7090EBEEC21F0030EDBB0DB982E0ED8
:103B0000DF5C1BE18BEC21F02A0EDF5C0BE187EC24
:103B100021F0D5EC21F003E1130E10EC22F08BEC38
:103B200021F00BD0090EDB6A2CEC22F003E0A0ECB4
:103B300022F0FAD7090E10EC22F0680EDF5C07E1E4
:103B40008BEC21F0680EDF5C1DE1030E18D0740EC3
:103B5000DF5C17E07A0EDF5C14E0480EDF5C06E005
:103B6000540EDF5C03E05A0EDF5C02E1020E07D068
:103B70006C0EDF5C03E06A0EDF5C04E1010E63ECB7
:103B800022F0C9DBDF506E0A01E17FD31E0A01E19A
:103B900092D1200A01E18FD13F0A01E149D11A0AED
:103BA00001E146D10D0A01E143D1200A01E140D1F2
:103BB0003A0A01E13DD1200A01E13AD1260A01E1A8
:103BC00035D10D0A01E132D11A0A01E1D9D0200A1A
:103BD0004AE0300A1FE0460A0EE0250A01E083D3DE
:103BE000D950F90FE96EFF0EDA20EA6E010EEE5E93
:103BF000000EEE5AEE5A71EC22F0250EE66E95DBC1
:103C000003E1151C01E169D36DEC22F001E26BD3F5
:103C1000DB2A69D3080EDB6A040EDB50010806E2DA
:103C2000040EDB0435EC22F0DB508BDB080EDB509E
:103C300009E0030EDB50010B05E172DB01E04DD31F
:103C4000080EDB6A64DBEFCFDFFFE5EC22F003E177
:103C5000151C01E142D36DEC22F001E3DB2A60DBAD
:103C600001E141D33AD3070EDB5002080FE1B1EC7A
:103C700022F0030E78EC22F00E0EEECFDBFF0F0EDB
:103C8000EECFDBFF100EEECFDBFF20D0F70EDBCF49
:103C900017F0F80EDBCF18F0020E175E000E185A60
:103CA000F70E17C0DBFFF80E18C0DBFF17C0E9FFE7
:103CB00018C0EAFF68EC22F0166A0E0E14C0DBFF93
:103CC0000F0E15C0DBFF100E16C0DBFF0E0EDBCF94
:103CD000E6FF0F0EDBCFE6FF100EDBCFE6FF00ECBA
:103CE00034F0E552E552E552130E07C0DBFF140E27
:103CF00008C0DBFF060EDB5005E0130EACEC22F033
:103D000001E26ADBD0EC22F002E2130E37DB93EC27
:103D100022F006E0040EACEC22F002E2050E2EDBEF
:103D2000030EDBB005D0FCDA01E0D7D2080EDB6A67
:103D3000090EDB6A0E0EDBCFF6FF0F0EDBCFF7FFAF
:103D4000100EDBCFF8FF0800F550DF6EDF5014E0F7
:103D5000D6EC22F011E2E5EC22F003E1151C01E1C2
:103D6000BCD2BBDB01E3DB2A090EDB2AD9500E0FE4
:103D7000E96E000ECBDBE7D7D3DA01E1B4D2ADD2E6
:103D8000C6DA110EEECFDBFF120EEDCFDBFF110E08
:103D9000DBCFE6FF120EDBCFE6FFF2EC33F0E552AD
:103DA000E552130EF3CFDBFF140EF4CFDBFF060E4C
:103DB000DB5004E0130ED0DB01E20EDBD0EC22F08E
:103DC00002E2130EDBDAAFDB05E0040EC5DB02E234
:103DD000050ED4DA030EDBB005D0A2DA01E07DD205
:103DE000080EDB6A090EDB6A110EDBCFE9FF120E4B
:103DF000DBCFEAFFEFCFDFFFDF5014E0D7DB12E2CB
:103E0000E4DB03E1151C01E168D267DB01E3DB2A97
:103E1000090EDB2A110EDB2ADBCFE9FF120EE8E3E5
:103E2000DB2AE6D77DDA01E15ED257D2030EDB8EC4
:103E3000070EDB0410E195DB040E5ADB0A0EEECF11
:103E4000DBFF0B0EEECFDBFF0C0EEECFDBFF0D0E1C
:103E5000EECFDBFF6CD0070EDB5003082CE1030E26
:103E6000DBAE0DD0B2DA020E76DAEFCF14F0156ABF
:103E7000166A176A14AE39D01568166835D0F70E71
:103E8000DBCF15F0F80EDBCF16F0020E155E000E3C
:103E9000165AF70E15C0DBFFF80E16C0DBFF15C073
:103EA000E9FF16C0EAFFEFCF14F00A0E14C0DBFFE3
:103EB0000B0EDB6A38D0070EDB50020809E1030E57
:103EC000DBAE04D059DB16AE10D00ED055DB0DD0D2
:103ED000030EDBAE12D079DA020E3DDAF9DA166A99
:103EE000176A15AE02D016681768E2DA0C0E16C013
:103EF000DBFF0D0E17C0DBFF1AD0F70EDBCF16F07D
:103F0000F80EDBCF17F0020E165E000E175AF70EF2
:103F100016C0DBFFF80E17C0DBFF16C0E9FF17C0A5
:103F2000EAFFD6DAC5DA0C0EDB6A0D0EDB6A060E86
:103F3000DB5005E1010EF36E050EF3CFDBFF150E2E
:103F4000DB6A160EDB6AD950370F146E000EDA20CA
:103F5000156E390E14C0DBFF3A0E15C0DBFF380EAC
:103F6000DB6A080EDB6A0A0EAEDADF50780A12E06E
:103F7000200A10E0280A0CE0200A0AE03F0A06E0C6
:103F80000D0A02E0200A08E1020E05D0080E03D057
:103F9000080EDF26100E97DA030EDBBE02D0DB928E
:103FA000DB94DB50800B24E08ADAD890030EEB50D0
:103FB000000A08E6000EEE5C000EEE58000EEE5809
:103FC000000EEE5815E213DA0B680C680D680E68E7
:103FD00086EC33F00A0E02C0DBFF0B0E03C0DBFFE2
:103FE0000C0E04C0DBFF0D0E05C0DBFF2D0E08D04C
:103FF000030EDBA202D02B0E03D0DBA408D0200ED0
:10400000F36E170EF3CFDBFF150EDB2A02D0170E6F
:10401000DB6A050EDB5003E1B7D901E189D0580E08
:10402000146E6C0E156E000E166E070EDBCF17F0B9
:10403000186A196A1A6A17C00BF018C00CF019C078
:104040000DF01AC00EF0D3D9EAEC34F0145002246B
:10405000F36E15500320F46E16500420F86EF4CF62
:10406000F7FFF3CFF6FF0800090EF5CFDBFF580E80
:10407000DF5C0FE1610EF36E090E7BD90AE3200EBF
:10408000146E090EDBCFE7FF1450E75E090EE7CF91
:10409000DBFF070EDBCF14F0156A166A176A0FDA1A
:1040A00014C00BF015C00CF016C00DF017C00EF0C8
:1040B000EECF06F0EECF07F0EECF08F0EFCF09F02D
:1040C000EAEC34F009C0EDFF08C0EDFF07C0EDFFDA
:1040D00006C0EFFF390EDBCFE9FFDB063A0EDBCF80
:1040E000EAFF01E2DB06090EDBCFEFFF150EDB2A4C
:1040F0004BD995E1030EDBA61DD06F0EDF5C06E108
:10410000C1D918E3150EDB285BDA14D0780EDF5C1A
:1041100009E0580EDF5C06E0620EDF5C03E0420E51
:10412000DF5C08E1020EF36E160EF3CFDBFF02D068
:10413000150EDB6A030EDB50100B0EE0040EDBCF16
:1041400014F0050EDB50D880145406E2060EDB5046
:1041500003E1040EDB5034DA95D90AE2050EDBCF19
:10416000E7FF150EDB50E75E050EE7CFDBFF02D061
:10417000050EDB6A040EDBCF14F0160E45D9D8808D
:10418000145414E2160EDBCFE6FF150EDBCFE6FF6C
:10419000040EDBCFE6FF050EDB50E552E75CE5528F
:1041A000D880E754E552D880E7545FD9030EDB503E
:1041B000010B0BE1080EDB5008E0B2D801E08DD016
:1041C000080EDB50BED8080EDB6A170EDB5007E086
:1041D00088D9170EF1D903E1151C01E17ED0160E26
:1041E000DB5016E07ED9300EE66E9FD802E1151C3A
:1041F00074E077D9DFCFE6FF44EC33F0E552E552C7
:10420000E552F4CF15F00001F31C02E1151C65E046
:10421000050EDBCF14F0160EDB50D880145409E2E3
:10422000050EDBCFE7FF160EDB50E75E050EE7CF8E
:10423000DBFF300EE66E050ECBD94FE1390EDB2ADF
:10424000DBCFE9FF3A0E01E3DB2ADBCFEAFF090E01
:10425000EFCFDBFFDB500EE044D9090EADD902E110
:10426000151C3BE0390EDB2ADBCFE9FF3A0EEDE30C
:10427000DB2AEBD755D831E1160EDBCFE6FF080E6F
:10428000C3D8E552E7245DD82ED0070EDB50030AD1
:104290001CE0010A14E0030A07E07BD9DBCFEEFF44
:1042A000020EDBCFEDFF1FD0F5D8196A17AE02D092
:1042B000186819682CD8BCD819C0EEFF14D0EAD8F9
:1042C00017BE186824D8B4D80ED063D9DBCFEFFF5F
:1042D0000AD07BD905E1151C03E1F368F46810D01E
:1042E000FCD801E3DB2A79D912EF1DF0010EDBCFF8
:1042F00014F0020EDBCF15F014C0F3FF15C0F4FF6D
:104300003B0EE15C02E2E16AE552E16ECBD029D9D5
:10431000020E78EF22F061D90800F550DF6E12002E
:10432000200EE66E080EE8EF22F044EC33F0E55282
:10433000E552E552F3CF14F0F4CF15F00001F31C71
:104340001200146E156AD950010F4DD91450EE2683
:104350001550ED221200185E000E195AF70E18C003
:10436000DBFFF80E19C0DBFF18C0E9FF19C0EAFF38
:104370001200DBCFF4FFF350F45C1200DB50E76E69
:10438000040EE7CFDBFF12000A0EDBCF14F00B0E9A
:10439000DBCF15F00C0EDBCF16F00D0EDBCF17F0D8
:1043A00014501510161017101200130EEECFDBFF6D
:1043B000140EEDCFDBFF130EDBCF14F0140EDBCFAA
:1043C00015F00001800E15141200F70EDBCF18F067
:1043D000F80EDBCF19F01200050EDB50E66ED95057
:1043E000130F01D9E552E750EE6EED6A12000A0E86
:1043F000DBCF06F00B0EDBCF07F00C0EDBCF08F0A7
:104400000D0EDBCF09F01200DBCFE6FF150EDBCF80
:10441000E6FF050EDB50E552E724E552E7241200E3
:10442000DB50CED8010EF36E060EF3CFDBFF120089
:10443000EE50EFCFEAFFE96E16C0EEFF17C0EEFFB9
:1044400018C0EEFF1200D9CFE6FFDACFE6FFE1CFCA
:10445000D9FFE2CFDAFF1200DFCFE6FFE66AD5EC44
:1044600035F0E552E552F3501200E76E080EE7CF43
:10447000DBFF1200EECF14F0EECF15F0EFCF16F009
:10448000176A1200050EDBCF14F0150EDB50D88032
:1044900014541200010EDBCF16F0020EDBCF17F022
:1044A000186A1200E552E5CFDAFFE7CFD9FF120014
:1044B0000A0E14C0DBFF0B0E15C0DBFF1200D95033
:1044C0000A0FF3EF22F0F36E070EF3CFDBFF1200BB
:1044D000EECF14F0EFCF15F01200010EDB2A020E22
:1044E0001200FC0EDBCFE6FFFD0EDBCFE6FF120075
:1044F000145E000E155AF70E14C0DBFFF80E15C03F
:10450000DBFF14C0E9FF15C0EAFF1200DA20EA6EF3
:10451000EF2AEECFF6FF000EEF22EECFF7FFEF22ED
:10452000EECFF8FF1200040EDBCFE6FF130EDB50D8
:10453000E552E75C9ADFDB5004DF060EDB50120029
:10454000090EDB500A0DF350DF24D00FE76E090E81
:10455000E7CFDBFF8BEF21F0DB50F36E050EB9EFF9
:1045600021F0F70EDBCF14F0F80EDBCF15F01200C0
:10457000DFCFE6FF95EF21F028DF030EECDE3AEF08
:1045800022F0E7EC1CF0E552E552E552E552000955
:104590001200BDDEEE50EFCFEAFFE96E010E120011
:1045A000130EDB50F36E040EB9EF21F0040EDB5056
:1045B000F36E090EB9EF21F0DBCFE6FF95EF21F0A6
:1045C000E76E050EE7CFDBFF12008BDFB8EF22F0BE
:1045D000DBCFE6FF86DFC1EF22F0D950F90FE96E9D
:1045E000FF0E86EF22F0E96E000EDA20EA6E12006E
:1045F000949C948EFA0EE66E91EC35F0E552400EE6
:10460000E66EE66A3C0EE66EBBEC32F0E552E55231
:10461000E5521200D9CFE6FFE1CFD9FFFD0EDBCF87
:10462000F6FFFE0EDBCFF7FF0800F55014E0ACA25A
:10463000FED7FD0EDBCFF6FFFE0EDBCFF7FF080047
:10464000F550E66EA8EC35F0E552FD0EDB2AFE0EC5
:1046500001E3DB2AE3D7E552E7CFD9FF1200D9CF38
:10466000E6FFE1CFD9FFFD0EDBCFE9FFFE0EDBCF8A
:10467000EAFFEF5013E0ACA2FED7FD0EDBCFE9FF5F
:10468000FE0EDBCFEAFFEF50E66EA8EC35F0E55208
:10469000FD0EDB2AFE0E01E3DB2AE5D7E552E7CF6C
:1046A000D9FF1200D30EE66E550EE66EB3DFE5526B
:1046B000E5521200D9CFE6FFE1CFD9FFFD0EDBCFE7
:1046C000E9FFFE0EDBCFEAFFEF5020E1F90EDBCF72
:1046D00008F0FA0EDBCF09F0010E081801E10950CD
:1046E0000DE0085001E1095001E010D0630EE66EC4
:1046F000550EE66E8FDFE552E55208D0360EE66EB7
:10470000550EE66E87DFE552E55200D0D950FB0F1B
:10471000E96EFF0EDA20EA6E010EEE1801E1ED50AF
:1047200001E089D3FD0EDBCFE9FFFE0EDBCFEAFF10
:10473000EF0401E0D8D0D950F90FE96EFF0EDA206E
:10474000EA6EEE50ED100EE1C40EE66E540EE66E0B
:1047500061DFE552E552800EE66E540EE66E5ADFDA
:10476000E552E552D950F90FE96EFF0EDA20EA6EF4
:10477000010EEE1801E1ED504CE1F70EDBCF08F031
:10478000F80EDBCF09F0040E081801E1095038E0FB
:10479000030E081801E109502AE0020E081801E191
:1047A00009501CE0010E081801E109500EE0085004
:1047B00001E1095001E02DD075DF700EE66E540E58
:1047C000E66E28DFE552E55224D06CDF5F0EE66E20
:1047D000540EE66E1FDFE552E5521BD063DF4F0E2D
:1047E000E66E540EE66E16DFE552E55212D05ADF41
:1047F0003A0EE66E540EE66E0DDFE552E55209D034
:1048000051DF270EE66E540EE66E04DFE552E552E8
:1048100000D0D950F90FE96EFF0EDA20EA6E020ED1
:10482000EE1801E1ED505FE1F70EDBCF08F0F80E76
:10483000DBCF09F0040E081801E109504BE0020E2D
:10484000081801E109501AE0010E081801E10950A9
:104850000DE0085001E1095001E045D0190EE66E67
:10486000540EE66ED7DEE552E5523DD00A0EE66EF6
:10487000540EE66ECFDEE552E55235D013DFFD0E65
:10488000DBCFE9FFFE0EDBCFEAFF100EE926000EBC
:10489000EA22EECFE6FFEFCFE6FFFB0E146E530EDB
:1048A000156E166A14C0E6FF15C0E6FF16C0E6FFD7
:1048B000800EE66E000EE66EC3EC31F0176E070E4A
:1048C000E15E1750800EE66E000EE66EC8DEE55221
:1048D000E55209D0E7DEEA0EE66E530EE66E9ADE8A
:1048E000E552E55200D0FD0EDBCFE9FFFE0EDBCF37
:1048F000EAFFEF50020856E1D950F90FE96EFF0EBA
:10490000DA20EA6EEE50ED100EE1AD0EE66E530EBB
:10491000E66E80DEE552E552800EE66E540EE66EDF
:1049200079DEE552E552D950F90FE96EFF0EDA2033
:10493000EA6E010EEE1801E1ED5022E1F70EDBCF39
:1049400008F0F80EDBCF09F0010E081801E109505C
:104950000EE0085001E1095001E012D0A3DE9A0EEA
:10496000E66E530EE66E56DEE552E55209D09ADE4B
:10497000820EE66E530EE66E4DDEE552E55200D035
:10498000D950F90FE96EFF0EDA20EA6E020EEE182A
:1049900001E1ED5007E1700EE66E530EE66E3ADE71
:1049A000E552E552FD0EDBCFE9FFFE0EDBCFEAFF5D
:1049B000EF50030801E03ED2D950F90FE96EFF0E27
:1049C000DA20EA6EEE50ED100EE1BE0EE66E520EEB
:1049D000E66E20DEE552E552800EE66E540EE66E7F
:1049E00019DEE552E552D950F90FE96EFF0EDA20D3
:1049F000EA6E010EEE1801E1ED5068E1F70EDBCF33
:104A000008F0F80EDBCF09F0060E081801E1095096
:104A100054E0050E081801E1095046E0040E08189C
:104A200001E1095038E0030E081801E109502AE0BD
:104A3000020E081801E109501CE0010E081801E1FE
:104A400009500EE0085001E1095001E03FD02ADE94
:104A5000AD0EE66E520EE66EDDDDE552E55236D065
:104A600021DE9C0EE66E520EE66ED4DDE552E55276
:104A70002DD018DE880EE66E520EE66ECBDDE552C6
:104A8000E55224D00FDE690EE66E520EE66EC2DDF0
:104A9000E552E5521BD006DE530EE66E520EE66E70
:104AA000B9DDE552E55212D0FDDD340EE66E520E50
:104AB000E66EB0DDE552E55209D0F4DD1C0EE66E7F
:104AC000520EE66EA7DDE552E55200D0D950F90F3F
:104AD000E96EFF0EDA20EA6E020EEE1801E1ED50EB
:104AE00001E003D1F70EDBCF08F0F80EDBCF09F0C1
:104AF000050E081801E1095001E1CBD0040E081899
:104B000001E1095001E199D0030E081801E10950B3
:104B100068E0020E081801E1095037E0010E08189C
:104B200001E1095006E0085001E1095001E0DDD043
:104B3000DCD0B8DDFD0EDBCFE9FFFE0EDBCFEAFFF8
:104B4000100EE926000EEA22EECFE6FFEFCFE6FFD9
:104B5000FB0E146E530E156E166A14C0E6FF15C0D8
:104B6000E6FF16C0E6FF800EE66E000EE66EC3ECB2
:104B700031F0176E070EE15E1750800EE66E000EE4
:104B8000E66E6DDDE552E552B0D08CDDFD0EDBCF7B
:104B9000E9FFFE0EDBCFEAFF120EE926000EEA2245
:104BA000EECFE6FFEFCFE6FF0A0E146E520E156E43
:104BB000166A14C0E6FF15C0E6FF16C0E6FF800EB9
:104BC000E66E000EE66EC3EC31F0176E070EE15E86
:104BD0001750800EE66E000EE66E41DDE552E5529E
:104BE00084D060DDFD0EDBCFE9FFFE0EDBCFEAFFF8
:104BF000140EE926000EEA22EECFE6FFEFCFE6FF25
:104C0000ED0E146E510E156E166A14C0E6FF15C037
:104C1000E6FF16C0E6FF800EE66E000EE66EC3EC01
:104C200031F0176E070EE15E1750800EE66E000E33
:104C3000E66E15DDE552E55258D034DDFD0EDBCFD2
:104C4000E9FFFE0EDBCFEAFF160EE926000EEA2290
:104C5000EECFE6FFEFCFE6FFD90E146E510E156EC4
:104C6000166A14C0E6FF15C0E6FF16C0E6FF800E08
:104C7000E66E000EE66EC3EC31F0176E070EE15ED5
:104C80001750800EE66E000EE66EE9DCE552E55246
:104C90002CD008DDFD0EDBCFE9FFFE0EDBCFEAFFF7
:104CA000180EE926000EEA22EECFE6FFEFCFE6FF70
:104CB000BC0E146E510E156E166A14C0E6FF15C0B8
:104CC000E6FF16C0E6FF800EE66E000EE66EC3EC51
:104CD00031F0176E070EE15E1750800EE66E000E83
:104CE000E66EBDDCE552E55200D0D950F90FE96E11
:104CF000FF0EDA20EA6E030EEE1801E1ED5001E03E
:104D000099D0F70EDBCF08F0F80EDBCF09F0020EDA
:104D1000081801E1095062E0010E081801E109508C
:104D200031E0085001E1095001E084D0BBDCFD0E08
:104D3000DBCFE9FFFE0EDBCFEAFF1A0EE926000EFD
:104D4000EA22EECFE6FFEFCFE6FFA50E146E510E7E
:104D5000156E166A14C0E6FF15C0E6FF16C0E6FF22
:104D6000800EE66E000EE66EC3EC31F0176E070E95
:104D7000E15E1750800EE66E000EE66E70DCE552C6
:104D8000E55258D08FDCFD0EDBCFE9FFFE0EDBCF06
:104D9000EAFF1C0EE926000EEA22EECFE6FFEFCF77
:104DA000E6FF920E146E510E156E166A14C0E6FFE1
:104DB00015C0E6FF16C0E6FF800EE66E000EE66E3A
:104DC000C3EC31F0176E070EE15E1750800EE66EF1
:104DD000000EE66E44DCE552E5522CD063DCFD0E9D
:104DE000DBCFE9FFFE0EDBCFEAFF1E0EE926000E49
:104DF000EA22EECFE6FFEFCFE6FF7D0E146E510EF6
:104E0000156E166A14C0E6FF15C0E6FF16C0E6FF71
:104E1000800EE66E000EE66EC3EC31F0176E070EE4
:104E2000E15E1750800EE66E000EE66E18DCE5526D
:104E3000E55200D043D0D950FB0FE96EFF0EDA20C7
:104E4000EA6EEE50ED103AE1FD0EDBCFE9FFFE0E0B
:104E5000DBCFEAFF070EE926000EEA22EF5000E062
:104E6000FD0EDBCFE9FFFE0EDBCFEAFFEF50030ABA
:104E700015E0010A0BE0030A01E018D06A0EE66EA5
:104E8000510EE66E0AEC23F0E552E552590EE66E3D
:104E9000510EE66E0AEC23F0E552E5524A0EE66E3C
:104EA000510EE66E0AEC23F0E552E5522D0EE66E49
:104EB000510EE66E0AEC23F0E552E552E552E7CFDB
:044EC000D9FF120004
:0C4EC40046524F4E543A256420636D2086
:104ED00020202020004C3D256420636D20523D257C
:104EE0006420636D200048616C66205363616E200E
:104EF000202020202020005363616E6E696E672E93
:104F00002E2E20202020200046756C6C20536361DB
:104F10006E202020202020200044204741494E3D83
:104F20002020202020202020200049204741494ED9
:104F30003D202020202020202020005020474149D3
:104F40004E3D2020202020202020200052462053AB
:104F5000414D504C45533D202020202000495220F7
:104F600053414D504C4520524154453D200049523B
:104F70002053414D504C45533D2020202020004DD2
:104F800041582059415720524154453D202020008E
:104F9000362D5345545F4D4F44454D414E55414C80
:104FA00000352D5345545F52465F53414D504C459B
:104FB0005300342D5345545F49525F5241544520AC
:104FC000202000332D5345545F49525F53414D50CB
:104FD0004C455300322D5345545F5941575F524160
:104FE0005445202000312D5345545F5350454544CE
:104FF0005F4D41582000302D5345545F5049445F68
:105000004741494E532000464143544F52595F4D4A
:105010004F44452020202000312D5345545F5553E7
:1050200045524D414E55414C00302D5345545F463D
:10503000494E44504152524F5400555345525F41DE
:1050400055544F5F4D4F4445202000456E746572A6
:105050002050617373636F64653A20004D4158209E
:1050600053504545443D2020202020200025642029
:105070002020202020202020202020202020004D23
:105080004F544F52535F4F4646004D4F544F52536B
:105090005F4F4E00342D5345545F464143544F52A9
:1050A0005920202000332D5345545F555345525FFE
:1050B0004155544F2000322D5345545F53504545C0
:1050C000445F4D41582000312D5345545F4D4F549E
:1050D0004F52535F4F464600302D5345545F4D4F5E
:1050E000544F52535F4F4E2000202020202020207C
:1050F00020202020202020202000555345525F4DA5
:10510000414E55414C5F4D4F444500496E697469AD
:10511000616C6973696E672E2E2E200057656C6373
:105120006F6D6520746F204853532020000A0D5086
:1051300072657373204120746F20656E74657220F0
:10514000636F6D6D616E640A0D000A0D4641435434
:105150004F52595F4D4F4445000A0D555345525F1C
:105160004155544F5F4D4F4445000A0D555345522C
:105170005F4D414E55414C5F4D4F44450044657273
:1051800069766174697665204761696E3D202564A2
:105190000D00496E74656772616C204761696E3DF0
:1051A0002025640D0050726F706F7274696F6E61AC
:1051B0006C204761696E3D2025640D0052462053E6
:1051C000414D504C45532050455220455354494D74
:1051D0004154453D2025640D0049522053414D5016
:1051E0004C4520524154453D2025640D0049522034
:1051F00053414D504C45532050455220455354493E
:105200004D4154453D2025640D004D4158205941E4
:105210005720524154453D2025640D00362D5345FD
:10522000545F4D4F44455F555345525F4D414E5578
:10523000414C0D00352D5345545F52465F53414D4F
:10524000504C45535F5045525F455354494D41546E
:10525000450D00342D5345545F49525F53414D5025
:105260004C455F524154450D00332D5345545F4921
:10527000525F53414D504C45535F5045525F45532B
:1052800054494D4154450D00322D5345545F594109
:10529000575F524154455F4D41580D00312D5345E4
:1052A000545F53504545445F4D41580D00302D53D8
:1052B00045545F5049445F4741494E530D000A46EB
:1052C0004143544F52595F4D4F44450A0D302D53C1
:1052D00045545F5049445F4741494E530A0D312DB3
:1052E0005345545F53504545445F4D41580A0D3274
:1052F0002D5345545F5941575F524154455F4D41CD
:10530000580A0D332D5345545F49525F53414D5058
:105310004C45535F5045525F455354494D415445A8
:105320000A0D342D5345545F49525F53414D504C43
:10533000455F524154450A0D352D5345545F524641
:105340005F53414D504C45535F5045525F45535458
:10535000494D4154450A0D362D5345545F4D4F4438
:10536000455F555345525F4D414E55414C0A0D0026
:105370000A46696E64696E6720506172726F740AC2
:105380000D00312D5345545F4D4F44455F555345F6
:10539000525F4D414E55414C0D00302D5345545FE9
:1053A00046494E445F504152524F540D000A5553E6
:1053B00045525F4155544F5F4D4F44450A0D302DC6
:1053C0005345545F46494E445F504152524F540A30
:1053D0000D312D5345545F4D4F44455F5553455254
:1053E0005F4D414E55414C0A0D00456E746572206B
:1053F00050617373636F64653A0D004D41582053DB
:10540000504545443D2025640D000A0D4D4F544F35
:1054100052535F4F46460A0D000A0D4D4F544F52EE
:10542000535F4F4E0A0D00342D5345545F4D4F448A
:10543000455F464143544F525900332D5345545F05
:105440004D4F44455F555345525F4155544F0032CF
:105450002D5345545F53504545445F4D41580031ED
:105460002D5345545F4D4F544F52535F4F464600A6
:10547000302D5345545F4D4F544F52535F4F4E00A4
:105480005573652055502F444F574E206172726FEF
:10549000777320746F207363726F6C6C0A0D507297
:1054A000657373204120746F2073656C6563740AA3
:1054B0000D5072657373204220746F206578697493
:1054C0000A0A0D00555345525F4D414E55414C5F00
:1054D0004D4F44450A0A0D302D5345545F4D4F54EE
:1054E0004F52535F4F4E0A0D312D5345545F4D4F70
:1054F000544F52535F4F46460A0D322D5345545F69
:1055000053504545445F4D41580A0D332D53455482
:105510005F4D4F44455F555345525F4155544F0AC7
:105520000D342D5345545F4D4F44455F4641435420
:105530004F52590A0D00555345525F4D414E55414A
:105540004C5F4D4F44450A0D5072657373204120E6
:10555000746F20656E74657220636F6D6D616E642B
:105560000A0D0057656C636F6D6520746F20746859
:105570006520486172616D626520536F756C2053C0
:10558000656172636865720A0D50726573732041BC
:1055900020746F20656E74657220636F6D6D616E2F
:1055A000647320616E642055502F444F574E206124
:1055B00072726F777320746F207363726F6C6C0AF2
:1055C0000D496E697469616C6973696E672E2E2E60
:1055D0000A0D000D20202020202020202020202027
:1055E00020202020202020202020202020202020BB
:1055F00020202020202020202020202020200D00DE
:1056000057726F6E672050617373636F64650055E6
:0F5610000044004C005200480046004100420098
:01561F000486
:10562000D9CFE6FFE1CFD9FF620EE126D950050FB1
:10563000146EDACF15F01B0E14C0DBFF1C0E15C064
:10564000DBFFD9501D0F146EDACF15F03F0E14C0DA
:10565000DBFF400E15C0DBFF540EDB6A490EDB6A30
:10566000010EDB6AF29EF29CF9EC2FF01B0EDBCFF1
:10567000E9FF1C0EDBCFEAFFEF6A1B0EDBCFE9FF71
:105680001C0EDBCFEAFF020EE926000EEA220A0E0C
:10569000EE6EED6A1B0EDBCFE9FF1C0EDBCFEAFFDF
:1056A000040EE926000EEA220A0EEE6EED6A1B0ECB
:1056B000DBCFE9FF1C0EDBCFEAFF060EE926000E6A
:1056C000EA220A0EEE6EED6A1B0EDBCFE9FF1C0E1E
:1056D000DBCFEAFF080EE926000EEA220A0EEE6E84
:1056E000ED6A1B0EDBCFE9FF1C0EDBCFEAFF0A0ED3
:1056F000E926000EEA220A0EEE6EED6A1B0EDBCFE3
:10570000E9FF1C0EDBCFEAFF0C0EE926000EEA22B1
:105710000A0EEE6EED6A1B0EDBCFE9FF1C0EDBCF2F
:10572000EAFF0E0EE926000EEA220A0EEE6EED6A80
:105730001B0EDBCFE9FF1C0EDBCFEAFF100EE926C4
:10574000000EEA220A0EEE6EED6A1B0EDBCFE9FFB9
:105750001C0EDBCFEAFF120EEB6A130EEB6A1B0E78
:10576000DBCFE9FF1C0EDBCFEAFF140EEB6A150E50
:10577000EB6A3F0EDBCFE9FF400EDBCFEAFFEE52D4
:10578000EF6A3F0EDBCFE9FF400EDBCFEAFF020EF0
:10579000E926000EEA220A0EEF6E3F0EDBCFE9FF8C
:1057A000400EDBCFEAFF030EE926000EEA221E0EB2
:1057B000EF6E3F0EDBCFE9FF400EDBCFEAFF040EBA
:1057C000E926000EEA22140EEF6E3F0EDBCFE9FF52
:1057D000400EDBCFEAFF050EE926000EEA220A0E94
:1057E000EF6E3F0EDBCFE9FF400EDBCFEAFF060E88
:1057F000E926000EEA22EF6A3F0EDBCFE9FF400EFA
:10580000DBCFEAFF070EE926000EEA22EF6A3F0E21
:10581000DBCFE9FF400EDBCFEAFF080EEB6A090E93
:10582000EB6A3F0EDBCFE9FF400EDBCFEAFF0A0E4B
:10583000E926000EEA22EF6A3F0EDBCFE9FF400EB9
:10584000DBCFEAFF0B0EE926000EEA22EF6A3F0EDD
:10585000DBCFE9FF400EDBCFEAFF0C0EEB6A0D0E4B
:10586000EB6A3F0EDBCFE9FF400EDBCFEAFF0E0E07
:10587000EB6A0F0EEB6A3F0EDBCFE9FF400EDBCF8A
:10588000EAFF200EEB6A210EEB6AF28CD08EF28ECC
:105890001B0EDBCFE6FF1C0EDBCFE6FFEF0EE66E46
:1058A000000EE66E0BEC30F0E552E552E552E552A3
:1058B0000001D00519E1560EDB50E76E410EE7CF2F
:1058C000DBFF570EDB50E76E420EE7CFDBFF580ED3
:1058D000DB50E76E430EE7CFDBFF010EDB50E76ED8
:1058E000450EE7CFDBFFD06B050EDBCFE6FF540E96
:1058F000DBCFE6FFC9D9E552E552E76E540EE7CF9C
:10590000DBFF1B0EDBCFE9FF1C0EDBCFEAFFEF5006
:10591000E66E3F0EDBCFE9FF400EDBCFEAFFE5523C
:10592000E750EF6E1B0EDBCFE9FF1C0EDBCFEAFF6B
:10593000020EE926000EEA22EECF14F0EFCF15F0AA
:105940003F0EDBCFE9FF400EDBCFEAFF100EE9266A
:10595000000EEA2214C0EEFF15C0EDFF1B0EDBCFD8
:10596000E9FF1C0EDBCFEAFF040EE926000EEA2257
:10597000EECF14F0EFCF15F03F0EDBCFE9FF400E76
:10598000DBCFEAFF120EE926000EEA2214C0EEFF7A
:1059900015C0EDFF1B0EDBCFE9FF1C0EDBCFEAFFCE
:1059A000060EE926000EEA22EECF14F0EFCF15F036
:1059B0003F0EDBCFE9FF400EDBCFEAFF140EE926F6
:1059C000000EEA2214C0EEFF15C0EDFF1B0EDBCF68
:1059D000E9FF1C0EDBCFEAFF080EE926000EEA22E3
:1059E000EECF14F0EFCF15F03F0EDBCFE9FF400E06
:1059F000DBCFEAFF160EE926000EEA2214C0EEFF06
:105A000015C0EDFF1B0EDBCFE9FF1C0EDBCFEAFF5D
:105A10000C0EE926000EEA22EECF14F0EFCF15F0BF
:105A20003F0EDBCFE9FF400EDBCFEAFF1A0EE9267F
:105A3000000EEA2214C0EEFF15C0EDFF1B0EDBCFF7
:105A4000E9FF1C0EDBCFEAFF0E0EE926000EEA226C
:105A5000EECF14F0EFCF15F03F0EDBCFE9FF400E95
:105A6000DBCFEAFF1C0EE926000EEA2214C0EEFF8F
:105A700015C0EDFF1B0EDBCFE9FF1C0EDBCFEAFFED
:105A8000100EE926000EEA22EECF14F0EFCF15F04B
:105A90003F0EDBCFE9FF400EDBCFEAFF1E0EE9260B
:105AA000000EEA2214C0EEFF15C0EDFF1B0EDBCF87
