:020000040000FA
:060000006CEF09F0120094
:020006001200E6
:06000800DEEF07F012001C
:02000E000400EC
:100010004B130000BB0000001C0000003513000063
:10002000D700000016000000311300001B01000083
:1000300004000000F6120000800000003B000000F9
:100040009268C26AC16AC06AC30EC2140009C26E55
:10005000C280C28212001200D9CFE6FFE1CFD9FFE1
:10006000080EE126D9CFE6FFDACFE6FFFD0EDBCFA3
:10007000E6FFFE0EDBCFE6FFA5D8E552E552E552DE
:10008000E552FD0EDBCF08F0FE0EDBCF09F0060EC9
:1000900008C0DBFF070E09C0DBFFFD0EDBCFE6FF6C
:1000A000FE0EDBCFE6FFFB0EDBCFE6FFFC0EDBCF69
:1000B000E6FFD9CFE6FFDACFE6FF0ED8146E060EC4
:1000C000E15E1450080EE15C02E2E16AE552E16E85
:1000D000E552E7CFD9FF1200D9CFE6FFE1CFD9FF34
:1000E000040EE126F90EDBCF08F0FA0EDBCF09F0A3
:1000F000020E08C0DBFF030E09C0DBFFDE6ADD6A0B
:10010000DECF14F0DDCF15F0D890155004E6030EC5
:10011000145C000E15584CE2DECF16F0DDCF17F060
:10012000D89016361736FD0EDB501624E96EFE0EFB
:10013000DB501720EA6EEECF14F0EFCF15F0153438
:1001400004E214506408000E155420E2DECF14F0CF
:10015000DDCF15F0D89014361536FD0EDB50142483
:10016000E96EFE0EDB501520EA6EEE6AED6AFB0EBC
:10017000DBCF14F0FC0EDBCF15F0DE501424E96E5B
:10018000DD501520EA6E010EEF6E0DD0FB0EDBCFB9
:1001900014F0FC0EDBCF15F0DE501424E96EDD50B8
:1001A0001520EA6EEF6ADF2A010E01E3DB2AA8D7E9
:1001B000040EE15C02E2E16AE552E16EE552E7CF4E
:1001C000D9FF1200D9CFE6FFE1CFD9FF120EE12609
:1001D0000001EB05E66ED950040FE96EDACFEAFFB5
:1001E000E552E750EE6EED6AE905E66ED950060F6E
:1001F000E96EDACFEAFFE552E750EE6EED6AEA0506
:10020000E66ED950080FE96EDACFEAFFE552E75003
:10021000EE6EED6A0A0EDB6A0B0EDB6A0C0EDB6A11
:100220000D0EDB6A0E0EDB6A0F0EDB6ADE6ADD6A1C
:10023000DECF14F0DDCF15F0FD0EDBCF16F0FE0E95
:10024000DBCF17F015501718E8AE02D0173404D0E2
:100250001650145C1750155851E2030E0001EB259F
:10026000FF0F166E176ADE50165C146EDD501758BD
:10027000156E030E0D6E0E6A14C008F015C009F05D
:10028000B5EC08F004C014F005C015F0020E14C05F
:10029000DBFF030E15C0DBFF020EDBCFE9FF030E11
:1002A000DBCFEAFFD890E936EA36E30EE926000E06
:1002B000EA22100EEECFDBFF110EEDCFDBFF020EB8
:1002C000DBCFE9FF030EDBCFEAFFD890E936EA3651
:1002D000E30EE926000EEA22EECF14F0EFCF15F080
:1002E000D9500A0FE96EDACFEAFF1450EE26155006
:1002F000ED22DF2A010E01E3DB2A9AD7FB0EDBCFCA
:10030000E9FFFC0EDBCFEAFF0A0EDBCFEEFF0B0EA0
:10031000DBCFEDFFDE6ADD6ADECF14F0DDCF15F056
:10032000FD0EDBCF16F0FE0EDBCF17F015501718C1
:10033000E8AE02D0173404D01650145C175015588C
:100340003EE2030E0001E925FF0F166E176ADE502C
:10035000165C146EDD501758156E030E0D6E0E6A86
:1003600014C008F015C009F0B5EC08F004C014F092
:1003700005C015F0020E14C0DBFF030E15C0DBFF35
:10038000020EDBCFE9FF030EDBCFEAFFD890E936A0
:10039000EA36D70EE926000EEA22EECF14F0EFCFB0
:1003A00015F0D9500C0FE96EDACFEAFF1450EE26A3
:1003B0001550ED22DF2A010E01E3DB2AADD7020E34
:1003C000E76EFB0EDBCFE9FFFC0EDBCFEAFFE75069
:1003D000E926000EEA220C0EDBCFEEFF0D0EDBCF7E
:1003E000EDFFDE6ADD6ADECF14F0DDCF15F0FD0E25
:1003F000DBCF16F0FE0EDBCF17F015501718E8AE66
:1004000002D0173404D01650145C175015583EE231
:10041000030E0001EA25FF0F166E176ADE50165C08
:10042000146EDD501758156E030E0D6E0E6A14C053
:1004300008F015C009F0B5EC08F004C014F005C0D0
:1004400015F0020E14C0DBFF030E15C0DBFF020E19
:10045000DBCFE9FF030EDBCFEAFFD890E936EA36BF
:10046000DD0EE926000EEA22EECF14F0EFCF15F0F4
:10047000D9500E0FE96EDACFEAFF1450EE26155070
:10048000ED22DF2A010E01E3DB2AADD7040EE76E71
:10049000FB0EDBCFE9FFFC0EDBCFEAFFE750E926DE
:1004A000000EEA220E0EDBCFEEFF0F0EDBCFEDFFCC
:1004B000120EE15C02E2E16AE552E16EE552E7CF3D
:1004C000D9FF1200D9CFE6FFE1CFD9FF020EE12616
:1004D00016D8F3CFDEFFF4CFDDFFDECFE6FFDDCFB2
:1004E000E6FF41D8E552E55222D8020EE15C02E275
:1004F000E16AE552E16EE552E7CFD9FF1200D9CFAC
:10050000E6FFE1CFD9FF020EE126C450146E156A52
:1005100014C0F3FF15C0F4FF020EE15C03E200D04B
:10052000E16AE552E16EE552E7CFD9FF1200000122
:10053000EC5107E1C30EC2140409C26E010EEC6F48
:1005400011D0EC0507E1C30EC2140809C26E020EF9
:10055000EC6F08D0020EEC5D05E1C30EC214000979
:10056000C26EEC6B1200D9CFE6FFE1CFD9FF0001DC
:10057000EC5116E1030EEB5D01E1EB6BEB51E96E23
:10058000EA6AD890E936EA36E30EE926000EEA2256
:10059000FD0EDBCFEEFFFE0EDBCFEDFFEB2B30D001
:1005A000EC0516E1030EE95D01E1E96BE951E96E45
:1005B000EA6AD890E936EA36D70EE926000EEA2232
:1005C000FD0EDBCFEEFFFE0EDBCFEDFFE92B18D0EB
:1005D000020EEC5D15E1030EEA5D01E1EA6BEA5102
:1005E000E96EEA6AD890E936EA36DD0EE926000EB1
:1005F000EA22FD0EDBCFEEFFFE0EDBCFEDFFEA2B96
:08060000E552E7CFD9FF12001B
:08060800949C948EFA0EE66E3C
:1006100018EC09F0E552400EE66EE66A7C0EE66ED6
:1006200070EC08F0E552E552E5521200D9CFE6FF32
:10063000E1CFD9FF070EE126DF6ADE52100EDD6E34
:10064000020EDB6A200EF36E030EF3CFDBFF200EEB
:10065000F36E040EF3CFDBFF200EF36E050EF3CF27
:10066000DBFF060EDB6AFA0EDBCFE6FF010EDB5086
:10067000E552E710E76E010EE7CFDBFFDFCF14F0A6
:10068000030EE76E1418E8AE02D0E73402D0E7504C
:10069000145C35E2FD0EDBCFE9FFFE0EDBCFEAFF97
:1006A000EFCF1CF0D950030F186EDACF19F0DFCF5F
:1006B0001AF01B6A1ABE1B6818501A24E96E1950EA
:1006C0001B20EA6EEF501C10E66ED950030F146E1B
:1006D000DACF15F0DFCF16F0176A16BE1768145080
:1006E0001624E96E15501720EA6EE552E750EF6EBA
:1006F000FD0EDB2AFE0E01E3DB2ADF2ABFD7BB0E8D
:10070000E66E000EE66EE0D9E552E552D950030FD1
:10071000E66E000EDA20E66ED7D9E552E552FB0E02
:10072000DBCFE6FFFC0EDBCFE6FFCED9E552E5528C
:10073000D950010FE66E000EDA20E66EC5D9E552FB
:10074000E552BF0EE66E000EE66EBED9E552E552EA
:10075000070EE15C03E200D0E16AE552E16EE5528A
:10076000E7CFD9FF1200D9CFE6FFE1CFD9FFF9ECEF
:1007700008F00101196FF90EDBCFE9FFFA0EDBCFAC
:10078000EAFFEF6A4B0E195D0FE1F70EDBCFE9FFD1
:10079000F80EDBCFEAFF010EEF6EFD0EDBCF17F197
:1007A000FE0EDBCF18F113D04F0E195D10E1F70EDE
:1007B000DBCFE9FFF80EDBCFEAFFEF6AF90EDBCF04
:1007C000E9FFFA0EDBCFEAFF010EEF6E2CD00D0E23
:1007D000195D08E1FB0EDBCFE9FFFC0EDBCFEAFF82
:1007E000010EEF6EF70EDBCFE9FFF80EDBCFEAFF6D
:1007F000EF5018E07A0E195D15E017C1E9FF18C136
:10080000EAFF19C1EFFF172B000E18230001C107E3
:10081000C15108E1FD0EDBCF17F1FE0EDBCF18F161
:10082000310EC16F00D0E552E7CFD9FF1200D9CF0A
:10083000E6FFE1CFD9FF040EE126DE6ADD6A020E93
:10084000DB6A030EDB6AFD0EDB2AFE0E01E3DB2A08
:10085000FD0EDBCFE9FFFE0EDBCFEAFFEF505E08B7
:1008600001E09BD0FD0EDB2AFE0E01E3DB2AFD0E2C
:10087000DBCFE9FFFE0EDBCFEAFFEF507E0807E19A
:10088000C20EE66E000EE66E1FD9E552E552FB0E73
:10089000DBCFE9FFFC0EDBCFEAFFEE6AED6AFD0E6F
:1008A000DBCFE9FFFE0EDBCFEAFFEF50F00B0101DB
:1008B0001A6F100E1A5D70E1020EDBCF14F0030EFA
:1008C000DBCF15F0D890155004E6040E145C000E32
:1008D000155847E2FB0EDBCFE9FFFC0EDBCFEAFF4A
:1008E000EECF14F0EFCF15F0040ED8901436153675
:1008F000E804FBE1FB0EDBCFE9FFFC0EDBCFEAFFF8
:1009000014C0EEFF15C0EDFFFD0EDBCFE9FFFE0EBC
:10091000DBCFEAFFEF500F0B166E176A16BE176893
:10092000FB0EDBCFE9FFFC0EDBCFEAFF1650EE102B
:10093000146E1750EE10156EFB0EDBCFE9FFFC0EA8
:10094000DBCFEAFF14C0EEFF15C0EDFFFD0EDB2A82
:10095000FE0E01E3DB2A020EDB2A030E01E3DB2A93
:10096000ABD7FD0EDBCFE9FFFE0EDBCFEAFFEF508A
:10097000E66EF90EDBCFE9FFFA0EDBCFEAFFE552B8
:10098000E750EF6EF70EDBCFE9FFF80EDBCFEAFFA3
:10099000010EEF6E000E01D000D0146E040EE15C6B
:1009A00002E2E16AE552E16E1450E552E7CFD9FF69
:1009B0001200D9CFE6FFE1CFD9FF020EE126400EAB
:1009C000DE6E4B0EDD6E7A0EAE5C01E0FCD7C70E1C
:1009D000E66E000EE66EA7D8E552E552140EE66EFE
:1009E00018EC09F0E552CB0EE66E000EE66E9BD8D1
:1009F000E552E552140EE66E18EC09F0E552D10E00
:100A0000E66E000EE66E8FD8E552E552140EE66EE5
:100A100018EC09F0E552F50EDBCFE9FFF60EDBCF5F
:100A2000EAFFEF6AF90EDBCFE9FFFA0EDBCFEAFF50
:100A3000EF6AFD0EDBCFE9FFFE0EDBCFEAFFEF50E2
:100A40000D0806E0FD0EDB2AFE0E01E3DB2AF1D7DE
:100A5000FD0EDB2AFE0E01E3DB2AFD0EDBCFE9FFF4
:100A6000FE0EDBCFEAFFEF500D081CE0FD0EDBCFE2
:100A7000E9FFFE0EDBCFEAFFEF50E66EFB0EDBCFA9
:100A8000E9FFFC0EDBCFEAFFE552E750EF6EFB0E0D
:100A9000DB2AFC0E01E3DB2AFD0EDB2AFE0E01E35E
:100AA000DB2ADBD7FB0EDBCFE9FFFC0EDBCFEAFF57
:100AB000EF6A020EE15C03E200D0E16AE552E16E0A
:100AC000E552E7CFD9FF1200D9CFE6FFE1CFD9FF3A
:100AD000FD0EDBCFE9FFFE0EDBCFEAFFEF501FE09C
:100AE000ACA2FED7E6682FEC09F0E552ACA2FED727
:100AF000FD0EDBCFE9FFFE0EDBCFEAFFEF50E66E27
:100B00002FEC09F0E552ACA2FED7E6682FEC09F015
:100B1000E552FD0EDB2AFE0E01E3DB2AD9D7E552B2
:100B2000E7CFD9FF1200D9CFE6FFE1CFD9FFFD0E05
:100B3000DBCFE9FFFE0EDBCFEAFFEF5013E0ACA204
:100B4000FED7FD0EDBCFE9FFFE0EDBCFEAFFEF5055
:100B5000E66E2FEC09F0E552FD0EDB2AFE0E01E3F6
:0C0B6000DB2AE5D7E552E7CFD9FF1200F1
:040B6C00D9CFE6FFF8
:100B7000E1CFD9FFFE0EDB504C0804E0FE0EDB5047
:100B80006C0805E18388839C8380839236D0FE0EB7
:100B9000DB50520804E0FE0EDB50720805E183983A
:100BA000838C8390838229D0FE0EDB50640804E09E
:100BB000FE0EDB50440805E18398838C838083928A
:100BC0001CD0FE0EDB50750804E0FE0EDB5055080D
:100BD00005E18388839C839083820FD0FE0EDB50D7
:100BE000730804E0FE0EDB50530805E18398839CF4
:100BF0008390839202D001011D6BE552E7CFD9FFAC
:100C000012000001F36BF46BD650FA6FFB6BD750F8
:100C1000FC6FFD6B086A010E096EFCC00DF0FDC093
:100C20000EF0DBEC08F006500001FA25F36F0750D8
:100C3000FB21F46F1200D66A030EE66E18EC09F081
:100C4000E552D76A030EE66E18EC09F0E552CE6A5B
:100C5000030EE66E18EC09F0E552CF6A030EE66E5D
:100C600018EC09F0E552120001011D6B956A836AC8
:100C7000826A936A816A94808280D08E9F9AD58E90
:100C8000D59CD58AD598D586CB68BD9ABD98BE6AC5
:100C9000040ECA6E8C0EBD6E94948294730EE66E32
:100CA00065DFE552C8DFADDF000EE66EE66A08D804
:100CB000E552E55201011D6B0001F86BF96B120062
:100CC000D9CFE6FFE1CFD9FF020EE126DE6ADD6A69
:100CD0000868096AFD0EDBCF0DF0FE0EDBCF0EF0CB
:100CE000DBEC08F006C014F007C015F0640E0D6EC2
:100CF0000E6A14C008F015C009F046EC09F008C0EF
:100D000014F009C015F014C0DEFF15C0DDFFDF5080
:100D1000BE6E020EE15C02E2E16AE552E16EE5526E
:100D2000E7CFD9FF1200D9CFE6FFE1CFD9FFFB0E05
:100D3000DB5007E101011D6B730EE66E17DFE55214
:100D40004ED001011D5121E1FB0EDB041EE1010E1D
:100D50001D6F0001F36BF46B6EDF0101010E1D6F5F
:100D6000FC0EDBCFE6FF02DFE552FD0EDBCFF8F035
:100D7000FE0EDBCFF9F0F90EDBCFE6FFFA0EDBCF8C
:100D8000E6FF9EDFE552E5522AD01D0528E1FB0E65
:100D9000DB0425E10001F36BF46BFD0EDBCFF8F013
:100DA000FE0EDBCFF9F02DDF0001F851F35DF951B4
:100DB000F45915E301011D6BF70EDBCFE9FFF80EC7
:100DC000DBCFEAFF010EEF6E730EE66ECFDEE5526B
:100DD0000001F86BF96B2FDF0001F36BF46B01017D
:0C0DE0001D5100D0E552E7CFD9FF1200F2
:040DEC00D9CFE6FF76
:100DF000E1CFD9FF0A0EE126040EF36E020EF3CF07
:100E0000DBFF050EF36E030EF3CFDBFF060EF36E72
:100E1000040EF3CFDBFF050EDB6A060EDB6A070E5E
:100E2000DB6A0101D00E096F070E0A6F730E0B6F9C
:100E300004EC03F034EC06F00001B869A282A09241
:100E4000B10EB16EC28294808280F28EF28CF28CEE
:100E5000D09EF28E0101190E0C6F096B0A6B730E96
:100E60000B6F100E086F08C1E6FF840EE66E000ED1
:100E7000E66ED950020FE66E000EDA20E66E16EC32
:100E800003F0146E050EE15E14500001B90518E17F
:100E9000080EE66E010EE66E0B0EE66E010EE66EB5
:100EA000090EE66E010EE66E870EE66E000EE66E29
:100EB00017EC04F0146E080EE15E14500001B96BDB
:100EC000080E09C1DBFF090E0AC1DBFFD950060F6E
:100ED000E66E000EDA20E66E0CC114F0156A14BE40
:100EE000156814C0E6FF15C0E6FF08C1E6FF0BC198
:100EF000E6FF09C1E6FF0AC1E6FF93EC06F0166EB5
:100F0000080EE15E16500101086F085135E1720EBE
:100F10000B5D03E0520E0B5D1AE1070EE66E010E4B
:100F2000E66EBA0EE66E000EE66EB90EE66E000EC6
:100F3000E66E840EE66E000EE66E870EE66E000E1E
:100F4000E66ED9EC04F0146E0A0EE15E145008C18E
:100F5000E6FF840EE66E000EE66ED950020FE66ED6
:100F6000000EDA20E66E16EC03F0146E050EE15E5C
:100F70001450060EDB6A12D008C1E6FF840EE66E3E
:100F8000000EE66ED950020FE66E000EDA20E66E15
:100F900016EC03F0146E050EE15E1450280EE66E9A
:100FA00018EC09F0E55271D70A0EE15C02E2E16A41
:100FB000E552E16EE552E7CFD9FF1200D9CFE6FF47
:100FC000E1CFD9FF020EE126F29EA150020B0EE006
:100FD000A050020B0BE0A192B36AB26AC2829E6A71
:100FE000A16AA282A082B10EB16EC2829EAA1DD059
:100FF0009E9A070EE66E010EE66EB90EE66E000EC4
:10100000E66EBA0EE66E000EE66E870EE66E000E17
:10101000E66EB3EC03F0146E080EE15E14500001AE
:10102000B95103E0010EDE6EDD6AF28E020EE15C64
:1010300003E200D0E16AE552E16EE552E7CFD9FF65
:0210400012009C
:0E1042000E0EF66E000EF76E000EF86E010137
:101050000900F550126F0900F550136F03E1126794
:1010600001D03DD00900F5500D6F0900F5500E6F0D
:101070000900F5500F6F09000900F550E96E0900ED
:10108000F550EA6E090009000900F550106F0900DB
:10109000F550116F09000900F6CF14F1F7CF15F1E3
:1010A000F8CF16F10DC1F6FF0EC1F7FF0FC1F8FF23
:1010B0000101105302E1115307E00900F550EE6EF3
:1010C0001007F8E21107F9D714C1F6FF15C1F7FFB1
:1010D00016C1F8FF01011207000E135BBFD7120003
:1010E000D9CFE6FFDACFE6FFE1CFD9FFE2CFDAFFD3
:1010F000AC6AAB6AFD0EDBB0AC88DBA202D0AC8C74
:10110000AB8CDBB4AC8EDBA602D0AB8801D0AB8A53
:10111000DBB8AC849E98DBBAAB86DBAC02D09D8A90
:1011200001D09D9A9E9ADBAE02D09D8801D09D98F9
:10113000FB0EDB50AF6EFB0EFC0EDBCF15F015C0C7
:1011400014F0156A1450B06EAC8AAB8E949C948ED9
:10115000AC50100B04E0AC50800B01E1948CE552D4
:0A116000E5CFDAFFE7CFD9FF120058
:06116A00006A0EAEBEEFAC
:1011700008F00D6C0E1EE86A0E22001E09AEC6EFC6
:1011800008F0086C091EE86A0922001E46EC09F006
:1011900009BED6EF08F000AE000C086C091EE86A24
:1011A0000922046C051EE86A0522000C00BECDEF82
:1011B00008F00188FF0C08C012F008500D02F4CFAF
:1011C00007F0F3CF06F009500E02F4CF09F0F3CF89
:1011D00008F00D02F3500726F4500822E86A0922AD
:1011E00012500E02F3500726F4500822E86A092232
:0211F000000CF1
:0E11F200D9CFE6FFDACFE6FFE1CFD9FFE2CF9B
:10120000DAFFE652F20E0001FE17ABAC03D0FE91FE
:10121000ABB0FE81ABB4FE85ABB2FE87AE50DF6EE5
:10122000DF50E552E552E5CFDAFFE7CFD9FF1200F4
:10123000FF0EE3501E6EEF0E01D0F30EE76EE72EA9
:101240001FEF09F00C0E1D6EE76AE72E25EF09F07F
:0E1250001D2E24EF09F01E2E1DEF09F01200D6
:02125E00D9CFE6
:10126000E6FFDACFE6FFE1CFD9FFE2CFDAFFACACA1
:1012700004D0AC900001FEB3AC80FD0EDB50AD6E2F
:0C128000E552E5CFDAFFE7CFD9FF1200FE
:04128C00056A046A81
:10129000100EE76ED89008360936043605360D5024
:1012A000045C0E50055805E30D50045E0E50055ABF
:0812B000082AE72EF0D7120016
:0812B800000EF36E00EE00F0E1
:1012C000060E01D81200EA6002D0EE6AFCD7F35095
:0812D000E9601200EE6AFCD790
:0812D80015EE00F025EE00F018
:1012E000F86A019C21EC08F003EC00F0F6EC06F043
:0412F000FBD7120016
:0212F4001200E6
:0A12F6000A000A003030000000007A
:1013000000000000000000000000000000000000DD
:1013100000000000000000000000000000000000CD
:1013200000000000000000000000000000000000BD
:0113300000BC
:041331000000101098
:0B1335000000000000000000000000AD
:0B1340000000000000000000000000A2
:05134B00FF4B5E004FA6
:1013500000314B5E7E4F002B2B2B00415444420D3D
:07136000004154434E0D0053
:020000040030CA
:0100010002FC
:010002001AE3
:010003000EEE
:010005008377
:010006008178
:010008000FE8
:01000900C036
:01000A000FE6
:01000B00E014
:01000C000FE4
:01000D0040B2
:00000001FF
