:020000040000FA
:0600000014EF08F01200ED
:020006001200E6
:06000800FCEF05F0120000
:02000E000300ED
:1000100061100000C30000001B0000004B10000036
:10002000DE00000016000000461000000001000085
:0400300005000000C7
:0C0034009268C26AC16AC06AC30EC2149E
:100040000009C26EC280C28212001200D9CFE6FF40
:10005000E1CFD9FF080EE126D9CFE6FFDACFE6FFE0
:10006000FD0EDBCFE6FFFE0EDBCFE6FFADD8E5529F
:10007000E552E552E552FD0EDBCF08F0FE0EDBCF78
:1000800009F0060E08C0DBFF070E09C0DBFFFD0EFE
:10009000DBCFE6FFFE0EDBCFE6FFFB0EDBCFE6FF9E
:1000A000FC0EDBCFE6FFD9CFE6FFDACFE6FF0ED8B6
:1000B000106E060EE15E1050080EE15C02E2E16A8D
:1000C000E552E16EE552E7CFD9FF1200D9CFE6FF46
:1000D000E1CFD9FF040EE126F90EDBCF08F0FA0ECE
:1000E000DBCF09F0020E08C0DBFF030E09C0DBFF07
:1000F000DE6ADD6ADECF10F0DDCF11F0D89011504E
:1001000004E6030E105C000E115854E2DECF12F02C
:10011000DDCF13F0D89012361336FD0EDB501224CB
:10012000E96EFE0EDB501320EA6EEECF10F0EFCF3B
:1001300011F0113404E210506408000E115424E24E
:10014000DECF10F0DDCF11F0D89010361136FD0E55
:10015000DB501024E96EFE0EDB501120EA6EEE6AD1
:10016000ED6ADECF10F0DDCF11F0D89010361136E9
:10017000FB0EDB501024E96EFC0EDB501120EA6E02
:10018000010EEE6EED6A11D0DECF10F0DDCF11F072
:10019000D89010361136FB0EDB501024E96EFC0EA1
:1001A000DB501120EA6EEE6AED6ADF2A010E01E3F0
:1001B000DB2AA0D7040EE15C02E2E16AE552E16EBF
:1001C000E552E7CFD9FF1200D9CFE6FFE1CFD9FF43
:1001D000120EE1260001F205E66ED950040FE96E19
:1001E000DACFEAFFE552E750EE6EED6AF005E66E13
:1001F000D950060FE96EDACFEAFFE552E750EE6E0E
:10020000ED6AF105E66ED950080FE96EDACFEAFF24
:10021000E552E750EE6EED6A0A0EDB6A0B0EDB6A02
:100220000C0EDB6A0D0EDB6A0E0EDB6A0F0EDB6A4C
:10023000DE6ADD6ADECF10F0DDCF11F0FD0EDBCF20
:1002400012F0FE0EDBCF13F011501318E8AE02D0FF
:10025000133404D01250105C1350115851E2030EA5
:100260000001F225FF0F126E136ADE50125C106E51
:10027000DD501358116E030E0D6E0E6A10C008F09B
:1002800011C009F05AEC07F004C010F005C011F0DD
:10029000020E10C0DBFF030E11C0DBFF020EDBCF2E
:1002A000E9FF030EDBCFEAFFD890E936EA36EA0E23
:1002B000E926000EEA22100EEECFDBFF110EEDCF85
:1002C000DBFF020EDBCFE9FF030EDBCFEAFFD890A6
:1002D000E936EA36EA0EE926000EEA22EECF10F001
:1002E000EFCF11F0D9500A0FE96EDACFEAFF1050C4
:1002F000EE261150ED22DF2A010E01E3DB2A9AD708
:10030000FB0EDBCFE9FFFC0EDBCFEAFF0A0EDBCFF3
:10031000EEFF0B0EDBCFEDFFDE6ADD6ADECF10F005
:10032000DDCF11F0FD0EDBCF12F0FE0EDBCF13F0B0
:1003300011501318E8AE02D0133404D01250105CE0
:10034000135011583EE2030E0001F025FF0F126E0C
:10035000136ADE50125C106EDD501358116E030EDE
:100360000D6E0E6A10C008F011C009F05AEC07F0CB
:1003700004C010F005C011F0020E10C0DBFF030E28
:1003800011C0DBFF020EDBCFE9FF030EDBCFEAFF7C
:10039000D890E936EA36DE0EE926000EEA22EECFE4
:1003A00010F0EFCF11F0D9500C0FE96EDACFEAFF61
:1003B0001050EE261150ED22DF2A010E01E3DB2A58
:1003C000ADD7020EE76EFB0EDBCFE9FFFC0EDBCFF5
:1003D000EAFFE750E926000EEA220C0EDBCFEEFF23
:1003E0000D0EDBCFEDFFDE6ADD6ADECF10F0DDCF74
:1003F00011F0FD0EDBCF12F0FE0EDBCF13F011502B
:100400001318E8AE02D0133404D01250105C13500D
:1004100011583EE2030E0001F125FF0F126E136A20
:10042000DE50125C106EDD501358116E030E0D6E0F
:100430000E6A10C008F011C009F05AEC07F004C0B1
:1004400010F005C011F0020E10C0DBFF030E11C04A
:10045000DBFF020EDBCFE9FF030EDBCFEAFFD89014
:10046000E936EA36E40EE926000EEA22EECF10F075
:10047000EFCF11F0D9500E0FE96EDACFEAFF10502E
:10048000EE261150ED22DF2A010E01E3DB2AADD763
:10049000040EE76EFB0EDBCFE9FFFC0EDBCFEAFFBD
:1004A000E750E926000EEA220E0EDBCFEEFF0F0E1C
:1004B000DBCFEDFF120EE15C02E2E16AE552E16E94
:1004C000E552E7CFD9FF1200D9CFE6FFE1CFD9FF40
:1004D000020EE12616D8F3CFDEFFF4CFDDFFDECF2C
:1004E000E6FFDDCFE6FF43D8E552E55224D8020E01
:1004F000E15C02E2E16AE552E16EE552E7CFD9FF45
:100500001200D9CFE6FFE1CFD9FF020EE1269EAC63
:10051000FED7C450106E116A10C0F3FF11C0F4FF73
:10052000020EE15C03E200D0E16AE552E16EE552C1
:10053000E7CFD9FF12000001F35107E1C30EC21447
:100540000409C26E010EF36F11D0F30507E1C30E6B
:10055000C2140809C26E020EF36F08D0020EF35DDA
:1005600005E1C30EC2140009C26EF36B1200D9CFAD
:10057000E6FFE1CFD9FF0001F35116E1030EF25D72
:1005800001E1F26BF251E96EEA6AD890E936EA3697
:10059000EA0EE926000EEA22FD0EDBCFEEFFFE0E8C
:1005A000DBCFEDFFF22B30D0F30516E1030EF05D4B
:1005B00001E1F06BF051E96EEA6AD890E936EA366B
:1005C000DE0EE926000EEA22FD0EDBCFEEFFFE0E68
:1005D000DBCFEDFFF02B18D0020EF35D15E1030E1B
:1005E000F15D01E1F16BF151E96EEA6AD890E9360B
:1005F000EA36E40EE926000EEA22FD0EDBCFEEFF1E
:10060000FE0EDBCFEDFFF12BE552E7CFD9FF120055
:10061000949C948EFA0EE66EC0EC07F0E552400E04
:10062000E66EE66A7C0EE66E15EC07F0E552E552E2
:10063000E5521200D9CFE6FFE1CFD9FF050EE12642
:10064000020EDB6A030EDB68040EDB6AD9CFE6FF1D
:10065000DACFE6FFFD0EDBCFE6FFFE0EDBCFE6FFD7
:10066000A1D8E552E552E552E552D950010FE66EA8
:10067000000EDA20E66EFB0EDBCFE6FFFC0EDBCFD2
:10068000E6FF14D9E552E552E552E552FA0EDB5089
:10069000E76E020EE7CFDBFFC30EE66E000EE66EDE
:1006A000A3D9E552E552D9CFE6FFDACFE6FF9CD9D0
:1006B000E552E552CA0EE66E000EE66E95D9E55299
:1006C000E552D950010FE66E000EDA20E66E8CD9A5
:1006D000E552E552CA0EE66E000EE66E85D9E55289
:1006E000E552D950020FE66E000EDA20E66E7CD994
:1006F000E552E552C70EE66E000EE66E75D9E5527C
:10070000E552000E106E050EE15C03E200D0E16AD6
:10071000E552E16E1050E552E7CFD9FF1200D9CF74
:10072000E6FFE1CFD9FF9E9A4B0EAE5C0AE10001D5
:10073000010ECD6FFD0EDBCFFEF0FE0EDBCFFFF026
:1007400005D04F0EAE5C02E10001CD6B0001CD5132
:100750001BE07A0EAE5C18E00001FE2B000EFF23BA
:10076000FEC0E9FFFFC0EAFFEF50FF0806E1FD0E03
:10077000DBCFFEF0FE0EDBCFFFF0A1EC07F0FEC0FA
:10078000E9FFFFC0EAFFEF6E010E00D0E552E7CFB0
:10079000D9FF1200D9CFE6FFE1CFD9FFE552E7CF6D
:1007A000D9FF1200D9CFE6FFE1CFD9FFFD0EDBCF95
:1007B000E9FFFE0EDBCFEAFFEE50ED106CE0FD0E20
:1007C000DBCFE9FFFE0EDBCFEAFFEECF10F0EFCF7D
:1007D00011F011C010F0116AFB0EDBCFE9FFFC0E27
:1007E000DBCFEAFF10C0EFFFFB0EDB2AFC0E01E3BC
:1007F000DB2AFB0EDBCFE9FFFC0EDBCFEAFFEF6865
:10080000FB0EDB2AFC0E01E3DB2AFD0EDBCFE9FF4A
:10081000FE0EDBCFEAFFEECF10F0EFCF11F0FF0EB0
:100820001016000E1116FB0EDBCFE9FFFC0EDBCF1E
:10083000EAFF10C0EFFFFB0EDB2AFC0E01E3DB2A10
:10084000FB0EDBCFE9FFFC0EDBCFEAFFEF68D950F0
:10085000FD0FE96EFF0EDA20EA6E020EEE26000EA4
:10086000EF22FB0EDBCFE9FFFC0EDBCFEAFF2C0E05
:10087000EF6EFB0EDB2AFC0E01E3DB2AFB0EDBCF67
:10088000E9FFFC0EDBCFEAFFEF68FB0EDB2AFC0E74
:1008900001E3DB2A8BD7FB0EDBCFE9FFFC0EDBCFBE
:1008A000EAFFEF6AE552E7CFD9FF1200D9CFE6FFA2
:1008B000E1CFD9FFFD0EDBCFE9FFFE0EDBCFEAFF74
:1008C000EF5029E0FD0EDBCFE9FFFE0EDBCFEAFFA4
:1008D000EF500F0BE66EFB0EDBCFE9FFFC0EDBCF1C
:1008E000EAFFE552E750EF6EFB0EDB2AFC0E01E358
:1008F000DB2AFB0EDBCFE9FFFC0EDBCFEAFFEF6864
:10090000FB0EDB2AFC0E01E3DB2AFD0EDB2AFE0ECA
:1009100001E3DB2ACFD7FB0EDBCFE9FFFC0EDBCFF9
:10092000EAFFEF6AE552E7CFD9FF1200D9CFE6FF21
:10093000E1CFD9FF7A0EAE5C01E0FCD7CE0EE66EB9
:10094000000EE66E51D8E552E5520D0EAE5C01E0A8
:10095000FCD7D20EE66E000EE66E46D8E552E552A2
:100960000D0EAE5C01E0FCD7D80EE66E000EE66E12
:100970003BD8E552E5520D0EAE5C01E0FCD7FD0E12
:10098000DB2AFE0E01E3DB2AFD0EDBCFE9FFFE0EC4
:10099000DBCFEAFFEF504F081CE0FD0EDBCFE9FF95
:1009A000FE0EDBCFEAFFEF50E66EFB0EDBCFE9FF7A
:1009B000FC0EDBCFEAFFE552E750EF6EFB0EDB2AC1
:1009C000FC0E01E3DB2AFD0EDB2AFE0E01E3DB2A2F
:1009D000DBD7FB0EDBCFE9FFFC0EDBCFEAFFEF6AD4
:1009E000E552E7CFD9FF1200D9CFE6FFE1CFD9FF1B
:1009F000FD0EDBCFE9FFFE0EDBCFEAFFEF5013E089
:100A0000ACA2FED7FD0EDBCFE9FFFE0EDBCFEAFF87
:100A1000EF50E66ED7EC07F0E552FD0EDB2AFE0E36
:100A200001E3DB2AE5D7E552E7CFD9FF1200D9CFA2
:100A3000E6FFE1CFD9FFE652DF6AFD0EDBCFE9FF2B
:100A4000FE0EDBCFEAFFEF5013E0FD0EDBCFE9FF38
:100A5000FE0EDBCFEAFFEF50FF0809E0FD0EDBCF13
:100A6000E9FFFE0EDBCFEAFFEF50DF24DF6EE5D7B4
:100A7000DF50EF0802E2EF0EDF6EDF5000D0E552EC
:080A8000E552E7CFD9FF120097
:080A8800D9CFE6FFE1CFD9FF51
:100A90000B0EE126640EF36E080EF3CFDBFF090E9A
:100AA000DB6A460EF36E0A0EF3CFDBFF80EC07F035
:100AB00008EC03F028EC06F01AEC00F003EC00F070
:100AC000A282A082B10EB16EC282F28CD09EF28E52
:100AD000C20EE66E000EE66ED9500A0FE66E000EEC
:100AE000DA20E66ED950080FE66E000EDA20E66EC8
:100AF0008F0EE66E000EE66ECAEC03F0106E080E66
:100B0000E15E10500001C16FC2C0E6FF0A0EDBCFEC
:100B1000E6FF080EDBCFE6FF090EDBCFE6FF3DEC7C
:100B200006F0E552E552E552E5520001C26F890E2A
:100B3000E66E000EE66E020EE66EE66A26EC00F049
:100B4000E552E552E552E55200018A3504E2895149
:100B50000008000E8A5505E2060EDB2A070E01E3A7
:100B6000DB2A8C3504E28B510008000E8C5505E21F
:100B7000060EDB2A070E01E3DB2A8E3504E28D51D7
:100B80000008000E8E5505E2060EDB2A070E01E373
:100B9000DB2A570EDE6E040EDD6E570EF36E020E6C
:100BA000F3CFDBFF040EF36E030EF3CFDBFF040E77
:100BB000DB6A050EDB6A806F816F826F836F846BE7
:100BC000C26BC2C0E6FF800EE66E000EE66ED9CFA5
:100BD000E6FFDACFE6FF1AEC03F0106E050EE15ED9
:100BE000105076D70B0EE15C02E2E16AE552E16E4D
:100BF000E552E7CFD9FF1200F29EA150020B18E098
:100C0000A050020B15E0B36AB26A64EC02F0C28233
:100C1000A1929E6AA16AA282A082B10EB16EC28226
:100C2000850EE66E000EE66E92EC07F0E552E55298
:100C30009EAA0BD08F0EE66E000EE66E8FEC03F0D0
:100C4000E552E5520101046F9E9AF28E00D0120027
:100C50009484956A836ACB68BD9ABD983F0EBE6E38
:100C6000040ECA6E8C0EBD6E949482948388839C0D
:100C700083908382D66AD76A1200D9CFE6FFE1CF8C
:100C8000D9FF040EE126D9CFE6FFDACFE6FF10D870
:100C9000E552E552000E106E040EE15C03E200D056
:100CA000E16AE552E16E1050E552E7CFD9FF12003C
:100CB000D9CFE6FFE1CFD9FF080EE126D650DE6E90
:100CC000DD6AD750E66ED950020FE96EDACFEAFF3F
:100CD000E552E750EE6EED6ACE50E66ED950040F45
:100CE000E96EDACFEAFFE552E750EE6EED6ACF50DB
:100CF000E66ED950060FE96EDACFEAFFE552E7500B
:100D0000EE6EED6A020EDBCF12F0030EDBCF13F0B6
:100D100012C013F0126ADE501224106EDD50132040
:100D2000116EFD0EDBCFE9FFFE0EDBCFEAFF10C038
:100D3000EEFF11C0EDFF060EDBCF12F0070EDBCF8A
:100D400013F012C013F0126A040EDB501224106E5E
:100D5000050EDB501320116E020EE76EFD0EDBCF89
:100D6000E9FFFE0EDBCFEAFFE750E926000EEA229C
:100D700010C0EEFF11C0EDFF080EE15C02E2E16A77
:0C0D8000E552E16EE552E7CFD9FF12000A
:040D8C000E0EF66EE3
:100D9000000EF76E000EF86E00010900F550F96FB5
:100DA0000900F550FA6F03E1F96701D03DD0090061
:100DB000F550F46F0900F550F56F0900F550F66F26
:100DC00009000900F550E96E0900F550EA6E0900C6
:100DD00009000900F550F76F0900F550F86F090098
:100DE0000900F6CFFBF0F7CFFCF0F8CFFDF0F4C030
:100DF000F6FFF5C0F7FFF6C0F8FF0001F75302E178
:100E0000F85307E00900F550EE6EF707F8E2F8072F
:100E1000F9D7FBC0F6FFFCC0F7FFFDC0F8FF0001EB
:0A0E2000F907000EFA5BBFD71200BD
:060E2A00D9CFE6FFDACF8C
:100E3000E6FFE1CFD9FFE2CFDAFFAC6AAB6AFD0E85
:100E4000DBB0AC88DBA202D0AC8CAB8CDBB4AC8E5C
:100E5000DBA602D0AB8801D0AB8ADBB8AC849E980D
:100E6000DBBAAB86DBAC02D09D8A01D09D9A9E9AFC
:100E7000DBAE02D09D8801D09D98FB0EDB50AF6E9B
:100E8000FB0EFC0EDBCF11F011C010F0116A1050F8
:100E9000B06EAC8AAB8E949C948EAC50100B04E078
:100EA000AC50800B01E1948CE552E5CFDAFFE7CF3F
:040EB000D9FF120054
:0C0EB400006A0EAE63EF07F00D6C0E1E1E
:100EC000E86A0E22001E09AE6BEF07F0086C091EDF
:100ED000E86A0922001EEEEC07F009BE7BEF07F07E
:100EE00000AE000C086C091EE86A0922046C051E9D
:100EF000E86A0522000C00BE72EF07F00188FF0CC3
:100F00009480956A836AD58ED59CD58AD598D586E6
:100F10009288CD9ECD9CCD98CD9ACD96CD84CD8214
:100F2000CD801200D9CFE6FFE1CFD9FF080EE12630
:100F3000E15C02E2E16AE552E16EE552E7CFD9FFFA
:020F400012009D
:0E0F4200D9CFE6FFDACFE6FFE1CFD9FFE2CF4D
:100F5000DAFFE652F20E01010517ABAC03D00591A2
:100F6000ABB00581ABB40585ABB20587AE50DF6E83
:100F7000DF50E552E552E5CFDAFFE7CFD9FF1200A7
:100F8000FF0EE350156EEF0E01D0F30EE76EE72E65
:100F9000C7EF07F00C0E146EE76AE72ECDEF07F0EF
:0E0FA000142ECCEF07F0152EC5EF07F012004F
:020FAE00D9CF99
:100FB000E6FFDACFE6FFE1CFD9FFE2CFDAFFACAC54
:100FC00004D0AC90010105B3AC80FD0EDB50AD6EDA
:0C0FD000E552E5CFDAFFE7CFD9FF1200B1
:040FDC00056A046A34
:100FE000100EE76ED89008360936043605360D50D7
:100FF000045C0E50055805E30D50045E0E50055A72
:08100000082AE72EF0D71200C8
:08100800000EF36E00EE00F093
:10101000060E01D81200EA6002D0EE6AFCD7F35047
:08102000E9601200EE6AFCD742
:0810280015EE00F025EE00F0CA
:10103000F86A019CC6EC06F022EC08F044EC05F0DE
:04104000FBD71200C8
:02104400120098
:051046000A000A000091
:05104B000000000000A0
:101050000000000000000000000000000000000090
:01106000008F
:0F106100FF4BFF004FFF002AFF00002B2B2B003F
:0C107000415444420D004154434E0D0019
:020000040030CA
:0100010002FC
:010002001AE3
:010003000EEE
:010005008377
:010006008178
:010008000FE8
:01000900C036
:01000A000FE6
:01000B00E014
:01000C000FE4
:01000D0040B2
:00000001FF
