:020000040000FA
:06000000FEEF05F0120006
:020006001200E6
:06000800A2EF04F012005B
:02000E000300ED
:100010005F0C0000C30000001B000000490C000042
:10002000DE00000016000000440C0000000100008B
:0400300005000000C7
:0C0034009268C26AC16AC06AC30EC2149E
:100040000009C26EC280C2821200810ECD6EB16AFA
:10005000020EBD6E9D849F849E94800ED06E820E93
:10006000BE6EF50EBF6E1200DBD9080EE126D9CFA9
:10007000E6FFDACFE6FFDFD978D8E552E552E55260
:10008000E552FD0EDBCF08F0FE0EDBCF09F0060EC9
:1000900008C0DBFF070E09C0DBFFCDD9FB0EDBCFAD
:1000A000E6FFFC0EDBCFE6FFD9CFE6FFDACFE6FFB7
:1000B0000AD8106E060EE15E1050080EE15C02E2F6
:1000C000E16AE5528AD1ACD9040EE126F90EDBCF04
:1000D00008F0FA0EDBCF09F0020E08C0DBFF030EBA
:1000E00009C0DBFFDE6ADD6ABCD9115004E6030EED
:1000F000105C000E115833E2DECF12F0DDCF13F0AA
:10010000D89012361336FD0EDB501224E96EFE0E27
:10011000DB501320EA6EEECF10F0EFCF11F0113468
:1001200016E210506408000E115411E29AD91036EC
:100130001136FD0EDB501024E96EFE0EDB5011204F
:10014000EA6EEE6AED6A3DD9010EEE6E02D039D943
:10015000EE6AED6ADF2A010EC7E3DB2AC5D7040E7B
:10016000E15C02E2E16AE55238D15AD9120EE12689
:100170000001F205E66ED950040F34D9F005E66EA1
:10018000D950060F2FD9F105E66ED950080F2AD99C
:100190000A0EDB6A0B0EDB6A0C0EDB6A0D0EDB6AE5
:1001A0000E0EDB6A0F0EDB6ADE6ADD6AF3D8E8AE9C
:1001B00002D0133401D046D918E2030E0001F22513
:1001C000CFD8EA0EE926000EEA22100EEECFDBFFB2
:1001D000110EEDCFDBFF3BD9EA0EE926000E19D94F
:1001E0000A0FE5D8E3E3DB2AE1D741D90A0EDBCFDA
:1001F000EEFF0B0EDBCFEDFFDE6ADD6ACBD8E8AE9B
:1002000002D0133401D01ED90DE2030E0001F025F7
:10021000A7D8DE0EE926000EFCD80C0FC8D8EEE3F6
:10022000DB2AECD7020EEED80C0EDBCFEEFF0D0E64
:10023000DBCFEDFFDE6ADD6AADD8E8AE02D0133465
:1002400001D000D90DE2030E0001F12589D8E40E9A
:10025000E926000EDED80E0FAAD8EEE3DB2AECD793
:10026000040ED0D80E0EDBCFEEFF0F0EDBCFEDFF6E
:10027000120EE15C02E2E16AE552AFD0D1D8020E83
:10028000E12612D8F3CFDEFFF4CFDDFFDECFE6FFAD
:10029000DDCFE6FF35D8E552E55217D8020EE15C16
:1002A00002E2E16AE55299D0D9CFE6FF020EE126DB
:1002B0009EACFED7C450116AF36E11C0F4FF020E5B
:1002C000E15C02E2E16AE55288D00001F35106E107
:1002D000C30EC2140409C26E010E07D0F30507E174
:1002E000C30EC2140809C26E020EF36F1200020E92
:1002F000F35D05E1C30EC2140009C26EF36B120078
:100300008FD80001F3510CE1030EF25D01E1F26BB5
:10031000F2518BD8EA0EE926000E6CD8F22B1CD0D5
:10032000F3050CE1030EF05D01E1F06BF0517DD8B7
:10033000DE0EE926000E5ED8F02B0ED0020EF35D25
:100340000BE1030EF15D01E1F16BF1516ED8E40EAA
:10035000E926000E4FD8F12BE552E7CFD9FF120066
:10036000FF0F126E136ADE50125C106EDD501358D0
:10037000116E030E0D6E0E6A10C008F011C009F068
:1003800065EC05F0020E04C0DBFF030E05C0DBFFC9
:1003900027EF02F0DECF10F0DDCF11F0FD0EDBCF46
:1003A00012F0FE0EDBCF13F0115013181200E96E9D
:1003B000DACFEAFF1050EE261150ED22DF2A010EAF
:1003C00012004FD810361136FB0EDB501024E96EA8
:1003D000FC0EDB501120EA6E1200E16EE552E7CF11
:1003E000D9FF1200E96EDACFEAFFE552E750EE6E70
:1003F000ED6A1200EA22FD0EDBCFEEFFFE0EDBCF30
:10040000EDFF1200E76E33D8E750E926000EEA222E
:100410001200EA22EECF10F0EFCF11F0D950120007
:10042000D9CFE6FFE1CFD9FF1200E96EEA6AD89092
:10043000E936EA361200FD0EDBCFE6FFFE0EDBCF1B
:10044000E6FF12001250105C135011581200020EF9
:10045000DBCFE9FF030EDBCFEAFFD890E936EA36BF
:100460001200DECF10F0DDCF11F0D8901200FB0E9D
:0C047000DBCFE9FFFC0EDBCFEAFF12003F
:04047C00949C948E2A
:10048000FA0EE66EAAEC05F0E552400EE66EE66A5C
:100490007C0EE66E20EC05F0E552E552E5521200C6
:1004A00076D9080EE126030EDB6A040EDB68050E22
:1004B000DB6A060EDB68070EDB6A79D9FD0EDBCF3F
:1004C000E6FFFE0EDBCFE6FF88D8E552E552E552A7
:1004D000E55280D9E66EFB0EDBCFE6FFFC0EDBCFEC
:1004E000E6FFE0D8E552E552E552E552FA0EDBCFE1
:1004F000E6FF70D9E66E24D9E552E552106EE66E3D
:1005000056D91ED9E552E552E552E7CF10F0102436
:10051000E552E724E76E020EE7CFDBFFFA0EDB5071
:10052000E76E030EE7CFDBFF020EDB50E76E050E32
:10053000E7CFDBFFC30EE66E000E20D938D9EFD827
:10054000E552E552CA0EE66E000E18D943D916D907
:10055000CA0EE66E000E12D9D950030FE66E000ED9
:10056000DA200CD9C70EE66E000E08D9000E106E08
:10057000080EE15C02E2E16AE552E16E105003D13F
:1005800006D99E9A4B0EAE5C05E10001010ECD6FBF
:1005900007D905D04F0EAE5C02E10001CD6B000122
:1005A000CD5116E07A0EAE5C13E00001FE2B000E7A
:1005B000FF23FEC0E9FFFFC0EAFFEF50FF0801E1A3
:1005C000EFD88BEC05F0FEC0E9FFFFC0EAFFEF6E4D
:1005D000010ED9D0D9CFE6FFD6D0D9D8040EE12666
:1005E000EBD8EE50ED1055E0E7D8EECFDEFFEDCFC3
:1005F000DDFFD9CFE9FFDACFEAFFEE50ED1035E0AD
:100600000A0E106E116A0D6E11C00EF0DECF08F0EA
:10061000DDCF09F065EC05F0020E08C0DBFF030E2C
:1006200009C0DBFF020EDBCF12F0030EDBCF13F0AD
:100630000A0E1302F3CF13F01202F3CF12F0F450AC
:100640001326F350DE5C106E1350DD5890D810C0A6
:10065000EFFF020EDBCFDEFFDBCFDDFF9DD801E336
:10066000DB2ABED8C6E3DB2AC4D7D950FD0FE96E1A
:10067000FF0EDA20EA6E020EEE26000EEF2277D889
:100680002C0EEF6E89D801E3DB2AAAD8A9E3DB2A76
:10069000A7D76DD8EF6A040EE15C02E2E16AE55289
:1006A000E16E71D074D860D809E05ED80F0B8BD89A
:1006B00001E3DB2A95D8F7E3DB2AF5D758D8EF6AB0
:1006C00062D065D87A0EAE5CFDE1CE0EE66E000E0D
:1006D00055D80D0EAE5CFDE1D20EE66E000E4ED882
:1006E0000D0EAE5CFDE1D80EE66E000E47D80D0E85
:1006F000AE5CFDE1FD0EDB2AFE0E01E3DB2A34D801
:100700004F080AE031D85FD801E3DB2AFD0EDB2A6F
:10071000FE0EF5E3DB2AF3D72AD8EF6A34D037D8B8
:1007200023D80DE0ACA2FED71FD8E66EC1EC05F0D1
:10073000E552FD0EDB2AFE0EF3E3DB2AF1D723D0D0
:1007400026D8E652DF6A10D807E00ED8FF08FBE093
:100750000BD8DF24DF6EF7D7DF50EF0802E2EF0E91
:10076000DF6EDF50E5520FD027D8EF501200FB0E9E
:10077000DBCFE9FFFC0EDBCFEAFF1200E66ECFDF36
:10078000E552E5521200E552E7CFD9FF1200D9CF6A
:10079000E6FFE1CFD9FF1200FB0EDB2AFC0E1200B0
:1007A000FD0EDBCFFEF0FE0EDBCFFFF01200D9CF47
:1007B000E6FFDACFE6FF1200FD0EDBCFE9FFFE0E0B
:1007C000DBCFEAFF1200E66ED2DFE552E750EF6EB4
:1007D000CCEF03F0D950010FE66E000EDA201200C4
:0807E000C6DFEF68CCEF03F067
:0807E800D9CFE6FFE1CFD9FFF4
:1007F0000B0EE126640EF36E080EF3CFDBFF090E3D
:10080000DB6A460EF36E0A0EF3CFDBFF1AEC00F044
:100810000CEC06F03EEC02F01AEC06F003EC00F0F3
:100820009F809D80B10ECD6EA282A082B16EF28CAF
:10083000D09EF28EC20EE66E000EE66ED9500A0F02
:10084000E66E000EDA20E66ED950080FE66E000E56
:10085000DA20E66E8F0EE66E000EE66EEAEC02F02F
:10086000106E080EE15E10500001C16FC2C0E6FFBD
:100870000A0EDBCFE6FF080EDBCFE6FF090EDBCF6B
:10088000E6FF1BEC06F0E552E552E552E5520001A9
:10089000C26F890EE66E000EE66E020EE66EE66A26
:1008A00034EC00F0E552E552E552E55200018A359C
:1008B0000AE289510008000E8A5505E2060EDB2A7D
:1008C000070E01E3DB2A8C350AE28B510008000E8B
:1008D0008C5505E2060EDB2A070E01E3DB2A8E3576
:1008E0000AE28D510008000E8E5505E2060EDB2A45
:1008F000070E01E3DB2A010EDE6EDD6AF36E020EE7
:10090000F3CFDBFF030EDB6A010EF36E040EF3CFB1
:10091000DBFF050EDB6A806F816F826F836F846FF0
:10092000C26BC2C0E6FF800EE66E000EE66ED9CF47
:10093000E6FFDACFE6FF50EC02F0106E050EE15E46
:10094000105078D7F29E9E50010B0BE09D50010B8A
:1009500008E0CF6ACE6A3EEC01F0C2829E909E6AA9
:10096000A16AA150020B0EE0A050020B0BE0B36A8B
:10097000B26A850EE66E000EE66E0DEC06F0E552EC
:10098000E552A1929EAA0BD08F0EE66E000EE66E87
:10099000C0EC02F0E552E5520101046F9E9AF28E1E
:0209A000120043
:0E09A2000E0EF66E000EF76E000EF86E0001DF
:1009B0000900F550F96F0900F550FA6F03E1F96786
:1009C00001D03DD00900F550F46F0900F550F56FE6
:1009D0000900F550F66F09000900F550E96E0900AD
:1009E000F550EA6E090009000900F550F76F09009B
:1009F000F550F86F09000900F6CFFBF0F7CFFCF0D7
:100A0000F8CFFDF0F4C0F6FFF5C0F7FFF6C0F8FF31
:100A10000001F75302E1F85307E00900F550EE6ECC
:100A2000F707F8E2F807F9D7FBC0F6FFFCC0F7FFBD
:100A3000FDC0F8FF0001F907000EFA5BBFD71200F6
:100A4000D9CFE6FFDACFE6FFE1CFD9FFE2CFDAFF79
:100A5000AC6AAB6AFD0EDBB0AC88DBA202D0AC8C1A
:100A6000AB8CDBB4AC8EDBA602D0AB8801D0AB8AFA
:100A7000DBB8AC849E98DBBAAB86DBAC02D09D8A37
:100A800001D09D9A9E9ADBAE02D09D8801D09D98A0
:100A9000FB0EDB50AF6EFB0EFC0EDBCF11F011C076
:100AA00010F0116A1050B06EAC8AAB8E949C948E8C
:100AB000AC50100B04E0AC50800B01E1948CE5527B
:0A0AC000E5CFDAFFE7CFD9FF1200FF
:060ACA00006A0EAE6EEFA3
:100AD00005F00D6C0E1EE86A0E22001E09AE76EFC0
:100AE00005F0086C091EE86A0922001ED8EC05F022
:100AF00009BE86EF05F000AE000C086C091EE86A1E
:100B00000922046C051EE86A0522000C00BE7DEF78
:060B100005F00188FF0C56
:0A0B1600D9CFE6FFDACFE6FFE1CF0A
:100B2000D9FFE2CFDAFFE652F20E01010517ABACB6
:100B300003D00591ABB00581ABB40585ABB2058799
:100B4000AE50DF6EDF50E552E552E5CFDAFFE7CF7A
:040B5000D9FF1200B7
:0C0B5400FF0EE350156EEF0E01D0F30E03
:100B6000E76EE72EB1EF05F00C0E146EE76AE72E84
:100B7000B7EF05F0142EB6EF05F0152EAFEF05F028
:020B8000120061
:0E0B8200D9CFE6FFDACFE6FFE1CFD9FFE2CF11
:100B9000DAFFACAC04D0AC90010105B3AC80FD0E23
:100BA000DB50AD6EE552E5CFDAFFE7CFD9FF12009B
:100BB000056A046A100EE76ED890083609360436C6
:100BC00005360D50045C0E50055805E30D50045ECB
:0C0BD0000E50055A082AE72EF0D712003C
:040BDC00000EF36EA6
:100BE00000EE00F0060E01D81200EA6002D0EE6AB4
:0C0BF000FCD7F350E9601200EE6AFCD75D
:040BFC0015EE00F002
:100C000025EE00F0F86A019CD1EC04F021EC06F02E
:080C1000F4EC03F0FBD7120025
:080C18001200D9CFE6FF080E1F
:100C2000E126E15C02E2E16AE552E16EE552E7CFDE
:040C3000D9FF1200D6
:0C0C34001200D9CFE6FFE552E7CFD9FF50
:020C40001200A0
:020C420012009E
:050C44000A000A000097
:070C490000000000000000A4
:0F0C500000000000000000000000000000000095
:010C5F00FF95
:100C60004BFF004FFF002AFF00002B2B2B004154AD
:0A0C700044420D004154434E0D00B4
:020000040030CA
:0100010002FC
:010002001AE3
:010003000EEE
:010005008377
:010006008178
:010008000FE8
:01000900C036
:01000A000FE6
:01000B00E014
:01000C000FE4
:01000D0040B2
:00000001FF
