:020000040000FA
:060000009BEF09F0120065
:020006001200E6
:060008000DEF08F01200EC
:02000E000400EC
:10001000A7130000BB0000001C00000091130000AB
:10002000D7000000160000008F1300001B01000025
:100030000200000054130000800000003B0000009C
:10004000949C948EFA0EE66E47EC09F0E552400E51
:10005000E66EE66A7C0EE66E9FEC08F0E552E5522D
:10006000E5521200D9CFE6FFE1CFD9FF070EE12616
:10007000DF6ADE52100EDD6E020EDB6A200EF36EBA
:10008000030EF3CFDBFF200EF36E040EF3CFDBFF86
:10009000200EF36E050EF3CFDBFF060EDB6AFA0EC1
:1000A000DBCFE6FF010EDB50E552E710E76E010EF5
:1000B000E7CFDBFFDFCF14F0030EE76E1418E8AED6
:1000C00002D0E73402D0E750145C35E2FD0EDBCFFE
:1000D000E9FFFE0EDBCFEAFFEFCF1CF0D950030F94
:1000E000186EDACF19F0DFCF1AF01B6A1ABE1B6840
:1000F00018501A24E96E19501B20EA6EEF501C109C
:10010000E66ED950030F146EDACF15F0DFCF16F07C
:10011000176A16BE176814501624E96E155017207A
:10012000EA6EE552E750EF6EFD0EDB2AFE0E01E3AC
:10013000DB2ADF2ABFD7BB0EE66E000EE66E21DAA1
:10014000E552E552D950030FE66E000EDA20E66E56
:1001500018DAE552E552FB0EDBCFE6FFFC0EDBCFF3
:10016000E6FF0FDAE552E552D950010FE66E000EB8
:10017000DA20E66E06DAE552E552BF0EE66E000EB4
:10018000E66EFFD9E552E552070EE15C03E200D0CE
:10019000E16AE552E16EE552E7CFD9FF1200D9CF0F
:1001A000E6FFE1CFD9FF9E9A28EC09F00101196F13
:1001B000F90EDBCFE9FFFA0EDBCFEAFFEF6A4B0E59
:1001C000195D0FE1F70EDBCFE9FFF80EDBCFEAFF99
:1001D000010EEF6EFD0EDBCF17F1FE0EDBCF18F137
:1001E00013D04F0E195D10E1F70EDBCFE9FFF80ECB
:1001F000DBCFEAFFEF6AF90EDBCFE9FFFA0EDBCFC8
:10020000EAFF010EEF6E2CD00D0E195D08E1FB0E1A
:10021000DBCFE9FFFC0EDBCFEAFF010EEF6EF70E3E
:10022000DBCFE9FFF80EDBCFEAFFEF5018E07A0EE4
:10023000195D15E017C1E9FF18C1EAFF19C1EFFF09
:10024000172B000E18230001C107C15108E1FD0E54
:10025000DBCF17F1FE0EDBCF18F1310EC16F00D0EE
:10026000E552E7CFD9FF1200D9CFE6FFE1CFD9FFA2
:10027000040EE126DE6ADD6A020EDB6A030EDB6A2B
:10028000FD0EDB2AFE0E01E3DB2AFD0EDBCFE9FFCC
:10029000FE0EDBCFEAFFEF505E0801E09BD0FD0EC3
:1002A000DB2AFE0E01E3DB2AFD0EDBCFE9FFFE0EAB
:1002B000DBCFEAFFEF507E0807E1C20EE66E000ECC
:1002C000E66E5FD9E552E552FB0EDBCFE9FFFC0E8F
:1002D000DBCFEAFFEE6AED6AFD0EDBCFE9FFFE0E33
:1002E000DBCFEAFFEF50F00B01011A6F100E1A5D21
:1002F00070E1020EDBCF14F0030EDBCF15F0D890C7
:10030000155004E6040E145C000E155847E2FB0E6F
:10031000DBCFE9FFFC0EDBCFEAFFEECF14F0EFCF2F
:1003200015F0040ED89014361536E804FBE1FB0EE8
:10033000DBCFE9FFFC0EDBCFEAFF14C0EEFF15C0F8
:10034000EDFFFD0EDBCFE9FFFE0EDBCFEAFFEF5046
:100350000F0B166E176A16BE1768FB0EDBCFE9FF90
:10036000FC0EDBCFEAFF1650EE10146E1750EE10A5
:10037000156EFB0EDBCFE9FFFC0EDBCFEAFF14C0EE
:10038000EEFF15C0EDFFFD0EDB2AFE0E01E3DB2ABA
:10039000020EDB2A030E01E3DB2AABD7FD0EDBCF17
:1003A000E9FFFE0EDBCFEAFFEF50E66EF90EDBCF82
:1003B000E9FFFA0EDBCFEAFFE552E750EF6EF70EEA
:1003C000DBCFE9FFF80EDBCFEAFF010EEF6E000E88
:1003D00001D000D0146E040EE15C02E2E16AE55245
:1003E000E16E1450E552E7CFD9FF1200D9CFE6FFF6
:1003F000E1CFD9FF020EE126400EDE6E4B0EDD6E20
:10040000D9CFE9FFDACFEAFFEE50ED1015E1FB0E90
:10041000DBCFE9FFFC0EDBCFEAFF300EEF6EFB0E09
:10042000DB2AFC0E01E3DB2AFB0EDBCFE9FFFC0E2F
:10043000DBCFEAFFEF6A9BD0F70EDBCFE9FFF80EC8
:10044000DBCFEAFFEF6AC70EE66E000EE66EC8D895
:10045000E552E552F70EDBCFE9FFF80EDBCFEAFFFE
:10046000EF0401E0F7D7F70EDBCFE9FFF80EDBCFA3
:10047000EAFFEF6ACB0EE66E000EE66EB1D8E552EB
:10048000E552F70EDBCFE9FFF80EDBCFEAFFEF0412
:1004900001E0F7D7F70EDBCFE9FFF80EDBCFEAFF7D
:1004A000EF6AD10EE66E000EE66E9AD8E552E5527E
:1004B000F70EDBCFE9FFF80EDBCFEAFFEF0401E038
:1004C000F7D7F70EDBCFE9FFF80EDBCFEAFFEF6AD5
:1004D000F50EDBCFE9FFF60EDBCFEAFFEF6AF90E90
:1004E000DBCFE9FFFA0EDBCFEAFFEF6AFD0EDBCFD1
:1004F000E9FFFE0EDBCFEAFFEF500D0806E0FD0E30
:10050000DB2AFE0E01E3DB2AF1D7FD0EDB2AFE0E0D
:1005100001E3DB2AFD0EDBCFE9FFFE0EDBCFEAFFB6
:10052000EF500D081CE0FD0EDBCFE9FFFE0EDBCF28
:10053000EAFFEF50E66EFB0EDBCFE9FFFC0EDBCFF0
:10054000EAFFE552E750EF6EFB0EDB2AFC0E01E3FB
:10055000DB2AFD0EDB2AFE0E01E3DB2ADBD7FB0ED6
:10056000DBCFE9FFFC0EDBCFEAFFEF6A00D0020E23
:10057000E15C02E2E16AE552E16EE552E7CFD9FFC4
:100580001200D9CFE6FFE1CFD9FFFD0EDBCFE9FFA7
:10059000FE0EDBCFEAFFEF501FE0ACA2FED7E6680D
:1005A0005EEC09F0E552ACA2FED7FD0EDBCFE9FF11
:1005B000FE0EDBCFEAFFEF50E66E5EEC09F0E5528F
:1005C000ACA2FED7E6685EEC09F0E552FD0EDB2A30
:1005D000FE0E01E3DB2AD9D7E552E7CFD9FF12009F
:1005E000D9CFE6FFE1CFD9FFFD0EDBCFE9FFFE0E4D
:1005F000DBCFEAFFEF5013E0ACA2FED7FD0EDBCF5E
:10060000E9FFFE0EDBCFEAFFEF50E66E5EEC09F08D
:10061000E552FD0EDB2AFE0E01E3DB2AE5D7E552AB
:06062000E7CFD9FF120034
:0A0626009268C26AC16AC06AC30E7E
:10063000C2140009C26EC280C28212001200D9CF59
:10064000E6FFE1CFD9FF080EE126D9CFE6FFDACFEA
:10065000E6FFFD0EDBCFE6FFFE0EDBCFE6FFA5D803
:10066000E552E552E552E552FD0EDBCF08F0FE0EF5
:10067000DBCF09F0060E08C0DBFF070E09C0DBFF69
:10068000FD0EDBCFE6FFFE0EDBCFE6FFFB0EDBCF82
:10069000E6FFFC0EDBCFE6FFD9CFE6FFDACFE6FFC1
:1006A0000ED8146E060EE15E1450080EE15C02E2F4
:1006B000E16AE552E16EE552E7CFD9FF1200D9CFEA
:1006C000E6FFE1CFD9FF040EE126F90EDBCF08F0FB
:1006D000FA0EDBCF09F0020E08C0DBFF030E09C0E3
:1006E000DBFFDE6ADD6ADECF14F0DDCF15F0D890D7
:1006F000155004E6030E145C000E15584CE2DECFD4
:1007000016F0DDCF17F0D89016361736FD0EDB50F9
:100710001624E96EFE0EDB501720EA6EEECF14F0C1
:10072000EFCF15F0153404E214506408000E155490
:1007300020E2DECF14F0DDCF15F0D8901436153658
:10074000FD0EDB501424E96EFE0EDB501520EA6E20
:10075000EE6AED6AFB0EDBCF14F0FC0EDBCF15F07A
:10076000DE501424E96EDD501520EA6E010EEF6EA6
:100770000DD0FB0EDBCF14F0FC0EDBCF15F0DE50FE
:100780001424E96EDD501520EA6EEF6ADF2A010EAF
:1007900001E3DB2AA8D7040EE15C02E2E16AE5523C
:1007A000E16EE552E7CFD9FF1200D9CFE6FFE1CFE6
:1007B000D9FF120EE1260001EB05E66ED950040FB9
:1007C000E96EDACFEAFFE552E750EE6EED6AE90531
:1007D000E66ED950060FE96EDACFEAFFE552E75030
:1007E000EE6EED6AEA05E66ED950080FE96EDACFD3
:1007F000EAFFE552E750EE6EED6A0A0EDB6A0B0E79
:10080000DB6A0C0EDB6A0D0EDB6A0E0EDB6A0F0E66
:10081000DB6ADE6ADD6ADECF14F0DDCF15F0FD0E97
:10082000DBCF16F0FE0EDBCF17F015501718E8AE31
:1008300002D0173404D01650145C1750155851E2EA
:10084000030E0001EB25FF0F166E176ADE50165CD3
:10085000146EDD501758156E030E0D6E0E6A14C01F
:1008600008F015C009F0E4EC08F004C014F005C06D
:1008700015F0020E14C0DBFF030E15C0DBFF020EE5
:10088000DBCFE9FF030EDBCFEAFFD890E936EA368B
:10089000E30EE926000EEA22100EEECFDBFF110E6A
:1008A000EDCFDBFF020EDBCFE9FF030EDBCFEAFF6C
:1008B000D890E936EA36E30EE926000EEA22EECFBA
:1008C00014F0EFCF15F0D9500A0FE96EDACFEAFF36
:1008D0001450EE261550ED22DF2A010E01E3DB2A2B
:1008E0009AD7FB0EDBCFE9FFFC0EDBCFEAFF0A0E47
:1008F000DBCFEEFF0B0EDBCFEDFFDE6ADD6ADECF76
:1009000014F0DDCF15F0FD0EDBCF16F0FE0EDBCFC1
:1009100017F015501718E8AE02D0173404D016504F
:10092000145C175015583EE2030E0001E925FF0F35
:10093000166E176ADE50165C146EDD501758156E71
:10094000030E0D6E0E6A14C008F015C009F0E4EC39
:1009500008F004C014F005C015F0020E14C0DBFF4F
:10096000030E15C0DBFF020EDBCFE9FF030EDBCF6A
:10097000EAFFD890E936EA36D70EE926000EEA22D9
:10098000EECF14F0EFCF15F0D9500C0FE96EDACF9F
:10099000EAFF1450EE261550ED22DF2A010E01E386
:1009A000DB2AADD7020EE76EFB0EDBCFE9FFFC0EB4
:1009B000DBCFEAFFE750E926000EEA220C0EDBCF80
:1009C000EEFF0D0EDBCFEDFFDE6ADD6ADECF14F049
:1009D000DDCF15F0FD0EDBCF16F0FE0EDBCF17F0EE
:1009E00015501718E8AE02D0173404D01650145C16
:1009F000175015583EE2030E0001EA25FF0F166E50
:100A0000176ADE50165C146EDD501758156E030E13
:100A10000D6E0E6A14C008F015C009F0E4EC08F081
:100A200004C014F005C015F0020E14C0DBFF030E65
:100A300015C0DBFF020EDBCFE9FF030EDBCFEAFFC1
:100A4000D890E936EA36DD0EE926000EEA22EECF2E
:100A500014F0EFCF15F0D9500E0FE96EDACFEAFFA0
:100A60001450EE261550ED22DF2A010E01E3DB2A99
:100A7000ADD7040EE76EFB0EDBCFE9FFFC0EDBCF3C
:100A8000EAFFE750E926000EEA220E0EDBCFEEFF6A
:100A90000F0EDBCFEDFF120EE15C02E2E16AE552E0
:100AA000E16EE552E7CFD9FF1200D9CFE6FFE1CFE3
:100AB000D9FF020EE12616D8F3CFDEFFF4CFDDFF1B
:100AC000DECFE6FFDDCFE6FF43D8E552E55224D87E
:100AD000020EE15C02E2E16AE552E16EE552E7CF27
:100AE000D9FF1200D9CFE6FFE1CFD9FF020EE126F0
:100AF0009EACFED7C450146E156A14C0F3FF15C027
:100B0000F4FF020EE15C03E200D0E16AE552E16E1F
:100B1000E552E7CFD9FF12000001EC5107E1C30E07
:100B2000C2140409C26E010EEC6F11D0EC0507E18E
:100B3000C30EC2140809C26E020EEC6F08D0020E7A
:100B4000EC5D05E1C30EC2140009C26EEC6B12002D
:100B5000D9CFE6FFE1CFD9FF0001EC5116E1030E3A
:100B6000EB5D01E1EB6BEB51E96EEA6AD890E93697
:100B7000EA36E30EE926000EEA22FD0EDBCFEEFF99
:100B8000FE0EDBCFEDFFEB2B30D0EC0516E1030EB4
:100B9000E95D01E1E96BE951E96EEA6AD890E9366D
:100BA000EA36D70EE926000EEA22FD0EDBCFEEFF75
:100BB000FE0EDBCFEDFFE92B18D0020EEC5D15E148
:100BC000030EEA5D01E1EA6BEA51E96EEA6AD89048
:100BD000E936EA36DD0EE926000EEA22FD0EDBCF0D
:100BE000EEFFFE0EDBCFEDFFEA2BE552E7CFD9FF9C
:020BF0001200F1
:0E0BF200D9CFE6FFE1CFD9FFFE0EDB504C0855
:100C000004E0FE0EDB506C0805E18388839C838042
:100C1000839233D0FE0EDB50520804E0FE0EDB5010
:100C2000720805E18398838C8390838226D0FE0E20
:100C3000DB50640804E0FE0EDB50440805E18398B5
:100C4000838C8380839219D0FE0EDB50750804E0FC
:100C5000FE0EDB50550805E18388839C83908382D8
:100C60000CD0FE0EDB50730804E0FE0EDB50530880
:100C700004E18398839C83908392E552E7CFD9FF68
:100C800012000001F36BF46BD650FB6FFC6BD75076
:100C9000FD6FFE6B086A010E096EFDC00DF0FEC00F
:100CA0000EF00AEC09F006500001FB25F36F075027
:100CB000FC21F46F1200D66AD76ACE6ACF6A12009E
:100CC0000001F76B956A836A826A936A816A9480ED
:100CD0008280F28EF28CD08E9F9AD58ED59CD58A4A
:100CE000D598D586CB68BD9ABD98BE6A040ECA6EEB
:100CF0008C0EBD6E94948294730EE66E7ADFE5528C
:100D0000DADF000EE66EE66A07D8E552E55200012A
:100D1000F76BF96BFA6B1200D9CFE6FFE1CFD9FF81
:100D2000020EE126DE6ADD6A0868096AFD0EDBCF85
:100D30000DF0FE0EDBCF0EF00AEC09F006C014F049
:100D400007C015F0640E0D6E0E6A14C008F015C0D1
:100D500009F075EC09F008C014F009C015F014C0D2
:100D6000DEFF15C0DDFFDF50BE6E020EE15C02E269
:100D7000E16AE552E16EE552E7CFD9FF1200D9CF23
:100D8000E6FFE1CFD9FF0001F75111E1FB0EDB5087
:100D90000EE1000EE66EE66ABFDFE552E552730E25
:100DA000E66E27DFE5520001F36BF46B5CD0F705CC
:100DB00013E1FB0EDB5010E1000EE66EE66AACDFDD
:100DC000E552E5520001F76B730EE66E12DFE55255
:100DD0000001F36BF46B47D0F75122E1FB0EDB040B
:100DE0001FE1F36BF46B67DF4CDF0001F96BFA6B0B
:100DF000FC0EDBCFE6FFFDDEE552F90EDBCFE6FFB2
:100E0000FA0EDBCFE6FF88DFE552E5520001010E66
:100E1000F76FFD0EDBCFF9F0FE0EDBCFFAF023D03B
:100E2000F70521E1FB0EDB041EE12BDF0001F95188
:100E3000F35DFA51F45917E3000EE66EE66A6CDFD3
:100E4000E552E5520001F76BF70EDBCFE9FFF80E34
:100E5000DBCFEAFF010EEF6E730EE66ECADEE552DF
:100E60000001F96BFA6BF75100D0E552E7CFD9FFDB
:020E700012006E
:0E0E7200D9CFE6FFE1CFD9FF0B0EE126010E2E
:100E8000F36E020EF3CFDBFFF36E030EF3CFDBFF47
:100E9000F36E040EF3CFDBFF050EDB6A060EDB6A92
:100EA0000101D00E096F070E0A6F730E0B6F010E52
:100EB000086F20EC00F060EC06F00001B869A28237
:100EC000A082B10EB16EC282F28CD09EF28E010170
:100ED000086B190E0C6F096B0A6B730E0B6F086BA6
:100EE00008C1E6FF840EE66E000EE66ED950020FD2
:100EF000E66E000EDA20E66E32EC00F0146E050E9F
:100F0000E15E14500001B90518E1080EE66E010E0D
:100F1000E66E0B0EE66E010EE66E090EE66E010E33
:100F2000E66E870EE66E000EE66E34EC01F0146E8F
:100F3000080EE15E14500001B96B070E09C1DBFF1A
:100F4000080E0AC1DBFFE80E0101091902E1330EA8
:100F50000A1904E0090EDB6A0A0EDB6AD950060F93
:100F6000E66E000EDA20E66E0CC114F0156A14BEAF
:100F7000156814C0E6FF15C0E6FF08C1E6FF0BC107
:100F8000E6FF09C1E6FF0AC1E6FFBFEC06F0166EF8
:100F9000080EE15E16500101086F070EE66E010EA5
:100FA000E66EBA0EE66E000EE66EB90EE66E000E46
:100FB000E66E840EE66E000EE66E870EE66E000E9E
:100FC000E66EF6EC01F0146E0A0EE15E145008C1F4
:100FD000E6FF840EE66E000EE66ED950020FE66E56
:100FE000000EDA20E66E32EC00F0146E050EE15EC3
:100FF0001450060EDB6AFA0EE66EE66A47EC09F05C
:10100000E552E5527FD70B0EE15C02E2E16AE55260
:10101000E16EE552E7CFD9FF1200D9CFE6FFE1CF6D
:10102000D9FF020EE126F29EA150020B0EE0A05065
:10103000020B0BE0B36AB26AC282A1929E6AA16AF5
:10104000A282A082B10EB16EC2829EAA1DD0070EEE
:10105000E66E010EE66EB90EE66E000EE66EBA0E94
:10106000E66E000EE66E870EE66E000EE66ECFECC4
:1010700000F0146E080EE15E14500001B95103E057
:10108000010EDE6EDD6A9E9AF28E020EE15C03E2D4
:1010900000D0E16AE552E16EE552E7CFD9FF1200D8
:1010A0000E0EF66E000EF76E000EF86E01010900CE
:1010B000F550126F0900F550136F03E1126701D06C
:1010C0003DD00900F5500D6F0900F5500E6F090075
:1010D000F5500F6F09000900F550E96E0900F55051
:1010E000EA6E090009000900F550106F0900F5507B
:1010F000116F09000900F6CF14F1F7CF15F1F8CF01
:1011000016F10DC1F6FF0EC1F7FF0FC1F8FF010187
:10111000105302E1115307E00900F550EE6E10077D
:10112000F8E21107F9D714C1F6FF15C1F7FF16C190
:0E113000F8FF01011207000E135BBFD712007B
:02113E00D9CF07
:10114000E6FFDACFE6FFE1CFD9FFE2CFDAFFAC6A04
:10115000AB6AFD0EDBB0AC88DBA202D0AC8CAB8CF2
:10116000DBB4AC8EDBA602D0AB8801D0AB8ADBB897
:10117000AC849E98DBBAAB86DBAC02D09D8A01D0F2
:101180009D9A9E9ADBAE02D09D8801D09D98FB0E61
:10119000DB50AF6EFB0EFC0EDBCF15F015C014F06C
:1011A000156A1450B06EAC8AAB8E949C948EAC5081
:1011B000100B04E0AC50800B01E1948CE552E5CFBC
:0811C000DAFFE7CFD9FF1200AE
:0811C800006A0EAEEDEF08F025
:1011D0000D6C0E1EE86A0E22001E09AEF5EF08F037
:1011E000086C091EE86A0922001E75EC09F009BEA8
:1011F00005EF09F000AE000C086C091EE86A092230
:10120000046C051EE86A0522000C00BEFCEF08F025
:101210000188FF0C08C012F008500D02F4CF07F04F
:10122000F3CF06F009500E02F4CF09F0F3CF08F027
:101230000D02F3500726F4500822E86A09221250E2
:101240000E02F3500726F4500822E86A0922000C27
:10125000D9CFE6FFDACFE6FFE1CFD9FFE2CFDAFF61
:10126000E652F20E0001FF17ABAC03D0FF91ABB01A
:10127000FF81ABB4FF85ABB2FF87AE50DF6EDF50AE
:0E128000E552E552E5CFDAFFE7CFD9FF1200C5
:02128E00FF0E51
:10129000E3501E6EEF0E01D0F30EE76EE72E4EEF19
:1012A00009F00C0E1D6EE76AE72E54EF09F01D2EB3
:0C12B00053EF09F01E2E4CEF09F0120065
:0412BC00D9CFE6FFA1
:1012C000DACFE6FFE1CFD9FFE2CFDAFFACAC04D052
:1012D000AC900001FFB3AC80FD0EDB50AD6EE5526B
:0A12E000E5CFDAFFE7CFD9FF1200D7
:0612EA00056A046A100E03
:1012F000E76ED89008360936043605360D50045C82
:101300000E50055805E30D50045E0E50055A082A8C
:06131000E72EF0D71200E9
:0A131600000EF36E00EE00F0060E6C
:1013200001D81200EA6002D0EE6AFCD7F350E960FF
:061330001200EE6AFCD77A
:0A13360015EE00F025EE00F0F86A55
:10134000019C50EC08F003EC00F039EC07F0FBD7FF
:02135000120089
:02135200120087
:0C1354000A000A00313300000000000015
:10136000000000000000000000000000000000007D
:10137000000000000000000000000000000000006D
:0F1380000000000000000000000000000000005E
:01138F00005D
:01139000005C
:0F1391000000000000000000000000000000004D
:0713A0000000000000000046
:0913A700FF4B5E004F00314B5E6C
:1013B0007E4F002B2B2B00415444420D00415443DF
:0313C0004E0D00CF
:020000040030CA
:0100010002FC
:010002001AE3
:010003000EEE
:010005008377
:010006008178
:010008000FE8
:01000900C036
:01000A000FE6
:01000B00E014
:01000C000FE4
:01000D0040B2
:00000001FF
