:020000040000FA
:0600000043EF29F012009D
:020006001200E6
:060008005BEF22F0120084
:02000E001200DE
:020010001200DC
:06001200000001011701CE
:06001800FDEF21F01200D3
:02001E000300DD
:1000200012000000F900000006000000D752000096
:10003000F200000007000000CF520000EA000000BC
:0400400008000000B4
:0C004400D9CFE6FFE1CFD9FFFD0EDBCFE6
:10005000E9FFFE0EDBCFEAFFEFCF14F0F20E000156
:10006000F525E96E000EF621EA6EEF50145C11E101
:10007000F52B000EF623020EF51901E1F65105E10C
:10008000020EF36EF46A0AD009D0010EF36EF46A20
:1000900005D0F56BF66BF36AF46A00D0E552E7CF52
:1000A000D9FF1200D9CFE6FFE1CFD9FFFD0EDBCF9C
:1000B000E9FFFE0EDBCFEAFFEE50ED100EE1960EEB
:1000C000D56EF28AF294F194FD0EDBCFE9FFFE0EBD
:1000D000DBCFEAFF010EEE6EED6A0001F951FA1175
:1000E00010E0010EF36EF46A0FD00001F96BFA6BA9
:1000F000FD0EDBCFE9FFFE0EDBCFEAFFEE6AED6A15
:1001000003D0F36AF46A00D0E552E7CFD9FF1200BA
:10011000D9CFE6FFE1CFD9FFFB0EDBCFE9FFFC0E25
:10012000DBCFEAFFEE50ED1001E098D1FD0EDBCF02
:10013000E9FFFE0EDBCFEAFFEF50030A01E1FDD03D
:10014000010A01E1AAD0030A58E0010A01E045D101
:10015000F90EDBCFE9FFFA0EDBCFEAFFEECF06F0B8
:10016000EDCF07F0010E061801E1075026E006501A
:1001700001E1075001E040D0F70EE66E000EE66E9A
:1001800091DFE552E552F3CF14F0F4CF15F014509F
:10019000151012E0F90EDBCFE9FFFA0EDBCFEAFF14
:1001A000010EEE6EED6AF30EDBCFE9FFF40EDBCF4E
:1001B000EAFF010EEE6EED6A1FD0F70EE66E000E3E
:1001C000E66E70DFE552E552F3CF14F0F4CF15F090
:1001D0001450151010E0FD0EDBCFE9FFFE0EDBCF53
:1001E000EAFF010EEF6EF90EDBCFE9FFFA0EDBCF6F
:1001F000EAFFEE6AED6A00D0F0D0F90EDBCFE9FF3E
:10020000FA0EDBCFEAFFEECF06F0EDCF07F0010EDE
:10021000061801E107501DE0065001E1075001E01A
:100220003BD0F70EE66E000EE66E3CDFE552E5527F
:10023000F3CF14F0F4CF15F01450151009E0F90EB7
:10024000DBCFE9FFFA0EDBCFEAFF010EEE6EED6ABF
:1002500023D0F50EDBCFE9FFF60EDBCFEAFFEF5040
:10026000410819E1FB0EDBCFE9FFFC0EDBCFEAFF13
:10027000010EEE6EED6AF90EDBCFE9FFFA0EDBCF71
:10028000EAFFEE6AED6AF70EDBCFE9FFF80EDBCF8F
:10029000EAFFEE6AED6A00D0A0D0F90EDBCFE9FFED
:1002A000FA0EDBCFEAFFEECF06F0EDCF07F0010E3E
:1002B000061801E107501DE0065001E1075001E07A
:1002C0003BD0F70EE66E000EE66EECDEE552E55230
:1002D000F3CF14F0F4CF15F01450151009E0F90E17
:1002E000DBCFE9FFFA0EDBCFEAFF010EEE6EED6A1F
:1002F00023D0F50EDBCFE9FFF60EDBCFEAFFEF50A0
:10030000410819E1FB0EDBCFE9FFFC0EDBCFEAFF72
:10031000010EEE6EED6AF90EDBCFE9FFFA0EDBCFD0
:10032000EAFFEE6AED6AF70EDBCFE9FFF80EDBCFEE
:10033000EAFFEE6AED6A00D050D0F90EDBCFE9FF9C
:10034000FA0EDBCFEAFFEECF06F0EDCF07F0010E9D
:10035000061801E107501DE0065001E1075001E0D9
:100360003BD0F70EE66E000EE66E9CDEE552E552DF
:10037000F3CF14F0F4CF15F01450151009E0F90E76
:10038000DBCFE9FFFA0EDBCFEAFF010EEE6EED6A7E
:1003900023D0F50EDBCFE9FFF60EDBCFEAFFEF50FF
:1003A000410819E1FB0EDBCFE9FFFC0EDBCFEAFFD2
:1003B000010EEE6EED6AF90EDBCFE9FFFA0EDBCF30
:1003C000EAFFEE6AED6AF70EDBCFE9FFF80EDBCF4E
:1003D000EAFFEE6AED6A00D000D0F50EDBCFE9FF50
:1003E000F60EDBCFEAFFEF50410809E0F50EDBCF58
:1003F000E9FFF60EDBCFEAFFEF5042081BE1FD0EEE
:10040000DBCFE9FFFE0EDBCFEAFFEE52EF6AF50E1F
:10041000DBCFE9FFF60EDBCFEAFFEF50410809E141
:10042000F30EDBCFE9FFF40EDBCFEAFF010EEE6E39
:10043000ED6A12D0F50EDBCFE9FFF60EDBCFEAFF57
:10044000EF50E66EFD0EDBCFE9FFFE0EDBCFEAFFDD
:10045000EE52E552E750EF6E51EF0BF0FB0EDBCFA3
:10046000E9FFFC0EDBCFEAFF010EEE1801E1ED50D3
:1004700002E051EF0BF0FD0EDBCFE9FFFE0EDBCF0C
:10048000EAFFEF50030A01E11BD3010A01E106D2A2
:10049000030A02E013EF0BF0F90EDBCFE9FFFA0ECF
:1004A000DBCFEAFFEECF06F0EDCF07F0020E061825
:1004B00001E1075001E1F3D0010E061801E10750F8
:1004C0001DE0065001E1075001E0E6D1F70EE66EAF
:1004D000000EE66EE7DDE552E552F3CF14F0F4CFFF
:1004E00015F01450151009E0F90EDBCFE9FFFA0EF4
:1004F000DBCFEAFF010EEE6EED6ACED1F50EDBCF5B
:10050000E9FFF60EDBCFEAFFEF50410842E1F70EBC
:10051000DBCFE9FFF80EDBCFEAFF030EEE1801E1B7
:10052000ED500AE0F90EDBCFE9FFFA0EDBCFEAFF70
:10053000020EEE6EED6A2DD0F70EDBCFE9FFF80E5E
:10054000DBCFEAFF030EEE1801E1ED5022E1FD0ED4
:10055000DBCFE9FFFE0EDBCFEAFF020EEF6EF90EF6
:10056000DBCFE9FFFA0EDBCFEAFFEE6AED6AF70EAA
:10057000DBCFE9FFF80EDBCFEAFFEE6AED6AFD0E96
:10058000DBCFE9FFFE0EDBCFEAFF140EEB6A150EA0
:10059000EB6AF50EDBCFE9FFF60EDBCFEAFFEF509B
:1005A000420818E1FB0EDBCFE9FFFC0EDBCFEAFFD0
:1005B000EE6AED6AF90EDBCFE9FFFA0EDBCFEAFF58
:1005C000EE6AED6AF70EDBCFE9FFF80EDBCFEAFF4C
:1005D000EE6AED6AF50EDBCFE9FFF60EDBCFEAFF40
:1005E000EF50550828E1F70EDBCFE9FFF80EDBCF1F
:1005F000EAFFEECF14F0EFCF15F0153404E21450FB
:100600000008000E155417E2F70EDBCFE9FFF80ED5
:10061000DBCFEAFFEECF14F0EFCF15F01406000E9B
:10062000155AF70EDBCFE9FFF80EDBCFEAFF14C057
:10063000EEFF15C0EDFFF50EDBCFE9FFF60EDBCFC9
:10064000EAFFEF5044082AE1F70EDBCFE9FFF80E8E
:10065000DBCFEAFFEECF14F0EFCF15F0D8901550B6
:1006600004E6040E145C000E155818E2F70EDBCFFA
:10067000E9FFF80EDBCFEAFFEECF14F0EFCF15F075
:10068000010E1426000E1522F70EDBCFE9FFF80E3F
:10069000DBCFEAFF14C0EEFF15C0EDFFFDD0F70E73
:1006A000DBCFE9FFF80EDBCFEAFFEECF06F0EDCFB0
:1006B00007F0040E061801E1075001E19DD0020E7B
:1006C000061801E1075035E0010E061801E1075058
:1006D0001CE0065001E1075001E0DDD0FD0EDBCF4C
:1006E000E9FFFE0EDBCFEAFF120EE926000EEA223A
:1006F000010EEE6EED6AF90EDBCFE9FFFA0EDBCFED
:10070000EAFF010EEE6EED6AC6D0FD0EDBCFE9FF0B
:10071000FE0EDBCFEAFF120EEB6A130EEB6AF90E48
:10072000DBCFE9FFFA0EDBCFEAFF010EEE6EED6ADA
:10073000B2D0F50EDBCFE9FFF60EDBCFEAFFEF50CC
:100740004C081EE1FD0EDBCFE9FFFE0EDBCFEAFF1A
:10075000020EE926000EEA22EECF14F0EFCF15F0DC
:100760001406155AFD0EDBCFE9FFFE0EDBCFEAFFC4
:10077000020EE926000EEA2214C0EEFF15C0EDFFBE
:10078000F50EDBCFE9FFF60EDBCFEAFFEF505208A4
:1007900020E1FD0EDBCFE9FFFE0EDBCFEAFF020E0C
:1007A000E926000EEA22EECF14F0EFCF15F0010E8D
:1007B0001426000E1522FD0EDBCFE9FFFE0EDBCF67
:1007C000EAFF020EE926000EEA2214C0EEFF15C071
:1007D000EDFFF50EDBCFE9FFF60EDBCFEAFFEF50C2
:1007E000420809E1F90EDBCFE9FFFA0EDBCFEAFFA1
:1007F000010EEE6EED6A4FD0F50EDBCFE9FFF60E7F
:10080000DBCFEAFFEF5046E0F50EDBCFE6FFF60E5A
:10081000DBCFE6FF17DCE552E552F3CF39F1F4CF39
:100820003AF1010139513A1112E1F90EDBCFE9FF3A
:10083000FA0EDBCFEAFF010EEE6EED6A710EE66E88
:10084000400EE66EA4EC18F0E552E55223D0010EFE
:10085000391901E13A5101E11DD0020E391901E1C6
:100860003A5118E1FD0EDBCFE9FFFE0EDBCFEAFFC8
:10087000030EEF6EF90EDBCFE9FFFA0EDBCFEAFFD6
:10088000EE6AED6AF70EDBCFE9FFF80EDBCFEAFF89
:10089000EE6AED6A00D000D013EF0BF0F90EDBCF5B
:1008A000E9FFFA0EDBCFEAFFEECF06F0EDCF07F05F
:1008B000020E061801E1075001E1E9D0010E061809
:1008C00001E107501EE0065001E1075001E0F6D0BB
:1008D000F70EE66E000EE66E52EC00F0E552E552C1
:1008E000F3CF14F0F4CF15F01450151009E0F90E01
:1008F000DBCFE9FFFA0EDBCFEAFF010EEE6EED6A09
:10090000DDD0F50EDBCFE9FFF60EDBCFEAFFEF50CF
:10091000410837E1F70EDBCFE9FFF80EDBCFEAFF46
:10092000EECF06F0EDCF07F0010E061801E10750FB
:100930000FE0065001E1075001E023D0F90EDBCFB4
:10094000E9FFFA0EDBCFEAFF020EEE6EED6A19D078
:10095000FD0EDBCFE9FFFE0EDBCFEAFF010EEF6EEF
:10096000F70EDBCFE9FFF80EDBCFEAFFEE6AED6AA8
:10097000F90EDBCFE9FFFA0EDBCFEAFFEE6AED6A94
:1009800000D0F50EDBCFE9FFF60EDBCFEAFFEF502C
:10099000420818E1FB0EDBCFE9FFFC0EDBCFEAFFDC
:1009A000EE6AED6AF90EDBCFE9FFFA0EDBCFEAFF64
:1009B000EE6AED6AF70EDBCFE9FFF80EDBCFEAFF58
:1009C000EE6AED6AF50EDBCFE9FFF60EDBCFEAFF4C
:1009D000EF50550828E1F70EDBCFE9FFF80EDBCF2B
:1009E000EAFFEECF14F0EFCF15F0153404E2145007
:1009F0000008000E155417E2F70EDBCFE9FFF80EE2
:100A0000DBCFEAFFEECF14F0EFCF15F01406000EA7
:100A1000155AF70EDBCFE9FFF80EDBCFEAFF14C063
:100A2000EEFF15C0EDFFF50EDBCFE9FFF60EDBCFD5
:100A3000EAFFEF5044082AE1F70EDBCFE9FFF80E9A
:100A4000DBCFEAFFEECF14F0EFCF15F0D8901550C2
:100A500004E6010E145C000E155818E2F70EDBCF09
:100A6000E9FFF80EDBCFEAFFEECF14F0EFCF15F081
:100A7000010E1426000E1522F70EDBCFE9FFF80E4B
:100A8000DBCFEAFF14C0EEFF15C0EDFF17D0FD0E5F
:100A9000DBCFE9FFFE0EDBCFEAFF140EE926000EE6
:100AA000EA22010EEE6EED6AF90EDBCFE9FFFA0ED7
:100AB000DBCFEAFF010EEE6EED6A00D013EF0BF014
:100AC000F90EDBCFE9FFFA0EDBCFEAFFEECF06F03F
:100AD000EDCF07F0030E061801E1075001E119D32D
:100AE000020E061801E1075001E1EDD0010E0618D3
:100AF00001E1075020E0065001E1075002E012EF4B
:100B00000BF0F70EE66E000EE66E52EC00F0E552CA
:100B1000E552F3CF14F0F4CF15F01450151009E09E
:100B2000F90EDBCFE9FFFA0EDBCFEAFF010EEE6E26
:100B3000ED6A12EF0BF0F50EDBCFE9FFF60EDBCF1F
:100B4000EAFFEF50410838E1F70EDBCFE9FFF80E7E
:100B5000DBCFEAFF060EEE1801E1ED500AE0F90ED8
:100B6000DBCFE9FFFA0EDBCFEAFF020EEE6EED6A95
:100B700023D0F70EDBCFE9FFF80EDBCFEAFF060E3E
:100B8000EE1801E1ED5018E1FD0EDBCFE9FFFE0E9E
:100B9000DBCFEAFF010EEF6EF90EDBCFE9FFFA0EB5
:100BA000DBCFEAFFEE6AED6AF70EDBCFE9FFF80E66
:100BB000DBCFEAFFEE6AED6AF50EDBCFE9FFF60E5A
:100BC000DBCFEAFFEF50420818E1FB0EDBCFE9FF75
:100BD000FC0EDBCFEAFFEE6AED6AF90EDBCFE9FF30
:100BE000FA0EDBCFEAFFEE6AED6AF70EDBCFE9FF24
:100BF000F80EDBCFEAFFEE6AED6AF50EDBCFE9FF18
:100C0000F60EDBCFEAFFEF50550828E1F70EDBCFF9
:100C1000E9FFF80EDBCFEAFFEECF14F0EFCF15F0CF
:100C2000153404E214500008000E155417E2F70EB4
:100C3000DBCFE9FFF80EDBCFEAFFEECF14F0EFCF0A
:100C400015F01406000E155AF70EDBCFE9FFF80E6B
:100C5000DBCFEAFF14C0EEFF15C0EDFFF50EDBCFD2
:100C6000E9FFF60EDBCFEAFFEF5044082AE1F70E6A
:100C7000DBCFE9FFF80EDBCFEAFFEECF14F0EFCFCA
:100C800015F0D890155004E6060E145C000E1558A9
:100C900018E2F70EDBCFE9FFF80EDBCFEAFFEECF6D
:100CA00014F0EFCF15F0010E1426000E1522F70EEA
:100CB000DBCFE9FFF80EDBCFEAFF14C0EEFF15C073
:100CC000EDFF12EF0BF0F70EDBCFE9FFF80EDBCFF5
:100CD000EAFFEECF06F0EDCF07F0050E061801E1B2
:100CE000075001E1B2D1040E061801E1075001E1FD
:100CF00049D1030E061801E1075001E1E0D0020ED0
:100D0000061801E1075001E177D0010E061801E154
:100D100007500FE0065001E1075001E0F9D1F90E4C
:100D2000DBCFE9FFFA0EDBCFEAFF030EEE6EED6AD2
:100D3000EFD1F50EDBCFE9FFF60EDBCFEAFFEF5088
:100D40004C081EE1FD0EDBCFE9FFFE0EDBCFEAFF14
:100D5000020EE926000EEA22EECF14F0EFCF15F0D6
:100D60001406155AFD0EDBCFE9FFFE0EDBCFEAFFBE
:100D7000020EE926000EEA2214C0EEFF15C0EDFFB8
:100D8000F50EDBCFE9FFF60EDBCFEAFFEF5052089E
:100D900020E1FD0EDBCFE9FFFE0EDBCFEAFF020E06
:100DA000E926000EEA22EECF14F0EFCF15F0010E87
:100DB0001426000E1522FD0EDBCFE9FFFE0EDBCF61
:100DC000EAFF020EE926000EEA2214C0EEFF15C06B
:100DD000EDFFF50EDBCFE9FFF60EDBCFEAFFEF50BC
:100DE000420809E1F90EDBCFE9FFFA0EDBCFEAFF9B
:100DF000010EEE6EED6A8CD1F50EDBCFE9FFF60E3B
:100E0000DBCFEAFFEF504C081EE1FD0EDBCFE9FF20
:100E1000FE0EDBCFEAFF040EE926000EEA22EECF3B
:100E200014F0EFCF15F01406155AFD0EDBCFE9FFD5
:100E3000FE0EDBCFEAFF040EE926000EEA2214C004
:100E4000EEFF15C0EDFFF50EDBCFE9FFF60EDBCFB1
:100E5000EAFFEF50520820E1FD0EDBCFE9FFFE0E66
:100E6000DBCFEAFF040EE926000EEA22EECF14F0F3
:100E7000EFCF15F0010E1426000E1522FD0EDBCF6C
:100E8000E9FFFE0EDBCFEAFF040EE926000EEA22A0
:100E900014C0EEFF15C0EDFFF50EDBCFE9FFF60E37
:100EA000DBCFEAFFEF50420809E1F90EDBCFE9FFA3
:100EB000FA0EDBCFEAFF010EEE6EED6A29D1F50ED8
:100EC000DBCFE9FFF60EDBCFEAFFEF504C081EE167
:100ED000FD0EDBCFE9FFFE0EDBCFEAFF060EE926B3
:100EE000000EEA22EECF14F0EFCF15F01406155ADB
:100EF000FD0EDBCFE9FFFE0EDBCFEAFF060EE92693
:100F0000000EEA2214C0EEFF15C0EDFFF50EDBCF98
:100F1000E9FFF60EDBCFEAFFEF50520820E1FD0EAD
:100F2000DBCFE9FFFE0EDBCFEAFF060EE926000E5F
:100F3000EA22EECF14F0EFCF15F0010E1426000ECA
:100F40001522FD0EDBCFE9FFFE0EDBCFEAFF060E1A
:100F5000E926000EEA2214C0EEFF15C0EDFFF50EE3
:100F6000DBCFE9FFF60EDBCFEAFFEF50420809E1E5
:100F7000F90EDBCFE9FFFA0EDBCFEAFF010EEE6ED2
:100F8000ED6AC6D0F50EDBCFE9FFF60EDBCFEAFF48
:100F9000EF504C081EE1FD0EDBCFE9FFFE0EDBCF6C
:100FA000EAFF080EE926000EEA22EECF14F0EFCF9A
:100FB00015F01406155AFD0EDBCFE9FFFE0EDBCF50
:100FC000EAFF080EE926000EEA2214C0EEFF15C063
:100FD000EDFFF50EDBCFE9FFF60EDBCFEAFFEF50BA
:100FE000520820E1FD0EDBCFE9FFFE0EDBCFEAFF6A
:100FF000080EE926000EEA22EECF14F0EFCF15F02E
:10100000010E1426000E1522FD0EDBCFE9FFFE0EA9
:10101000DBCFEAFF080EE926000EEA2214C0EEFF3D
:1010200015C0EDFFF50EDBCFE9FFF60EDBCFEAFFD3
:10103000EF50420809E1F90EDBCFE9FFFA0EDBCFF2
:10104000EAFF010EEE6EED6A63D0F50EDBCFE9FF2D
:10105000F60EDBCFEAFFEF504C081EE1FD0EDBCFB2
:10106000E9FFFE0EDBCFEAFF0A0EE926000EEA22B8
:10107000EECF14F0EFCF15F01406155AFD0EDBCFAE
:10108000E9FFFE0EDBCFEAFF0A0EE926000EEA2298
:1010900014C0EEFF15C0EDFFF50EDBCFE9FFF60E35
:1010A000DBCFEAFFEF50520820E1FD0EDBCFE9FF76
:1010B000FE0EDBCFEAFF0A0EE926000EEA22EECF93
:1010C00014F0EFCF15F0010E1426000E1522FD0EC0
:1010D000DBCFE9FFFE0EDBCFEAFF0A0EE926000EAA
:1010E000EA2214C0EEFF15C0EDFFF50EDBCFE9FFDD
:1010F000F60EDBCFEAFFEF50420809E1F90EDBCF35
:10110000E9FFFA0EDBCFEAFF010EEE6EED6A00D0CA
:1011100089D2F70EDBCFE9FFF80EDBCFEAFFEECF87
:1011200006F0EDCF07F0020E061801E1075001E1CD
:10113000A9D1010E061801E1075001E1D4D00650F3
:1011400001E1075001E06DD2F50EDBCFE9FFF60EAD
:10115000DBCFEAFFEF504C081EE1FD0EDBCFE9FFCD
:10116000FE0EDBCFEAFF0C0EE926000EEA22EECFE0
:1011700014F0EFCF15F01406155AFD0EDBCFE9FF82
:10118000FE0EDBCFEAFF0C0EE926000EEA2214C0A9
:10119000EEFF15C0EDFFF50EDBCFE9FFF60EDBCF5E
:1011A000EAFFEF50520820E1FD0EDBCFE9FFFE0E13
:1011B000DBCFEAFF0C0EE926000EEA22EECF14F098
:1011C000EFCF15F0010E1426000E1522FD0EDBCF19
:1011D000E9FFFE0EDBCFEAFF0C0EE926000EEA2245
:1011E00014C0EEFF15C0EDFFF50EDBCFE9FFF60EE4
:1011F000DBCFEAFFEF50420811E1F90EDBCFE9FF48
:10120000FA0EDBCFEAFF010EEE6EED6AF70EDBCFD2
:10121000E9FFF80EDBCFEAFFEE6AED6AF50EDBCFF1
:10122000E9FFF60EDBCFEAFFEF50550828E1F70E95
:10123000DBCFE9FFF80EDBCFEAFFEECF14F0EFCF04
:1012400015F0153404E214500008000E155417E28E
:10125000F70EDBCFE9FFF80EDBCFEAFFEECF14F09D
:10126000EFCF15F01406000E155AF70EDBCFE9FF8D
:10127000F80EDBCFEAFF14C0EEFF15C0EDFFF50E50
:10128000DBCFE9FFF60EDBCFEAFFEF5044082AE19F
:10129000F70EDBCFE9FFF80EDBCFEAFFEECF14F05D
:1012A000EFCF15F0D890155004E6020E145C000E36
:1012B000155818E2F70EDBCFE9FFF80EDBCFEAFF97
:1012C000EECF14F0EFCF15F0010E1426000E15220C
:1012D000F70EDBCFE9FFF80EDBCFEAFF14C0EEFF1D
:1012E00015C0EDFF9ED1F50EDBCFE9FFF60EDBCF8B
:1012F000EAFFEF504C081EE1FD0EDBCFE9FFFE0ECA
:10130000DBCFEAFF0E0EE926000EEA22EECF14F044
:10131000EFCF15F01406155AFD0EDBCFE9FFFE0ED8
:10132000DBCFEAFF0E0EE926000EEA2214C0EEFF24
:1013300015C0EDFFF50EDBCFE9FFF60EDBCFEAFFC0
:10134000EF50520820E1FD0EDBCFE9FFFE0EDBCFB0
:10135000EAFF0E0EE926000EEA22EECF14F0EFCFE0
:1013600015F0010E1426000E1522FD0EDBCFE9FF4D
:10137000FE0EDBCFEAFF0E0EE926000EEA2214C0B5
:10138000EEFF15C0EDFFF50EDBCFE9FFF60EDBCF6C
:10139000EAFFEF50420811E1F90EDBCFE9FFFA0E48
:1013A000DBCFEAFF010EEE6EED6AF70EDBCFE9FF51
:1013B000F80EDBCFEAFFEE6AED6AF50EDBCFE9FF50
:1013C000F60EDBCFEAFFEF50550828E1F70EDBCF32
:1013D000E9FFF80EDBCFEAFFEECF14F0EFCF15F008
:1013E000153404E214500008000E155417E2F70EED
:1013F000DBCFE9FFF80EDBCFEAFFEECF14F0EFCF43
:1014000015F01406000E155AF70EDBCFE9FFF80EA3
:10141000DBCFEAFF14C0EEFF15C0EDFFF50EDBCF0A
:10142000E9FFF60EDBCFEAFFEF5044082AE1F70EA2
:10143000DBCFE9FFF80EDBCFEAFFEECF14F0EFCF02
:1014400015F0D890155004E6020E145C000E1558E5
:1014500018E2F70EDBCFE9FFF80EDBCFEAFFEECFA5
:1014600014F0EFCF15F0010E1426000E1522F70E22
:10147000DBCFE9FFF80EDBCFEAFF14C0EEFF15C0AB
:10148000EDFFCFD0F50EDBCFE9FFF60EDBCFEAFFA5
:10149000EF504C081EE1FD0EDBCFE9FFFE0EDBCF67
:1014A000EAFF100EE926000EEA22EECF14F0EFCF8D
:1014B00015F01406155AFD0EDBCFE9FFFE0EDBCF4B
:1014C000EAFF100EE926000EEA2214C0EEFF15C056
:1014D000EDFFF50EDBCFE9FFF60EDBCFEAFFEF50B5
:1014E000520820E1FD0EDBCFE9FFFE0EDBCFEAFF65
:1014F000100EE926000EEA22EECF14F0EFCF15F021
:10150000010E1426000E1522FD0EDBCFE9FFFE0EA4
:10151000DBCFEAFF100EE926000EEA2214C0EEFF30
:1015200015C0EDFFF50EDBCFE9FFF60EDBCFEAFFCE
:10153000EF50420811E1F90EDBCFE9FFFA0EDBCFE5
:10154000EAFF010EEE6EED6AF70EDBCFE9FFF80E53
:10155000DBCFEAFFEE6AED6AF50EDBCFE9FFF60EB0
:10156000DBCFEAFFEF50550828E1F70EDBCFE9FFAC
:10157000F80EDBCFEAFFEECF14F0EFCF15F0153405
:1015800004E214500008000E155417E2F70EDBCFEA
:10159000E9FFF80EDBCFEAFFEECF14F0EFCF15F046
:1015A0001406000E155AF70EDBCFE9FFF80EDBCF5D
:1015B000EAFF14C0EEFF15C0EDFFF50EDBCFE9FF2B
:1015C000F60EDBCFEAFFEF5044082AE1F70EDBCF3F
:1015D000E9FFF80EDBCFEAFFEECF14F0EFCF15F006
:1015E000D890155004E6020E145C000E155818E24F
:1015F000F70EDBCFE9FFF80EDBCFEAFFEECF14F0FA
:10160000EFCF15F0010E1426000E1522F70EDBCFDA
:10161000E9FFF80EDBCFEAFF14C0EEFF15C0EDFFC7
:1016200000D000D000D0F50EDBCFE9FFF60EDBCF07
:10163000EAFFEF50460809E0F50EDBCFE9FFF60EB2
:10164000DBCFEAFFEF50480813E1F50EDBCFE9FFEF
:10165000F60EDBCFEAFFEF50E66EFD0EDBCFE9FFC3
:10166000FE0EDBCFEAFFEE52E552E750EF6E19D0E7
:10167000FD0EDBCFE9FFFE0EDBCFEAFFEE52EF6A95
:10168000F50EDBCFE9FFF60EDBCFEAFFEF5009E006
:10169000F30EDBCFE9FFF40EDBCFEAFF010EEE6EB7
:0A16A000ED6AE552E7CFD9FF120012
:0616AA00829094908292F0
:1016B00094921200D9CFE6FFE1CFD9FFD950FD0FA8
:1016C000E96EFF0EDA20EA6EEE50ED1002E0828243
:1016D00001D08292D950FB0FE96EFF0EDA20EA6E3C
:1016E000EE50ED1002E0828001D08290E552E7CF0B
:1016F000D9FF1200D9CFE6FFE1CFD9FFFD0EDBCF36
:10170000E9FFFE0EDBCFEAFF060EE926000EEA2215
:10171000EFCF14F0156A14BE156814C0E6FF15C0AB
:10172000E6FFFD0EDBCFE9FFFE0EDBCFEAFF070E83
:10173000E926000EEA22EFCF16F0176A16BE1768E8
:1017400016C0E6FF17C0E6FFB5DFE552E552E552E9
:10175000E552FD0EDBCFE9FFFE0EDBCFEAFFEF50D7
:1017600032E1F90EDBCF06F0FA0EDBCF07F0010E07
:10177000061801E1075016E0065001E1075001E0AC
:1017800022D0F40EE66E3B0EE66EC4EC23F0E5527A
:10179000E552E30EE66E3B0EE66E0EEC24F0E552EB
:1017A000E55211D0D20EE66E3B0EE66EC4EC23F08D
:1017B000E552E552C10EE66E3B0EE66E0EEC24F0ED
:1017C000E552E55200D0D950FB0FE96EFF0EDA204A
:1017D000EA6E010EEE1801E1ED5002E047EF10F065
:1017E000FD0EDBCFE9FFFE0EDBCFEAFFEF0401E0E9
:1017F00025D1D950F90FE96EFF0EDA20EA6EEE50CE
:10180000ED1010E1D20EE66E3B0EE66EC4EC23F056
:10181000E552E552C10EE66E3B0EE66E0EEC24F08C
:10182000E552E552D950F90FE96EFF0EDA20EA6E63
:10183000010EEE1801E1ED5074E1F70EDBCF06F07A
:10184000F80EDBCF07F0040E061801E1075058E050
:10185000030E061801E1075042E0020E061801E1EE
:1018600007502CE0010E061801E1075016E0065063
:1018700001E1075001E055D0B00EE66E3B0EE66E7A
:10188000C4EC23F0E552E552C10EE66E3B0EE66E67
:101890000EEC24F0E552E55244D09F0EE66E3B0E6E
:1018A000E66EC4EC23F0E552E552C10EE66E3B0E47
:1018B000E66E0EEC24F0E552E55233D08E0EE66E65
:1018C0003B0EE66EC4EC23F0E552E552C10EE66E27
:1018D0003B0EE66E0EEC24F0E552E55222D07D0E72
:1018E000E66E3B0EE66EC4EC23F0E552E552C10E07
:1018F000E66E3B0EE66E0EEC24F0E552E55211D09A
:101900006C0EE66E3B0EE66EC4EC23F0E552E5523B
:10191000C10EE66E3B0EE66E0EEC24F0E552E5528B
:1019200000D0D950F90FE96EFF0EDA20EA6E020EF0
:10193000EE1801E1ED5001E081D0F70EDBCF06F0AB
:10194000F80EDBCF07F0040E061801E1075065E042
:10195000020E061801E107502CE0010E061801E105
:10196000075016E0065001E1075001E067D0620E13
:10197000E66E3B0EE66EC4EC23F0E552E552C10E76
:10198000E66E3B0EE66E0EEC24F0E552E55256D0C4
:10199000570EE66E3B0EE66EC4EC23F0E552E552C0
:1019A000C10EE66E3B0EE66E0EEC24F0E552E552FB
:1019B00045D0FD0EDBCFE9FFFE0EDBCFEAFF100EB8
:1019C000E926000EEA22EECFE6FFEFCFE6FF450E56
:1019D000146E3B0E156E166A14C0E6FF15C0E6FFC6
:1019E00016C0E6FFD00EE66E000EE66EADEC25F0FA
:1019F000176E070EE15E1750340EE66E3B0EE66E74
:101A0000C4EC23F0E552E552D00EE66E000EE66E11
:101A100037EC24F0E552E55211D0230EE66E3B0E72
:101A2000E66EC4EC23F0E552E552C10EE66E3B0EC5
:101A3000E66E0EEC24F0E552E55200D0FD0EDBCF51
:101A4000E9FFFE0EDBCFEAFFEF50020856E1D95066
:101A5000F90FE96EFF0EDA20EA6EEE50ED1010E19C
:101A6000120EE66E3B0EE66EC4EC23F0E552E55234
:101A7000C10EE66E3B0EE66E0EEC24F0E552E5522A
:101A8000D950F90FE96EFF0EDA20EA6E010EEE185A
:101A900001E1ED5032E1F70EDBCF06F0F80EDBCFBF
:101AA00007F0010E061801E1075016E0065001E1AB
:101AB000075001E022D0010EE66E3B0EE66EC4EC4C
:101AC00023F0E552E552C10EE66E3B0EE66E0EECDB
:101AD00024F0E552E55211D0F00EE66E3A0EE66EB5
:101AE000C4EC23F0E552E552C10EE66E3B0EE66E05
:101AF0000EEC24F0E552E55200D0FD0EDBCFE9FFFD
:101B0000FE0EDBCFEAFFEF50030801E0BFD2D95051
:101B1000F90FE96EFF0EDA20EA6EEE50ED1010E1DB
:101B2000DF0EE66E3A0EE66EC4EC23F0E552E552A7
:101B3000C10EE66E3B0EE66E0EEC24F0E552E55269
:101B4000D950F90FE96EFF0EDA20EA6E010EEE1899
:101B500001E1ED5001E0A1D0F70EDBCF06F0F80E69
:101B6000DBCF07F0060E061801E1075001E184D033
:101B7000050E061801E107506EE0040E061801E19B
:101B8000075058E0030E061801E1075042E0020E2C
:101B9000061801E107502CE0010E061801E107507C
:101BA00016E0065001E1075001E077D0CE0EE66E58
:101BB0003A0EE66EC4EC23F0E552E552C10EE66E35
:101BC0003B0EE66E0EEC24F0E552E55266D0BD0EFB
:101BD000E66E3A0EE66EC4EC23F0E552E552C10E15
:101BE000E66E3B0EE66E0EEC24F0E552E55255D063
:101BF000AC0EE66E3A0EE66EC4EC23F0E552E5520A
:101C0000C10EE66E3B0EE66E0EEC24F0E552E55298
:101C100044D09B0EE66E3A0EE66EC4EC23F0E5521D
:101C2000E552C10EE66E3B0EE66E0EEC24F0E55278
:101C3000E55233D08A0EE66E3A0EE66EC4EC23F01F
:101C4000E552E552C10EE66E3B0EE66E0EEC24F058
:101C5000E552E55222D0790EE66E3A0EE66EC4ECFD
:101C600023F0E552E552C10EE66E3B0EE66E0EEC39
:101C700024F0E552E55211D0680EE66E3A0EE66E9B
:101C8000C4EC23F0E552E552C10EE66E3B0EE66E63
:101C90000EEC24F0E552E55200D0D950F90FE96E70
:101CA000FF0EDA20EA6E020EEE1801E1ED5001E0BF
:101CB0002CD1F70EDBCF06F0F80EDBCF07F0050EC8
:101CC000061801E1075001E1ECD0040E061801E10D
:101CD000075001E1B2D0030E061801E1075001E1FF
:101CE00078D0020E061801E107503FE0010E0618F9
:101CF00001E1075006E0065001E1075001E005D17F
:101D000004D1FD0EDBCFE9FFFE0EDBCFEAFF100EA4
:101D1000E926000EEA22EECFE6FFEFCFE6FF450E02
:101D2000146E3B0E156E166A14C0E6FF15C0E6FF72
:101D300016C0E6FFD00EE66E000EE66EADEC25F0A6
:101D4000176E070EE15E1750340EE66E3B0EE66E20
:101D5000C4EC23F0E552E552D00EE66E000EE66EBE
:101D600037EC24F0E552E552D0D0FD0EDBCFE9FF91
:101D7000FE0EDBCFEAFF120EE926000EEA22EECFBE
:101D8000E6FFEFCFE6FF450E146E3B0E156E166AAA
:101D900014C0E6FF15C0E6FF16C0E6FFD00EE66EE3
:101DA000000EE66EADEC25F0176E070EE15E1750E3
:101DB000570EE66E3A0EE66EC4EC23F0E552E5529D
:101DC000D00EE66E000EE66E37EC24F0E552E552DA
:101DD0009CD0FD0EDBCFE9FFFE0EDBCFEAFF140E39
:101DE000E926000EEA22EECFE6FFEFCFE6FF450E32
:101DF000146E3B0E156E166A14C0E6FF15C0E6FFA2
:101E000016C0E6FFD00EE66E000EE66EADEC25F0D5
:101E1000176E070EE15E1750460EE66E3A0EE66E3E
:101E2000C4EC23F0E552E552D00EE66E000EE66EED
:101E300037EC24F0E552E55268D0FD0EDBCFE9FF28
:101E4000FE0EDBCFEAFF160EE926000EEA22EECFE9
:101E5000E6FFEFCFE6FF450E146E3B0E156E166AD9
:101E600014C0E6FF15C0E6FF16C0E6FFD00EE66E12
:101E7000000EE66EADEC25F0176E070EE15E175012
:101E8000350EE66E3A0EE66EC4EC23F0E552E552EE
:101E9000D00EE66E000EE66E37EC24F0E552E55209
:101EA00034D0FD0EDBCFE9FFFE0EDBCFEAFF180ECC
:101EB000E926000EEA22EECFE6FFEFCFE6FF450E61
:101EC000146E3B0E156E166A14C0E6FF15C0E6FFD1
:101ED00016C0E6FFD00EE66E000EE66EADEC25F005
:101EE000176E070EE15E1750240EE66E3A0EE66E90
:101EF000C4EC23F0E552E552D00EE66E000EE66E1D
:101F000037EC24F0E552E55200D0D950F90FE96ED4
:101F1000FF0EDA20EA6E030EEE1801E1ED5001E04B
:101F2000B5D0F70EDBCF06F0F80EDBCF07F0020ED0
:101F3000061801E1075074E0010E061801E1075090
:101F400039E0065001E1075001E0A0D0FD0EDBCFE3
:101F5000E9FFFE0EDBCFEAFF1A0EE926000EEA22A9
:101F6000EECFE6FFEFCFE6FF450E146E3B0E156E8B
:101F7000166A14C0E6FF15C0E6FF16C0E6FFD00ED5
:101F8000E66E000EE66EADEC25F0176E070EE15E14
:101F90001750130EE66E3A0EE66EC4EC23F0E552CF
:101FA000E552D00EE66E000EE66E37EC24F0E552F8
:101FB000E5526CD058EC24F0FD0EDBCFE9FFFE0EAD
:101FC000DBCFEAFF1C0EE926000EEA22EECFE6FF89
:101FD000EFCFE6FF450E146E3B0E156E166A14C069
:101FE000E6FF15C0E6FF16C0E6FFD00EE66E000E57
:101FF000E66EADEC25F0176E070EE15E1750020E8F
:10200000E66E3A0EE66EC4EC23F0E552E552D00ED1
:10201000E66E000EE66E37EC24F0E552E55236D05F
:1020200058EC24F0FD0EDBCFE9FFFE0EDBCFEAFF1C
:102030001E0EE926000EEA22EECFE6FFEFCFE6FF06
:10204000450E146E3B0E156E166A14C0E6FF15C0E1
:10205000E6FF16C0E6FFD00EE66E000EE66EADECB3
:1020600025F0176E070EE15E1750F10EE66E390E81
:10207000E66EC4EC23F0E552E552D00EE66E000E9B
:10208000E66E37EC24F0E552E55200D036D2D95056
:10209000FB0FE96EFF0EDA20EA6EEE50ED1001E064
:1020A0002CD2FD0EDBCFE9FFFE0EDBCFEAFFEF0403
:1020B00001E0D1D0F90EDBCF06F0FA0EDBCF07F04E
:1020C000010E061801E1075016E0065001E1075025
:1020D00001E0C1D0D20EE66E3B0EE66EC4EC23F0FA
:1020E000E552E552C10EE66E3B0EE66E0EEC24F0B4
:1020F000E552E552B0D0FD0EDBCFE9FFFE0EDBCF9F
:10210000EAFF0E0EE926000EEA22EE50ED1011E075
:10211000E00EE66E390EE66EC4EC23F0E552E552B1
:10212000CF0EE66E390EE66E0EEC24F0E552E55267
:1021300091D0FD0EDBCFE9FFFE0EDBCFEAFF0C0EE8
:10214000E926000EEA22EE50ED1011E0BE0EE66E1A
:10215000390EE66EC4EC23F0E552E552CF0EE66E82
:10216000390EE66E0EEC24F0E552E55273D0FD0E0A
:10217000DBCFE9FFFE0EDBCFEAFF050EE926000EFE
:10218000EA22EFCF14F0156A14BE156814C0E6FFFA
:1021900015C0E6FFFD0EDBCFE9FFFE0EDBCFEAFF49
:1021A000030EE926000EEA22EFCF16F0176A16BEDC
:1021B000176816C0E6FF17C0E6FFAD0E186E390EA1
:1021C000196E1A6A18C0E6FF19C0E6FF1AC0E6FFCA
:1021D000D00EE66E000EE66EADEC25F01B6E090E1D
:1021E000E15E1B50D00EE66E000EE66EEDEC23F0C5
:1021F000E552E552FD0EDBCFE9FFFE0EDBCFEAFF35
:10220000040EE926000EEA22EFCF14F0156A14BE80
:10221000156814C0E6FF15C0E6FF9C0E166E390E59
:10222000176E186A16C0E6FF17C0E6FF18C0E6FF73
:10223000D00EE66E000EE66EADEC25F0196E070EC0
:10224000E15E1950D00EE66E000EE66E37EC24F01B
:10225000E552E55200D0FD0EDBCFE9FFFE0EDBCFED
:10226000EAFFEF5002086EE1F90EDBCF06F0FA0E3E
:10227000DBCF07F0010E061801E1075016E006500B
:1022800001E1075001E05ED0120EE66E3B0EE66EF5
:10229000C4EC23F0E552E552C10EE66E3B0EE66E4D
:1022A0000EEC24F0E552E5524DD0FD0EDBCFE9FFF8
:1022B000FE0EDBCFEAFF0E0EE926000EEA22EE50FC
:1022C000ED1011E0E00EE66E390EE66EC4EC23F080
:1022D000E552E552CF0EE66E390EE66E0EEC24F0B6
:1022E000E552E5522ED0FD0EDBCFE9FFFE0EDBCF2F
:1022F000EAFF0C0EE926000EEA22EE50ED1011E086
:10230000BE0EE66E390EE66EC4EC23F0E552E552E1
:10231000CF0EE66E390EE66E0EEC24F0E552E55275
:1023200010D0120EE66E3B0EE66EC4EC23F0E552C2
:10233000E552C10EE66E3B0EE66E0EEC24F0E55261
:10234000E55200D0FD0EDBCFE9FFFE0EDBCFEAFF4A
:10235000EF50030801E0D1D0F90EDBCF06F0FA0E02
:10236000DBCF07F0010E061801E1075016E006501A
:1023700001E1075001E0C1D0DF0EE66E3A0EE66ED5
:10238000C4EC23F0E552E552C10EE66E3B0EE66E5C
:102390000EEC24F0E552E552B0D0FD0EDBCFE9FFA4
:1023A000FE0EDBCFEAFF0E0EE926000EEA22EE500B
:1023B000ED1011E0E00EE66E390EE66EC4EC23F08F
:1023C000E552E552CF0EE66E390EE66E0EEC24F0C5
:1023D000E552E55291D0FD0EDBCFE9FFFE0EDBCFDB
:1023E000EAFF0C0EE926000EEA22EE50ED1011E095
:1023F000BE0EE66E390EE66EC4EC23F0E552E552F1
:10240000CF0EE66E390EE66E0EEC24F0E552E55284
:1024100073D0FD0EDBCFE9FFFE0EDBCFEAFF050E2A
:10242000E926000EEA22EFCF14F0156A14BE1568F3
:1024300014C0E6FF15C0E6FFFD0EDBCFE9FFFE0E80
:10244000DBCFEAFF030EE926000EEA22EFCF16F0FB
:10245000176A16BE176816C0E6FF17C0E6FFAD0E76
:10246000186E390E196E1A6A18C0E6FF19C0E6FF19
:102470001AC0E6FFD00EE66E000EE66EADEC25F05B
:102480001B6E090EE15E1B50D00EE66E000EE66E6E
:10249000EDEC23F0E552E552FD0EDBCFE9FFFE0E39
:1024A000DBCFEAFF040EE926000EEA22EFCF14F09C
:1024B000156A14BE156814C0E6FF15C0E6FF9C0E31
:1024C000166E390E176E186A16C0E6FF17C0E6FFC3
:1024D00018C0E6FFD00EE66E000EE66EADEC25F0FD
:1024E000196E070EE15E1950D00EE66E000EE66E14
:1024F00037EC24F0E552E55200D0E552E7CFD9FFA2
:022500001200C7
:0E250200BDEC17F0FB0EDBCFF3FFDB06F35052
:1025100000090AE00BEC18F0FA0E76EC18F0F3E183
:10252000151CF1E1010E01D0000EECEF17F0BDEC2F
:1025300017F03B0EE12402E3E168E652E16E010E82
:10254000DB6A020EDB6AF90EDBCFF6FFFA0EDBCF99
:10255000F7FFFB0EDBCFF8FF0800F550DF6EDF5012
:1025600002E110EF17F0250EDF5C02E003EF17F039
:10257000030EDB6A040EDB6A050EDB6A060EDB6AFD
:10258000070EDB6A25EC17F02D0EDF5C0CE02B0E3E
:10259000DF5C09E0200EDF5C06E0230EDF5C03E079
:1025A000300EDF5C1AE1DF50300A14E0130A0FE04E
:1025B000030A0AE00B0A05E0060AE4E1030EDB80E9
:1025C000E1D7030EDB82DED7030EDB84DBD7030EFD
:1025D000DB86D8D7030EDB88D5D72A0EDF5C1BE15C
:1025E00021EC17F06FEC17F010E0030EDB800668AB
:1025F0000768130EDBCF0DF0140EDBCF0EF078EC76
:1026000027F0040E04C0DBFF03D0130E58EC17F0C4
:1026100025EC17F00BD0090EDB6AC6EC17F003E0CF
:102620003AEC18F0FAD7090E58EC17F0030EDBB0AD
:10263000DB982E0EDF5C1BE125EC17F02A0EDF5C29
:102640000BE121EC17F06FEC17F003E1130EAAEC8D
:1026500017F025EC17F00BD0090EDB6AC6EC17F06B
:1026600003E03AEC18F0FAD7090EAAEC17F0680E5E
:10267000DF5C07E125EC17F0680EDF5C1DE1030E5F
:1026800018D0740EDF5C17E07A0EDF5C14E0480EA1
:10269000DF5C06E0540EDF5C03E05A0EDF5C02E113
:1026A000020E07D06C0EDF5C03E06A0EDF5C04E113
:1026B000010EFDEC17F0C9DBDF506E0A01E17FD39C
:1026C0001E0A01E192D1200A01E18FD13F0A01E106
:1026D00049D11A0A01E146D10D0A01E143D1200A8C
:1026E00001E140D13A0A01E13DD1200A01E13AD1AC
:1026F000260A01E135D10D0A01E132D11A0A01E1C0
:10270000D9D0200A4AE0300A1FE0460A0EE0250A26
:1027100001E083D3D950F90FE96EFF0EDA20EA6E9B
:10272000010EEE5E000EEE5AEE5A0BEC18F0250E7E
:10273000E66E95DB03E1151C01E169D307EC18F0A7
:1027400001E26BD3DB2A69D3080EDB6A040EDB508F
:10275000010806E2040EDB04CFEC17F0DB508BDB44
:10276000080EDB5009E0030EDB50010B05E172DBC4
:1027700001E04DD3080EDB6A64DBEFCFDFFF7FECB7
:1027800018F003E1151C01E142D307EC18F001E356
:10279000DB2A60DB01E141D33AD3070EDB500208AC
:1027A0000FE14BEC18F0030E12EC18F00E0EEECF0A
:1027B000DBFF0F0EEECFDBFF100EEECFDBFF20D0E6
:1027C000F70EDBCF17F0F80EDBCF18F0020E175E16
:1027D000000E185AF70E17C0DBFFF80E18C0DBFF0B
:1027E00017C0E9FF18C0EAFF02EC18F0166A0E0ED7
:1027F00014C0DBFF0F0E15C0DBFF100E16C0DBFF91
:102800000E0EDBCFE6FF0F0EDBCFE6FF100EDBCFA9
:10281000E6FF53EC27F0E552E552E552130E05C0F2
:10282000DBFF140E06C0DBFF060EDB5005E0130EC7
:1028300046EC18F001E26ADB6AEC18F002E2130ED3
:1028400037DB2DEC18F006E0040E46EC18F002E23F
:10285000050E2EDB030EDBB005D0FCDA01E0D7D28B
:10286000080EDB6A090EDB6A0E0EDBCFF6FF0F0ED9
:10287000DBCFF7FF100EDBCFF8FF0800F550DF6E5F
:10288000DF5014E070EC18F011E27FEC18F003E177
:10289000151C01E1BCD2BBDB01E3DB2A090EDB2AFC
:1028A000D9500E0FE96E000ECBDBE7D7D3DA01E18A
:1028B000B4D2ADD2C6DA110EEECFDBFF120EEDCFE1
:1028C000DBFF110EDBCFE6FF120EDBCFE6FF45ECA0
:1028D00027F0E552E552130EF3CFDBFF140EF4CFD1
:1028E000DBFF060EDB5004E0130ED0DB01E20EDB53
:1028F0006AEC18F002E2130EDBDAAFDB05E0040E3F
:10290000C5DB02E2050ED4DA030EDBB005D0A2DA95
:1029100001E07DD2080EDB6A090EDB6A110EDBCF07
:10292000E9FF120EDBCFEAFFEFCFDFFFDF5014E04D
:10293000D7DB12E2E4DB03E1151C01E168D267DBBF
:1029400001E3DB2A090EDB2A110EDB2ADBCFE9FFCC
:10295000120EE8E3DB2AE6D77DDA01E15ED257D238
:10296000030EDB8E070EDB0410E195DB040E5ADB51
:102970000A0EEECFDBFF0B0EEECFDBFF0C0EEECF21
:10298000DBFF0D0EEECFDBFF6CD0070EDB50030834
:102990002CE1030EDBAE0DD0B2DA020E76DAEFCF09
:1029A00014F0156A166A176A14AE39D015681668DD
:1029B00035D0F70EDBCF15F0F80EDBCF16F0020E98
:1029C000155E000E165AF70E15C0DBFFF80E16C086
:1029D000DBFF15C0E9FF16C0EAFFEFCF14F00A0EC7
:1029E00014C0DBFF0B0EDB6A38D0070EDB50020889
:1029F00009E1030EDBAE04D059DB16AE10D00ED0C9
:102A000055DB0DD0030EDBAE12D079DA020E3DDAC3
:102A1000F9DA166A176A15AE02D016681768E2DA94
:102A20000C0E16C0DBFF0D0E17C0DBFF1AD0F70E21
:102A3000DBCF16F0F80EDBCF17F0020E165E000E9D
:102A4000175AF70E16C0DBFFF80E17C0DBFF16C0D3
:102A5000E9FF17C0EAFFD6DAC5DA0C0EDB6A0D0E05
:102A6000DB6A060EDB5005E1010EF36E050EF3CFB7
:102A7000DBFF150EDB6A160EDB6AD950370F146EBA
:102A8000000EDA20156E390E14C0DBFF3A0E15C0A9
:102A9000DBFF380EDB6A080EDB6A0A0EAEDADF50A7
:102AA000780A12E0200A10E0280A0CE0200A0AE066
:102AB0003F0A06E00D0A02E0200A08E1020E05D0F6
:102AC000080E03D0080EDF26100E97DA030EDBBEC9
:102AD00002D0DB92DB94DB50800B24E08ADAD890C2
:102AE000030EEB50000A08E6000EEE5C000EEE58F6
:102AF000000EEE58000EEE5815E213DA0B680C6863
:102B00000D680E68D9EC26F00A0E00C0DBFF0B0E34
:102B100001C0DBFF0C0E02C0DBFF0D0E03C0DBFFAC
:102B20002D0E08D0030EDBA202D02B0E03D0DBA4A7
:102B300008D0200EF36E170EF3CFDBFF150EDB2A45
:102B400002D0170EDB6A050EDB5003E1B7D901E1B5
:102B500089D0BE0E146E520E156E000E166E070E44
:102B6000DBCF17F0186A196A1A6A17C00BF018C081
:102B70000CF019C00DF01AC00EF0D3D96AEC28F091
:102B800014500024F36E15500120F46E16500220EC
:102B9000F86EF4CFF7FFF3CFF6FF0800090EF5CF7C
:102BA000DBFF580EDF5C0FE1610EF36E090E7BD97F
:102BB0000AE3200E146E090EDBCFE7FF1450E75E28
:102BC000090EE7CFDBFF070EDBCF14F0156A166A9C
:102BD000176A0FDA14C00BF015C00CF016C00DF018
:102BE00017C00EF0EECF04F0EECF05F0EECF06F0FA
:102BF000EFCF07F06AEC28F007C0EDFF06C0EDFF4D
:102C000005C0EDFF04C0EFFF390EDBCFE9FFDB06A7
:102C10003A0EDBCFEAFF01E2DB06090EDBCFEFFF66
:102C2000150EDB2A4BD995E1030EDBA61DD06F0EE6
:102C3000DF5C06E1C1D918E3150EDB285BDA14D09E
:102C4000780EDF5C09E0580EDF5C06E0620EDF5CA8
:102C500003E0420EDF5C08E1020EF36E160EF3CFC6
:102C6000DBFF02D0150EDB6A030EDB50100B0EE00B
:102C7000040EDBCF14F0050EDB50D880145406E2AE
:102C8000060EDB5003E1040EDB5034DA95D90AE27C
:102C9000050EDBCFE7FF150EDB50E75E050EE7CF35
:102CA000DBFF02D0050EDB6A040EDBCF14F0160E3C
:102CB00045D9D880145414E2160EDBCFE6FF150E6A
:102CC000DBCFE6FF040EDBCFE6FF050EDB50E5525F
:102CD000E75CE552D880E754E552D880E7545FD9E5
:102CE000030EDB50010B0BE1080EDB5008E0B2D8FD
:102CF00001E08DD0080EDB50BED8080EDB6A170E3F
:102D0000DB5007E088D9170EF1D903E1151C01E16A
:102D10007ED0160EDB5016E07ED9300EE66E9FD8C0
:102D200002E1151C74E077D9DFCFE6FF97EC26F0BF
:102D3000E552E552E552F4CF15F00001F31C02E133
:102D4000151C65E0050EDBCF14F0160EDB50D880A5
:102D5000145409E2050EDBCFE7FF160EDB50E75EE9
:102D6000050EE7CFDBFF300EE66E050ECBD94FE147
:102D7000390EDB2ADBCFE9FF3A0E01E3DB2ADBCF9A
:102D8000EAFF090EEFCFDBFFDB500EE044D9090E5E
:102D9000ADD902E1151C3BE0390EDB2ADBCFE9FFA0
:102DA0003A0EEDE3DB2AEBD755D831E1160EDBCF37
:102DB000E6FF080EC3D8E552E7245DD82ED0070EF3
:102DC000DB50030A1CE0010A14E0030A07E07BD988
:102DD000DBCFEEFF020EDBCFEDFF1FD0F5D8196A77
:102DE00017AE02D0186819682CD8BCD819C0EEFFED
:102DF00014D0EAD817BE186824D8B4D80ED063D936
:102E0000DBCFEFFF0AD07BD905E1151C03E1F368A6
:102E1000F46810D0FCD801E3DB2A79D9ACEF12F0CA
:102E2000010EDBCF14F0020EDBCF15F014C0F3FF60
:102E300015C0F4FF3B0EE15C02E2E16AE552E16E8F
:102E4000CBD029D9020E12EF18F061D90800F55045
:102E5000DF6E1200200EE66E080E82EF18F097EC7F
:102E600026F0E552E552E552F3CF14F0F4CF15F019
:102E70000001F31C1200146E156AD950010F4DD9D0
:102E80001450EE261550ED221200185E000E195A4D
:102E9000F70E18C0DBFFF80E19C0DBFF18C0E9FF02
:102EA00019C0EAFF1200DBCFF4FFF350F45C12000C
:102EB000DB50E76E040EE7CFDBFF12000A0EDBCF1C
:102EC00014F00B0EDBCF15F00C0EDBCF16F00D0E51
:102ED000DBCF17F014501510161017101200130E38
:102EE000EECFDBFF140EEDCFDBFF130EDBCF14F0C4
:102EF000140EDBCF15F00001800E15141200F70E32
:102F0000DBCF18F0F80EDBCF19F01200050EDB5006
:102F1000E66ED950130F01D9E552E750EE6EED6A17
:102F200012000A0EDBCF04F00B0EDBCF05F00C0E07
:102F3000DBCF06F00D0EDBCF07F01200DBCFE6FF94
:102F4000150EDBCFE6FF050EDB50E552E724E55218
:102F5000E7241200DB50CED8010EF36E060EF3CF3D
:102F6000DBFF1200EE50EFCFEAFFE96E16C0EEFF76
:102F700017C0EEFF18C0EEFF1200D9CFE6FFDACF80
:102F8000E6FFE1CFD9FFE2CFDAFF1200DFCFE6FFA5
:102F9000E66A21EC29F0E552E552F3501200E76EA3
:102FA000080EE7CFDBFF1200EECF14F0EECF15F0E6
:102FB000EFCF16F0176A1200050EDBCF14F0150ED6
:102FC000DB50D88014541200010EDBCF16F0020E35
:102FD000DBCF17F0186A1200E552E5CFDAFFE7CF32
:102FE000D9FF12000A0E14C0DBFF0B0E15C0DBFF69
:102FF0001200D9500A0F8DEF18F0F36E070EF3CFC1
:10300000DBFF1200EECF14F0EFCF15F01200010E2F
:10301000DB2A020E1200FC0EDBCFE6FFFD0EDBCF3B
:10302000E6FF1200145E000E155AF70E14C0DBFF07
:10303000F80E15C0DBFF14C0E9FF15C0EAFF12004F
:10304000DA20EA6EEF2AEECFF6FF000EEF22EECF87
:10305000F7FFEF22EECFF8FF1200040EDBCFE6FF02
:10306000130EDB50E552E75C9ADFDB5004DF060EFF
:10307000DB501200090EDB500A0DF350DF24D00F95
:10308000E76E090EE7CFDBFF25EF17F0DB50F36E9D
:10309000050E53EF17F0F70EDBCF14F0F80EDBCF71
:1030A00015F01200DFCFE6FF2FEF17F028DF030E39
:1030B000ECDED4EF17F081EC12F0E552E552E55268
:1030C000E55200091200BDDEEE50EFCFEAFFE96ED7
:1030D000010E1200130EDB50F36E040E53EF17F0C7
:1030E000040EDB50F36E090E53EF17F0DBCFE6FF53
:1030F0002FEF17F0E76E050EE7CFDBFF12008BDF37
:1031000052EF18F0DBCFE6FF86DF5BEF18F0D95007
:10311000F90FE96EFF0E20EF18F0E96E000EDA20CD
:04312000EA6E120041
:0C312400949C948EFA0EE66EF3EC28F0FA
:10313000E552400EE66EE66A3C0EE66E52EC26F074
:10314000E552E552E5521200D9CFE6FFE1CFD9FFB3
:10315000FD0EDBCFF6FFFE0EDBCFF7FF0800F550CC
:1031600014E0ACA2FED7FD0EDBCFF6FFFE0EDBCFE8
:10317000F7FF0800F550E66E0AEC29F0E552FD0E67
:10318000DB2AFE0E01E3DB2AE3D7E552E7CFD9FFC6
:103190001200D9CFE6FFE1CFD9FFFD0EDBCFE9FF6B
:1031A000FE0EDBCFEAFFEF5013E0ACA2FED7FD0E20
:1031B000DBCFE9FFFE0EDBCFEAFFEF50E66E0AEC55
:1031C00029F0E552FD0EDB2AFE0E01E3DB2AE5D7EE
:1031D000E552E7CFD9FF1200440EE66E400EE66ED0
:1031E000B3DFE552E5521200D9CFE6FFE1CFD9FFB8
:1031F000FD0EDBCFE9FFFE0EDBCFEAFFEF5020E153
:10320000F90EDBCF06F0FA0EDBCF07F0010E061841
:1032100001E107500DE0065001E1075001E010D038
:10322000EB0EE66E3F0EE66E8FDFE552E55208D0FC
:10323000BE0EE66E3F0EE66E87DFE552E55200D029
:10324000D950FB0FE96EFF0EDA20EA6E010EEE1880
:1032500001E1ED5001E089D3FD0EDBCFE9FFFE0E69
:10326000DBCFEAFFEF0401E0D8D0D950F90FE96EC7
:10327000FF0EDA20EA6EEE50ED100EE14C0EE66E17
:103280003F0EE66E61DFE552E552080EE66E3F0E38
:10329000E66E5ADFE552E552D950F90FE96EFF0E9E
:1032A000DA20EA6E010EEE1801E1ED504CE1F70E66
:1032B000DBCF06F0F80EDBCF07F0040E061801E1B5
:1032C000075038E0030E061801E107502AE0020E0D
:1032D000061801E107501CE0010E061801E1075035
:1032E0000EE0065001E1075001E02DD075DFF80E29
:1032F000E66E3E0EE66E28DFE552E55224D06CDF26
:10330000E70EE66E3E0EE66E1FDFE552E5521BD07D
:1033100063DFD70EE66E3E0EE66E16DFE552E5522F
:1033200012D05ADFC20EE66E3E0EE66E0DDFE5529B
:10333000E55209D051DFAF0EE66E3E0EE66E04DFB9
:10334000E552E55200D0D950F90FE96EFF0EDA20B0
:10335000EA6E020EEE1801E1ED505FE1F70EDBCFF1
:1033600006F0F80EDBCF07F0040E061801E1075057
:103370004BE0020E061801E107501AE0010E061894
:1033800001E107500DE0065001E1075001E045D092
:10339000A10EE66E3E0EE66ED7DEE552E5523DD05A
:1033A000920EE66E3E0EE66ECFDEE552E55235D069
:1033B00013DFFD0EDBCFE9FFFE0EDBCFEAFF100EC1
:1033C000E926000EEA22EECFE6FFEFCFE6FF830EFE
:1033D000146E3E0E156E166A14C0E6FF15C0E6FFA9
:1033E00016C0E6FF800EE66E000EE66EADEC25F030
:1033F000176E070EE15E1750800EE66E000EE66E49
:10340000C8DEE552E55209D0E7DE720EE66E3E0EEA
:10341000E66E9ADEE552E55200D0FD0EDBCFE9FF05
:10342000FE0EDBCFEAFFEF50020856E1D950F90F4C
:10343000E96EFF0EDA20EA6EEE50ED100EE1350E69
:10344000E66E3E0EE66E80DEE552E552080EE66E52
:103450003F0EE66E79DEE552E552D950F90FE96E7E
:10346000FF0EDA20EA6E010EEE1801E1ED5022E1C6
:10347000F70EDBCF06F0F80EDBCF07F0010E0618D3
:1034800001E107500EE0065001E1075001E012D0C3
:10349000A3DE220EE66E3E0EE66E56DEE552E552E5
:1034A00009D09ADE0A0EE66E3E0EE66E4DDEE5525D
:1034B000E55200D0D950F90FE96EFF0EDA20EA6E1E
:1034C000020EEE1801E1ED5007E1F80EE66E3D0E3A
:1034D000E66E3ADEE552E552FD0EDBCFE9FFFE0E69
:1034E000DBCFEAFFEF50030801E03ED2D950F90FDD
:1034F000E96EFF0EDA20EA6EEE50ED100EE1460E98
:10350000E66E3D0EE66E20DEE552E552080EE66EF2
:103510003F0EE66E19DEE552E552D950F90FE96E1D
:10352000FF0EDA20EA6E010EEE1801E1ED5068E1BF
:10353000F70EDBCF06F0F80EDBCF07F0060E06180D
:1035400001E1075054E0050E061801E1075046E07E
:10355000040E061801E1075038E0030E061801E1D9
:1035600007502AE0020E061801E107501CE0010E88
:10357000061801E107500EE0065001E1075001E096
:103580003FD02ADE350EE66E3D0EE66EDDDDE552FD
:10359000E55236D021DE240EE66E3D0EE66ED4DD19
:1035A000E552E5522DD018DE100EE66E3D0EE66EA9
:1035B000CBDDE552E55224D00FDEF10EE66E3C0E77
:1035C000E66EC2DDE552E5521BD006DEDB0EE66E8E
:1035D0003C0EE66EB9DDE552E55212D0FDDDBC0EC3
:1035E000E66E3C0EE66EB0DDE552E55209D0F4DD44
:1035F000A40EE66E3C0EE66EA7DDE552E55200D065
:10360000D950F90FE96EFF0EDA20EA6E020EEE18BD
:1036100001E1ED5001E003D1F70EDBCF06F0F80E2B
:10362000DBCF07F0050E061801E1075001E1CBD012
:10363000040E061801E1075001E199D0030E0618A7
:1036400001E1075068E0020E061801E1075037E07B
:10365000010E061801E1075006E0065001E107508F
:1036600001E0DDD0DCD0B8DDFD0EDBCFE9FFFE0EE2
:10367000DBCFEAFF100EE926000EEA22EECFE6FFCE
:10368000EFCFE6FF830E146E3E0E156E166A14C061
:10369000E6FF15C0E6FF16C0E6FF800EE66E000EE0
:1036A000E66EADEC25F0176E070EE15E1750800E4A
:1036B000E66E000EE66E6DDDE552E552B0D08CDDB3
:1036C000FD0EDBCFE9FFFE0EDBCFEAFF120EE9268F
:1036D000000EEA22EECFE6FFEFCFE6FF920E146E69
:1036E0003C0E156E166A14C0E6FF15C0E6FF16C044
:1036F000E6FF800EE66E000EE66EADEC25F0176E6E
:10370000070EE15E1750800EE66E000EE66E41DD9C
:10371000E552E55284D060DDFD0EDBCFE9FFFE0E01
:10372000DBCFEAFF140EE926000EEA22EECFE6FF19
:10373000EFCFE6FF750E146E3C0E156E166A14C0C0
:10374000E6FF15C0E6FF16C0E6FF800EE66E000E2F
:10375000E66EADEC25F0176E070EE15E1750800E99
:10376000E66E000EE66E15DDE552E55258D034DD0A
:10377000FD0EDBCFE9FFFE0EDBCFEAFF160EE926DA
:10378000000EEA22EECFE6FFEFCFE6FF610E146EE9
:103790003C0E156E166A14C0E6FF15C0E6FF16C093
:1037A000E6FF800EE66E000EE66EADEC25F0176EBD
:1037B000070EE15E1750800EE66E000EE66EE9DC45
:1037C000E552E5522CD008DDFD0EDBCFE9FFFE0E01
:1037D000DBCFEAFF180EE926000EEA22EECFE6FF65
:1037E000EFCFE6FF440E146E3C0E156E166A14C041
:1037F000E6FF15C0E6FF16C0E6FF800EE66E000E7F
:10380000E66EADEC25F0176E070EE15E1750800EE8
:10381000E66E000EE66EBDDCE552E55200D0D950F2
:10382000F90FE96EFF0EDA20EA6E030EEE1801E1E1
:10383000ED5001E099D0F70EDBCF06F0F80EDBCFAC
:1038400007F0020E061801E1075062E0010E0618AB
:1038500001E1075031E0065001E1075001E084D05A
:10386000BBDCFD0EDBCFE9FFFE0EDBCFEAFF1A0E5D
:10387000E926000EEA22EECFE6FFEFCFE6FF2D0E9F
:10388000146E3C0E156E166A14C0E6FF15C0E6FFF6
:1038900016C0E6FF800EE66E000EE66EADEC25F07B
:1038A000176E070EE15E1750800EE66E000EE66E94
:1038B00070DCE552E55258D08FDCFD0EDBCFE9FF1E
:1038C000FE0EDBCFEAFF1C0EE926000EEA22EECF49
:1038D000E6FFEFCFE6FF1A0E146E3C0E156E166A69
:1038E00014C0E6FF15C0E6FF16C0E6FF800EE66EC8
:1038F000000EE66EADEC25F0176E070EE15E175078
:10390000800EE66E000EE66E44DCE552E5522CD0E9
:1039100063DCFD0EDBCFE9FFFE0EDBCFEAFF1E0E00
:10392000E926000EEA22EECFE6FFEFCFE6FF050E16
:10393000146E3C0E156E166A14C0E6FF15C0E6FF45
:1039400016C0E6FF800EE66E000EE66EADEC25F0CA
:10395000176E070EE15E1750800EE66E000EE66EE3
:1039600018DCE552E55200D015D0D950FB0FE96EB6
:10397000FF0EDA20EA6EEE50ED100CE1FD0EDBCF0B
:10398000E9FFFE0EDBCFEAFF070EE926000EEA2272
:0C399000EF5000E0E552E7CFD9FF120035
:04399C0046524F4EF2
:1039A000543A256420636D2020202020004C3D25C2
:1039B0006420636D20523D256420636D20004861C2
:1039C0006C66205363616E2020202020202000534D
:1039D00063616E6E696E672E2E2E202020202000DF
:1039E00046756C6C205363616E20202020202020BF
:1039F0000044204741494E3D202020202020202007
:103A0000200049204741494E3D20202020202020F1
:103A100020200050204741494E3D202020202020DA
:103A20002020200052462053414D504C45533D200C
:103A3000202020200049522053414D504C45205217
:103A40004154453D200049522053414D504C45536F
:103A50003D2020202020004D415820594157205220
:103A60004154453D20202000362D5345545F4D4F95
:103A700044454D414E55414C00352D5345545F5200
:103A8000465F53414D504C455300342D5345545FD0
:103A900049525F5241544520202000332D53455454
:103AA0005F49525F53414D504C455300322D5345B1
:103AB000545F5941575F52415445202000312D53E6
:103AC00045545F53504545445F4D41582000302DCB
:103AD0005345545F5049445F4741494E5320004687
:103AE0004143544F52595F4D4F4445202020200000
:103AF000312D5345545F555345524D414E55414C20
:103B000000302D5345545F46494E44504152524F68
:103B10005400555345525F4155544F5F4D4F4445F6
:103B2000202000456E7465722050617373636F646A
:103B3000653A20004D41582053504545443D2020D2
:103B4000202020200025642020202020202020204C
:103B5000202020202020004D4F544F52535F4F46CD
:103B600046004D4F544F52535F4F4E00342D534536
:103B7000545F464143544F525920202000332D5367
:103B800045545F555345525F4155544F2000322DE7
:103B90005345545F53504545445F4D4158200031D3
:103BA0002D5345545F4D4F544F52535F4F4646007F
:103BB000302D5345545F4D4F544F52535F4F4E205D
:103BC0000020202020202020202020202020202015
:103BD0002000555345525F4D414E55414C5F4D4F6E
:103BE000444500496E697469616C6973696E672E3A
:103BF0002E2E200057656C636F6D6520746F2E2E1E
:103C00002E202020004465726976617469766520F3
:103C10004761696E3D2025640D00496E74656772C9
:103C2000616C204761696E3D2025640D0050726F04
:103C3000706F7274696F6E616C204761696E3D20B0
:103C400025640D0052462053414D504C45532050A1
:103C5000455220455354494D4154453D2025640D5E
:103C60000049522053414D504C4520524154453D4E
:103C70002025640D0049522053414D504C4553209E
:103C800050455220455354494D4154453D202564EB
:103C90000D004D41582059415720524154453D2077
:103CA00025640D00362D5345545F4D4F44455F55F7
:103CB0005345525F4D414E55414C0D00352D5345F6
:103CC000545F52465F53414D504C45535F504552EF
:103CD0005F455354494D4154450D00342D534554CF
:103CE0005F49525F53414D504C455F524154450D21
:103CF00000332D5345545F49525F53414D504C455D
:103D0000535F5045525F455354494D4154450D0052
:103D1000322D5345545F5941575F524154455F4DD1
:103D200041580D00312D5345545F53504545445F74
:103D30004D41580D00302D5345545F5049445F4765
:103D400041494E530D000A464143544F52595F4D6D
:103D50004F44450A0D302D5345545F5049445F4749
:103D600041494E530A0D312D5345545F535045453B
:103D7000445F4D41580A0D322D5345545F59415708
:103D80005F524154455F4D41580A0D332D53455400
:103D90005F49525F53414D504C45535F5045525F10
:103DA000455354494D4154450A0D342D5345545FF4
:103DB00049525F53414D504C455F524154450A0DA5
:103DC000352D5345545F52465F53414D504C45533A
:103DD0005F5045525F455354494D4154450A0D3695
:103DE0002D5345545F4D4F44455F555345525F4DEC
:103DF000414E55414C0A0D000A46696E64696E6772
:103E000020506172726F740A0D00312D5345545F5A
:103E10004D4F44455F555345525F4D414E55414CC2
:103E20000D00302D5345545F46494E445F5041527A
:103E3000524F540D000A555345525F4155544F5F40
:103E40004D4F44450A0D302D5345545F46494E446D
:103E50005F504152524F540A0D312D5345545F4D1E
:103E60004F44455F555345525F4D414E55414C0AB5
:103E70000D00456E7465722050617373636F6465E5
:103E80003A0D004D41582053504545443D2025648E
:103E90000D000A0D4D4F544F52535F4F46460A0DC9
:103EA000000A0D4D4F544F52535F4F4E0A0D0034D0
:103EB0002D5345545F4D4F44455F464143544F5247
:103EC0005900332D5345545F4D4F44455F5553457D
:103ED000525F4155544F00322D5345545F53504566
:103EE00045445F4D415800312D5345545F4D4F546B
:103EF0004F52535F4F464600302D5345545F4D4F50
:103F0000544F52535F4F4E005573652055502F4408
:103F10004F574E206172726F777320746F207363F6
:103F2000726F6C6C0A0D5072657373204120746F50
:103F30002073656C6563740A0D507265737320425B
:103F400020746F20657869740A0A0D005553455234
:103F50005F4D414E55414C5F4D4F44450A0A0D306F
:103F60002D5345545F4D4F544F52535F4F4E0A0DE2
:103F7000312D5345545F4D4F544F52535F4F46467A
:103F80000A0D322D5345545F53504545445F4D4112
:103F9000580A0D332D5345545F4D4F44455F5553DB
:103FA00045525F4155544F0A0D342D5345545F4DD2
:103FB0004F44455F464143544F52590A0D005553F3
:103FC00045525F4D414E55414C5F4D4F44450A0DA2
:103FD0005072657373204120746F20656E74657232
:103FE00020636F6D6D616E640A0D0057656C636FC1
:103FF0006D6520746F2E2E2E0A0D5072657373201E
:104000004120746F20656E74657220636F6D6D6101
:104010006E647320616E642055502F444F574E20BC
:104020006172726F777320746F207363726F6C6C40
:104030000A0D496E697469616C6973696E672E2E29
:104040002E0A0D000D2020202020202020202020BE
:104050002020202020202020202020202020202060
:104060002020202020202020202020202020200D63
:104070000057726F6E672050617373636F646500E1
:10408000550044004C0052004800460041004200E8
:1040900063EC24F0FBC0E9FFFCC0EAFFEF6AFBC061
:1040A000E9FFFCC0EAFF020EE926000EEA220A0E32
:1040B000EE6EED6AFBC0E9FFFCC0EAFF040EE926E4
:1040C000000EEA220A0EEE6EED6AFBC0E9FFFCC0AC
:1040D000EAFF060EE926000EEA220A0EEE6EED6AEF
:1040E000FBC0E9FFFCC0EAFF080EE926000EEA2249
:1040F0000A0EEE6EED6AFBC0E9FFFCC0EAFFE9269E
:10410000000EEA220A0EEE6EED6AFBC0E9FFFCC06B
:10411000EAFF0C0EE926000EEA220A0EEE6EED6AA8
:10412000FBC0E9FFFCC0EAFF0E0EE926000EEA2202
:104130000A0EEE6EED6AFBC0E9FFFCC0EAFF100E4E
:10414000E926000EEA220A0EEE6EED6AFBC0E9FFD8
:10415000FCC0EAFF120EEB6A130EEB6AFBC0E9FF2C
:10416000FCC0EAFF140EEB6A150EEB6AFDC0E9FF16
:10417000FEC0EAFFEE52EF6AFDC0E9FFFEC0EAFFB3
:10418000020EE926000EEA220A0EEF6EFDC0E9FFDC
:10419000FEC0EAFF030EE926000EEA221E0EEF6EB5
:1041A000FDC0E9FFFEC0EAFF040EE926000EEA2288
:1041B000140EEF6EFDC0E9FFFEC0EAFF050EE92612
:1041C000000EEA220A0EEF6EFDC0E9FFFEC0EAFF14
:1041D000060EE926000EEA22EF6AFDC0E9FFFEC0E6
:1041E000EAFF070EE926000EEA22EF6AFDC0E9FFAA
:1041F000FEC0EAFF080EEB6A090EEB6AFDC0E9FF9C
:10420000FEC0EAFF0A0EE926000EEA22EF6AFDC0B0
:10421000E9FFFEC0EAFF0B0EE926000EEA22EF6A74
:10422000FDC0E9FFFEC0EAFF0C0EEB6A0D0EEB6A63
:10423000FDC0E9FFFEC0EAFF0E0EEB6A0F0EEB6A4F
:10424000FDC0E9FFFEC0EAFF200EEB6A210EEB6A1B
:10425000FBC0E6FFFCC0E6FF000EE66E010EE66E58
:1042600075EC24F0E552E552E552E552FBC0E9FF5A
:10427000FCC0EAFFEF50E66EFDC0E9FFFEC0EAFFBA
:10428000E552E750EF6EFBC0E9FFFCC0EAFF020E0B
:10429000E926000EEA22EECF14F0EFCF15F0FDC0B4
:1042A000E9FFFEC0EAFF100E14C0EBFF110E15C0AF
:1042B000EBFFFBC0E9FFFCC0EAFF040EE926000E9D
:1042C000EA22EECF14F0EFCF15F0FDC0E9FFFEC0FB
:1042D000EAFF120E14C0EBFF130E15C0EBFFFBC07C
:1042E000E9FFFCC0EAFF060EE926000EEA22EECF47
:1042F00014F0EFCF15F0FDC0E9FFFEC0EAFF140E89
:1043000014C0EBFF150E15C0EBFFFBC0E9FFFCC0AE
:10431000EAFF080EE926000EEA22EECF14F0EFCFF6
:1043200015F0FDC0E9FFFEC0EAFF160E14C0EBFF5A
:10433000170E15C0EBFFFBC0E9FFFCC0EAFF0C0E37
:10434000E926000EEA22EECF14F0EFCF15F0FDC003
:10435000E9FFFEC0EAFF1A0E14C0EBFF1B0E15C0EA
:10436000EBFFFBC0E9FFFCC0EAFF0E0EE926000EE2
:10437000EA22EECF14F0EFCF15F0FDC0E9FFFEC04A
:10438000EAFF1C0E14C0EBFF1D0E15C0EBFFFBC0B7
:10439000E9FFFCC0EAFF100EE926000EEA22EECF8C
:1043A00014F0EFCF15F0FDC0E9FFFEC0EAFF1E0ECE
:1043B00014C0EBFF1F0E15C0EBFFFBC0E9FFFCC0F4
:1043C000EAFF0A0EE926000EEA22EECF14F0EFCF44
:1043D00015F0FDC0E9FFFEC0EAFF180E14C0EBFFA8
:1043E000190E15C0EBFFFDC0E6FFFEC0E6FFA9EC0D
:1043F00024F0E552E5522CD71200DACFE4FFE2CFE9
:10440000DAFFE9CFE4FFEACFE4FFF6CFE4FFF7CF2E
:10441000E4FFF5CFE4FFF3CFE4FFF4CFE4FFFACFFE
:10442000E4FF00EE00F0140EE80403E3EECFE4FF37
:10443000FBD700EE14F0080EE80403E3EECFE4FF30
:10444000FBD7E65281A20AD0F090000EE66E010E74
:10445000E66EE7EC22F0E552E55209D0F2A407D06F
:10446000F294F29AD59E010E0001F96FFA6BE552B3
:1044700000EE1BF0080EE80403E3E5CFEDFFFBD7E9
:1044800000EE13F0140EE80403E3E5CFEDFFFBD7D5
:10449000E5CFFAFFE5CFF4FFE5CFF3FFE5CFF5FF7A
:1044A000E5CFF7FFE5CFF6FFE5CFEAFFE5CFE9FF80
:1044B000E5CFDAFF1100DACFE4FFE2CFDAFFE9CF90
:1044C000E4FFEACFE4FFF6CFE4FFF7CFE4FFF5CF58
:1044D000E4FFF3CFE4FFF4CFE4FFFACFE4FF00EE14
:1044E00000F0140EE80403E3EECFE4FFFBD700EE88
:1044F00014F0080EE80403E3EECFE4FFFBD7E65226
:10450000F2A003D0F290A8EC23F081A009D0F2929F
:10451000000EE66E010EE66EADEC23F0E552E552BC
:10452000E55200EE1BF0080EE80403E3E5CFEDFFD3
:10453000FBD700EE13F0140EE80403E3E5CFEDFF24
:10454000FBD7E5CFFAFFE5CFF4FFE5CFF3FFE5CFEB
:10455000F5FFE5CFF7FFE5CFF6FFE5CFEAFFE5CFC3
:08456000E9FFE5CFDAFF1100CD
:08456800F29EF29CD08EF18E50
:10457000816A1F0E936E94860F0EC16EF288F292BE
:10458000F18CF086F09CF090F18AF098F092F29025
:10459000F286F180F28EF28C1200D9CFE6FFE1CFE5
:1045A000D9FFFD0EDBCFF6FFFE0EDBCFF7FF0800D5
:1045B000F550E66EFB0EDBCFE9FFFC0EDBCFEAFF2A
:1045C000E552E750EF6EE552E7CFD9FF1200D9CFA1
:1045D000E6FFE1CFD9FF80AA10D0FD0EDBCFE6FFCA
:1045E000FE0EDBCFE6FF8E0EE66E400EE66ED5DFEA
:1045F000E552E552E552E5527DD080A810D0FD0E7F
:10460000DBCFE6FFFE0EDBCFE6FF8C0EE66E400E44
:10461000E66EC3DFE552E552E552E5526BD081A666
:1046200010D0FD0EDBCFE6FFFE0EDBCFE6FF8A0EDD
:10463000E66E400EE66EB1DFE552E552E552E55218
:1046400059D082A610D0FD0EDBCFE6FFFE0EDBCFE9
:10465000E6FF880EE66E400EE66E9FDFE552E552FD
:10466000E552E55247D080A610D0FD0EDBCFE6FF25
:10467000FE0EDBCFE6FF860EE66E400EE66E8DDFA9
:10468000E552E552E552E55235D080A410D0FD0E3A
:10469000DBCFE6FFFE0EDBCFE6FF840EE66E400EBC
:1046A000E66E7BDFE552E552E552E55223D080A26B
:1046B00010D0FD0EDBCFE6FFFE0EDBCFE6FF820E55
:1046C000E66E400EE66E69DFE552E552E552E552D0
:1046D00011D080A00FD0FD0EDBCFE6FFFE0EDBCFAA
:1046E000E6FF800EE66E400EE66E57DFE552E552BD
:1046F000E552E552E552E7CFD9FF1200D9CFE6FFE8
:10470000E1CFD9FFE652FD0EDBCFE9FFFE0EDBCF96
:10471000EAFFEFCFDFFFFD0EDBCFE9FFFE0EDBCFC1
:10472000EAFFEF6ADF5000D0E552E552E7CFD9FF4C
:104730001200D9CFE6FFE1CFD9FFFD0EDBCFE9FFB5
:10474000FE0EDBCFEAFFEF6AE552E7CFD9FF12009A
:1047500081A800D081B800D01200D9CFE6FFE1CF08
:10476000D9FFFD0EDBCFE6FFFE0EDBCFE6FFE1DF7C
:0C477000E552E552E552E7CFD9FF1200F8
:04477C002B0EE66EAC
:10478000E8EC24F0E5521200D9CFE6FFE1CFD9FFE3
:10479000D4EC28F0000901E0FBD7800EE66E1CEC9B
:1047A00028F0E552D4EC28F0000901E0FBD7FD0E1B
:1047B000DBCF14F0FE0EDBCF15F0166A14C0E6FF57
:1047C00015C0E6FF16C0E6FF11EC27F0E552E552F2
:1047D000E552E552E7CFD9FF1200D9CFE6FFE1CF8E
:1047E000D9FFD4EC28F0000901E0FBD7800EE66E7B
:1047F0001CEC28F0E552D4EC28F0000901E0FBD7CE
:10480000FD0EDBCFE6FFFE0EDBCFE6FF43EC28F02C
:10481000E552E552E552E7CFD9FF1200D9CFE6FFC6
:10482000E1CFD9FFD4EC28F0000901E0FBD7C00E9E
:10483000E66E1CEC28F0E552D4EC28F0000901E00B
:10484000FBD7FD0EDBCF14F0FE0EDBCF15F0166AA2
:1048500014C0E6FF15C0E6FF16C0E6FF11EC27F016
:10486000E552E552E552E552E7CFD9FF1200D9CF24
:10487000E6FFE1CFD9FFD4EC28F0000901E0FBD737
:10488000C00EE66E1CEC28F0E552D4EC28F00009CE
:1048900001E0FBD7FD0EDBCFE6FFFE0EDBCFE6FF30
:1048A00043EC28F0E552E552E552E7CFD9FF12007C
:1048B000D4EC28F0000901E0FBD7010EE66E1CECF9
:0648C00028F0E552120091
:0A48C600BEEC23F0B4EC22F092ECFB
:1048D00018F055EF0BF0D9CFE6FFE1CFD9FF010E6D
:1048E00000D0E552E7CFD9FF1200D9CFE6FFE1CFE4
:1048F000D9FFFD0EDBCFE6FFFE0EDBCFE6FF7EEC41
:1049000023F0E552E55201013B6FF00EE66E000E1A
:10491000E66E3B0EE66E010EE66EEE0EE66E000EE5
:10492000E66EEC0EE66E000EE66EEA0EE66E000E29
:10493000E66EFB0EDBCFE6FFFC0EDBCFE6FF88EC7E
:1049400000F0146E0C0EE15E1450E552E7CFD9FF73
:104950001200D9CFE6FFE1CFD9FF0001F051F111EC
:104960001BE0EEC0E6FFEFC0E6FFECC0E6FFEDC0E7
:10497000E6FFEAC0E6FFEBC0E6FFFD0EDBCFE6FF99
:10498000FE0EDBCFE6FFF4EC18F0146E080EE15ECD
:1049900014500001F06BF16BEEC0E6FFEFC0E6FFD4
:1049A000ECC0E6FFEDC0E6FFEAC0E6FFEBC0E6FFC5
:1049B000FD0EDBCFE6FFFE0EDBCFE6FF7AEC0BF061
:1049C000146E080EE15E1450E552E7CFD9FF1200D5
:1049D000D9CFE6FFE1CFD9FF0F0E8316951695923A
:1049E000959495908C928C948C9066EC25F0300E7A
:1049F000E66E1CEC28F0E552050EE66EF3EC28F0AE
:104A0000E552300EE66E1CEC28F0E552010EE66E23
:104A1000F3EC28F0E552320EE66E1CEC28F0E5527D
:104A2000D4EC28F0000901E0FBD7D4EC28F0000911
:104A300001E0FBD7FE0EDBCFE6FF1CEC28F0E552D1
:104A4000D4EC28F0000901E0FBD7080EE66E1CEC60
:104A500028F0E552D4EC28F0000901E0FBD70C0E59
:104A6000E66E1CEC28F0E552D4EC28F0000901E0D9
:104A7000FBD7010EE66E1CEC28F0E552D4EC28F0D2
:104A8000000901E0FBD7130EE66E1CEC28F0E5529E
:104A9000D4EC28F0000901E0FBD7800EE66EA5EC0F
:0E4AA00027F0E55200D0E552E7CFD9FF120013
:024AAE00000006
:104AB00000000000000000000000000000000000F6
:104AC000000000000000000000001200D9CFE6FF47
:104AD000E1CFD9FF020EE126420EDE6E0B0EDD6E37
:104AE0000000000000000000D9CFE9FFDACFEAFFA4
:104AF000EE50ED1005E0DF06010E01E2DB06F4D713
:104B0000020EE15C02E2E16AE552E16EE552E7CFB6
:104B1000D9FF1200D9CFE6FFE1CFD9FF020EE1267F
:104B2000BF0EDE6E030EDD6E000000000000D9CF68
:104B3000E9FFDACFEAFFEE50ED1005E0DF06010EE7
:104B400001E2DB06F4D7020EE15C02E2E16AE55223
:0A4B5000E16EE552E7CFD9FF120035
:064B5A00D9CFE6FFDACF1F
:104B6000E6FFE1CFD9FFE2CFDAFFE652E652E652A6
:104B7000E652D950F90F146EFF0EDA20156E020EB0
:104B800014C0DBFF030E15C0DBFF020EDBCFE6FF18
:104B9000030EDBCFE6FFF90EDBCFE6FFFA0EDBCF2D
:104BA000E6FFFB0EDBCFE6FFD950FC0FE66EFF0EF3
:104BB000DA20E66E97EC12F0146E070EE15C02E26A
:104BC000E16AE552E16E1450F3CFDEFFF4CFDDFF72
:104BD000FC0EDBCFE9FFFD0EDBCFEAFFEF6ADECF95
:104BE00014F0DDCF15F014C0F3FF15C0F4FF040E70
:104BF000E15C02E2E16AE552E16EE552E5CFDAFFFF
:064C0000E7CFD9FF12000E
:0A4C06001E0EF66E000EF76E000E93
:104C1000F86E00010900F550E56F0900F550E66FE8
:104C200003E1E56701D03DD00900F550E06F0900D0
:104C3000F550E16F0900F550E26F09000900F550E9
:104C4000E96E0900F550EA6E090009000900F55007
:104C5000E36F0900F550E46F09000900F6CFE7F0B3
:104C6000F7CFE8F0F8CFE9F0E0C0F6FFE1C0F7FFDA
:104C7000E2C0F8FF0001E35302E1E45307E009005A
:104C8000F550EE6EE307F8E2E407F9D7E7C0F6FF68
:104C9000E8C0F7FFE9C0F8FF0001E507000EE65B9A
:044CA000BFD7120068
:0C4CA400D9CFE6FFDACFE6FFE1CFD9FF61
:104CB000E2CFDAFFAC6AAB6AFD0EDBB0AC88DBA2F8
:104CC00002D0AC8CAB8CDBB4AC8EDBA602D0AB8854
:104CD00001D0AB8ADBB8AC849E98DBBAAB86DBAC88
:104CE00002D09D8A01D09D9A9E9ADBAE02D09D880B
:104CF00001D09D98FB0EDB50AF6EFB0EFC0EDBCFA0
:104D000015F015C014F0156A1450B06EAC8AAB8E55
:104D1000949C948EAC50100B04E0AC50800B01E1DD
:0E4D2000948CE552E5CFDAFFE7CFD9FF120001
:024D2E00D9CFDB
:104D3000E6FFDACFE6FFE1CFD9FFE2CFDAFFFB0EE5
:104D4000DBCF14F0FC0EDBCF15F00001800E151444
:104D50001AE1FB0EDBCFE9FFFC0EDBCFEAFFEECF63
:104D6000F3FFEDCFF4FFEE2A000EEF22F3CFE9FFC1
:104D7000F4CFEAFFFD0EDBCFEFFFEF50156AF36EC5
:104D800015C0F4FF10D0FB0EDB50FE0806E1FD0E4F
:104D9000DBCFE6FF51EC29F005D0FD0EDBCFE6FFBF
:104DA00003EC00F0E552E552E5CFDAFFE7CFD9FF9B
:024DB0001200EF
:0E4DB20004500B02F3CF00F0F4CF01F00C021E
:104DC000F3500126000EF420026E04500D02F35041
:104DD0000226000EF420036E04500E02F350032648
:104DE00005500B02F3500126F4500222000E03225C
:104DF00005500C02F3500226F450032205500D0218
:104E0000F350032606500B02F3500226F4500322FF
:104E100006500C02F350032607500B02F3500326F2
:024E200012007E
:0E4E2200D9CFE6FFE1CFD9FFFC0EDBCFF6FFC4
:104E3000FD0EDBCFF7FFFE0EDBCFF8FF0800F550CD
:104E40001FE0D4EC28F0000901E0FBD7FC0EDBCF1B
:104E5000F6FFFD0EDBCFF7FFFE0EDBCFF8FF0800FD
:104E6000F550E66EF5EC27F0E552D950FC0FE96EEF
:104E7000FF0EDA20EA6EEE2A000EEE22EE22D5D7E1
:0A4E800000D0E552E7CFD9FF120081
:064E8A00FE0EE3CFE9FF7C
:104E9000FF0EE3CFEAFFF36AF46AEE5203E0F34A4F
:104EA000F42AFBD71200FF0EE3CFF8FFE552FF0E06
:104EB000E3CFF7FFE552FF0EE3CFF6FFE552E66AD8
:104EC000E66AE66A0900F55209E0FD0EE32A05E10B
:104ED000FE0EE32A02E1FF0EE32AF4D7FD0EE3CF34
:104EE00005F0FE0EE3CF06F0FF0EE3CF07F0120051
:104EF00007C013F006C012F006500D02F4CF05F003
:104F0000F3CF04F007500E02F4CF07F0F3CF06F012
:104F10000D02F3500526F4500622E86A07221250CB
:104F20000E02F3500526F4500622E86A07220EAE60
:104F30009EEF27F01250065E1350075A13AE000C76
:0A4F40000D50065E0E50075A000CDB
:064F4A00D9CFE6FFE1CF24
:104F5000D9FF0F0E95168316FE0EDB508009F00B5D
:104F600083128C928C9457EC25F08C8057EC25F0B2
:104F70008C900F0E8316FE0EDB38F00BF00B8312B5
:104F800057EC25F08C8057EC25F08C90F00E9512A4
:0A4F900000D0E552E7CFD9FF120070
:064F9A00D9CFE6FFE1CFD4
:104FA000D9FF0F0E95168316FE0EDB504009F00B4D
:104FB00083128C928C9457EC25F08C8057EC25F062
:104FC0008C900F0E8316FE0EDB38F00BF00B831265
:104FD00057EC25F08C8057EC25F08C90F00E951254
:0A4FE00000D0E552E7CFD9FF120020
:064FEA00D9CFE6FFE1CF84
:104FF000D9FF0F0E95168316FE0EDB50F00B8312B1
:105000008C848C9257EC25F08C8057EC25F08C909A
:105010000F0E8316FE0EDB38F00BF00B831257ECED
:1050200025F08C8057EC25F08C90F00E951200D076
:08503000E552E7CFD9FF1200A1
:08503800D9CFE6FFE1CFD9FF5B
:105040000F0E95168316FE0EDB50F00B83128C921A
:105050008C9457EC25F08C8057EC25F08C900F0E3B
:105060008316FE0EDB38F00BF00B831257EC25F0A5
:105070008C8057EC25F08C90F00E951200D0E55204
:06508000E7CFD9FF12008A
:0A508600D9CFE6FFE1CFD9FFFD0E00
:10509000DBCFE9FFFE0EDBCFEAFFEF5016E0D4ECEA
:1050A00028F0000901E0FBD7FD0EDBCFE9FFFE0E83
:1050B000DBCFEAFFEF50E66EF5EC27F0E552FD0E90
:1050C000DB2AFE0E01E3DB2AE2D700D0E552E7CF70
:0450D000D9FF1200F2
:0C50D400036A026A016A006A200EE76E9F
:1050E000D8900436053606360736003601360236C5
:1050F00003360B50005C0C5001580D5002580E50F6
:10510000035809E30B50005E0C50015A0D50025A2F
:0C5110000E50035A042AE72EE4D71200C8
:04511C00D9CFE6FF02
:10512000E1CFD9FFE6528C828C8457EC25F08C803D
:1051300057EC25F0F00E8314DF6E8C9057EC25F0C1
:105140008C8057EC25F083380F0B0F0BDF128C90FF
:105150008C948C92DF5000D0E552E552E7CFD9FF16
:0251600012003B
:0E516200D9CFE6FFE1CFD9FFE6528C828C94C4
:1051700057EC25F08C8057EC25F0F00E8314DF6E91
:105180008C9057EC25F08C8057EC25F083380F0B72
:105190000F0BDF128C908C927F0EDF1400D0E55243
:0851A000E552E7CFD9FF120030
:0851A8008C828C9457EC25F079
:1051B0008C8057EC25F083AE0BD08C9057EC25F00B
:1051C0008C8057EC25F08C908C92010E0BD00AD07D
:1051D0008C9057EC25F08C8057EC25F08C908C92BD
:0651E000000E00D01200D9
:0A51E600FF0EE3501D6EEF0E01D026
:1051F000F30EE76EE72EFAEF28F00C0E1C6EE76A4E
:10520000E72E00EF29F01C2EFFEF28F01D2EF8EFFF
:0452100028F0120070
:0C521400D9CFE6FFDACFE6FFE1CFD9FFEB
:10522000E2CFDAFFACAC04D0AC900001FFB3AC80AD
:10523000FD0EDB50AD6EE552E5CFDAFFE7CFD9FFCB
:0252400012005A
:0E524200F36AF46AFF0EE124E96EFF0EE2202B
:10525000EA6EED6607D02F0EEF6404D03A0EEF60D1
:0652600001D0F32A120048
:0A526600000EF36E00EE00F0060EDD
:1052700001D81200EA6002D0EE6AFCD7F350E96070
:065280001200EE6AFCD7EB
:0A52860015EE00F025EE00F0F86AC6
:105290000A9C03EC26F007EC00F048EC20F0FBD76A
:0252A0001200FA
:0E52A200FF0EE350ACBA04D0AF6AAB8EAC8AFC
:0E52B000949CACA2FED7AD6EF36EF46A1200B1
:0252BE0030318D
:0F52C000323334353637383961626364656600DE
:0152CF0000DE
:0752D00000000000000000D7
:0752D7005555000000000026
:020000040030CA
:0100010002FC
:010002001AE3
:010003000EEE
:010005008377
:010006008178
:010008000FE8
:01000900C036
:01000A000FE6
:01000B00E014
:01000C000FE4
:01000D0040B2
:00000001FF
