:020000040000FA
:0600000091EF01F0120077
:0A0006000100160000008A0000004F
:0400100002000000EA
:020014001200D8
:0200160000B434
:0600180012EF00F01200DF
:02001E005DD8AB
:100020006BD8FFD7DACFE4FFE2CFDAFFE9CFE4FF06
:10003000EACFE4FFF6CFE4FFF7CFE4FFF5CFE4FF2C
:10004000F3CFE4FFF4CFE4FFFACFE4FF00EE04F0D7
:10005000020EE80403E3EECFE4FFFBD700EE00F06E
:10006000040EE80403E3EECFE4FFFBD7E652A190D1
:1000700000018A718A0505E182928BC0E6FF3FD8B4
:10008000E55200018A5105E182828BC0E6FF6BD800
:10009000E552E55200EE03F0040EE80403E3E5CF79
:1000A000EDFFFBD700EE05F0020EE80403E3E5CF19
:1000B000EDFFFBD7E5CFFAFFE5CFF4FFE5CFF3FF88
:1000C000E5CFF5FFE5CFF7FFE5CFF6FFE5CFEAFF98
:1000D000E5CFE9FFE5CFDAFF1100F29EF29CBB6AA3
:1000E000890EB16E826A94920B0EBA6EF28EF28C09
:1000F000D08EA080A29012008282F1EF00F0ABD8E7
:1001000004E3170E96D801E27BD8170E92D805E3C8
:10011000FE0EDB50440801E378D8FE0EDB504408A5
:1001200005E2FE0EDB50710801E374D8FE0EDB50D1
:10013000710805E285D801E289D801E370D880D83A
:100140000EE284D80CE2FE0EDB50026E036A03342A
:1001500004E20250B408000E035401E365D8E552EE
:10016000E7CFD9FF120077D804E3170E62D801E277
:100170002ED8170E5ED805E3FE0EDB50440801E3CF
:100180002BD8FE0EDB50440805E2FE0EDB50710852
:1001900001E327D8FE0EDB50710805E251D801E2D9
:1001A00055D801E323D84CD80EE250D80CE2FE0E0D
:1001B000DB50026E036A033404E20250B408000EFE
:1001C000035401E318D8E552E7CFD9FF1200090E16
:1001D000BC6EC40EBB6E12000E0EBC6EA60EBB6EC5
:1001E0001200110EBC6E170EBB6E1200130EBC6E09
:1001F000880EBB6E12001A0EBC6EDB0EBB6E1200B8
:10020000B90EBC6E8C0EBB6E1200B40EBC6EAA0E84
:10021000BB6E1200B20EBC6E390EBB6E1200AF0E7A
:10022000BC6EC80EBB6E1200A80EBC6E750EBB6E07
:100230001200F36EFE0EDBCFF4FFF350F45C1200FD
:10024000FE0EDB50006E016A0134120000509E0861
:10025000000E01541200D9CFE6FFE1CFD9FF000E06
:0402600019EF01F0A1
:0C026400060EF66E000EF76E000EF86E2F
:1002700000010900F550856F0900F550866F03E114
:10028000856701D03DD00900F550806F0900F55019
:10029000816F0900F550826F09000900F550E96E81
:1002A0000900F550EA6E090009000900F550836F56
:1002B0000900F550846F09000900F6CF87F0F7CFE9
:1002C00088F0F8CF89F080C0F6FF81C0F7FF82C0C8
:1002D000F8FF0001835302E1845307E00900F55061
:1002E000EE6E8307F8E28407F9D787C0F6FF88C06F
:1002F000F7FF89C0F8FF00018507000E865BBFD7B6
:020300001200E9
:0E030200000EF36E00EE00F0060E01D81200A1
:10031000EA6002D0EE6AFCD7F350E9601200EE6AA0
:02032000FCD708
:0E03220015EE00F025EE00F0F86A059C32ECB6
:0E03300001F00AEC00F00FEC00F0FBD7120019
:020000040030CA
:0100010002FC
:010002001AE3
:010003000EEE
:010005008377
:010006008178
:010008000FE8
:01000900C036
:01000A000FE6
:01000B00E014
:01000C000FE4
:01000D0040B2
:00000001FF
