:020000040000FA
:0600000081EF00F0120088
:020006000000F8
:08000800060EF66E000EF76E05
:10001000000EF86E00010900F550856F0900F550DB
:10002000866F03E1856701D03DD00900F550806FF0
:100030000900F550816F0900F550826F0900090031
:10004000F550E96E0900F550EA6E09000900090053
:10005000F550836F0900F550846F09000900F6CF51
:1000600087F0F7CF88F0F8CF89F080C0F6FF81C025
:10007000F7FF82C0F8FF0001835302E1845307E0D9
:100080000900F550EE6E8307F8E28407F9D787C0C0
:10009000F6FF88C0F7FF89C0F8FF00018507000E52
:0600A000865BBFD71200D1
:0A00A600D9CFE6FFE1CFD9FFFE0E2F
:1000B000DB5002E1F10E10D0FE0EDB0402E1F20E85
:1000C0000BD0FE0EDB50020802E1F40E05D0FE0E4E
:1000D000DB50030802E1F80E816EE552E7CFD9FF4D
:0200E00012000C
:0E00E200000EF36E00EE00F0060E01D81200C4
:1000F000EA6002D0EE6AFCD7F350E9601200EE6AC3
:02010000FCD72A
:0E01020015EE00F025EE00F0F86A019C04EC0A
:0E01100000F0C2EC00F08FEC00F0FBD7120004
:02011E00BFEC34
:1001200000F000018A6B030EE66E53EC00F0E5521E
:02013000F6D700
:0E013200120001D000D0D9CFE6FFE552E7CF92
:04014000D9FF1200D1
:0C01440002D001D000D0D9CFE6FFE55278
:06015000E7CFD9FF120009
:0A01560001D000D0D9CFE6FFE5523A
:06016000E7CFD9FF1200F9
:0A016600D9CFE6FFE552E7CFD9FF3D
:0201700012007B
:0C017200D9CFE6FFE552E7CFD9FF12001D
:02017E00816A94
:04018000936A12006C
:02018400120067
:020000040030CA
:0100010022DC
:0100020006F7
:010003000EEE
:0100050000FA
:010006008178
:010008000FE8
:01000900C036
:01000A000FE6
:01000B00E014
:01000C000FE4
:01000D0040B2
:00000001FF
