:020000040000FA
:0600000078EF00F0120091
:020006000000F8
:08000800060EF66E000EF76E05
:10001000000EF86E00010900F550856F0900F550DB
:10002000866F03E1856701D03DD00900F550806FF0
:100030000900F550816F0900F550826F0900090031
:10004000F550E96E0900F550EA6E09000900090053
:10005000F550836F0900F550846F09000900F6CF51
:1000600087F0F7CF88F0F8CF89F080C0F6FF81C025
:10007000F7FF82C0F8FF0001835302E1845307E0D9
:100080000900F550EE6E8307F8E28407F9D787C0C0
:10009000F6FF88C0F7FF89C0F8FF00018507000E52
:0600A000865BBFD71200D1
:0A00A60000018A5102E1F10E08D0BA
:1000B0008A0502E1F20E04D0020E8A5D03E1F40E1D
:1000C000816E1200030E8A5D02E1F80E816E12004D
:1000D000000EF36E00EE00F0060E01D81200EA608A
:1000E00002D0EE6AFCD7F350E9601200EE6AFCD74A
:1000F00015EE00F025EE00F0F86A019C04EC00F02B
:0C010000B9EC00F0A3EC00F0FBD71200FB
:04010C0000018A6BF9
:100110001200120001D000D0D9CFE6FFE552E7CFA0
:04012000D9FF1200F1
:0C01240002D001D000D0D9CFE6FFE55298
:06013000E7CFD9FF120029
:0A01360001D000D0D9CFE6FFE5525A
:06014000E7CFD9FF120019
:0A01460086EC00F0B6EC00F053EC7C
:0401500000F0FDD7E7
:0C015400D9CFE6FFE552E7CFD9FF12003B
:0C016000D9CFE6FFE552E7CFD9FF12002F
:04016C00816A936AA7
:0201700012007B
:02017200120079
:020000040030CA
:0100010022DC
:0100020006F7
:010003000EEE
:0100050000FA
:010006008178
:010008000FE8
:01000900C036
:01000A000FE6
:01000B00E014
:01000C000FE4
:01000D0040B2
:00000001FF
