:020000040000FA
:06000000C9EF01F012003F
:0A0006000100B003000098000000A4
:0400100002000000EA
:0C00140086D80001010E8D6F640EE66EB0
:10002000E66A8DC0E6FF6C0EE66E880EE66E130E75
:10003000E66EBBD8146E060EE15E14500001EDD7DB
:1000400005D9FE0EDB504C0804E0FE0EDB506C08B8
:1000500003E18388839C15D0FE0EDB50520804E038
:10006000FE0EDB50720803E18398838C17D0FE0EDE
:10007000DB50420804E0FE0EDB50620805E1839885
:10008000838C8380839218D0FE0EDB50460804E0F8
:10009000FE0EDB50660804E18388839C83900BD0BE
:1000A000FE0EDB50730804E0FE0EDB50530804E143
:1000B0008388838C83808382CED0C8D8040EE126C7
:1000C000D650DE6EDD6AD750E66ED950020FE96E6B
:1000D000DACFEAFFE552E750EE6EED6A020EDBCFB3
:1000E00016F0030E16C017F0166ADE501624146EB2
:1000F000DD501720156EFD0EDBCFE9FFFE0EDBCFC6
:10010000EAFF14C0EEFF15C0EDFF040EE15C02E251
:10011000E16AE552E16E9FD0D66AD76ACE6ACF6AAD
:10012000120000018C6B956A836A826A936A816A05
:1001300094808280F28EF28CD08E9F9AD58ED59C40
:10014000D58AD598D586CB68BD9ABD98BE6A040E6F
:10015000CA6E8C0EBD6E94948294120077D8020EF3
:10016000E1260868096AFD0EDBCF0DF0FE0EDBCF3D
:100170000EF085EC01F006C014F007C015F0640E17
:100180000D6E0E6A06C008F007C009F0A3EC01F07E
:1001900008C0DEFF09C0DDFFDF50BE6E020EE15C6D
:1001A00002E2E16AE552E16E56D050D800018C516E
:1001B00003E1FB0EDB5005E08C050CE1FB0EDB5090
:1001C00009E1730EE66E3CDFE552A6DF48D8000178
:1001D0008C5138D08C5116E1FB0EDB0413E19CDF0F
:1001E000FC0EDBCFE6FF2CDFE552F90EDBCFE6FF9E
:1001F000FA0EDBCFE6FFB2DFE552E5520001010E59
:100200008C6F23D08C0521E1FB0EDB041EE1880EF0
:10021000E66E000EE66E51DFE552E552FD0EDBCFD5
:1002200014F0FE0EDBCF15F000011450885D155060
:1002300089590AE314D870DF730EE66E01DFE552C8
:1002400000018C6B000E01D0010E05D0D9CFE6FF66
:10025000E1CFD9FF1200E552E7CFD9FF1200000E1F
:0C026000E66EE66A7BDFE552E552120014
:04026C00060EF66E16
:10027000000EF76E000EF86E00010900F550936F46
:100280000900F550946F03E1936701D03DD0090058
:10029000F5508E6F0900F5508F6F0900F550906F83
:1002A00009000900F550E96E0900F550EA6E0900F1
:1002B00009000900F550916F0900F550926F09008F
:1002C0000900F6CF95F0F7CF96F0F8CF97F08EC0F3
:1002D000F6FF8FC0F7FF90C0F8FF0001915302E1D5
:1002E000925307E00900F550EE6E9107F8E292078D
:1002F000F9D795C0F6FF96C0F7FF97C0F8FF000149
:0A0300009307000E945BBFD71200B4
:06030A0008C012F00850CB
:100310000D02F4CF07F0F3CF06F009500E02F4CF30
:1003200009F0F3CF08F00D02F3500726F45008222D
:10033000E86A092212500E02F3500726F4500822F0
:06034000E86A0922000C2E
:0A034600056A046A100EE76ED890F5
:1003500008360936043605360D50045C0E50055833
:1003600005E30D50045E0E50055A082AE72EF0D71B
:02037000120079
:0E037200000EF36E00EE00F0060E01D8120031
:10038000EA6002D0EE6AFCD7F350E9601200EE6A30
:02039000FCD798
:0E03920015EE00F025EE00F0F86A019C36EC46
:0E03A00001F0D7EC01F00AEC00F0FBD71200E0
:0203AE0012003B
:0203B00000004B
:020000040030CA
:0100010002FC
:010002001AE3
:010003000EEE
:010005008377
:010006008178
:010008000FE8
:01000900C036
:01000A000FE6
:01000B00E014
:01000C000FE4
:01000D0040B2
:00000001FF
