:020000040000FA
:0600000087EF01F0120081
:020006001200E6
:060008001BEF00F01200E6
:02000E000100EF
:0C0010002A030000920000000D00000018
:04001C009BD8ADD8E8
:1000200093D88388839483808392000187518811B9
:10003000FCE0B2D8FAD7DACFE4FFE2CFDAFFE9CFBB
:10004000E4FFEACFE4FFE652F4D8AE50E4D8EF6E16
:10005000FCD8770803E1050EBE2405D0F6D8730856
:1000600004E1050EBE5CBE6E22D0EFD864080DE13F
:10007000B750006E016A800E001804E1015002E1E1
:10008000B76A15D0040EB72409D0DFD8610808E19B
:10009000B75002E1800E02D0040EB75CB76E07D0F5
:1000A000D4D86F0804E18378837C83708372CDD8C1
:1000B0000D0806E1010E0001876F886BACD8EF6A6E
:1000C0000001860E8B5D000E8C5928E3DE6ADD6A26
:1000D000DE6ADD6ADECF00F0DDCF01F0D89001509E
:1000E00004E6070E005C000E01581CE2A9D8010EC0
:1000F000E926000EEA22800EE926000EEA22EF50E1
:10010000E66E9ED8800EE926000EEA22E552E75000
:10011000EF6EDF2A010EDEE3DB2ADCD77CD88B2BE7
:10012000000E8C239E6A020EE15C02E2E16AE55257
:10013000E16EE552E7CFD9FFE552E5CFEAFFE5CF23
:10014000E9FFE5CFDAFF1100F294BE68300EBD1270
:10015000B76A1200C00EF26E200E9D6E9F6E800E6A
:10016000D06E946E260EAC6E400EAF6E900EAB6EDF
:10017000000156D8876B886B1200CB68BE6A826A12
:10018000956A836A936A816A040ECA6E8E0EBD6E8A
:100190001200ACA2FED712004CD8DE6ADD6ADECFB8
:1001A00004F0DDCF05F00D0E045C000E05580DE2E5
:1001B000F0DF46D8920EE926000EEA22EF50AD6E2F
:1001C000DF2A010EECE3DB2AEAD78DC0E9FF8EC0FF
:1001D000EAFFEF500CE0DDDF00018DC0E9FF8EC0CB
:1001E000EAFF8D2B000E8E23EF50AD6EEED7D1DFE0
:1001F0000D0EAD6ECEDF0A0EAD6E0001876B886B03
:100200000FD8020EE15C02E2E16AE552E16EE552CE
:10021000E7CFD9FF12008BC0E9FF8CC0EAFF1200C4
:10022000800E8D6F000E8E6F800E8B6F000E8C6FA8
:100230001200D9CFE6FFE1CFD9FF020EE12612006E
:10024000DECFE9FFDDCFEAFF1200E5DFEF5012005D
:100250000E0EF66E000EF76E000EF86E000109002D
:10026000F550A46F0900F550A56F03E1A46701D014
:100270003DD00900F5509F6F0900F550A06F0900AF
:10028000F550A16F09000900F550E96E0900F5501D
:10029000EA6E090009000900F550A26F0900F55047
:1002A000A36F09000900F6CFA6F0F7CFA7F0F8CFAB
:1002B000A8F09FC0F6FFA0C0F7FFA1C0F8FF0001A3
:1002C000A25302E1A35307E00900F550EE6EA20726
:1002D000F8E2A307F9D7A6C0F6FFA7C0F7FFA8C0AA
:0E02E000F8FF0001A407000EA55BBFD71200B7
:0202EE00000E00
:1002F000F36E00EE00F0060E01D81200EA6002D0A4
:0E030000EE6AFCD7F350E9601200EE6AFCD7FB
:02030E0015EEEA
:1003100000F025EE00F0F86A039C28EC01F003ECF5
:0A03200000F00EEC00F0FBD7120015
:06032A000D0A596F752059
:07033000736169643A2000CB
:020000040030CA
:0100010002FC
:010002001AE3
:010003000EEE
:010005008377
:010006008178
:010008000FE8
:01000900C036
:01000A000FE6
:01000B00E014
:01000C000FE4
:01000D0040B2
:00000001FF
