:020000040000FA
:0600000006EF03F0120000
:020006000000F8
:080008002B0EE66E6EEC00F019
:10001000E5521200D9CFE6FFE1CFD9FFAFEC02F0F5
:100020000009FCE1010EE66E20EC02F0E552AFECB7
:1000300002F00009FCE1800EE66E20EC02F0E552D1
:10004000AFEC02F00009FCE108EC01F0FD0EDBCFA3
:1000500000F0FE0EDBCF01F0026A00C0E6FF01C037
:10006000E6FF02C0E6FF7AEC01F0E552E552E55208
:10007000E552E7CFD9FF1200D9CFE6FFE1CFD9FF94
:10008000AFEC02F00009FCE1010EE66E20EC02F09C
:10009000E552AFEC02F00009FCE1C00EE66E20EC88
:1000A00002F0E552AFEC02F00009FCE108EC01F0CF
:1000B000FD0EDBCF00F0FE0EDBCF01F0026A00C0C8
:1000C000E6FF01C0E6FF02C0E6FF7AEC01F0E55270
:0C00D000E552E552E552E7CFD9FF1200DF
:0400DC00D9CFE6FF93
:1000E000E1CFD9FF0F0E83169516959295949590B2
:1000F0008C928C948C90E4EC00F0300EE66E20EC48
:1001000002F0E552050EE66ECAEC02F0E552300E42
:10011000E66E20EC02F0E552010EE66ECAEC02F04B
:10012000E552320EE66E20EC02F0E552AFEC02F042
:100130000009FCE1AFEC02F00009FCE1FE0EDBCFB0
:10014000E6FF20EC02F0E552AFEC02F00009FCE122
:10015000080EE66E20EC02F0E552AFEC02F000096A
:10016000FCE10F0EE66E20EC02F0E552AFEC02F07F
:100170000009FCE1010EE66E20EC02F0E552AFEC66
:1001800002F00009FCE1130EE66E20EC02F0E552ED
:10019000AFEC02F00009FCE1800EE66EACEC01F081
:0A01A000E552E552E7CFD9FF120047
:0601AA000000000000004F
:1001B000000000000000000000000000000000003F
:1001C0000000000000001200D9CFE6FFE1CFD9FF08
:1001D000020EE126420EDE6E0B0EDD6E0000000008
:1001E00000000000D9CFE9FFDACFEAFFEE50ED10B2
:1001F00005E0DF06010E01E2DB06F4D7020EE15C4A
:1002000002E2E16AE552E16EE552E7CFD9FF120062
:10021000D9CFE6FFE1CFD9FF020EE126BF0EDE6E99
:10022000030EDD6E000000000000D9CFE9FFDACF39
:10023000EAFFEE50ED1005E0DF06010E01E2DB06FD
:10024000F4D7020EE15C02E2E16AE552E16EE552AA
:06025000E7CFD9FF120008
:0A025600060EF66E000EF76E000EA5
:10026000F86E00010900F550856F0900F550866FA2
:1002700003E1856701D03DD00900F550806F09008A
:10028000F550816F0900F550826F09000900F550A3
:10029000E96E0900F550EA6E090009000900F55001
:1002A000836F0900F550846F09000900F6CF87F0CD
:1002B000F7CF88F0F8CF89F080C0F6FF81C0F7FF54
:1002C00082C0F8FF0001835302E1845307E0090074
:1002D000F550EE6E8307F8E28407F9D787C0F6FF82
:1002E00088C0F7FF89C0F8FF00018507000E865B14
:0402F000BFD7120062
:0C02F400D9CFE6FFE1CFD9FFFC0EDBCF35
:10030000F6FFFD0EDBCFF7FFFE0EDBCFF8FF080098
:10031000F5501EE0AFEC02F00009FCE1FC0EDBCF73
:10032000F6FFFD0EDBCFF7FFFE0EDBCFF8FF080078
:10033000F550E66EFAEC01F0E552D950FC0FE96E8B
:10034000FF0EDA20EA6EEE2A000EEE22EE22D6D75B
:08035000E552E7CFD9FF1200CE
:08035800D9CFE6FFE1CFD9FF88
:100360000F0E95168316FE0EDB508009F00B8312DC
:100370008C928C94D5EC00F08C80D5EC00F08C90B5
:100380000F0E8316FE0EDB38F00BF00B8312D5EC4C
:1003900000F08C80D5EC00F08C90F00E9512E552B8
:0603A000E7CFD9FF1200B7
:0A03A600D9CFE6FFE1CFD9FF0F0E1B
:1003B00095168316FE0EDB504009F00B83128C92CB
:1003C0008C94D5EC00F08C80D5EC00F08C900F0E66
:1003D0008316FE0EDB38F00BF00B8312D5EC00F029
:1003E0008C80D5EC00F08C90F00E9512E552E7CFA2
:0403F000D9FF12001F
:0C03F400D9CFE6FFE1CFD9FF0F0E951620
:100400008316FE0EDB50F00B83128C848C92D5EC9D
:1004100000F08C80D5EC00F08C900F0E8316FE0E51
:10042000DB38F00BF00B8312D5EC00F08C80D5ECB0
:1004300000F08C90F00E9512E552E7CFD9FF120034
:10044000D9CFE6FFE1CFD9FF0F0E95168316FE0E2A
:10045000DB50F00B83128C928C94D5EC00F08C80E6
:10046000D5EC00F08C900F0E8316FE0EDB38F00BEF
:10047000F00B8312D5EC00F08C80D5EC00F08C9062
:0C048000F00E9512E552E7CFD9FF1200F4
:04048C00D9CFE6FFDF
:10049000E1CFD9FFFD0EDBCFE9FFFE0EDBCFEAFF98
:1004A000EF5015E0AFEC02F00009FCE1FD0EDBCFF0
:1004B000E9FFFE0EDBCFEAFFEF50E66EFAEC01F04B
:1004C000E552FD0EDB2AFE0EE5E3DB2AE3D7E5521B
:0604D000E7CFD9FF120086
:0A04D600D9CFE6FFE1CFD9FFE652CF
:1004E0008C828C84D5EC00F08C80D5EC00F0F00E82
:1004F0008314DF6E8C90D5EC00F08C80D5EC00F08E
:1005000083380F0B0F0BDF128C908C948C92DF5082
:0A051000E552E552E7CFD9FF1200D3
:06051A00D9CFE6FFE1CF9E
:10052000D9FFE6528C828C94D5EC00F08C80D5EC0F
:1005300000F0F00E8314DF6E8C90D5EC00F08C8010
:10054000D5EC00F083380F0B0F0BDF128C908C92E0
:0E0550007F0EDF14E552E552E7CFD9FF12000F
:02055E008C828D
:100560008C94D5EC00F08C80D5EC00F083AE09D0F3
:100570008C90D5EC00F08C80D5EC00F08C908C92B7
:10058000010C8C90D5EC00F08C80D5EC00F08C90B8
:040590008C92000C3D
:0C059400FF0EE350066EEF0E01D0F30ED8
:1005A000E76EE72ED1EF02F00C0E056EE76AE72E3C
:1005B000D7EF02F0052ED6EF02F0062ECFEF02F0B5
:0205C000120027
:0E05C200D08EF18E1F0E936EF288F282F18CB5
:1005D000F086F09CF080F18AF098F092F290F2862A
:0C05E000F180120004EC00F0E1EF02F0EA
:0405EC00000EF36E9C
:1005F00000EE00F0060E01D81200EA6002D0EE6AAA
:0C060000FCD7F350E9601200EE6AFCD752
:04060C0015EE00F0F7
:1006100025EE00F0F86A049C2BEC01F014EC03F0DA
:08062000F2EC02F0FBD712001E
:020628001200BE
:020000040030CA
:0100010002FC
:010002001AE3
:010003000EEE
:010005008377
:010006008178
:010008000FE8
:01000900C036
:01000A000FE6
:01000B00E014
:01000C000FE4
:01000D0040B2
:00000001FF
